{
  "_format": "hh-sol-artifact-1",
  "contractName": "ContractHandle",
  "sourceName": "contracts/ContractHandle.sol",
  "abi": [
    {
      "inputs": [
        {
          "internalType": "contract TokenERC20",
          "name": "_tokenERC20",
          "type": "address"
        },
        {
          "internalType": "contract TokenERC721",
          "name": "_tokenERC721",
          "type": "address"
        }
      ],
      "stateMutability": "nonpayable",
      "type": "constructor"
    },
    {
      "inputs": [],
      "name": "MathOverflowedMulDiv",
      "type": "error"
    },
    {
      "inputs": [
        {
          "internalType": "address",
          "name": "owner",
          "type": "address"
        }
      ],
      "name": "OwnableInvalidOwner",
      "type": "error"
    },
    {
      "inputs": [
        {
          "internalType": "address",
          "name": "account",
          "type": "address"
        }
      ],
      "name": "OwnableUnauthorizedAccount",
      "type": "error"
    },
    {
      "inputs": [],
      "name": "ReentrancyGuardReentrantCall",
      "type": "error"
    },
    {
      "anonymous": false,
      "inputs": [
        {
          "indexed": true,
          "internalType": "address",
          "name": "_from",
          "type": "address"
        },
        {
          "indexed": true,
          "internalType": "address",
          "name": "_to",
          "type": "address"
        },
        {
          "indexed": false,
          "internalType": "uint256",
          "name": "_amount",
          "type": "uint256"
        }
      ],
      "name": "ClaimTokenA",
      "type": "event"
    },
    {
      "anonymous": false,
      "inputs": [
        {
          "indexed": true,
          "internalType": "address",
          "name": "_from",
          "type": "address"
        },
        {
          "indexed": true,
          "internalType": "address",
          "name": "_to",
          "type": "address"
        },
        {
          "indexed": false,
          "internalType": "uint256",
          "name": "_amount",
          "type": "uint256"
        }
      ],
      "name": "DepositNFTB",
      "type": "event"
    },
    {
      "anonymous": false,
      "inputs": [
        {
          "indexed": true,
          "internalType": "address",
          "name": "_from",
          "type": "address"
        },
        {
          "indexed": true,
          "internalType": "address",
          "name": "_to",
          "type": "address"
        },
        {
          "indexed": false,
          "internalType": "uint256",
          "name": "_amount",
          "type": "uint256"
        }
      ],
      "name": "MintedNFTB",
      "type": "event"
    },
    {
      "anonymous": false,
      "inputs": [
        {
          "indexed": true,
          "internalType": "address",
          "name": "operator",
          "type": "address"
        },
        {
          "indexed": true,
          "internalType": "address",
          "name": "from",
          "type": "address"
        },
        {
          "indexed": true,
          "internalType": "uint256",
          "name": "tokenId",
          "type": "uint256"
        },
        {
          "indexed": false,
          "internalType": "bytes",
          "name": "data",
          "type": "bytes"
        }
      ],
      "name": "NFTReceived",
      "type": "event"
    },
    {
      "anonymous": false,
      "inputs": [
        {
          "indexed": true,
          "internalType": "address",
          "name": "previousOwner",
          "type": "address"
        },
        {
          "indexed": true,
          "internalType": "address",
          "name": "newOwner",
          "type": "address"
        }
      ],
      "name": "OwnershipTransferred",
      "type": "event"
    },
    {
      "anonymous": false,
      "inputs": [
        {
          "indexed": true,
          "internalType": "address",
          "name": "_from",
          "type": "address"
        },
        {
          "indexed": true,
          "internalType": "address",
          "name": "_to",
          "type": "address"
        },
        {
          "indexed": false,
          "internalType": "uint256",
          "name": "_amount",
          "type": "uint256"
        }
      ],
      "name": "TokenADeposit",
      "type": "event"
    },
    {
      "anonymous": false,
      "inputs": [
        {
          "indexed": true,
          "internalType": "address",
          "name": "admin",
          "type": "address"
        },
        {
          "indexed": false,
          "internalType": "uint256",
          "name": "_newBaseAPR",
          "type": "uint256"
        }
      ],
      "name": "UpdateAPR",
      "type": "event"
    },
    {
      "anonymous": false,
      "inputs": [
        {
          "indexed": true,
          "internalType": "address",
          "name": "_from",
          "type": "address"
        },
        {
          "indexed": true,
          "internalType": "address",
          "name": "_to",
          "type": "address"
        },
        {
          "indexed": false,
          "internalType": "uint256",
          "name": "_amount",
          "type": "uint256"
        }
      ],
      "name": "WithdrawNFTB",
      "type": "event"
    },
    {
      "anonymous": false,
      "inputs": [
        {
          "indexed": true,
          "internalType": "address",
          "name": "_from",
          "type": "address"
        },
        {
          "indexed": true,
          "internalType": "address",
          "name": "_to",
          "type": "address"
        },
        {
          "indexed": false,
          "internalType": "uint256",
          "name": "_amount",
          "type": "uint256"
        }
      ],
      "name": "WithdrawTokenA",
      "type": "event"
    },
    {
      "anonymous": false,
      "inputs": [
        {
          "indexed": false,
          "internalType": "uint256",
          "name": "data",
          "type": "uint256"
        },
        {
          "indexed": false,
          "internalType": "address",
          "name": "_from",
          "type": "address"
        },
        {
          "indexed": false,
          "internalType": "address",
          "name": "_to",
          "type": "address"
        }
      ],
      "name": "getData",
      "type": "event"
    },
    {
      "inputs": [],
      "name": "MINIMUM_DEPOSIT_FOR_CERTIFICATE",
      "outputs": [
        {
          "internalType": "uint256",
          "name": "",
          "type": "uint256"
        }
      ],
      "stateMutability": "view",
      "type": "function"
    },
    {
      "inputs": [
        {
          "internalType": "address",
          "name": "_address",
          "type": "address"
        }
      ],
      "name": "balaceOfERC20",
      "outputs": [
        {
          "internalType": "uint256",
          "name": "",
          "type": "uint256"
        }
      ],
      "stateMutability": "view",
      "type": "function"
    },
    {
      "inputs": [],
      "name": "balaceOfERC20TotalSupply",
      "outputs": [
        {
          "internalType": "uint256",
          "name": "",
          "type": "uint256"
        }
      ],
      "stateMutability": "view",
      "type": "function"
    },
    {
      "inputs": [
        {
          "internalType": "address",
          "name": "_address",
          "type": "address"
        }
      ],
      "name": "balaceOfERC721",
      "outputs": [
        {
          "internalType": "uint256",
          "name": "",
          "type": "uint256"
        }
      ],
      "stateMutability": "view",
      "type": "function"
    },
    {
      "inputs": [],
      "name": "balaceOfERC721TotalSupply",
      "outputs": [
        {
          "internalType": "uint256",
          "name": "",
          "type": "uint256"
        }
      ],
      "stateMutability": "view",
      "type": "function"
    },
    {
      "inputs": [],
      "name": "baseAPR",
      "outputs": [
        {
          "internalType": "uint256",
          "name": "",
          "type": "uint256"
        }
      ],
      "stateMutability": "view",
      "type": "function"
    },
    {
      "inputs": [],
      "name": "bonusAPR",
      "outputs": [
        {
          "internalType": "uint256",
          "name": "",
          "type": "uint256"
        }
      ],
      "stateMutability": "view",
      "type": "function"
    },
    {
      "inputs": [],
      "name": "calculateRewardERC20",
      "outputs": [
        {
          "internalType": "uint256",
          "name": "",
          "type": "uint256"
        }
      ],
      "stateMutability": "view",
      "type": "function"
    },
    {
      "inputs": [],
      "name": "claimRewardERC20",
      "outputs": [],
      "stateMutability": "nonpayable",
      "type": "function"
    },
    {
      "inputs": [
        {
          "internalType": "uint256",
          "name": "_amount",
          "type": "uint256"
        }
      ],
      "name": "depositERC20",
      "outputs": [],
      "stateMutability": "nonpayable",
      "type": "function"
    },
    {
      "inputs": [
        {
          "internalType": "uint256[]",
          "name": "tokenIds",
          "type": "uint256[]"
        }
      ],
      "name": "depositNFTB",
      "outputs": [],
      "stateMutability": "nonpayable",
      "type": "function"
    },
    {
      "inputs": [
        {
          "internalType": "uint256",
          "name": "_amount",
          "type": "uint256"
        }
      ],
      "name": "faucetERC20",
      "outputs": [],
      "stateMutability": "nonpayable",
      "type": "function"
    },
    {
      "inputs": [],
      "name": "getCurrentRewardERC20",
      "outputs": [
        {
          "internalType": "uint256",
          "name": "",
          "type": "uint256"
        }
      ],
      "stateMutability": "view",
      "type": "function"
    },
    {
      "inputs": [
        {
          "internalType": "address",
          "name": "_address",
          "type": "address"
        }
      ],
      "name": "getOwnedNFTs",
      "outputs": [
        {
          "internalType": "uint256[]",
          "name": "",
          "type": "uint256[]"
        }
      ],
      "stateMutability": "view",
      "type": "function"
    },
    {
      "inputs": [
        {
          "internalType": "address",
          "name": "_address",
          "type": "address"
        }
      ],
      "name": "getStakingInfo",
      "outputs": [
        {
          "components": [
            {
              "internalType": "uint256",
              "name": "totalAmountERC20",
              "type": "uint256"
            },
            {
              "internalType": "uint256",
              "name": "APR",
              "type": "uint256"
            },
            {
              "internalType": "uint256",
              "name": "bonusAPR",
              "type": "uint256"
            },
            {
              "internalType": "uint256",
              "name": "startTimeDeposit",
              "type": "uint256"
            },
            {
              "internalType": "uint256",
              "name": "totalRewardERC20",
              "type": "uint256"
            },
            {
              "internalType": "uint256",
              "name": "mintNFTbCount",
              "type": "uint256"
            },
            {
              "internalType": "uint256",
              "name": "totalAmountERC721",
              "type": "uint256"
            },
            {
              "internalType": "uint256",
              "name": "startTimeDepositNFTB",
              "type": "uint256"
            },
            {
              "internalType": "uint256[]",
              "name": "tokenId",
              "type": "uint256[]"
            }
          ],
          "internalType": "struct ContractHandle.StakingInfo",
          "name": "",
          "type": "tuple"
        }
      ],
      "stateMutability": "view",
      "type": "function"
    },
    {
      "inputs": [],
      "name": "lockTime",
      "outputs": [
        {
          "internalType": "uint256",
          "name": "",
          "type": "uint256"
        }
      ],
      "stateMutability": "view",
      "type": "function"
    },
    {
      "inputs": [
        {
          "internalType": "address",
          "name": "",
          "type": "address"
        }
      ],
      "name": "mintNFTbCount",
      "outputs": [
        {
          "internalType": "uint256",
          "name": "",
          "type": "uint256"
        }
      ],
      "stateMutability": "view",
      "type": "function"
    },
    {
      "inputs": [
        {
          "internalType": "address",
          "name": "operator",
          "type": "address"
        },
        {
          "internalType": "address",
          "name": "from",
          "type": "address"
        },
        {
          "internalType": "uint256",
          "name": "tokenId",
          "type": "uint256"
        },
        {
          "internalType": "bytes",
          "name": "data",
          "type": "bytes"
        }
      ],
      "name": "onERC721Received",
      "outputs": [
        {
          "internalType": "bytes4",
          "name": "",
          "type": "bytes4"
        }
      ],
      "stateMutability": "nonpayable",
      "type": "function"
    },
    {
      "inputs": [],
      "name": "owner",
      "outputs": [
        {
          "internalType": "address",
          "name": "",
          "type": "address"
        }
      ],
      "stateMutability": "view",
      "type": "function"
    },
    {
      "inputs": [],
      "name": "renounceOwnership",
      "outputs": [],
      "stateMutability": "nonpayable",
      "type": "function"
    },
    {
      "inputs": [
        {
          "internalType": "address",
          "name": "",
          "type": "address"
        }
      ],
      "name": "stakingInfo",
      "outputs": [
        {
          "internalType": "uint256",
          "name": "totalAmountERC20",
          "type": "uint256"
        },
        {
          "internalType": "uint256",
          "name": "APR",
          "type": "uint256"
        },
        {
          "internalType": "uint256",
          "name": "bonusAPR",
          "type": "uint256"
        },
        {
          "internalType": "uint256",
          "name": "startTimeDeposit",
          "type": "uint256"
        },
        {
          "internalType": "uint256",
          "name": "totalRewardERC20",
          "type": "uint256"
        },
        {
          "internalType": "uint256",
          "name": "mintNFTbCount",
          "type": "uint256"
        },
        {
          "internalType": "uint256",
          "name": "totalAmountERC721",
          "type": "uint256"
        },
        {
          "internalType": "uint256",
          "name": "startTimeDepositNFTB",
          "type": "uint256"
        }
      ],
      "stateMutability": "view",
      "type": "function"
    },
    {
      "inputs": [],
      "name": "tokenERC20",
      "outputs": [
        {
          "internalType": "contract TokenERC20",
          "name": "",
          "type": "address"
        }
      ],
      "stateMutability": "view",
      "type": "function"
    },
    {
      "inputs": [],
      "name": "tokenERC721",
      "outputs": [
        {
          "internalType": "contract TokenERC721",
          "name": "",
          "type": "address"
        }
      ],
      "stateMutability": "view",
      "type": "function"
    },
    {
      "inputs": [
        {
          "internalType": "address",
          "name": "newOwner",
          "type": "address"
        }
      ],
      "name": "transferOwnership",
      "outputs": [],
      "stateMutability": "nonpayable",
      "type": "function"
    },
    {
      "inputs": [
        {
          "internalType": "uint256",
          "name": "newBaseAPR",
          "type": "uint256"
        }
      ],
      "name": "updateAPR",
      "outputs": [],
      "stateMutability": "nonpayable",
      "type": "function"
    },
    {
      "inputs": [
        {
          "internalType": "uint256[]",
          "name": "tokenId",
          "type": "uint256[]"
        }
      ],
      "name": "withRewardNFTB",
      "outputs": [],
      "stateMutability": "nonpayable",
      "type": "function"
    },
    {
      "inputs": [],
      "name": "withdrawRewardERC20",
      "outputs": [],
      "stateMutability": "nonpayable",
      "type": "function"
    }
  ],
  "bytecode": "0x608060405261032060045560c8600555601e6006553480156200002157600080fd5b50604051620035fc380380620035fc8339818101604052810190620000479190620002ea565b336001600081905550600073ffffffffffffffffffffffffffffffffffffffff168173ffffffffffffffffffffffffffffffffffffffff1603620000c55760006040517f1e4fbdf7000000000000000000000000000000000000000000000000000000008152600401620000bc919062000342565b60405180910390fd5b620000d6816200016160201b60201c565b5081600260006101000a81548173ffffffffffffffffffffffffffffffffffffffff021916908373ffffffffffffffffffffffffffffffffffffffff16021790555080600360006101000a81548173ffffffffffffffffffffffffffffffffffffffff021916908373ffffffffffffffffffffffffffffffffffffffff16021790555050506200035f565b6000600160009054906101000a900473ffffffffffffffffffffffffffffffffffffffff16905081600160006101000a81548173ffffffffffffffffffffffffffffffffffffffff021916908373ffffffffffffffffffffffffffffffffffffffff1602179055508173ffffffffffffffffffffffffffffffffffffffff168173ffffffffffffffffffffffffffffffffffffffff167f8be0079c531659141344cd1fd0a4f28419497f9722a3daafe3b4186f6b6457e060405160405180910390a35050565b600080fd5b600073ffffffffffffffffffffffffffffffffffffffff82169050919050565b600062000259826200022c565b9050919050565b60006200026d826200024c565b9050919050565b6200027f8162000260565b81146200028b57600080fd5b50565b6000815190506200029f8162000274565b92915050565b6000620002b2826200024c565b9050919050565b620002c481620002a5565b8114620002d057600080fd5b50565b600081519050620002e481620002b9565b92915050565b6000806040838503121562000304576200030362000227565b5b600062000314858286016200028e565b92505060206200032785828601620002d3565b9150509250929050565b6200033c816200024c565b82525050565b600060208201905062000359600083018462000331565b92915050565b61328d806200036f6000396000f3fe608060405234801561001057600080fd5b50600436106101a95760003560e01c80638cb8564d116100f9578063b79092fd11610097578063de9ad13411610071578063de9ad1341461048f578063e7e2629e146104bf578063e9adc770146104db578063f2fde38b146104f9576101a9565b8063b79092fd14610437578063bcd19e7014610453578063ce55f94714610471576101a9565b80639b3a6c88116100d35780639b3a6c88146103af5780639d143e8e146103cb578063aa4704f3146103e9578063b3a36f1e14610419576101a9565b80638cb8564d1461032a5780638da5cb5b1461035a57806394eecb5014610378576101a9565b8063556e7cee11610166578063631c46a111610140578063631c46a1146102b65780636a78c7d2146102e65780637098692e14610302578063715018a614610320576101a9565b8063556e7cee1461028457806358ac0e801461028e5780636014a449146102ac576101a9565b80630882e64e146101ae5780630d668087146101cc578063150b7a02146101ea57806318148f1b1461021a57806336ed1f0d1461024a5780634ca903ba14610266575b600080fd5b6101b6610515565b6040516101c3919061214c565b60405180910390f35b6101d46105de565b6040516101e1919061214c565b60405180910390f35b61020460048036038101906101ff919061226a565b6105e4565b604051610211919061232d565b60405180910390f35b610234600480360381019061022f9190612348565b610661565b6040516102419190612433565b60405180910390f35b610264600480360381019061025f91906124ab565b61070b565b005b61026e610afe565b60405161027b919061214c565b60405180910390f35b61028c610b96565b005b610296610e49565b6040516102a3919061214c565b60405180910390f35b6102b4610e4f565b005b6102d060048036038101906102cb9190612348565b611002565b6040516102dd919061214c565b60405180910390f35b61030060048036038101906102fb91906124ab565b61101a565b005b61030a6113d7565b604051610317919061214c565b60405180910390f35b610328611438565b005b610344600480360381019061033f9190612348565b61144c565b604051610351919061214c565b60405180910390f35b6103626114f1565b60405161036f9190612507565b60405180910390f35b610392600480360381019061038d9190612348565b61151b565b6040516103a6989796959493929190612522565b60405180910390f35b6103c960048036038101906103c491906125a0565b611563565b005b6103d3611638565b6040516103e0919061262c565b60405180910390f35b61040360048036038101906103fe9190612348565b61165e565b604051610410919061277b565b60405180910390f35b610421611760565b60405161042e919061214c565b60405180910390f35b610451600480360381019061044c91906125a0565b611766565b005b61045b611be4565b604051610468919061214c565b60405180910390f35b610479611c7c565b604051610486919061214c565b60405180910390f35b6104a960048036038101906104a49190612348565b611c8a565b6040516104b6919061214c565b60405180910390f35b6104d960048036038101906104d491906125a0565b611d2f565b005b6104e3611d8f565b6040516104f091906127be565b60405180910390f35b610513600480360381019061050e9190612348565b611db5565b005b600080600760003373ffffffffffffffffffffffffffffffffffffffff1673ffffffffffffffffffffffffffffffffffffffff168152602001908152602001600020905060008160000154905060008103610575576000925050506105db565b6000826003015490506000810361059257600093505050506105db565b600081426105a09190612808565b905060006105d085600201546004546105b9919061283c565b856105c49190612870565b83644979cb9e00611e3b565b905080955050505050505b90565b60065481565b6000838573ffffffffffffffffffffffffffffffffffffffff168773ffffffffffffffffffffffffffffffffffffffff167f1d823cdc8f0514a95b53538df2d2f3deaf98d1c534c6e750daa593173c27f8f08686604051610646929190612910565b60405180910390a463150b7a0260e01b905095945050505050565b6060600360009054906101000a900473ffffffffffffffffffffffffffffffffffffffff1673ffffffffffffffffffffffffffffffffffffffff1663d9d61655836040518263ffffffff1660e01b81526004016106be9190612507565b600060405180830381865afa1580156106db573d6000803e3d6000fd5b505050506040513d6000823e3d601f19601f820116820180604052508101906107049190612a87565b9050919050565b610713611f42565b60008282905011610759576040517f08c379a000000000000000000000000000000000000000000000000000000000815260040161075090612b2d565b60405180910390fd5b6000600760003373ffffffffffffffffffffffffffffffffffffffff1673ffffffffffffffffffffffffffffffffffffffff168152602001908152602001600020905060005b838390508110156108df573373ffffffffffffffffffffffffffffffffffffffff16600360009054906101000a900473ffffffffffffffffffffffffffffffffffffffff1673ffffffffffffffffffffffffffffffffffffffff16636352211e86868581811061081257610811612b4d565b5b905060200201356040518263ffffffff1660e01b8152600401610835919061214c565b602060405180830381865afa158015610852573d6000803e3d6000fd5b505050506040513d601f19601f820116820180604052508101906108769190612b91565b73ffffffffffffffffffffffffffffffffffffffff16146108cc576040517f08c379a00000000000000000000000000000000000000000000000000000000081526004016108c390612c0a565b60405180910390fd5b80806108d790612c2a565b91505061079f565b5060005b83839050811015610a6d57600360009054906101000a900473ffffffffffffffffffffffffffffffffffffffff1673ffffffffffffffffffffffffffffffffffffffff16639e872ce9333087878681811061094157610940612b4d565b5b905060200201356040518463ffffffff1660e01b815260040161096693929190612c72565b600060405180830381600087803b15801561098057600080fd5b505af1158015610994573d6000803e3d6000fd5b50505050816008018484838181106109af576109ae612b4d565b5b9050602002013590806001815401808255809150506001900390600052602060002001600090919091909150553073ffffffffffffffffffffffffffffffffffffffff163373ffffffffffffffffffffffffffffffffffffffff167f5811b77bb51f13eac3d0b2fc9fb06884571a9626da5f128ee9d2c576682c9eb4868685818110610a3e57610a3d612b4d565b5b90506020020135604051610a52919061214c565b60405180910390a38080610a6590612c2a565b9150506108e3565b50610a76610515565b816004016000828254610a89919061283c565b9250508190555042816003018190555082829050816006016000828254610ab0919061283c565b92505081905550428160070181905550600083839050600554610ad39190612870565b905080826002016000828254610ae9919061283c565b925050819055505050610afa611f88565b5050565b6000600360009054906101000a900473ffffffffffffffffffffffffffffffffffffffff1673ffffffffffffffffffffffffffffffffffffffff166322a579cb6040518163ffffffff1660e01b8152600401602060405180830381865afa158015610b6d573d6000803e3d6000fd5b505050506040513d601f19601f82011682018060405250810190610b919190612ca9565b905090565b6000600760003373ffffffffffffffffffffffffffffffffffffffff1673ffffffffffffffffffffffffffffffffffffffff16815260200190815260200160002090506006548160030154610beb919061283c565b421015610c2d576040517f08c379a0000000000000000000000000000000000000000000000000000000008152600401610c2490612d22565b60405180910390fd5b6000816000015411610c74576040517f08c379a0000000000000000000000000000000000000000000000000000000008152600401610c6b90612db4565b60405180910390fd5b6000610c7e610515565b8260040154610c8d919061283c565b9050600082600001549050600260009054906101000a900473ffffffffffffffffffffffffffffffffffffffff1673ffffffffffffffffffffffffffffffffffffffff1663ddadda6b33836040518363ffffffff1660e01b8152600401610cf5929190612dd4565b600060405180830381600087803b158015610d0f57600080fd5b505af1158015610d23573d6000803e3d6000fd5b50505050600260009054906101000a900473ffffffffffffffffffffffffffffffffffffffff1673ffffffffffffffffffffffffffffffffffffffff1663499ff3ef33846040518363ffffffff1660e01b8152600401610d84929190612dd4565b600060405180830381600087803b158015610d9e57600080fd5b505af1158015610db2573d6000803e3d6000fd5b505050503373ffffffffffffffffffffffffffffffffffffffff163073ffffffffffffffffffffffffffffffffffffffff167fb7365ffa3903260fb80be296ce69fddb6e16deef08673f35467c89b4f58d244a8484610e11919061283c565b604051610e1e919061214c565b60405180910390a3600083600001819055506000836004018190555060008360030181905550505050565b60045481565b6000600760003373ffffffffffffffffffffffffffffffffffffffff1673ffffffffffffffffffffffffffffffffffffffff16815260200190815260200160002090506000610e9c610515565b11610edc576040517f08c379a0000000000000000000000000000000000000000000000000000000008152600401610ed390612e49565b60405180910390fd5b6000610ee6610515565b8260040154610ef5919061283c565b9050600260009054906101000a900473ffffffffffffffffffffffffffffffffffffffff1673ffffffffffffffffffffffffffffffffffffffff1663499ff3ef33836040518363ffffffff1660e01b8152600401610f54929190612dd4565b600060405180830381600087803b158015610f6e57600080fd5b505af1158015610f82573d6000803e3d6000fd5b50505050600082600401819055504282600301819055503373ffffffffffffffffffffffffffffffffffffffff163073ffffffffffffffffffffffffffffffffffffffff167fe77c13e8a4f82ca01db91f1f2493208b4853d02345835ff1349f12befeaf6bdc83604051610ff6919061214c565b60405180910390a35050565b60086020528060005260406000206000915090505481565b60008282905011611060576040517f08c379a000000000000000000000000000000000000000000000000000000000815260040161105790612eb5565b60405180910390fd5b6000600760003373ffffffffffffffffffffffffffffffffffffffff1673ffffffffffffffffffffffffffffffffffffffff168152602001908152602001600020905060008160060154116110ea576040517f08c379a00000000000000000000000000000000000000000000000000000000081526004016110e190612f21565b60405180910390fd5b60065481600301546110fc919061283c565b42101561113e576040517f08c379a000000000000000000000000000000000000000000000000000000000815260040161113590612f8d565b60405180910390fd5b60005b8383905081101561134e57600084848381811061116157611160612b4d565b5b9050602002013590506000805b8460080180549050811015611338578285600801828154811061119457611193612b4d565b5b90600052602060002001540361132557600360009054906101000a900473ffffffffffffffffffffffffffffffffffffffff1673ffffffffffffffffffffffffffffffffffffffff16639e872ce93033866040518463ffffffff1660e01b815260040161120393929190612c72565b600060405180830381600087803b15801561121d57600080fd5b505af1158015611231573d6000803e3d6000fd5b50505050846008016001866008018054905061124d9190612808565b8154811061125e5761125d612b4d565b5b906000526020600020015485600801828154811061127f5761127e612b4d565b5b9060005260206000200181905550846008018054806112a1576112a0612fad565b5b60019003818190600052602060002001600090559055600191503373ffffffffffffffffffffffffffffffffffffffff163073ffffffffffffffffffffffffffffffffffffffff167fc5557a8f0b3078e6e2afe0d369502aadd9463b6debef44853dcd8a1ac6d2caee85604051611318919061214c565b60405180910390a3611338565b808061133090612c2a565b91505061116e565b505050808061134690612c2a565b915050611141565b50828290508160060160008282546113669190612808565b92505081905550611375610515565b816004016000828254611388919061283c565b925050819055504281600301819055504281600701819055506000838390506005546113b49190612870565b9050808260020160008282546113ca9190612808565b9250508190555050505050565b6000806113e2610515565b600760003373ffffffffffffffffffffffffffffffffffffffff1673ffffffffffffffffffffffffffffffffffffffff1681526020019081526020016000206004015461142f919061283c565b90508091505090565b611440611f92565b61144a6000612019565b565b6000600260009054906101000a900473ffffffffffffffffffffffffffffffffffffffff1673ffffffffffffffffffffffffffffffffffffffff166370a08231836040518263ffffffff1660e01b81526004016114a99190612507565b602060405180830381865afa1580156114c6573d6000803e3d6000fd5b505050506040513d601f19601f820116820180604052508101906114ea9190612ca9565b9050919050565b6000600160009054906101000a900473ffffffffffffffffffffffffffffffffffffffff16905090565b60076020528060005260406000206000915090508060000154908060010154908060020154908060030154908060040154908060050154908060060154908060070154905088565b600081116115a6576040517f08c379a000000000000000000000000000000000000000000000000000000000815260040161159d9061304e565b60405180910390fd5b600260009054906101000a900473ffffffffffffffffffffffffffffffffffffffff1673ffffffffffffffffffffffffffffffffffffffff16637b56c2b233836040518363ffffffff1660e01b8152600401611603929190612dd4565b600060405180830381600087803b15801561161d57600080fd5b505af1158015611631573d6000803e3d6000fd5b5050505050565b600260009054906101000a900473ffffffffffffffffffffffffffffffffffffffff1681565b6116666120e7565b600760008373ffffffffffffffffffffffffffffffffffffffff1673ffffffffffffffffffffffffffffffffffffffff1681526020019081526020016000206040518061012001604052908160008201548152602001600182015481526020016002820154815260200160038201548152602001600482015481526020016005820154815260200160068201548152602001600782015481526020016008820180548060200260200160405190810160405280929190818152602001828054801561175057602002820191906000526020600020905b81548152602001906001019080831161173c575b5050505050815250509050919050565b60055481565b61176e611f42565b6000600760003373ffffffffffffffffffffffffffffffffffffffff1673ffffffffffffffffffffffffffffffffffffffff1681526020019081526020016000209050600082116117f4576040517f08c379a00000000000000000000000000000000000000000000000000000000081526004016117eb906130e0565b60405180910390fd5b81600260009054906101000a900473ffffffffffffffffffffffffffffffffffffffff1673ffffffffffffffffffffffffffffffffffffffff166370a08231336040518263ffffffff1660e01b81526004016118509190612507565b602060405180830381865afa15801561186d573d6000803e3d6000fd5b505050506040513d601f19601f820116820180604052508101906118919190612ca9565b10156118d2576040517f08c379a00000000000000000000000000000000000000000000000000000000081526004016118c990613172565b60405180910390fd5b60008160030154146119075760006118e8610515565b9050808260040160008282546118fe919061283c565b92505081905550505b428160030181905550600260009054906101000a900473ffffffffffffffffffffffffffffffffffffffff1673ffffffffffffffffffffffffffffffffffffffff166323b872dd3330856040518463ffffffff1660e01b815260040161196f93929190612c72565b6020604051808303816000875af115801561198e573d6000803e3d6000fd5b505050506040513d601f19601f820116820180604052508101906119b291906131ca565b503073ffffffffffffffffffffffffffffffffffffffff163373ffffffffffffffffffffffffffffffffffffffff167f4ef7795c29534c3af04c51baeae4e3f7ef5b6f811e8595afebceb38fae1511d584604051611a10919061214c565b60405180910390a381816000016000828254611a2c919061283c565b92505081905550600081600001549050600069d3c21bcecceda10000009050600083600501548284611a5e9190613226565b11611a6a576000611a86565b83600501548284611a7b9190613226565b611a859190612808565b5b90506000811115611bd55760005b81811015611bd3576000600360009054906101000a900473ffffffffffffffffffffffffffffffffffffffff1673ffffffffffffffffffffffffffffffffffffffff166340d097c3336040518263ffffffff1660e01b8152600401611af99190612507565b6020604051808303816000875af1158015611b18573d6000803e3d6000fd5b505050506040513d601f19601f82011682018060405250810190611b3c9190612ca9565b90506001866005016000828254611b53919061283c565b925050819055503373ffffffffffffffffffffffffffffffffffffffff163073ffffffffffffffffffffffffffffffffffffffff167f13bd8e2d43fcf325e9f27c1bb5299cb237483351297279823aa4e6fa5562195683604051611bb7919061214c565b60405180910390a3508080611bcb90612c2a565b915050611a94565b505b50505050611be1611f88565b50565b6000600260009054906101000a900473ffffffffffffffffffffffffffffffffffffffff1673ffffffffffffffffffffffffffffffffffffffff1663ba94f61b6040518163ffffffff1660e01b8152600401602060405180830381865afa158015611c53573d6000803e3d6000fd5b505050506040513d601f19601f82011682018060405250810190611c779190612ca9565b905090565b69d3c21bcecceda100000081565b6000600360009054906101000a900473ffffffffffffffffffffffffffffffffffffffff1673ffffffffffffffffffffffffffffffffffffffff166370a08231836040518263ffffffff1660e01b8152600401611ce79190612507565b602060405180830381865afa158015611d04573d6000803e3d6000fd5b505050506040513d601f19601f82011682018060405250810190611d289190612ca9565b9050919050565b611d37611f92565b806004819055503373ffffffffffffffffffffffffffffffffffffffff167f59707066e60149c044bedcb4cfc6af0e5bd28159e68920881533d5a508662b2982604051611d84919061214c565b60405180910390a250565b600360009054906101000a900473ffffffffffffffffffffffffffffffffffffffff1681565b611dbd611f92565b600073ffffffffffffffffffffffffffffffffffffffff168173ffffffffffffffffffffffffffffffffffffffff1603611e2f5760006040517f1e4fbdf7000000000000000000000000000000000000000000000000000000008152600401611e269190612507565b60405180910390fd5b611e3881612019565b50565b6000808385029050600080198587098281108382030391505060008103611e7657838281611e6c57611e6b6131f7565b5b0492505050611f3b565b808411611eaf576040517f227bc15300000000000000000000000000000000000000000000000000000000815260040160405180910390fd5b600084868809905082811182039150808303925060008560000386169050808604955080840493506001818260000304019050808302841793506000600287600302189050808702600203810290508087026002038102905080870260020381029050808702600203810290508087026002038102905080870260020381029050808502955050505050505b9392505050565b600260005403611f7e576040517f3ee5aeb500000000000000000000000000000000000000000000000000000000815260040160405180910390fd5b6002600081905550565b6001600081905550565b611f9a6120df565b73ffffffffffffffffffffffffffffffffffffffff16611fb86114f1565b73ffffffffffffffffffffffffffffffffffffffff161461201757611fdb6120df565b6040517f118cdaa700000000000000000000000000000000000000000000000000000000815260040161200e9190612507565b60405180910390fd5b565b6000600160009054906101000a900473ffffffffffffffffffffffffffffffffffffffff16905081600160006101000a81548173ffffffffffffffffffffffffffffffffffffffff021916908373ffffffffffffffffffffffffffffffffffffffff1602179055508173ffffffffffffffffffffffffffffffffffffffff168173ffffffffffffffffffffffffffffffffffffffff167f8be0079c531659141344cd1fd0a4f28419497f9722a3daafe3b4186f6b6457e060405160405180910390a35050565b600033905090565b6040518061012001604052806000815260200160008152602001600081526020016000815260200160008152602001600081526020016000815260200160008152602001606081525090565b6000819050919050565b61214681612133565b82525050565b6000602082019050612161600083018461213d565b92915050565b6000604051905090565b600080fd5b600080fd5b600073ffffffffffffffffffffffffffffffffffffffff82169050919050565b60006121a68261217b565b9050919050565b6121b68161219b565b81146121c157600080fd5b50565b6000813590506121d3816121ad565b92915050565b6121e281612133565b81146121ed57600080fd5b50565b6000813590506121ff816121d9565b92915050565b600080fd5b600080fd5b600080fd5b60008083601f84011261222a57612229612205565b5b8235905067ffffffffffffffff8111156122475761224661220a565b5b6020830191508360018202830111156122635761226261220f565b5b9250929050565b60008060008060006080868803121561228657612285612171565b5b6000612294888289016121c4565b95505060206122a5888289016121c4565b94505060406122b6888289016121f0565b935050606086013567ffffffffffffffff8111156122d7576122d6612176565b5b6122e388828901612214565b92509250509295509295909350565b60007fffffffff0000000000000000000000000000000000000000000000000000000082169050919050565b612327816122f2565b82525050565b6000602082019050612342600083018461231e565b92915050565b60006020828403121561235e5761235d612171565b5b600061236c848285016121c4565b91505092915050565b600081519050919050565b600082825260208201905092915050565b6000819050602082019050919050565b6123aa81612133565b82525050565b60006123bc83836123a1565b60208301905092915050565b6000602082019050919050565b60006123e082612375565b6123ea8185612380565b93506123f583612391565b8060005b8381101561242657815161240d88826123b0565b9750612418836123c8565b9250506001810190506123f9565b5085935050505092915050565b6000602082019050818103600083015261244d81846123d5565b905092915050565b60008083601f84011261246b5761246a612205565b5b8235905067ffffffffffffffff8111156124885761248761220a565b5b6020830191508360208202830111156124a4576124a361220f565b5b9250929050565b600080602083850312156124c2576124c1612171565b5b600083013567ffffffffffffffff8111156124e0576124df612176565b5b6124ec85828601612455565b92509250509250929050565b6125018161219b565b82525050565b600060208201905061251c60008301846124f8565b92915050565b600061010082019050612538600083018b61213d565b612545602083018a61213d565b612552604083018961213d565b61255f606083018861213d565b61256c608083018761213d565b61257960a083018661213d565b61258660c083018561213d565b61259360e083018461213d565b9998505050505050505050565b6000602082840312156125b6576125b5612171565b5b60006125c4848285016121f0565b91505092915050565b6000819050919050565b60006125f26125ed6125e88461217b565b6125cd565b61217b565b9050919050565b6000612604826125d7565b9050919050565b6000612616826125f9565b9050919050565b6126268161260b565b82525050565b6000602082019050612641600083018461261d565b92915050565b600082825260208201905092915050565b600061266382612375565b61266d8185612647565b935061267883612391565b8060005b838110156126a957815161269088826123b0565b975061269b836123c8565b92505060018101905061267c565b5085935050505092915050565b6000610120830160008301516126cf60008601826123a1565b5060208301516126e260208601826123a1565b5060408301516126f560408601826123a1565b50606083015161270860608601826123a1565b50608083015161271b60808601826123a1565b5060a083015161272e60a08601826123a1565b5060c083015161274160c08601826123a1565b5060e083015161275460e08601826123a1565b5061010083015184820361010086015261276e8282612658565b9150508091505092915050565b6000602082019050818103600083015261279581846126b6565b905092915050565b60006127a8826125f9565b9050919050565b6127b88161279d565b82525050565b60006020820190506127d360008301846127af565b92915050565b7f4e487b7100000000000000000000000000000000000000000000000000000000600052601160045260246000fd5b600061281382612133565b915061281e83612133565b9250828203905081811115612836576128356127d9565b5b92915050565b600061284782612133565b915061285283612133565b925082820190508082111561286a576128696127d9565b5b92915050565b600061287b82612133565b915061288683612133565b925082820261289481612133565b915082820484148315176128ab576128aa6127d9565b5b5092915050565b600082825260208201905092915050565b82818337600083830152505050565b6000601f19601f8301169050919050565b60006128ef83856128b2565b93506128fc8385846128c3565b612905836128d2565b840190509392505050565b6000602082019050818103600083015261292b8184866128e3565b90509392505050565b7f4e487b7100000000000000000000000000000000000000000000000000000000600052604160045260246000fd5b61296c826128d2565b810181811067ffffffffffffffff8211171561298b5761298a612934565b5b80604052505050565b600061299e612167565b90506129aa8282612963565b919050565b600067ffffffffffffffff8211156129ca576129c9612934565b5b602082029050602081019050919050565b6000815190506129ea816121d9565b92915050565b6000612a036129fe846129af565b612994565b90508083825260208201905060208402830185811115612a2657612a2561220f565b5b835b81811015612a4f5780612a3b88826129db565b845260208401935050602081019050612a28565b5050509392505050565b600082601f830112612a6e57612a6d612205565b5b8151612a7e8482602086016129f0565b91505092915050565b600060208284031215612a9d57612a9c612171565b5b600082015167ffffffffffffffff811115612abb57612aba612176565b5b612ac784828501612a59565b91505092915050565b600082825260208201905092915050565b7f4e46542d423a204e6f20746f6b656e204944732070726f766964656400000000600082015250565b6000612b17601c83612ad0565b9150612b2282612ae1565b602082019050919050565b60006020820190508181036000830152612b4681612b0a565b9050919050565b7f4e487b7100000000000000000000000000000000000000000000000000000000600052603260045260246000fd5b600081519050612b8b816121ad565b92915050565b600060208284031215612ba757612ba6612171565b5b6000612bb584828501612b7c565b91505092915050565b7f4e46542d423a204e6f74206f776e6572206f6620746f6b656e20494400000000600082015250565b6000612bf4601c83612ad0565b9150612bff82612bbe565b602082019050919050565b60006020820190508181036000830152612c2381612be7565b9050919050565b6000612c3582612133565b91507fffffffffffffffffffffffffffffffffffffffffffffffffffffffffffffffff8203612c6757612c666127d9565b5b600182019050919050565b6000606082019050612c8760008301866124f8565b612c9460208301856124f8565b612ca1604083018461213d565b949350505050565b600060208284031215612cbf57612cbe612171565b5b6000612ccd848285016129db565b91505092915050565b7f546f6b656e413a20596f752063616e2774207769746864726177206e6f770000600082015250565b6000612d0c601e83612ad0565b9150612d1782612cd6565b602082019050919050565b60006020820190508181036000830152612d3b81612cff565b9050919050565b7f546f6b656e413a204e6f20686176652072657761726420746f2057697468647260008201527f6177207265776172640000000000000000000000000000000000000000000000602082015250565b6000612d9e602983612ad0565b9150612da982612d42565b604082019050919050565b60006020820190508181036000830152612dcd81612d91565b9050919050565b6000604082019050612de960008301856124f8565b612df6602083018461213d565b9392505050565b7f436c61696d205265776172643a204e6f20686176652072657761726421000000600082015250565b6000612e33601d83612ad0565b9150612e3e82612dfd565b602082019050919050565b60006020820190508181036000830152612e6281612e26565b9050919050565b7f4e46542d423a20496e76616c696420746f6b656e496400000000000000000000600082015250565b6000612e9f601683612ad0565b9150612eaa82612e69565b602082019050919050565b60006020820190508181036000830152612ece81612e92565b9050919050565b7f4e46542d423a204e6f206465706f736974000000000000000000000000000000600082015250565b6000612f0b601183612ad0565b9150612f1682612ed5565b602082019050919050565b60006020820190508181036000830152612f3a81612efe565b9050919050565b7f4e46542d423a20596f752063616e2774207769746864726177206e6f77000000600082015250565b6000612f77601d83612ad0565b9150612f8282612f41565b602082019050919050565b60006020820190508181036000830152612fa681612f6a565b9050919050565b7f4e487b7100000000000000000000000000000000000000000000000000000000600052603160045260246000fd5b7f546f6b656e413a2066617563657420616d6f756e74206d75737420626520677260008201527f6561746572207468616e207a65726f0000000000000000000000000000000000602082015250565b6000613038602f83612ad0565b915061304382612fdc565b604082019050919050565b600060208201905081810360008301526130678161302b565b9050919050565b7f546f6b656e413a206465706f73697420616d6f756e74206d757374206265206760008201527f726561746572207468616e207a65726f00000000000000000000000000000000602082015250565b60006130ca603083612ad0565b91506130d58261306e565b604082019050919050565b600060208201905081810360008301526130f9816130bd565b9050919050565b7f546f6b656e413a20696e73756666696369656e742062616c616e636520696e2060008201527f636f6e7472616374000000000000000000000000000000000000000000000000602082015250565b600061315c602883612ad0565b915061316782613100565b604082019050919050565b6000602082019050818103600083015261318b8161314f565b9050919050565b60008115159050919050565b6131a781613192565b81146131b257600080fd5b50565b6000815190506131c48161319e565b92915050565b6000602082840312156131e0576131df612171565b5b60006131ee848285016131b5565b91505092915050565b7f4e487b7100000000000000000000000000000000000000000000000000000000600052601260045260246000fd5b600061323182612133565b915061323c83612133565b92508261324c5761324b6131f7565b5b82820490509291505056fea2646970667358221220df7d136eba90c6182c18be7a87acb8b83dd792bf923fbdbe0ac376f08f8a769064736f6c63430008140033",
  "linkReferences": {},
  "deployedLinkReferences": {}
}