{
  "_format": "hh-sol-artifact-1",
  "contractName": "ContractHandle",
  "sourceName": "contracts/ContractHandle.sol",
  "abi": [
    {
      "inputs": [
        {
          "internalType": "contract TokenERC20",
          "name": "_tokenERC20",
          "type": "address"
        },
        {
          "internalType": "contract TokenERC721",
          "name": "_tokenERC721",
          "type": "address"
        }
      ],
      "stateMutability": "nonpayable",
      "type": "constructor"
    },
    {
      "inputs": [],
      "name": "MathOverflowedMulDiv",
      "type": "error"
    },
    {
      "inputs": [
        {
          "internalType": "address",
          "name": "owner",
          "type": "address"
        }
      ],
      "name": "OwnableInvalidOwner",
      "type": "error"
    },
    {
      "inputs": [
        {
          "internalType": "address",
          "name": "account",
          "type": "address"
        }
      ],
      "name": "OwnableUnauthorizedAccount",
      "type": "error"
    },
    {
      "inputs": [],
      "name": "ReentrancyGuardReentrantCall",
      "type": "error"
    },
    {
      "anonymous": false,
      "inputs": [
        {
          "indexed": true,
          "internalType": "address",
          "name": "_from",
          "type": "address"
        },
        {
          "indexed": true,
          "internalType": "address",
          "name": "_to",
          "type": "address"
        },
        {
          "indexed": false,
          "internalType": "uint256",
          "name": "_amount",
          "type": "uint256"
        }
      ],
      "name": "ClaimTokenA",
      "type": "event"
    },
    {
      "anonymous": false,
      "inputs": [
        {
          "indexed": true,
          "internalType": "address",
          "name": "_from",
          "type": "address"
        },
        {
          "indexed": true,
          "internalType": "address",
          "name": "_to",
          "type": "address"
        },
        {
          "indexed": false,
          "internalType": "uint256",
          "name": "_amount",
          "type": "uint256"
        }
      ],
      "name": "DepositNFTB",
      "type": "event"
    },
    {
      "anonymous": false,
      "inputs": [
        {
          "indexed": true,
          "internalType": "address",
          "name": "_from",
          "type": "address"
        },
        {
          "indexed": true,
          "internalType": "address",
          "name": "_to",
          "type": "address"
        },
        {
          "indexed": false,
          "internalType": "uint256",
          "name": "_amount",
          "type": "uint256"
        }
      ],
      "name": "MintedNFTB",
      "type": "event"
    },
    {
      "anonymous": false,
      "inputs": [
        {
          "indexed": true,
          "internalType": "address",
          "name": "operator",
          "type": "address"
        },
        {
          "indexed": true,
          "internalType": "address",
          "name": "from",
          "type": "address"
        },
        {
          "indexed": true,
          "internalType": "uint256",
          "name": "tokenId",
          "type": "uint256"
        },
        {
          "indexed": false,
          "internalType": "bytes",
          "name": "data",
          "type": "bytes"
        }
      ],
      "name": "NFTReceived",
      "type": "event"
    },
    {
      "anonymous": false,
      "inputs": [
        {
          "indexed": true,
          "internalType": "address",
          "name": "previousOwner",
          "type": "address"
        },
        {
          "indexed": true,
          "internalType": "address",
          "name": "newOwner",
          "type": "address"
        }
      ],
      "name": "OwnershipTransferred",
      "type": "event"
    },
    {
      "anonymous": false,
      "inputs": [
        {
          "indexed": true,
          "internalType": "address",
          "name": "_from",
          "type": "address"
        },
        {
          "indexed": true,
          "internalType": "address",
          "name": "_to",
          "type": "address"
        },
        {
          "indexed": false,
          "internalType": "uint256",
          "name": "_amount",
          "type": "uint256"
        }
      ],
      "name": "TokenADeposit",
      "type": "event"
    },
    {
      "anonymous": false,
      "inputs": [
        {
          "indexed": true,
          "internalType": "address",
          "name": "admin",
          "type": "address"
        },
        {
          "indexed": false,
          "internalType": "uint256",
          "name": "_newBaseAPR",
          "type": "uint256"
        }
      ],
      "name": "UpdateAPR",
      "type": "event"
    },
    {
      "anonymous": false,
      "inputs": [
        {
          "indexed": true,
          "internalType": "address",
          "name": "_from",
          "type": "address"
        },
        {
          "indexed": true,
          "internalType": "address",
          "name": "_to",
          "type": "address"
        },
        {
          "indexed": false,
          "internalType": "uint256",
          "name": "_amount",
          "type": "uint256"
        }
      ],
      "name": "WithdrawNFTB",
      "type": "event"
    },
    {
      "anonymous": false,
      "inputs": [
        {
          "indexed": true,
          "internalType": "address",
          "name": "_from",
          "type": "address"
        },
        {
          "indexed": true,
          "internalType": "address",
          "name": "_to",
          "type": "address"
        },
        {
          "indexed": false,
          "internalType": "uint256",
          "name": "_amount",
          "type": "uint256"
        }
      ],
      "name": "WithdrawTokenA",
      "type": "event"
    },
    {
      "anonymous": false,
      "inputs": [
        {
          "indexed": false,
          "internalType": "uint256",
          "name": "data",
          "type": "uint256"
        },
        {
          "indexed": false,
          "internalType": "address",
          "name": "_from",
          "type": "address"
        },
        {
          "indexed": false,
          "internalType": "address",
          "name": "_to",
          "type": "address"
        }
      ],
      "name": "getData",
      "type": "event"
    },
    {
      "inputs": [],
      "name": "MINIMUM_DEPOSIT_FOR_CERTIFICATE",
      "outputs": [
        {
          "internalType": "uint256",
          "name": "",
          "type": "uint256"
        }
      ],
      "stateMutability": "view",
      "type": "function"
    },
    {
      "inputs": [
        {
          "internalType": "address",
          "name": "_address",
          "type": "address"
        }
      ],
      "name": "balaceOfERC20",
      "outputs": [
        {
          "internalType": "uint256",
          "name": "",
          "type": "uint256"
        }
      ],
      "stateMutability": "view",
      "type": "function"
    },
    {
      "inputs": [],
      "name": "balaceOfERC20TotalSupply",
      "outputs": [
        {
          "internalType": "uint256",
          "name": "",
          "type": "uint256"
        }
      ],
      "stateMutability": "view",
      "type": "function"
    },
    {
      "inputs": [
        {
          "internalType": "address",
          "name": "_address",
          "type": "address"
        }
      ],
      "name": "balaceOfERC721",
      "outputs": [
        {
          "internalType": "uint256",
          "name": "",
          "type": "uint256"
        }
      ],
      "stateMutability": "view",
      "type": "function"
    },
    {
      "inputs": [],
      "name": "balaceOfERC721TotalSupply",
      "outputs": [
        {
          "internalType": "uint256",
          "name": "",
          "type": "uint256"
        }
      ],
      "stateMutability": "view",
      "type": "function"
    },
    {
      "inputs": [],
      "name": "baseAPR",
      "outputs": [
        {
          "internalType": "uint256",
          "name": "",
          "type": "uint256"
        }
      ],
      "stateMutability": "view",
      "type": "function"
    },
    {
      "inputs": [],
      "name": "bonusAPR",
      "outputs": [
        {
          "internalType": "uint256",
          "name": "",
          "type": "uint256"
        }
      ],
      "stateMutability": "view",
      "type": "function"
    },
    {
      "inputs": [],
      "name": "calculateRewardERC20",
      "outputs": [
        {
          "internalType": "uint256",
          "name": "",
          "type": "uint256"
        }
      ],
      "stateMutability": "view",
      "type": "function"
    },
    {
      "inputs": [],
      "name": "claimRewardERC20",
      "outputs": [],
      "stateMutability": "nonpayable",
      "type": "function"
    },
    {
      "inputs": [
        {
          "internalType": "uint256",
          "name": "_amount",
          "type": "uint256"
        }
      ],
      "name": "depositERC20",
      "outputs": [],
      "stateMutability": "nonpayable",
      "type": "function"
    },
    {
      "inputs": [
        {
          "internalType": "uint256[]",
          "name": "tokenIds",
          "type": "uint256[]"
        }
      ],
      "name": "depositNFTB",
      "outputs": [],
      "stateMutability": "nonpayable",
      "type": "function"
    },
    {
      "inputs": [
        {
          "internalType": "uint256",
          "name": "_amount",
          "type": "uint256"
        }
      ],
      "name": "faucetERC20",
      "outputs": [],
      "stateMutability": "nonpayable",
      "type": "function"
    },
    {
      "inputs": [],
      "name": "getCurrentRewardERC20",
      "outputs": [
        {
          "internalType": "uint256",
          "name": "",
          "type": "uint256"
        }
      ],
      "stateMutability": "view",
      "type": "function"
    },
    {
      "inputs": [
        {
          "internalType": "address",
          "name": "_address",
          "type": "address"
        }
      ],
      "name": "getOwnedNFTs",
      "outputs": [
        {
          "internalType": "uint256[]",
          "name": "",
          "type": "uint256[]"
        }
      ],
      "stateMutability": "view",
      "type": "function"
    },
    {
      "inputs": [
        {
          "internalType": "address",
          "name": "_address",
          "type": "address"
        }
      ],
      "name": "getStakingInfo",
      "outputs": [
        {
          "components": [
            {
              "internalType": "uint256",
              "name": "totalAmountERC20",
              "type": "uint256"
            },
            {
              "internalType": "uint256",
              "name": "APR",
              "type": "uint256"
            },
            {
              "internalType": "uint256",
              "name": "bonusAPR",
              "type": "uint256"
            },
            {
              "internalType": "uint256",
              "name": "startTimeDeposit",
              "type": "uint256"
            },
            {
              "internalType": "uint256",
              "name": "totalRewardERC20",
              "type": "uint256"
            },
            {
              "internalType": "uint256",
              "name": "mintNFTbCount",
              "type": "uint256"
            },
            {
              "internalType": "uint256",
              "name": "totalAmountERC721",
              "type": "uint256"
            },
            {
              "internalType": "uint256",
              "name": "startTimeDepositNFTB",
              "type": "uint256"
            },
            {
              "internalType": "uint256[]",
              "name": "tokenId",
              "type": "uint256[]"
            }
          ],
          "internalType": "struct ContractHandle.StakingInfo",
          "name": "",
          "type": "tuple"
        }
      ],
      "stateMutability": "view",
      "type": "function"
    },
    {
      "inputs": [],
      "name": "lockTime",
      "outputs": [
        {
          "internalType": "uint256",
          "name": "",
          "type": "uint256"
        }
      ],
      "stateMutability": "view",
      "type": "function"
    },
    {
      "inputs": [
        {
          "internalType": "address",
          "name": "",
          "type": "address"
        }
      ],
      "name": "mintNFTbCount",
      "outputs": [
        {
          "internalType": "uint256",
          "name": "",
          "type": "uint256"
        }
      ],
      "stateMutability": "view",
      "type": "function"
    },
    {
      "inputs": [
        {
          "internalType": "address",
          "name": "operator",
          "type": "address"
        },
        {
          "internalType": "address",
          "name": "from",
          "type": "address"
        },
        {
          "internalType": "uint256",
          "name": "tokenId",
          "type": "uint256"
        },
        {
          "internalType": "bytes",
          "name": "data",
          "type": "bytes"
        }
      ],
      "name": "onERC721Received",
      "outputs": [
        {
          "internalType": "bytes4",
          "name": "",
          "type": "bytes4"
        }
      ],
      "stateMutability": "nonpayable",
      "type": "function"
    },
    {
      "inputs": [],
      "name": "owner",
      "outputs": [
        {
          "internalType": "address",
          "name": "",
          "type": "address"
        }
      ],
      "stateMutability": "view",
      "type": "function"
    },
    {
      "inputs": [],
      "name": "renounceOwnership",
      "outputs": [],
      "stateMutability": "nonpayable",
      "type": "function"
    },
    {
      "inputs": [
        {
          "internalType": "address",
          "name": "",
          "type": "address"
        }
      ],
      "name": "stakingInfo",
      "outputs": [
        {
          "internalType": "uint256",
          "name": "totalAmountERC20",
          "type": "uint256"
        },
        {
          "internalType": "uint256",
          "name": "APR",
          "type": "uint256"
        },
        {
          "internalType": "uint256",
          "name": "bonusAPR",
          "type": "uint256"
        },
        {
          "internalType": "uint256",
          "name": "startTimeDeposit",
          "type": "uint256"
        },
        {
          "internalType": "uint256",
          "name": "totalRewardERC20",
          "type": "uint256"
        },
        {
          "internalType": "uint256",
          "name": "mintNFTbCount",
          "type": "uint256"
        },
        {
          "internalType": "uint256",
          "name": "totalAmountERC721",
          "type": "uint256"
        },
        {
          "internalType": "uint256",
          "name": "startTimeDepositNFTB",
          "type": "uint256"
        }
      ],
      "stateMutability": "view",
      "type": "function"
    },
    {
      "inputs": [],
      "name": "tokenERC20",
      "outputs": [
        {
          "internalType": "contract TokenERC20",
          "name": "",
          "type": "address"
        }
      ],
      "stateMutability": "view",
      "type": "function"
    },
    {
      "inputs": [],
      "name": "tokenERC721",
      "outputs": [
        {
          "internalType": "contract TokenERC721",
          "name": "",
          "type": "address"
        }
      ],
      "stateMutability": "view",
      "type": "function"
    },
    {
      "inputs": [
        {
          "internalType": "address",
          "name": "newOwner",
          "type": "address"
        }
      ],
      "name": "transferOwnership",
      "outputs": [],
      "stateMutability": "nonpayable",
      "type": "function"
    },
    {
      "inputs": [
        {
          "internalType": "uint256",
          "name": "newBaseAPR",
          "type": "uint256"
        }
      ],
      "name": "updateAPR",
      "outputs": [],
      "stateMutability": "nonpayable",
      "type": "function"
    },
    {
      "inputs": [
        {
          "internalType": "uint256",
          "name": "newBaseAPR",
          "type": "uint256"
        }
      ],
      "name": "updateBaseAPR",
      "outputs": [],
      "stateMutability": "nonpayable",
      "type": "function"
    },
    {
      "inputs": [
        {
          "internalType": "uint256[]",
          "name": "tokenId",
          "type": "uint256[]"
        }
      ],
      "name": "withRewardNFTB",
      "outputs": [],
      "stateMutability": "nonpayable",
      "type": "function"
    },
    {
      "inputs": [],
      "name": "withdrawRewardERC20",
      "outputs": [],
      "stateMutability": "nonpayable",
      "type": "function"
    }
  ],
  "bytecode": "0x608060405261032060045560c8600555601e6006553480156200002157600080fd5b5060405162003645380380620036458339818101604052810190620000479190620002ea565b336001600081905550600073ffffffffffffffffffffffffffffffffffffffff168173ffffffffffffffffffffffffffffffffffffffff1603620000c55760006040517f1e4fbdf7000000000000000000000000000000000000000000000000000000008152600401620000bc919062000342565b60405180910390fd5b620000d6816200016160201b60201c565b5081600260006101000a81548173ffffffffffffffffffffffffffffffffffffffff021916908373ffffffffffffffffffffffffffffffffffffffff16021790555080600360006101000a81548173ffffffffffffffffffffffffffffffffffffffff021916908373ffffffffffffffffffffffffffffffffffffffff16021790555050506200035f565b6000600160009054906101000a900473ffffffffffffffffffffffffffffffffffffffff16905081600160006101000a81548173ffffffffffffffffffffffffffffffffffffffff021916908373ffffffffffffffffffffffffffffffffffffffff1602179055508173ffffffffffffffffffffffffffffffffffffffff168173ffffffffffffffffffffffffffffffffffffffff167f8be0079c531659141344cd1fd0a4f28419497f9722a3daafe3b4186f6b6457e060405160405180910390a35050565b600080fd5b600073ffffffffffffffffffffffffffffffffffffffff82169050919050565b600062000259826200022c565b9050919050565b60006200026d826200024c565b9050919050565b6200027f8162000260565b81146200028b57600080fd5b50565b6000815190506200029f8162000274565b92915050565b6000620002b2826200024c565b9050919050565b620002c481620002a5565b8114620002d057600080fd5b50565b600081519050620002e481620002b9565b92915050565b6000806040838503121562000304576200030362000227565b5b600062000314858286016200028e565b92505060206200032785828601620002d3565b9150509250929050565b6200033c816200024c565b82525050565b600060208201905062000359600083018462000331565b92915050565b6132d6806200036f6000396000f3fe608060405234801561001057600080fd5b50600436106101c45760003560e01c80638da5cb5b116100f9578063bcd19e7011610097578063de9ad13411610071578063de9ad134146104c6578063e7e2629e146104f6578063e9adc77014610512578063f2fde38b14610530576101c4565b8063bcd19e701461046e578063c2baf7331461048c578063ce55f947146104a8576101c4565b80639d143e8e116100d35780639d143e8e146103e6578063aa4704f314610404578063b3a36f1e14610434578063b79092fd14610452576101c4565b80638da5cb5b1461037557806394eecb50146103935780639b3a6c88146103ca576101c4565b806358ac0e80116101665780636a78c7d2116101405780636a78c7d2146103015780637098692e1461031d578063715018a61461033b5780638cb8564d14610345576101c4565b806358ac0e80146102a95780636014a449146102c7578063631c46a1146102d1576101c4565b806318148f1b116101a257806318148f1b1461023557806336ed1f0d146102655780634ca903ba14610281578063556e7cee1461029f576101c4565b80630882e64e146101c95780630d668087146101e7578063150b7a0214610205575b600080fd5b6101d161054c565b6040516101de9190612195565b60405180910390f35b6101ef610615565b6040516101fc9190612195565b60405180910390f35b61021f600480360381019061021a91906122b3565b61061b565b60405161022c9190612376565b60405180910390f35b61024f600480360381019061024a9190612391565b610698565b60405161025c919061247c565b60405180910390f35b61027f600480360381019061027a91906124f4565b610742565b005b610289610b35565b6040516102969190612195565b60405180910390f35b6102a7610bcd565b005b6102b1610e80565b6040516102be9190612195565b60405180910390f35b6102cf610e86565b005b6102eb60048036038101906102e69190612391565b611039565b6040516102f89190612195565b60405180910390f35b61031b600480360381019061031691906124f4565b611051565b005b61032561140e565b6040516103329190612195565b60405180910390f35b61034361146f565b005b61035f600480360381019061035a9190612391565b611483565b60405161036c9190612195565b60405180910390f35b61037d611528565b60405161038a9190612550565b60405180910390f35b6103ad60048036038101906103a89190612391565b611552565b6040516103c198979695949392919061256b565b60405180910390f35b6103e460048036038101906103df91906125e9565b61159a565b005b6103ee61166f565b6040516103fb9190612675565b60405180910390f35b61041e60048036038101906104199190612391565b611695565b60405161042b91906127c4565b60405180910390f35b61043c611797565b6040516104499190612195565b60405180910390f35b61046c600480360381019061046791906125e9565b61179d565b005b610476611c1b565b6040516104839190612195565b60405180910390f35b6104a660048036038101906104a191906125e9565b611cb3565b005b6104b0611cc5565b6040516104bd9190612195565b60405180910390f35b6104e060048036038101906104db9190612391565b611cd3565b6040516104ed9190612195565b60405180910390f35b610510600480360381019061050b91906125e9565b611d78565b005b61051a611dd8565b6040516105279190612807565b60405180910390f35b61054a60048036038101906105459190612391565b611dfe565b005b600080600760003373ffffffffffffffffffffffffffffffffffffffff1673ffffffffffffffffffffffffffffffffffffffff1681526020019081526020016000209050600081600001549050600081036105ac57600092505050610612565b600082600301549050600081036105c95760009350505050610612565b600081426105d79190612851565b9050600061060785600201546004546105f09190612885565b856105fb91906128b9565b83644979cb9e00611e84565b905080955050505050505b90565b60065481565b6000838573ffffffffffffffffffffffffffffffffffffffff168773ffffffffffffffffffffffffffffffffffffffff167f1d823cdc8f0514a95b53538df2d2f3deaf98d1c534c6e750daa593173c27f8f0868660405161067d929190612959565b60405180910390a463150b7a0260e01b905095945050505050565b6060600360009054906101000a900473ffffffffffffffffffffffffffffffffffffffff1673ffffffffffffffffffffffffffffffffffffffff1663d9d61655836040518263ffffffff1660e01b81526004016106f59190612550565b600060405180830381865afa158015610712573d6000803e3d6000fd5b505050506040513d6000823e3d601f19601f8201168201806040525081019061073b9190612ad0565b9050919050565b61074a611f8b565b60008282905011610790576040517f08c379a000000000000000000000000000000000000000000000000000000000815260040161078790612b76565b60405180910390fd5b6000600760003373ffffffffffffffffffffffffffffffffffffffff1673ffffffffffffffffffffffffffffffffffffffff168152602001908152602001600020905060005b83839050811015610916573373ffffffffffffffffffffffffffffffffffffffff16600360009054906101000a900473ffffffffffffffffffffffffffffffffffffffff1673ffffffffffffffffffffffffffffffffffffffff16636352211e86868581811061084957610848612b96565b5b905060200201356040518263ffffffff1660e01b815260040161086c9190612195565b602060405180830381865afa158015610889573d6000803e3d6000fd5b505050506040513d601f19601f820116820180604052508101906108ad9190612bda565b73ffffffffffffffffffffffffffffffffffffffff1614610903576040517f08c379a00000000000000000000000000000000000000000000000000000000081526004016108fa90612c53565b60405180910390fd5b808061090e90612c73565b9150506107d6565b5060005b83839050811015610aa457600360009054906101000a900473ffffffffffffffffffffffffffffffffffffffff1673ffffffffffffffffffffffffffffffffffffffff16639e872ce9333087878681811061097857610977612b96565b5b905060200201356040518463ffffffff1660e01b815260040161099d93929190612cbb565b600060405180830381600087803b1580156109b757600080fd5b505af11580156109cb573d6000803e3d6000fd5b50505050816008018484838181106109e6576109e5612b96565b5b9050602002013590806001815401808255809150506001900390600052602060002001600090919091909150553073ffffffffffffffffffffffffffffffffffffffff163373ffffffffffffffffffffffffffffffffffffffff167f5811b77bb51f13eac3d0b2fc9fb06884571a9626da5f128ee9d2c576682c9eb4868685818110610a7557610a74612b96565b5b90506020020135604051610a899190612195565b60405180910390a38080610a9c90612c73565b91505061091a565b50610aad61054c565b816004016000828254610ac09190612885565b9250508190555042816003018190555082829050816006016000828254610ae79190612885565b92505081905550428160070181905550600083839050600554610b0a91906128b9565b905080826002016000828254610b209190612885565b925050819055505050610b31611fd1565b5050565b6000600360009054906101000a900473ffffffffffffffffffffffffffffffffffffffff1673ffffffffffffffffffffffffffffffffffffffff166322a579cb6040518163ffffffff1660e01b8152600401602060405180830381865afa158015610ba4573d6000803e3d6000fd5b505050506040513d601f19601f82011682018060405250810190610bc89190612cf2565b905090565b6000600760003373ffffffffffffffffffffffffffffffffffffffff1673ffffffffffffffffffffffffffffffffffffffff16815260200190815260200160002090506006548160030154610c229190612885565b421015610c64576040517f08c379a0000000000000000000000000000000000000000000000000000000008152600401610c5b90612d6b565b60405180910390fd5b6000816000015411610cab576040517f08c379a0000000000000000000000000000000000000000000000000000000008152600401610ca290612dfd565b60405180910390fd5b6000610cb561054c565b8260040154610cc49190612885565b9050600082600001549050600260009054906101000a900473ffffffffffffffffffffffffffffffffffffffff1673ffffffffffffffffffffffffffffffffffffffff1663ddadda6b33836040518363ffffffff1660e01b8152600401610d2c929190612e1d565b600060405180830381600087803b158015610d4657600080fd5b505af1158015610d5a573d6000803e3d6000fd5b50505050600260009054906101000a900473ffffffffffffffffffffffffffffffffffffffff1673ffffffffffffffffffffffffffffffffffffffff1663499ff3ef33846040518363ffffffff1660e01b8152600401610dbb929190612e1d565b600060405180830381600087803b158015610dd557600080fd5b505af1158015610de9573d6000803e3d6000fd5b505050503373ffffffffffffffffffffffffffffffffffffffff163073ffffffffffffffffffffffffffffffffffffffff167fb7365ffa3903260fb80be296ce69fddb6e16deef08673f35467c89b4f58d244a8484610e489190612885565b604051610e559190612195565b60405180910390a3600083600001819055506000836004018190555060008360030181905550505050565b60045481565b6000600760003373ffffffffffffffffffffffffffffffffffffffff1673ffffffffffffffffffffffffffffffffffffffff16815260200190815260200160002090506000610ed361054c565b11610f13576040517f08c379a0000000000000000000000000000000000000000000000000000000008152600401610f0a90612e92565b60405180910390fd5b6000610f1d61054c565b8260040154610f2c9190612885565b9050600260009054906101000a900473ffffffffffffffffffffffffffffffffffffffff1673ffffffffffffffffffffffffffffffffffffffff1663499ff3ef33836040518363ffffffff1660e01b8152600401610f8b929190612e1d565b600060405180830381600087803b158015610fa557600080fd5b505af1158015610fb9573d6000803e3d6000fd5b50505050600082600401819055504282600301819055503373ffffffffffffffffffffffffffffffffffffffff163073ffffffffffffffffffffffffffffffffffffffff167fe77c13e8a4f82ca01db91f1f2493208b4853d02345835ff1349f12befeaf6bdc8360405161102d9190612195565b60405180910390a35050565b60086020528060005260406000206000915090505481565b60008282905011611097576040517f08c379a000000000000000000000000000000000000000000000000000000000815260040161108e90612efe565b60405180910390fd5b6000600760003373ffffffffffffffffffffffffffffffffffffffff1673ffffffffffffffffffffffffffffffffffffffff16815260200190815260200160002090506000816006015411611121576040517f08c379a000000000000000000000000000000000000000000000000000000000815260040161111890612f6a565b60405180910390fd5b60065481600301546111339190612885565b421015611175576040517f08c379a000000000000000000000000000000000000000000000000000000000815260040161116c90612fd6565b60405180910390fd5b60005b8383905081101561138557600084848381811061119857611197612b96565b5b9050602002013590506000805b846008018054905081101561136f57828560080182815481106111cb576111ca612b96565b5b90600052602060002001540361135c57600360009054906101000a900473ffffffffffffffffffffffffffffffffffffffff1673ffffffffffffffffffffffffffffffffffffffff16639e872ce93033866040518463ffffffff1660e01b815260040161123a93929190612cbb565b600060405180830381600087803b15801561125457600080fd5b505af1158015611268573d6000803e3d6000fd5b5050505084600801600186600801805490506112849190612851565b8154811061129557611294612b96565b5b90600052602060002001548560080182815481106112b6576112b5612b96565b5b9060005260206000200181905550846008018054806112d8576112d7612ff6565b5b60019003818190600052602060002001600090559055600191503373ffffffffffffffffffffffffffffffffffffffff163073ffffffffffffffffffffffffffffffffffffffff167fc5557a8f0b3078e6e2afe0d369502aadd9463b6debef44853dcd8a1ac6d2caee8560405161134f9190612195565b60405180910390a361136f565b808061136790612c73565b9150506111a5565b505050808061137d90612c73565b915050611178565b508282905081600601600082825461139d9190612851565b925050819055506113ac61054c565b8160040160008282546113bf9190612885565b925050819055504281600301819055504281600701819055506000838390506005546113eb91906128b9565b9050808260020160008282546114019190612851565b9250508190555050505050565b60008061141961054c565b600760003373ffffffffffffffffffffffffffffffffffffffff1673ffffffffffffffffffffffffffffffffffffffff168152602001908152602001600020600401546114669190612885565b90508091505090565b611477611fdb565b6114816000612062565b565b6000600260009054906101000a900473ffffffffffffffffffffffffffffffffffffffff1673ffffffffffffffffffffffffffffffffffffffff166370a08231836040518263ffffffff1660e01b81526004016114e09190612550565b602060405180830381865afa1580156114fd573d6000803e3d6000fd5b505050506040513d601f19601f820116820180604052508101906115219190612cf2565b9050919050565b6000600160009054906101000a900473ffffffffffffffffffffffffffffffffffffffff16905090565b60076020528060005260406000206000915090508060000154908060010154908060020154908060030154908060040154908060050154908060060154908060070154905088565b600081116115dd576040517f08c379a00000000000000000000000000000000000000000000000000000000081526004016115d490613097565b60405180910390fd5b600260009054906101000a900473ffffffffffffffffffffffffffffffffffffffff1673ffffffffffffffffffffffffffffffffffffffff16637b56c2b233836040518363ffffffff1660e01b815260040161163a929190612e1d565b600060405180830381600087803b15801561165457600080fd5b505af1158015611668573d6000803e3d6000fd5b5050505050565b600260009054906101000a900473ffffffffffffffffffffffffffffffffffffffff1681565b61169d612130565b600760008373ffffffffffffffffffffffffffffffffffffffff1673ffffffffffffffffffffffffffffffffffffffff1681526020019081526020016000206040518061012001604052908160008201548152602001600182015481526020016002820154815260200160038201548152602001600482015481526020016005820154815260200160068201548152602001600782015481526020016008820180548060200260200160405190810160405280929190818152602001828054801561178757602002820191906000526020600020905b815481526020019060010190808311611773575b5050505050815250509050919050565b60055481565b6117a5611f8b565b6000600760003373ffffffffffffffffffffffffffffffffffffffff1673ffffffffffffffffffffffffffffffffffffffff16815260200190815260200160002090506000821161182b576040517f08c379a000000000000000000000000000000000000000000000000000000000815260040161182290613129565b60405180910390fd5b81600260009054906101000a900473ffffffffffffffffffffffffffffffffffffffff1673ffffffffffffffffffffffffffffffffffffffff166370a08231336040518263ffffffff1660e01b81526004016118879190612550565b602060405180830381865afa1580156118a4573d6000803e3d6000fd5b505050506040513d601f19601f820116820180604052508101906118c89190612cf2565b1015611909576040517f08c379a0000000000000000000000000000000000000000000000000000000008152600401611900906131bb565b60405180910390fd5b600081600301541461193e57600061191f61054c565b9050808260040160008282546119359190612885565b92505081905550505b428160030181905550600260009054906101000a900473ffffffffffffffffffffffffffffffffffffffff1673ffffffffffffffffffffffffffffffffffffffff166323b872dd3330856040518463ffffffff1660e01b81526004016119a693929190612cbb565b6020604051808303816000875af11580156119c5573d6000803e3d6000fd5b505050506040513d601f19601f820116820180604052508101906119e99190613213565b503073ffffffffffffffffffffffffffffffffffffffff163373ffffffffffffffffffffffffffffffffffffffff167f4ef7795c29534c3af04c51baeae4e3f7ef5b6f811e8595afebceb38fae1511d584604051611a479190612195565b60405180910390a381816000016000828254611a639190612885565b92505081905550600081600001549050600069d3c21bcecceda10000009050600083600501548284611a95919061326f565b11611aa1576000611abd565b83600501548284611ab2919061326f565b611abc9190612851565b5b90506000811115611c0c5760005b81811015611c0a576000600360009054906101000a900473ffffffffffffffffffffffffffffffffffffffff1673ffffffffffffffffffffffffffffffffffffffff166340d097c3336040518263ffffffff1660e01b8152600401611b309190612550565b6020604051808303816000875af1158015611b4f573d6000803e3d6000fd5b505050506040513d601f19601f82011682018060405250810190611b739190612cf2565b90506001866005016000828254611b8a9190612885565b925050819055503373ffffffffffffffffffffffffffffffffffffffff163073ffffffffffffffffffffffffffffffffffffffff167f13bd8e2d43fcf325e9f27c1bb5299cb237483351297279823aa4e6fa5562195683604051611bee9190612195565b60405180910390a3508080611c0290612c73565b915050611acb565b505b50505050611c18611fd1565b50565b6000600260009054906101000a900473ffffffffffffffffffffffffffffffffffffffff1673ffffffffffffffffffffffffffffffffffffffff1663ba94f61b6040518163ffffffff1660e01b8152600401602060405180830381865afa158015611c8a573d6000803e3d6000fd5b505050506040513d601f19601f82011682018060405250810190611cae9190612cf2565b905090565b611cbb611fdb565b8060048190555050565b69d3c21bcecceda100000081565b6000600360009054906101000a900473ffffffffffffffffffffffffffffffffffffffff1673ffffffffffffffffffffffffffffffffffffffff166370a08231836040518263ffffffff1660e01b8152600401611d309190612550565b602060405180830381865afa158015611d4d573d6000803e3d6000fd5b505050506040513d601f19601f82011682018060405250810190611d719190612cf2565b9050919050565b611d80611fdb565b806004819055503373ffffffffffffffffffffffffffffffffffffffff167f59707066e60149c044bedcb4cfc6af0e5bd28159e68920881533d5a508662b2982604051611dcd9190612195565b60405180910390a250565b600360009054906101000a900473ffffffffffffffffffffffffffffffffffffffff1681565b611e06611fdb565b600073ffffffffffffffffffffffffffffffffffffffff168173ffffffffffffffffffffffffffffffffffffffff1603611e785760006040517f1e4fbdf7000000000000000000000000000000000000000000000000000000008152600401611e6f9190612550565b60405180910390fd5b611e8181612062565b50565b6000808385029050600080198587098281108382030391505060008103611ebf57838281611eb557611eb4613240565b5b0492505050611f84565b808411611ef8576040517f227bc15300000000000000000000000000000000000000000000000000000000815260040160405180910390fd5b600084868809905082811182039150808303925060008560000386169050808604955080840493506001818260000304019050808302841793506000600287600302189050808702600203810290508087026002038102905080870260020381029050808702600203810290508087026002038102905080870260020381029050808502955050505050505b9392505050565b600260005403611fc7576040517f3ee5aeb500000000000000000000000000000000000000000000000000000000815260040160405180910390fd5b6002600081905550565b6001600081905550565b611fe3612128565b73ffffffffffffffffffffffffffffffffffffffff16612001611528565b73ffffffffffffffffffffffffffffffffffffffff161461206057612024612128565b6040517f118cdaa70000000000000000000000000000000000000000000000000000000081526004016120579190612550565b60405180910390fd5b565b6000600160009054906101000a900473ffffffffffffffffffffffffffffffffffffffff16905081600160006101000a81548173ffffffffffffffffffffffffffffffffffffffff021916908373ffffffffffffffffffffffffffffffffffffffff1602179055508173ffffffffffffffffffffffffffffffffffffffff168173ffffffffffffffffffffffffffffffffffffffff167f8be0079c531659141344cd1fd0a4f28419497f9722a3daafe3b4186f6b6457e060405160405180910390a35050565b600033905090565b6040518061012001604052806000815260200160008152602001600081526020016000815260200160008152602001600081526020016000815260200160008152602001606081525090565b6000819050919050565b61218f8161217c565b82525050565b60006020820190506121aa6000830184612186565b92915050565b6000604051905090565b600080fd5b600080fd5b600073ffffffffffffffffffffffffffffffffffffffff82169050919050565b60006121ef826121c4565b9050919050565b6121ff816121e4565b811461220a57600080fd5b50565b60008135905061221c816121f6565b92915050565b61222b8161217c565b811461223657600080fd5b50565b60008135905061224881612222565b92915050565b600080fd5b600080fd5b600080fd5b60008083601f8401126122735761227261224e565b5b8235905067ffffffffffffffff8111156122905761228f612253565b5b6020830191508360018202830111156122ac576122ab612258565b5b9250929050565b6000806000806000608086880312156122cf576122ce6121ba565b5b60006122dd8882890161220d565b95505060206122ee8882890161220d565b94505060406122ff88828901612239565b935050606086013567ffffffffffffffff8111156123205761231f6121bf565b5b61232c8882890161225d565b92509250509295509295909350565b60007fffffffff0000000000000000000000000000000000000000000000000000000082169050919050565b6123708161233b565b82525050565b600060208201905061238b6000830184612367565b92915050565b6000602082840312156123a7576123a66121ba565b5b60006123b58482850161220d565b91505092915050565b600081519050919050565b600082825260208201905092915050565b6000819050602082019050919050565b6123f38161217c565b82525050565b600061240583836123ea565b60208301905092915050565b6000602082019050919050565b6000612429826123be565b61243381856123c9565b935061243e836123da565b8060005b8381101561246f57815161245688826123f9565b975061246183612411565b925050600181019050612442565b5085935050505092915050565b60006020820190508181036000830152612496818461241e565b905092915050565b60008083601f8401126124b4576124b361224e565b5b8235905067ffffffffffffffff8111156124d1576124d0612253565b5b6020830191508360208202830111156124ed576124ec612258565b5b9250929050565b6000806020838503121561250b5761250a6121ba565b5b600083013567ffffffffffffffff811115612529576125286121bf565b5b6125358582860161249e565b92509250509250929050565b61254a816121e4565b82525050565b60006020820190506125656000830184612541565b92915050565b600061010082019050612581600083018b612186565b61258e602083018a612186565b61259b6040830189612186565b6125a86060830188612186565b6125b56080830187612186565b6125c260a0830186612186565b6125cf60c0830185612186565b6125dc60e0830184612186565b9998505050505050505050565b6000602082840312156125ff576125fe6121ba565b5b600061260d84828501612239565b91505092915050565b6000819050919050565b600061263b612636612631846121c4565b612616565b6121c4565b9050919050565b600061264d82612620565b9050919050565b600061265f82612642565b9050919050565b61266f81612654565b82525050565b600060208201905061268a6000830184612666565b92915050565b600082825260208201905092915050565b60006126ac826123be565b6126b68185612690565b93506126c1836123da565b8060005b838110156126f25781516126d988826123f9565b97506126e483612411565b9250506001810190506126c5565b5085935050505092915050565b60006101208301600083015161271860008601826123ea565b50602083015161272b60208601826123ea565b50604083015161273e60408601826123ea565b50606083015161275160608601826123ea565b50608083015161276460808601826123ea565b5060a083015161277760a08601826123ea565b5060c083015161278a60c08601826123ea565b5060e083015161279d60e08601826123ea565b506101008301518482036101008601526127b782826126a1565b9150508091505092915050565b600060208201905081810360008301526127de81846126ff565b905092915050565b60006127f182612642565b9050919050565b612801816127e6565b82525050565b600060208201905061281c60008301846127f8565b92915050565b7f4e487b7100000000000000000000000000000000000000000000000000000000600052601160045260246000fd5b600061285c8261217c565b91506128678361217c565b925082820390508181111561287f5761287e612822565b5b92915050565b60006128908261217c565b915061289b8361217c565b92508282019050808211156128b3576128b2612822565b5b92915050565b60006128c48261217c565b91506128cf8361217c565b92508282026128dd8161217c565b915082820484148315176128f4576128f3612822565b5b5092915050565b600082825260208201905092915050565b82818337600083830152505050565b6000601f19601f8301169050919050565b600061293883856128fb565b935061294583858461290c565b61294e8361291b565b840190509392505050565b6000602082019050818103600083015261297481848661292c565b90509392505050565b7f4e487b7100000000000000000000000000000000000000000000000000000000600052604160045260246000fd5b6129b58261291b565b810181811067ffffffffffffffff821117156129d4576129d361297d565b5b80604052505050565b60006129e76121b0565b90506129f382826129ac565b919050565b600067ffffffffffffffff821115612a1357612a1261297d565b5b602082029050602081019050919050565b600081519050612a3381612222565b92915050565b6000612a4c612a47846129f8565b6129dd565b90508083825260208201905060208402830185811115612a6f57612a6e612258565b5b835b81811015612a985780612a848882612a24565b845260208401935050602081019050612a71565b5050509392505050565b600082601f830112612ab757612ab661224e565b5b8151612ac7848260208601612a39565b91505092915050565b600060208284031215612ae657612ae56121ba565b5b600082015167ffffffffffffffff811115612b0457612b036121bf565b5b612b1084828501612aa2565b91505092915050565b600082825260208201905092915050565b7f4e46542d423a204e6f20746f6b656e204944732070726f766964656400000000600082015250565b6000612b60601c83612b19565b9150612b6b82612b2a565b602082019050919050565b60006020820190508181036000830152612b8f81612b53565b9050919050565b7f4e487b7100000000000000000000000000000000000000000000000000000000600052603260045260246000fd5b600081519050612bd4816121f6565b92915050565b600060208284031215612bf057612bef6121ba565b5b6000612bfe84828501612bc5565b91505092915050565b7f4e46542d423a204e6f74206f776e6572206f6620746f6b656e20494400000000600082015250565b6000612c3d601c83612b19565b9150612c4882612c07565b602082019050919050565b60006020820190508181036000830152612c6c81612c30565b9050919050565b6000612c7e8261217c565b91507fffffffffffffffffffffffffffffffffffffffffffffffffffffffffffffffff8203612cb057612caf612822565b5b600182019050919050565b6000606082019050612cd06000830186612541565b612cdd6020830185612541565b612cea6040830184612186565b949350505050565b600060208284031215612d0857612d076121ba565b5b6000612d1684828501612a24565b91505092915050565b7f546f6b656e413a20596f752063616e2774207769746864726177206e6f770000600082015250565b6000612d55601e83612b19565b9150612d6082612d1f565b602082019050919050565b60006020820190508181036000830152612d8481612d48565b9050919050565b7f546f6b656e413a204e6f20686176652072657761726420746f2057697468647260008201527f6177207265776172640000000000000000000000000000000000000000000000602082015250565b6000612de7602983612b19565b9150612df282612d8b565b604082019050919050565b60006020820190508181036000830152612e1681612dda565b9050919050565b6000604082019050612e326000830185612541565b612e3f6020830184612186565b9392505050565b7f436c61696d205265776172643a204e6f20686176652072657761726421000000600082015250565b6000612e7c601d83612b19565b9150612e8782612e46565b602082019050919050565b60006020820190508181036000830152612eab81612e6f565b9050919050565b7f4e46542d423a20496e76616c696420746f6b656e496400000000000000000000600082015250565b6000612ee8601683612b19565b9150612ef382612eb2565b602082019050919050565b60006020820190508181036000830152612f1781612edb565b9050919050565b7f4e46542d423a204e6f206465706f736974000000000000000000000000000000600082015250565b6000612f54601183612b19565b9150612f5f82612f1e565b602082019050919050565b60006020820190508181036000830152612f8381612f47565b9050919050565b7f4e46542d423a20596f752063616e2774207769746864726177206e6f77000000600082015250565b6000612fc0601d83612b19565b9150612fcb82612f8a565b602082019050919050565b60006020820190508181036000830152612fef81612fb3565b9050919050565b7f4e487b7100000000000000000000000000000000000000000000000000000000600052603160045260246000fd5b7f546f6b656e413a2066617563657420616d6f756e74206d75737420626520677260008201527f6561746572207468616e207a65726f0000000000000000000000000000000000602082015250565b6000613081602f83612b19565b915061308c82613025565b604082019050919050565b600060208201905081810360008301526130b081613074565b9050919050565b7f546f6b656e413a206465706f73697420616d6f756e74206d757374206265206760008201527f726561746572207468616e207a65726f00000000000000000000000000000000602082015250565b6000613113603083612b19565b915061311e826130b7565b604082019050919050565b6000602082019050818103600083015261314281613106565b9050919050565b7f546f6b656e413a20696e73756666696369656e742062616c616e636520696e2060008201527f636f6e7472616374000000000000000000000000000000000000000000000000602082015250565b60006131a5602883612b19565b91506131b082613149565b604082019050919050565b600060208201905081810360008301526131d481613198565b9050919050565b60008115159050919050565b6131f0816131db565b81146131fb57600080fd5b50565b60008151905061320d816131e7565b92915050565b600060208284031215613229576132286121ba565b5b6000613237848285016131fe565b91505092915050565b7f4e487b7100000000000000000000000000000000000000000000000000000000600052601260045260246000fd5b600061327a8261217c565b91506132858361217c565b92508261329557613294613240565b5b82820490509291505056fea2646970667358221220e6ae8fe9b5bc2521ed82d463ebfa56eadee1f5f33bc13208085bb656f2b4aecc64736f6c63430008140033",
  "linkReferences": {},
  "deployedLinkReferences": {}
}