{
  "_format": "hh-sol-artifact-1",
  "contractName": "ContractHandle",
  "sourceName": "contracts/ContractHandle.sol",
  "abi": [
    {
      "inputs": [
        {
          "internalType": "contract TokenERC20",
          "name": "_tokenERC20",
          "type": "address"
        },
        {
          "internalType": "contract TokenERC721",
          "name": "_tokenERC721",
          "type": "address"
        }
      ],
      "stateMutability": "nonpayable",
      "type": "constructor"
    },
    {
      "inputs": [],
      "name": "ReentrancyGuardReentrantCall",
      "type": "error"
    },
    {
      "anonymous": false,
      "inputs": [
        {
          "indexed": false,
          "internalType": "uint256",
          "name": "data",
          "type": "uint256"
        },
        {
          "indexed": false,
          "internalType": "address",
          "name": "_from",
          "type": "address"
        },
        {
          "indexed": false,
          "internalType": "address",
          "name": "_to",
          "type": "address"
        }
      ],
      "name": "getData",
      "type": "event"
    },
    {
      "inputs": [],
      "name": "MINIMUM_DEPOSIT_FOR_CERTIFICATE",
      "outputs": [
        {
          "internalType": "uint256",
          "name": "",
          "type": "uint256"
        }
      ],
      "stateMutability": "view",
      "type": "function"
    },
    {
      "inputs": [],
      "name": "baseAPR",
      "outputs": [
        {
          "internalType": "uint256",
          "name": "",
          "type": "uint256"
        }
      ],
      "stateMutability": "view",
      "type": "function"
    },
    {
      "inputs": [],
      "name": "bonusAPR",
      "outputs": [
        {
          "internalType": "uint256",
          "name": "",
          "type": "uint256"
        }
      ],
      "stateMutability": "view",
      "type": "function"
    },
    {
      "inputs": [],
      "name": "calculateLastRewardERC20",
      "outputs": [
        {
          "internalType": "uint256",
          "name": "",
          "type": "uint256"
        }
      ],
      "stateMutability": "view",
      "type": "function"
    },
    {
      "inputs": [],
      "name": "calculateRewardERC20",
      "outputs": [
        {
          "internalType": "uint256",
          "name": "",
          "type": "uint256"
        }
      ],
      "stateMutability": "view",
      "type": "function"
    },
    {
      "inputs": [],
      "name": "claimRewardERC20",
      "outputs": [],
      "stateMutability": "nonpayable",
      "type": "function"
    },
    {
      "inputs": [
        {
          "internalType": "uint256",
          "name": "_amount",
          "type": "uint256"
        }
      ],
      "name": "depositERC20",
      "outputs": [],
      "stateMutability": "nonpayable",
      "type": "function"
    },
    {
      "inputs": [
        {
          "internalType": "uint256[]",
          "name": "tokenId",
          "type": "uint256[]"
        }
      ],
      "name": "depositNFTB",
      "outputs": [],
      "stateMutability": "nonpayable",
      "type": "function"
    },
    {
      "inputs": [
        {
          "internalType": "uint256",
          "name": "_amount",
          "type": "uint256"
        }
      ],
      "name": "faucetERC20",
      "outputs": [],
      "stateMutability": "nonpayable",
      "type": "function"
    },
    {
      "inputs": [],
      "name": "lockTime",
      "outputs": [
        {
          "internalType": "uint256",
          "name": "",
          "type": "uint256"
        }
      ],
      "stateMutability": "view",
      "type": "function"
    },
    {
      "inputs": [
        {
          "internalType": "address",
          "name": "",
          "type": "address"
        }
      ],
      "name": "stakingInfo",
      "outputs": [
        {
          "internalType": "uint256",
          "name": "totalAmountERC20",
          "type": "uint256"
        },
        {
          "internalType": "uint256",
          "name": "APR",
          "type": "uint256"
        },
        {
          "internalType": "uint256",
          "name": "startTimeDeposit",
          "type": "uint256"
        },
        {
          "internalType": "uint256",
          "name": "lastTimeDeposit",
          "type": "uint256"
        },
        {
          "internalType": "uint256",
          "name": "mintNFTbCount",
          "type": "uint256"
        },
        {
          "internalType": "uint256",
          "name": "totalRewardERC20",
          "type": "uint256"
        },
        {
          "internalType": "uint256",
          "name": "latRewardERC20",
          "type": "uint256"
        }
      ],
      "stateMutability": "view",
      "type": "function"
    },
    {
      "inputs": [
        {
          "internalType": "address",
          "name": "",
          "type": "address"
        }
      ],
      "name": "stakingInfoNFTB",
      "outputs": [
        {
          "internalType": "uint256",
          "name": "totalAmountERC721",
          "type": "uint256"
        },
        {
          "internalType": "uint256",
          "name": "startTimeDeposit",
          "type": "uint256"
        }
      ],
      "stateMutability": "view",
      "type": "function"
    },
    {
      "inputs": [],
      "name": "withRewardERC20",
      "outputs": [],
      "stateMutability": "nonpayable",
      "type": "function"
    },
    {
      "inputs": [
        {
          "internalType": "uint256[]",
          "name": "tokenId",
          "type": "uint256[]"
        }
      ],
      "name": "withRewardNFTB",
      "outputs": [],
      "stateMutability": "nonpayable",
      "type": "function"
    }
  ],
  "bytecode": "0x608060405261032060035560c8600455601e6005553480156200002157600080fd5b506040516200217d3803806200217d83398181016040528101906200004791906200019c565b600160008190555081600160006101000a81548173ffffffffffffffffffffffffffffffffffffffff021916908373ffffffffffffffffffffffffffffffffffffffff16021790555080600260006101000a81548173ffffffffffffffffffffffffffffffffffffffff021916908373ffffffffffffffffffffffffffffffffffffffff1602179055505050620001e3565b600080fd5b600073ffffffffffffffffffffffffffffffffffffffff82169050919050565b60006200010b82620000de565b9050919050565b60006200011f82620000fe565b9050919050565b620001318162000112565b81146200013d57600080fd5b50565b600081519050620001518162000126565b92915050565b60006200016482620000fe565b9050919050565b620001768162000157565b81146200018257600080fd5b50565b60008151905062000196816200016b565b92915050565b60008060408385031215620001b657620001b5620000d9565b5b6000620001c68582860162000140565b9250506020620001d98582860162000185565b9150509250929050565b611f8a80620001f36000396000f3fe608060405234801561001057600080fd5b50600436106100ea5760003560e01c80637e34b4f91161008c578063b3a36f1e11610066578063b3a36f1e14610205578063b79092fd14610223578063ce55f9471461023f578063e08835fd1461025d576100ea565b80637e34b4f91461019557806394eecb50146101b35780639b3a6c88146101e9576100ea565b806358ac0e80116100c857806358ac0e80146101475780636014a449146101655780636a78c7d21461016f5780636bfcf13f1461018b576100ea565b80630882e64e146100ef5780630d6680871461010d57806336ed1f0d1461012b575b600080fd5b6100f761028e565b6040516101049190611529565b60405180910390f35b6101156103e3565b6040516101229190611529565b60405180910390f35b610145600480360381019061014091906115b3565b6103e9565b005b61014f6107d1565b60405161015c9190611529565b60405180910390f35b61016d6107d7565b005b610189600480360381019061018491906115b3565b61091d565b005b610193610c99565b005b61019d610e8d565b6040516101aa9190611529565b60405180910390f35b6101cd60048036038101906101c8919061165e565b610fe2565b6040516101e0979695949392919061168b565b60405180910390f35b61020360048036038101906101fe9190611726565b611024565b005b61020d6110f9565b60405161021a9190611529565b60405180910390f35b61023d60048036038101906102389190611726565b6110ff565b005b61024761148e565b6040516102549190611529565b60405180910390f35b6102776004803603810190610272919061165e565b61149c565b604051610285929190611753565b60405180910390f35b600080600160009054906101000a900473ffffffffffffffffffffffffffffffffffffffff1673ffffffffffffffffffffffffffffffffffffffff166370a08231336040518263ffffffff1660e01b81526004016102ec919061178b565b602060405180830381865afa158015610309573d6000803e3d6000fd5b505050506040513d601f19601f8201168201806040525081019061032d91906117bb565b90506000600660003373ffffffffffffffffffffffffffffffffffffffff1673ffffffffffffffffffffffffffffffffffffffff16815260200190815260200160002090506000816002015490506000810361038f57600093505050506103e0565b6000814261039d9190611817565b9050600060b4826103ae919061187a565b6127108560010154876103c191906118ab565b6103cb919061187a565b6103d591906118ab565b905080955050505050505b90565b60055481565b6103f16114c0565b60008282905011610437576040517f08c379a000000000000000000000000000000000000000000000000000000000815260040161042e9061194a565b60405180910390fd5b60005b8282905081101561057a573373ffffffffffffffffffffffffffffffffffffffff16600260009054906101000a900473ffffffffffffffffffffffffffffffffffffffff1673ffffffffffffffffffffffffffffffffffffffff16636352211e8585858181106104ad576104ac61196a565b5b905060200201356040518263ffffffff1660e01b81526004016104d09190611529565b602060405180830381865afa1580156104ed573d6000803e3d6000fd5b505050506040513d601f19601f8201168201806040525081019061051191906119ae565b73ffffffffffffffffffffffffffffffffffffffff1614610567576040517f08c379a000000000000000000000000000000000000000000000000000000000815260040161055e9061194a565b60405180910390fd5b8080610572906119db565b91505061043a565b506000600660003373ffffffffffffffffffffffffffffffffffffffff1673ffffffffffffffffffffffffffffffffffffffff16815260200190815260200160002090506000600760003373ffffffffffffffffffffffffffffffffffffffff1673ffffffffffffffffffffffffffffffffffffffff16815260200190815260200160002090506000816000015411610648576040517f08c379a000000000000000000000000000000000000000000000000000000000815260040161063f90611a6f565b60405180910390fd5b60005b8484905081101561075757600260009054906101000a900473ffffffffffffffffffffffffffffffffffffffff1673ffffffffffffffffffffffffffffffffffffffff166342842e0e33308888868181106106a9576106a861196a565b5b905060200201356040518463ffffffff1660e01b81526004016106ce93929190611a8f565b600060405180830381600087803b1580156106e857600080fd5b505af11580156106fc573d6000803e3d6000fd5b50505050816002018585838181106107175761071661196a565b5b905060200201359080600181540180825580915050600190039060005260206000200160009091909190915055808061074f906119db565b91505061064b565b5061076061028e565b82600501819055504282600201819055508383905060045461078291906118ab565b8260010160008282546107959190611ac6565b92505081905550838390508160000160008282546107b39190611ac6565b9250508190555042816001018190555050506107cd611506565b5050565b60035481565b6000600660003373ffffffffffffffffffffffffffffffffffffffff1673ffffffffffffffffffffffffffffffffffffffff16815260200190815260200160002090506000816005015411610861576040517f08c379a000000000000000000000000000000000000000000000000000000000815260040161085890611b46565b60405180910390fd5b600160009054906101000a900473ffffffffffffffffffffffffffffffffffffffff1673ffffffffffffffffffffffffffffffffffffffff1663a9059cbb3383600501546040518363ffffffff1660e01b81526004016108c2929190611b66565b6020604051808303816000875af11580156108e1573d6000803e3d6000fd5b505050506040513d601f19601f820116820180604052508101906109059190611bc7565b50600081600501819055506000816002018190555050565b60008282905011610963576040517f08c379a000000000000000000000000000000000000000000000000000000000815260040161095a9061194a565b60405180910390fd5b6000600660003373ffffffffffffffffffffffffffffffffffffffff1673ffffffffffffffffffffffffffffffffffffffff16815260200190815260200160002090506000600760003373ffffffffffffffffffffffffffffffffffffffff1673ffffffffffffffffffffffffffffffffffffffff16815260200190815260200160002090506000816000015411610a30576040517f08c379a0000000000000000000000000000000000000000000000000000000008152600401610a2790611a6f565b60405180910390fd5b426005548260010154610a439190611ac6565b1115610a84576040517f08c379a0000000000000000000000000000000000000000000000000000000008152600401610a7b90611c40565b60405180910390fd5b60005b84849050811015610c2f576000858583818110610aa757610aa661196a565b5b9050602002013590506000805b8460020180549050811015610c195782856002018281548110610ada57610ad961196a565b5b906000526020600020015403610c0657600260009054906101000a900473ffffffffffffffffffffffffffffffffffffffff1673ffffffffffffffffffffffffffffffffffffffff166342842e0e3033866040518463ffffffff1660e01b8152600401610b4993929190611a8f565b600060405180830381600087803b158015610b6357600080fd5b505af1158015610b77573d6000803e3d6000fd5b505050508460020160018660020180549050610b939190611817565b81548110610ba457610ba361196a565b5b9060005260206000200154856002018281548110610bc557610bc461196a565b5b906000526020600020018190555084600201805480610be757610be6611c60565b5b6001900381819060005260206000200160009055905560019150610c19565b8080610c11906119db565b915050610ab4565b5050508080610c27906119db565b915050610a87565b5083839050816000016000828254610c479190611817565b92505081905550610c5661028e565b826005018190555083839050600454610c6f91906118ab565b826001016000828254610c829190611817565b925050819055506000826002018190555050505050565b6000600660003373ffffffffffffffffffffffffffffffffffffffff1673ffffffffffffffffffffffffffffffffffffffff1681526020019081526020016000209050426005548260030154610cef9190611ac6565b1015610d30576040517f08c379a0000000000000000000000000000000000000000000000000000000008152600401610d2790611cdb565b60405180910390fd5b6000816000015411610d77576040517f08c379a0000000000000000000000000000000000000000000000000000000008152600401610d6e90611d47565b60405180910390fd5b600081600501548260000154610d8d9190611ac6565b9050600160009054906101000a900473ffffffffffffffffffffffffffffffffffffffff1673ffffffffffffffffffffffffffffffffffffffff1663a9059cbb33836040518363ffffffff1660e01b8152600401610dec929190611b66565b6020604051808303816000875af1158015610e0b573d6000803e3d6000fd5b505050506040513d601f19601f82011682018060405250810190610e2f9190611bc7565b506000826000018190555060008260050181905550600082600201819055507f76e22833d0a8b86184f3dda6110138d8c1801a26ec78fb9a6e437ecf3911793b813033604051610e8193929190611d67565b60405180910390a15050565b600080600160009054906101000a900473ffffffffffffffffffffffffffffffffffffffff1673ffffffffffffffffffffffffffffffffffffffff166370a08231336040518263ffffffff1660e01b8152600401610eeb919061178b565b602060405180830381865afa158015610f08573d6000803e3d6000fd5b505050506040513d601f19601f82011682018060405250810190610f2c91906117bb565b90506000600660003373ffffffffffffffffffffffffffffffffffffffff1673ffffffffffffffffffffffffffffffffffffffff168152602001908152602001600020905060008160030154905060008103610f8e5760009350505050610fdf565b60008142610f9c9190611817565b9050600060b482610fad919061187a565b612710856001015487610fc091906118ab565b610fca919061187a565b610fd491906118ab565b905080955050505050505b90565b60066020528060005260406000206000915090508060000154908060010154908060020154908060030154908060040154908060050154908060060154905087565b60008111611067576040517f08c379a000000000000000000000000000000000000000000000000000000000815260040161105e90611e10565b60405180910390fd5b600160009054906101000a900473ffffffffffffffffffffffffffffffffffffffff1673ffffffffffffffffffffffffffffffffffffffff16637b56c2b233836040518363ffffffff1660e01b81526004016110c4929190611b66565b600060405180830381600087803b1580156110de57600080fd5b505af11580156110f2573d6000803e3d6000fd5b5050505050565b60045481565b6111076114c0565b6000600660003373ffffffffffffffffffffffffffffffffffffffff1673ffffffffffffffffffffffffffffffffffffffff16815260200190815260200160002090506000821161118d576040517f08c379a000000000000000000000000000000000000000000000000000000000815260040161118490611ea2565b60405180910390fd5b81600160009054906101000a900473ffffffffffffffffffffffffffffffffffffffff1673ffffffffffffffffffffffffffffffffffffffff166370a08231336040518263ffffffff1660e01b81526004016111e9919061178b565b602060405180830381865afa158015611206573d6000803e3d6000fd5b505050506040513d601f19601f8201168201806040525081019061122a91906117bb565b101561126b576040517f08c379a000000000000000000000000000000000000000000000000000000000815260040161126290611f34565b60405180910390fd5b600160009054906101000a900473ffffffffffffffffffffffffffffffffffffffff1673ffffffffffffffffffffffffffffffffffffffff166323b872dd3330856040518463ffffffff1660e01b81526004016112ca93929190611a8f565b6020604051808303816000875af11580156112e9573d6000803e3d6000fd5b505050506040513d601f19601f8201168201806040525081019061130d9190611bc7565b50818160000160008282546113229190611ac6565b92505081905550600081600201540361134e57428160020181905550600354816001018190555061137a565b61135661028e565b8160050160008282546113699190611ac6565b925050819055504281600201819055505b6000816004015469d3c21bcecceda1000000836000015461139b919061187a565b6113a59190611817565b905060005b8181101561148057600260009054906101000a900473ffffffffffffffffffffffffffffffffffffffff1673ffffffffffffffffffffffffffffffffffffffff16636a627842336040518263ffffffff1660e01b815260040161140d919061178b565b6020604051808303816000875af115801561142c573d6000803e3d6000fd5b505050506040513d601f19601f8201168201806040525081019061145091906117bb565b5060018360040160008282546114669190611ac6565b925050819055508080611478906119db565b9150506113aa565b50505061148b611506565b50565b69d3c21bcecceda100000081565b60076020528060005260406000206000915090508060000154908060010154905082565b6002600054036114fc576040517f3ee5aeb500000000000000000000000000000000000000000000000000000000815260040160405180910390fd5b6002600081905550565b6001600081905550565b6000819050919050565b61152381611510565b82525050565b600060208201905061153e600083018461151a565b92915050565b600080fd5b600080fd5b600080fd5b600080fd5b600080fd5b60008083601f8401126115735761157261154e565b5b8235905067ffffffffffffffff8111156115905761158f611553565b5b6020830191508360208202830111156115ac576115ab611558565b5b9250929050565b600080602083850312156115ca576115c9611544565b5b600083013567ffffffffffffffff8111156115e8576115e7611549565b5b6115f48582860161155d565b92509250509250929050565b600073ffffffffffffffffffffffffffffffffffffffff82169050919050565b600061162b82611600565b9050919050565b61163b81611620565b811461164657600080fd5b50565b60008135905061165881611632565b92915050565b60006020828403121561167457611673611544565b5b600061168284828501611649565b91505092915050565b600060e0820190506116a0600083018a61151a565b6116ad602083018961151a565b6116ba604083018861151a565b6116c7606083018761151a565b6116d4608083018661151a565b6116e160a083018561151a565b6116ee60c083018461151a565b98975050505050505050565b61170381611510565b811461170e57600080fd5b50565b600081359050611720816116fa565b92915050565b60006020828403121561173c5761173b611544565b5b600061174a84828501611711565b91505092915050565b6000604082019050611768600083018561151a565b611775602083018461151a565b9392505050565b61178581611620565b82525050565b60006020820190506117a0600083018461177c565b92915050565b6000815190506117b5816116fa565b92915050565b6000602082840312156117d1576117d0611544565b5b60006117df848285016117a6565b91505092915050565b7f4e487b7100000000000000000000000000000000000000000000000000000000600052601160045260246000fd5b600061182282611510565b915061182d83611510565b9250828203905081811115611845576118446117e8565b5b92915050565b7f4e487b7100000000000000000000000000000000000000000000000000000000600052601260045260246000fd5b600061188582611510565b915061189083611510565b9250826118a05761189f61184b565b5b828204905092915050565b60006118b682611510565b91506118c183611510565b92508282026118cf81611510565b915082820484148315176118e6576118e56117e8565b5b5092915050565b600082825260208201905092915050565b7f4e46542d423a20496e76616c696420746f6b656e496400000000000000000000600082015250565b60006119346016836118ed565b915061193f826118fe565b602082019050919050565b6000602082019050818103600083015261196381611927565b9050919050565b7f4e487b7100000000000000000000000000000000000000000000000000000000600052603260045260246000fd5b6000815190506119a881611632565b92915050565b6000602082840312156119c4576119c3611544565b5b60006119d284828501611999565b91505092915050565b60006119e682611510565b91507fffffffffffffffffffffffffffffffffffffffffffffffffffffffffffffffff8203611a1857611a176117e8565b5b600182019050919050565b7f4e46542d423a204e6f206465706f736974000000000000000000000000000000600082015250565b6000611a596011836118ed565b9150611a6482611a23565b602082019050919050565b60006020820190508181036000830152611a8881611a4c565b9050919050565b6000606082019050611aa4600083018661177c565b611ab1602083018561177c565b611abe604083018461151a565b949350505050565b6000611ad182611510565b9150611adc83611510565b9250828201905080821115611af457611af36117e8565b5b92915050565b7f546f6b656e413a204e6f20726577617264000000000000000000000000000000600082015250565b6000611b306011836118ed565b9150611b3b82611afa565b602082019050919050565b60006020820190508181036000830152611b5f81611b23565b9050919050565b6000604082019050611b7b600083018561177c565b611b88602083018461151a565b9392505050565b60008115159050919050565b611ba481611b8f565b8114611baf57600080fd5b50565b600081519050611bc181611b9b565b92915050565b600060208284031215611bdd57611bdc611544565b5b6000611beb84828501611bb2565b91505092915050565b7f4e46542d423a20596f752063616e2774207769746864726177206e6f77000000600082015250565b6000611c2a601d836118ed565b9150611c3582611bf4565b602082019050919050565b60006020820190508181036000830152611c5981611c1d565b9050919050565b7f4e487b7100000000000000000000000000000000000000000000000000000000600052603160045260246000fd5b7f546f6b656e413a20596f752063616e2774207769746864726177206e6f770000600082015250565b6000611cc5601e836118ed565b9150611cd082611c8f565b602082019050919050565b60006020820190508181036000830152611cf481611cb8565b9050919050565b7f546f6b656e413a204e6f206465706f7369740000000000000000000000000000600082015250565b6000611d316012836118ed565b9150611d3c82611cfb565b602082019050919050565b60006020820190508181036000830152611d6081611d24565b9050919050565b6000606082019050611d7c600083018661151a565b611d89602083018561177c565b611d96604083018461177c565b949350505050565b7f546f6b656e413a2066617563657420616d6f756e74206d75737420626520677260008201527f6561746572207468616e207a65726f0000000000000000000000000000000000602082015250565b6000611dfa602f836118ed565b9150611e0582611d9e565b604082019050919050565b60006020820190508181036000830152611e2981611ded565b9050919050565b7f546f6b656e413a206465706f73697420616d6f756e74206d757374206265206760008201527f726561746572207468616e207a65726f00000000000000000000000000000000602082015250565b6000611e8c6030836118ed565b9150611e9782611e30565b604082019050919050565b60006020820190508181036000830152611ebb81611e7f565b9050919050565b7f546f6b656e413a20696e73756666696369656e742062616c616e636520696e2060008201527f636f6e7472616374000000000000000000000000000000000000000000000000602082015250565b6000611f1e6028836118ed565b9150611f2982611ec2565b604082019050919050565b60006020820190508181036000830152611f4d81611f11565b905091905056fea264697066735822122059a9b8303f96fb6069a5cfa503c533e6eb9e4951f9378c3cce21ebf6bdd0777c64736f6c63430008140033",
  "linkReferences": {},
  "deployedLinkReferences": {}
}