{
  "_format": "hh-sol-artifact-1",
  "contractName": "ContractHandle",
  "sourceName": "contracts/ContractHandle.sol",
  "abi": [
    {
      "inputs": [
        {
          "internalType": "contract TokenERC20",
          "name": "_tokenERC20",
          "type": "address"
        },
        {
          "internalType": "contract TokenERC721",
          "name": "_tokenERC721",
          "type": "address"
        }
      ],
      "stateMutability": "nonpayable",
      "type": "constructor"
    },
    {
      "inputs": [
        {
          "internalType": "address",
          "name": "spender",
          "type": "address"
        },
        {
          "internalType": "uint256",
          "name": "allowance",
          "type": "uint256"
        },
        {
          "internalType": "uint256",
          "name": "needed",
          "type": "uint256"
        }
      ],
      "name": "ERC20InsufficientAllowance",
      "type": "error"
    },
    {
      "inputs": [
        {
          "internalType": "address",
          "name": "sender",
          "type": "address"
        },
        {
          "internalType": "uint256",
          "name": "balance",
          "type": "uint256"
        },
        {
          "internalType": "uint256",
          "name": "needed",
          "type": "uint256"
        }
      ],
      "name": "ERC20InsufficientBalance",
      "type": "error"
    },
    {
      "inputs": [
        {
          "internalType": "address",
          "name": "approver",
          "type": "address"
        }
      ],
      "name": "ERC20InvalidApprover",
      "type": "error"
    },
    {
      "inputs": [
        {
          "internalType": "address",
          "name": "receiver",
          "type": "address"
        }
      ],
      "name": "ERC20InvalidReceiver",
      "type": "error"
    },
    {
      "inputs": [
        {
          "internalType": "address",
          "name": "sender",
          "type": "address"
        }
      ],
      "name": "ERC20InvalidSender",
      "type": "error"
    },
    {
      "inputs": [
        {
          "internalType": "address",
          "name": "spender",
          "type": "address"
        }
      ],
      "name": "ERC20InvalidSpender",
      "type": "error"
    },
    {
      "inputs": [],
      "name": "MathOverflowedMulDiv",
      "type": "error"
    },
    {
      "inputs": [
        {
          "internalType": "address",
          "name": "owner",
          "type": "address"
        }
      ],
      "name": "OwnableInvalidOwner",
      "type": "error"
    },
    {
      "inputs": [
        {
          "internalType": "address",
          "name": "account",
          "type": "address"
        }
      ],
      "name": "OwnableUnauthorizedAccount",
      "type": "error"
    },
    {
      "inputs": [],
      "name": "ReentrancyGuardReentrantCall",
      "type": "error"
    },
    {
      "anonymous": false,
      "inputs": [
        {
          "indexed": true,
          "internalType": "address",
          "name": "owner",
          "type": "address"
        },
        {
          "indexed": true,
          "internalType": "address",
          "name": "spender",
          "type": "address"
        },
        {
          "indexed": false,
          "internalType": "uint256",
          "name": "value",
          "type": "uint256"
        }
      ],
      "name": "Approval",
      "type": "event"
    },
    {
      "anonymous": false,
      "inputs": [
        {
          "indexed": true,
          "internalType": "address",
          "name": "previousOwner",
          "type": "address"
        },
        {
          "indexed": true,
          "internalType": "address",
          "name": "newOwner",
          "type": "address"
        }
      ],
      "name": "OwnershipTransferred",
      "type": "event"
    },
    {
      "anonymous": false,
      "inputs": [
        {
          "indexed": true,
          "internalType": "address",
          "name": "from",
          "type": "address"
        },
        {
          "indexed": true,
          "internalType": "address",
          "name": "to",
          "type": "address"
        },
        {
          "indexed": false,
          "internalType": "uint256",
          "name": "value",
          "type": "uint256"
        }
      ],
      "name": "Transfer",
      "type": "event"
    },
    {
      "anonymous": false,
      "inputs": [
        {
          "indexed": false,
          "internalType": "uint256",
          "name": "data",
          "type": "uint256"
        },
        {
          "indexed": false,
          "internalType": "address",
          "name": "_from",
          "type": "address"
        },
        {
          "indexed": false,
          "internalType": "address",
          "name": "_to",
          "type": "address"
        }
      ],
      "name": "getData",
      "type": "event"
    },
    {
      "inputs": [],
      "name": "MINIMUM_DEPOSIT_FOR_CERTIFICATE",
      "outputs": [
        {
          "internalType": "uint256",
          "name": "",
          "type": "uint256"
        }
      ],
      "stateMutability": "view",
      "type": "function"
    },
    {
      "inputs": [],
      "name": "TOTAL_SUPPLY",
      "outputs": [
        {
          "internalType": "uint256",
          "name": "",
          "type": "uint256"
        }
      ],
      "stateMutability": "view",
      "type": "function"
    },
    {
      "inputs": [],
      "name": "TOTAL_faucet_MAX",
      "outputs": [
        {
          "internalType": "uint256",
          "name": "",
          "type": "uint256"
        }
      ],
      "stateMutability": "view",
      "type": "function"
    },
    {
      "inputs": [
        {
          "internalType": "address",
          "name": "owner",
          "type": "address"
        },
        {
          "internalType": "address",
          "name": "spender",
          "type": "address"
        }
      ],
      "name": "allowance",
      "outputs": [
        {
          "internalType": "uint256",
          "name": "",
          "type": "uint256"
        }
      ],
      "stateMutability": "view",
      "type": "function"
    },
    {
      "inputs": [
        {
          "internalType": "address",
          "name": "spender",
          "type": "address"
        },
        {
          "internalType": "uint256",
          "name": "value",
          "type": "uint256"
        }
      ],
      "name": "approve",
      "outputs": [
        {
          "internalType": "bool",
          "name": "",
          "type": "bool"
        }
      ],
      "stateMutability": "nonpayable",
      "type": "function"
    },
    {
      "inputs": [
        {
          "internalType": "address",
          "name": "_address",
          "type": "address"
        }
      ],
      "name": "balaceOfERC20",
      "outputs": [
        {
          "internalType": "uint256",
          "name": "",
          "type": "uint256"
        }
      ],
      "stateMutability": "view",
      "type": "function"
    },
    {
      "inputs": [],
      "name": "balaceOfERC20TotalSupply",
      "outputs": [
        {
          "internalType": "uint256",
          "name": "",
          "type": "uint256"
        }
      ],
      "stateMutability": "view",
      "type": "function"
    },
    {
      "inputs": [
        {
          "internalType": "address",
          "name": "_address",
          "type": "address"
        }
      ],
      "name": "balaceOfERC721",
      "outputs": [
        {
          "internalType": "uint256",
          "name": "",
          "type": "uint256"
        }
      ],
      "stateMutability": "view",
      "type": "function"
    },
    {
      "inputs": [],
      "name": "balaceOfERC721TotalSupply",
      "outputs": [
        {
          "internalType": "uint256",
          "name": "",
          "type": "uint256"
        }
      ],
      "stateMutability": "view",
      "type": "function"
    },
    {
      "inputs": [
        {
          "internalType": "address",
          "name": "account",
          "type": "address"
        }
      ],
      "name": "balanceOf",
      "outputs": [
        {
          "internalType": "uint256",
          "name": "",
          "type": "uint256"
        }
      ],
      "stateMutability": "view",
      "type": "function"
    },
    {
      "inputs": [],
      "name": "balanceOfTokenERC20",
      "outputs": [
        {
          "internalType": "uint256",
          "name": "",
          "type": "uint256"
        }
      ],
      "stateMutability": "view",
      "type": "function"
    },
    {
      "inputs": [],
      "name": "baseAPR",
      "outputs": [
        {
          "internalType": "uint256",
          "name": "",
          "type": "uint256"
        }
      ],
      "stateMutability": "view",
      "type": "function"
    },
    {
      "inputs": [],
      "name": "bonusAPR",
      "outputs": [
        {
          "internalType": "uint256",
          "name": "",
          "type": "uint256"
        }
      ],
      "stateMutability": "view",
      "type": "function"
    },
    {
      "inputs": [],
      "name": "calculateRewardERC20",
      "outputs": [
        {
          "internalType": "uint256",
          "name": "",
          "type": "uint256"
        }
      ],
      "stateMutability": "view",
      "type": "function"
    },
    {
      "inputs": [],
      "name": "claimRewardERC20",
      "outputs": [],
      "stateMutability": "nonpayable",
      "type": "function"
    },
    {
      "inputs": [],
      "name": "decimals",
      "outputs": [
        {
          "internalType": "uint8",
          "name": "",
          "type": "uint8"
        }
      ],
      "stateMutability": "view",
      "type": "function"
    },
    {
      "inputs": [
        {
          "internalType": "uint256",
          "name": "_amount",
          "type": "uint256"
        }
      ],
      "name": "depositERC20",
      "outputs": [],
      "stateMutability": "nonpayable",
      "type": "function"
    },
    {
      "inputs": [
        {
          "internalType": "uint256[]",
          "name": "tokenId",
          "type": "uint256[]"
        }
      ],
      "name": "depositNFTB",
      "outputs": [],
      "stateMutability": "nonpayable",
      "type": "function"
    },
    {
      "inputs": [
        {
          "internalType": "address",
          "name": "_to",
          "type": "address"
        },
        {
          "internalType": "uint256",
          "name": "_amount",
          "type": "uint256"
        }
      ],
      "name": "faucet",
      "outputs": [],
      "stateMutability": "nonpayable",
      "type": "function"
    },
    {
      "inputs": [
        {
          "internalType": "uint256",
          "name": "_amount",
          "type": "uint256"
        }
      ],
      "name": "faucetERC20",
      "outputs": [],
      "stateMutability": "nonpayable",
      "type": "function"
    },
    {
      "inputs": [],
      "name": "getCurrentAPR",
      "outputs": [
        {
          "internalType": "uint256",
          "name": "",
          "type": "uint256"
        }
      ],
      "stateMutability": "view",
      "type": "function"
    },
    {
      "inputs": [],
      "name": "getCurrentRewardERC20",
      "outputs": [
        {
          "internalType": "uint256",
          "name": "",
          "type": "uint256"
        }
      ],
      "stateMutability": "view",
      "type": "function"
    },
    {
      "inputs": [],
      "name": "lockTime",
      "outputs": [
        {
          "internalType": "uint256",
          "name": "",
          "type": "uint256"
        }
      ],
      "stateMutability": "view",
      "type": "function"
    },
    {
      "inputs": [],
      "name": "name",
      "outputs": [
        {
          "internalType": "string",
          "name": "",
          "type": "string"
        }
      ],
      "stateMutability": "view",
      "type": "function"
    },
    {
      "inputs": [],
      "name": "owner",
      "outputs": [
        {
          "internalType": "address",
          "name": "",
          "type": "address"
        }
      ],
      "stateMutability": "view",
      "type": "function"
    },
    {
      "inputs": [],
      "name": "renounceOwnership",
      "outputs": [],
      "stateMutability": "nonpayable",
      "type": "function"
    },
    {
      "inputs": [
        {
          "internalType": "address",
          "name": "",
          "type": "address"
        }
      ],
      "name": "stakingInfo",
      "outputs": [
        {
          "internalType": "uint256",
          "name": "totalAmountERC20",
          "type": "uint256"
        },
        {
          "internalType": "uint256",
          "name": "APR",
          "type": "uint256"
        },
        {
          "internalType": "uint256",
          "name": "bonusAPR",
          "type": "uint256"
        },
        {
          "internalType": "uint256",
          "name": "startTimeDeposit",
          "type": "uint256"
        },
        {
          "internalType": "uint256",
          "name": "totalRewardERC20",
          "type": "uint256"
        },
        {
          "internalType": "uint256",
          "name": "mintNFTbCount",
          "type": "uint256"
        }
      ],
      "stateMutability": "view",
      "type": "function"
    },
    {
      "inputs": [
        {
          "internalType": "address",
          "name": "",
          "type": "address"
        }
      ],
      "name": "stakingInfoNFTB",
      "outputs": [
        {
          "internalType": "uint256",
          "name": "totalAmountERC721",
          "type": "uint256"
        },
        {
          "internalType": "uint256",
          "name": "startTimeDeposit",
          "type": "uint256"
        },
        {
          "internalType": "uint256",
          "name": "bonusAPR",
          "type": "uint256"
        }
      ],
      "stateMutability": "view",
      "type": "function"
    },
    {
      "inputs": [],
      "name": "symbol",
      "outputs": [
        {
          "internalType": "string",
          "name": "",
          "type": "string"
        }
      ],
      "stateMutability": "view",
      "type": "function"
    },
    {
      "inputs": [],
      "name": "tokenERC20",
      "outputs": [
        {
          "internalType": "contract TokenERC20",
          "name": "",
          "type": "address"
        }
      ],
      "stateMutability": "view",
      "type": "function"
    },
    {
      "inputs": [],
      "name": "tokenERC721",
      "outputs": [
        {
          "internalType": "contract TokenERC721",
          "name": "",
          "type": "address"
        }
      ],
      "stateMutability": "view",
      "type": "function"
    },
    {
      "inputs": [],
      "name": "totalSupply",
      "outputs": [
        {
          "internalType": "uint256",
          "name": "",
          "type": "uint256"
        }
      ],
      "stateMutability": "view",
      "type": "function"
    },
    {
      "inputs": [
        {
          "internalType": "address",
          "name": "to",
          "type": "address"
        },
        {
          "internalType": "uint256",
          "name": "value",
          "type": "uint256"
        }
      ],
      "name": "transfer",
      "outputs": [
        {
          "internalType": "bool",
          "name": "",
          "type": "bool"
        }
      ],
      "stateMutability": "nonpayable",
      "type": "function"
    },
    {
      "inputs": [
        {
          "internalType": "address",
          "name": "from",
          "type": "address"
        },
        {
          "internalType": "address",
          "name": "to",
          "type": "address"
        },
        {
          "internalType": "uint256",
          "name": "value",
          "type": "uint256"
        }
      ],
      "name": "transferFrom",
      "outputs": [
        {
          "internalType": "bool",
          "name": "",
          "type": "bool"
        }
      ],
      "stateMutability": "nonpayable",
      "type": "function"
    },
    {
      "inputs": [
        {
          "internalType": "address",
          "name": "newOwner",
          "type": "address"
        }
      ],
      "name": "transferOwnership",
      "outputs": [],
      "stateMutability": "nonpayable",
      "type": "function"
    },
    {
      "inputs": [
        {
          "internalType": "address",
          "name": "_to",
          "type": "address"
        },
        {
          "internalType": "uint256",
          "name": "_amount",
          "type": "uint256"
        }
      ],
      "name": "transferRewardERC20",
      "outputs": [],
      "stateMutability": "nonpayable",
      "type": "function"
    },
    {
      "inputs": [
        {
          "internalType": "uint256",
          "name": "newBaseAPR",
          "type": "uint256"
        }
      ],
      "name": "updateAPR",
      "outputs": [],
      "stateMutability": "nonpayable",
      "type": "function"
    },
    {
      "inputs": [
        {
          "internalType": "uint256[]",
          "name": "tokenId",
          "type": "uint256[]"
        }
      ],
      "name": "withRewardNFTB",
      "outputs": [],
      "stateMutability": "nonpayable",
      "type": "function"
    },
    {
      "inputs": [],
      "name": "withdrawRewardERC20",
      "outputs": [],
      "stateMutability": "nonpayable",
      "type": "function"
    }
  ],
  "bytecode": "0x60806040526a084595161401484a000000600555610320600a5560c8600b55601e600c553480156200003057600080fd5b50604051620045c7380380620045c7833981810160405281019062000056919062000666565b336040518060400160405280600681526020017f746f6b656e4100000000000000000000000000000000000000000000000000008152506040518060400160405280600581526020017f45524332300000000000000000000000000000000000000000000000000000008152508160039081620000d4919062000927565b508060049081620000e6919062000927565b50505062000107306b033b2e3c9fd0803ce80000006200022060201b60201c565b6001600681905550600073ffffffffffffffffffffffffffffffffffffffff168173ffffffffffffffffffffffffffffffffffffffff1603620001845760006040517f1e4fbdf70000000000000000000000000000000000000000000000000000000081526004016200017b919062000a1f565b60405180910390fd5b6200019581620002ad60201b60201c565b5081600860006101000a81548173ffffffffffffffffffffffffffffffffffffffff021916908373ffffffffffffffffffffffffffffffffffffffff16021790555080600960006101000a81548173ffffffffffffffffffffffffffffffffffffffff021916908373ffffffffffffffffffffffffffffffffffffffff160217905550505062000b11565b600073ffffffffffffffffffffffffffffffffffffffff168273ffffffffffffffffffffffffffffffffffffffff1603620002955760006040517fec442f050000000000000000000000000000000000000000000000000000000081526004016200028c919062000a1f565b60405180910390fd5b620002a9600083836200037360201b60201c565b5050565b6000600760009054906101000a900473ffffffffffffffffffffffffffffffffffffffff16905081600760006101000a81548173ffffffffffffffffffffffffffffffffffffffff021916908373ffffffffffffffffffffffffffffffffffffffff1602179055508173ffffffffffffffffffffffffffffffffffffffff168173ffffffffffffffffffffffffffffffffffffffff167f8be0079c531659141344cd1fd0a4f28419497f9722a3daafe3b4186f6b6457e060405160405180910390a35050565b600073ffffffffffffffffffffffffffffffffffffffff168373ffffffffffffffffffffffffffffffffffffffff1603620003c9578060026000828254620003bc919062000a6b565b925050819055506200049f565b60008060008573ffffffffffffffffffffffffffffffffffffffff1673ffffffffffffffffffffffffffffffffffffffff1681526020019081526020016000205490508181101562000458578381836040517fe450d38c0000000000000000000000000000000000000000000000000000000081526004016200044f9392919062000ab7565b60405180910390fd5b8181036000808673ffffffffffffffffffffffffffffffffffffffff1673ffffffffffffffffffffffffffffffffffffffff16815260200190815260200160002081905550505b600073ffffffffffffffffffffffffffffffffffffffff168273ffffffffffffffffffffffffffffffffffffffff1603620004ea578060026000828254039250508190555062000537565b806000808473ffffffffffffffffffffffffffffffffffffffff1673ffffffffffffffffffffffffffffffffffffffff168152602001908152602001600020600082825401925050819055505b8173ffffffffffffffffffffffffffffffffffffffff168373ffffffffffffffffffffffffffffffffffffffff167fddf252ad1be2c89b69c2b068fc378daa952ba7f163c4a11628f55a4df523b3ef8360405162000596919062000af4565b60405180910390a3505050565b600080fd5b600073ffffffffffffffffffffffffffffffffffffffff82169050919050565b6000620005d582620005a8565b9050919050565b6000620005e982620005c8565b9050919050565b620005fb81620005dc565b81146200060757600080fd5b50565b6000815190506200061b81620005f0565b92915050565b60006200062e82620005c8565b9050919050565b620006408162000621565b81146200064c57600080fd5b50565b600081519050620006608162000635565b92915050565b6000806040838503121562000680576200067f620005a3565b5b600062000690858286016200060a565b9250506020620006a3858286016200064f565b9150509250929050565b600081519050919050565b7f4e487b7100000000000000000000000000000000000000000000000000000000600052604160045260246000fd5b7f4e487b7100000000000000000000000000000000000000000000000000000000600052602260045260246000fd5b600060028204905060018216806200072f57607f821691505b602082108103620007455762000744620006e7565b5b50919050565b60008190508160005260206000209050919050565b60006020601f8301049050919050565b600082821b905092915050565b600060088302620007af7fffffffffffffffffffffffffffffffffffffffffffffffffffffffffffffffff8262000770565b620007bb868362000770565b95508019841693508086168417925050509392505050565b6000819050919050565b6000819050919050565b60006200080862000802620007fc84620007d3565b620007dd565b620007d3565b9050919050565b6000819050919050565b6200082483620007e7565b6200083c62000833826200080f565b8484546200077d565b825550505050565b600090565b6200085362000844565b6200086081848462000819565b505050565b5b8181101562000888576200087c60008262000849565b60018101905062000866565b5050565b601f821115620008d757620008a1816200074b565b620008ac8462000760565b81016020851015620008bc578190505b620008d4620008cb8562000760565b83018262000865565b50505b505050565b600082821c905092915050565b6000620008fc60001984600802620008dc565b1980831691505092915050565b6000620009178383620008e9565b9150826002028217905092915050565b6200093282620006ad565b67ffffffffffffffff8111156200094e576200094d620006b8565b5b6200095a825462000716565b620009678282856200088c565b600060209050601f8311600181146200099f57600084156200098a578287015190505b62000996858262000909565b86555062000a06565b601f198416620009af866200074b565b60005b82811015620009d957848901518255600182019150602085019450602081019050620009b2565b86831015620009f95784890151620009f5601f891682620008e9565b8355505b6001600288020188555050505b505050505050565b62000a1981620005c8565b82525050565b600060208201905062000a36600083018462000a0e565b92915050565b7f4e487b7100000000000000000000000000000000000000000000000000000000600052601160045260246000fd5b600062000a7882620007d3565b915062000a8583620007d3565b925082820190508082111562000aa05762000a9f62000a3c565b5b92915050565b62000ab181620007d3565b82525050565b600060608201905062000ace600083018662000a0e565b62000add602083018562000aa6565b62000aec604083018462000aa6565b949350505050565b600060208201905062000b0b600083018462000aa6565b92915050565b613aa68062000b216000396000f3fe608060405234801561001057600080fd5b506004361061023d5760003560e01c80638cb8564d1161013b578063ba94f61b116100b8578063de9ad1341161007c578063de9ad13414610679578063e08835fd146106a9578063e7e2629e146106db578063e9adc770146106f7578063f2fde38b146107155761023d565b8063ba94f61b146105d1578063bcd19e70146105ef578063ce55f9471461060d578063d05dd73f1461062b578063dd62ed3e146106495761023d565b80639b3a6c88116100ff5780639b3a6c881461052d5780639d143e8e14610549578063a9059cbb14610567578063b3a36f1e14610597578063b79092fd146105b55761023d565b80638cb8564d1461046e5780638da5cb5b1461049e578063902d55a5146104bc57806394eecb50146104da57806395d89b411461050f5761023d565b8063499ff3ef116101c95780636a78c7d21161018d5780636a78c7d2146103de5780637098692e146103fa57806370a0823114610418578063715018a6146104485780637b56c2b2146104525761023d565b8063499ff3ef146103725780634ca903ba1461038e578063556e7cee146103ac57806358ac0e80146103b65780636014a449146103d45761023d565b806318160ddd1161021057806318160ddd146102cc57806321ae05c8146102ea57806323b872dd14610308578063313ce5671461033857806336ed1f0d146103565761023d565b806306fdde03146102425780630882e64e14610260578063095ea7b31461027e5780630d668087146102ae575b600080fd5b61024a610731565b6040516102579190612bae565b60405180910390f35b6102686107c3565b6040516102759190612be9565b60405180910390f35b61029860048036038101906102939190612c98565b61088c565b6040516102a59190612cf3565b60405180910390f35b6102b66108af565b6040516102c39190612be9565b60405180910390f35b6102d46108b5565b6040516102e19190612be9565b60405180910390f35b6102f26108bf565b6040516102ff9190612be9565b60405180910390f35b610322600480360381019061031d9190612d0e565b610933565b60405161032f9190612cf3565b60405180910390f35b610340610962565b60405161034d9190612d7d565b60405180910390f35b610370600480360381019061036b9190612dfd565b61096b565b005b61038c60048036038101906103879190612c98565b610e02565b005b610396610e5c565b6040516103a39190612be9565b60405180910390f35b6103b4610ef4565b005b6103be61113f565b6040516103cb9190612be9565b60405180910390f35b6103dc611145565b005b6103f860048036038101906103f39190612dfd565b611293565b005b610402611615565b60405161040f9190612be9565b60405180910390f35b610432600480360381019061042d9190612e4a565b611676565b60405161043f9190612be9565b60405180910390f35b6104506116be565b005b61046c60048036038101906104679190612c98565b6116d2565b005b61048860048036038101906104839190612e4a565b61179e565b6040516104959190612be9565b60405180910390f35b6104a6611843565b6040516104b39190612e86565b60405180910390f35b6104c461186d565b6040516104d19190612be9565b60405180910390f35b6104f460048036038101906104ef9190612e4a565b61187d565b60405161050696959493929190612ea1565b60405180910390f35b6105176118b9565b6040516105249190612bae565b60405180910390f35b61054760048036038101906105429190612f02565b61194b565b005b610551611a20565b60405161055e9190612f8e565b60405180910390f35b610581600480360381019061057c9190612c98565b611a46565b60405161058e9190612cf3565b60405180910390f35b61059f611a69565b6040516105ac9190612be9565b60405180910390f35b6105cf60048036038101906105ca9190612f02565b611a6f565b005b6105d9611deb565b6040516105e69190612be9565b60405180910390f35b6105f7611dfb565b6040516106049190612be9565b60405180910390f35b610615611e93565b6040516106229190612be9565b60405180910390f35b610633611ea1565b6040516106409190612be9565b60405180910390f35b610663600480360381019061065e9190612fa9565b611ea7565b6040516106709190612be9565b60405180910390f35b610693600480360381019061068e9190612e4a565b611f2e565b6040516106a09190612be9565b60405180910390f35b6106c360048036038101906106be9190612e4a565b611fd3565b6040516106d293929190612fe9565b60405180910390f35b6106f560048036038101906106f09190612f02565b611ffd565b005b6106ff61200f565b60405161070c9190613041565b60405180910390f35b61072f600480360381019061072a9190612e4a565b612035565b005b6060600380546107409061308b565b80601f016020809104026020016040519081016040528092919081815260200182805461076c9061308b565b80156107b95780601f1061078e576101008083540402835291602001916107b9565b820191906000526020600020905b81548152906001019060200180831161079c57829003601f168201915b5050505050905090565b600080600d60003373ffffffffffffffffffffffffffffffffffffffff1673ffffffffffffffffffffffffffffffffffffffff16815260200190815260200160002090506000816000015490506000810361082357600092505050610889565b600082600301549050600081036108405760009350505050610889565b6000814261084e91906130eb565b9050600061087e8560020154600a54610867919061311f565b856108729190613153565b83644979cb9e006120bb565b905080955050505050505b90565b6000806108976121c2565b90506108a48185856121ca565b600191505092915050565b600c5481565b6000600254905090565b600080600e60003373ffffffffffffffffffffffffffffffffffffffff1673ffffffffffffffffffffffffffffffffffffffff1681526020019081526020016000209050600081600201540361091a57600a54915050610930565b8060020154600a5461092c919061311f565b9150505b90565b60008061093e6121c2565b905061094b8582856121dc565b610956858585612270565b60019150509392505050565b60006012905090565b610973612364565b600082829050116109b9576040517f08c379a00000000000000000000000000000000000000000000000000000000081526004016109b0906131e1565b60405180910390fd5b60005b82829050811015610afc573373ffffffffffffffffffffffffffffffffffffffff16600960009054906101000a900473ffffffffffffffffffffffffffffffffffffffff1673ffffffffffffffffffffffffffffffffffffffff16636352211e858585818110610a2f57610a2e613201565b5b905060200201356040518263ffffffff1660e01b8152600401610a529190612be9565b602060405180830381865afa158015610a6f573d6000803e3d6000fd5b505050506040513d601f19601f82011682018060405250810190610a939190613245565b73ffffffffffffffffffffffffffffffffffffffff1614610ae9576040517f08c379a0000000000000000000000000000000000000000000000000000000008152600401610ae0906131e1565b60405180910390fd5b8080610af490613272565b9150506109bc565b506000600d60003373ffffffffffffffffffffffffffffffffffffffff1673ffffffffffffffffffffffffffffffffffffffff16815260200190815260200160002090506000600e60003373ffffffffffffffffffffffffffffffffffffffff1673ffffffffffffffffffffffffffffffffffffffff16815260200190815260200160002090506000600960009054906101000a900473ffffffffffffffffffffffffffffffffffffffff1673ffffffffffffffffffffffffffffffffffffffff166370a08231336040518263ffffffff1660e01b8152600401610be09190612e86565b602060405180830381865afa158015610bfd573d6000803e3d6000fd5b505050506040513d601f19601f82011682018060405250810190610c2191906132cf565b11610c61576040517f08c379a0000000000000000000000000000000000000000000000000000000008152600401610c5890613348565b60405180910390fd5b60005b84849050811015610d7057600960009054906101000a900473ffffffffffffffffffffffffffffffffffffffff1673ffffffffffffffffffffffffffffffffffffffff166342842e0e3330888886818110610cc257610cc1613201565b5b905060200201356040518463ffffffff1660e01b8152600401610ce793929190613368565b600060405180830381600087803b158015610d0157600080fd5b505af1158015610d15573d6000803e3d6000fd5b5050505081600301858583818110610d3057610d2f613201565b5b9050602002013590806001815401808255809150506001900390600052602060002001600090919091909150558080610d6890613272565b915050610c64565b50610d796107c3565b826004016000828254610d8c919061311f565b92505081905550428260030181905550600084849050600b54610daf9190613153565b905080826002016000828254610dc5919061311f565b9250508190555084849050826000016000828254610de3919061311f565b92505081905550428260010181905550505050610dfe6123aa565b5050565b80610e0c30611676565b1015610e4d576040517f08c379a0000000000000000000000000000000000000000000000000000000008152600401610e4490613411565b60405180910390fd5b610e58308383612270565b5050565b6000600960009054906101000a900473ffffffffffffffffffffffffffffffffffffffff1673ffffffffffffffffffffffffffffffffffffffff166322a579cb6040518163ffffffff1660e01b8152600401602060405180830381865afa158015610ecb573d6000803e3d6000fd5b505050506040513d601f19601f82011682018060405250810190610eef91906132cf565b905090565b6000600d60003373ffffffffffffffffffffffffffffffffffffffff1673ffffffffffffffffffffffffffffffffffffffff1681526020019081526020016000209050600c548160030154610f49919061311f565b421015610f8b576040517f08c379a0000000000000000000000000000000000000000000000000000000008152600401610f829061347d565b60405180910390fd5b6000610f956107c3565b8260000154610fa4919061311f565b905060008111610fe9576040517f08c379a0000000000000000000000000000000000000000000000000000000008152600401610fe09061350f565b60405180910390fd5b600860009054906101000a900473ffffffffffffffffffffffffffffffffffffffff1673ffffffffffffffffffffffffffffffffffffffff1663a9059cbb3384600001546040518363ffffffff1660e01b815260040161104a92919061352f565b6020604051808303816000875af1158015611069573d6000803e3d6000fd5b505050506040513d601f19601f8201168201806040525081019061108d9190613584565b50600860009054906101000a900473ffffffffffffffffffffffffffffffffffffffff1673ffffffffffffffffffffffffffffffffffffffff1663499ff3ef33836040518363ffffffff1660e01b81526004016110eb92919061352f565b600060405180830381600087803b15801561110557600080fd5b505af1158015611119573d6000803e3d6000fd5b505050506000826000018190555060008260040181905550600082600301819055505050565b600a5481565b6000600d60003373ffffffffffffffffffffffffffffffffffffffff1673ffffffffffffffffffffffffffffffffffffffff168152602001908152602001600020905060006111926107c3565b116111d2576040517f08c379a00000000000000000000000000000000000000000000000000000000081526004016111c9906135fd565b60405180910390fd5b60006111dc6107c3565b82600401546111eb919061311f565b9050600860009054906101000a900473ffffffffffffffffffffffffffffffffffffffff1673ffffffffffffffffffffffffffffffffffffffff1663499ff3ef33836040518363ffffffff1660e01b815260040161124a92919061352f565b600060405180830381600087803b15801561126457600080fd5b505af1158015611278573d6000803e3d6000fd5b50505050600082600401819055504282600301819055505050565b600082829050116112d9576040517f08c379a00000000000000000000000000000000000000000000000000000000081526004016112d0906131e1565b60405180910390fd5b6000600d60003373ffffffffffffffffffffffffffffffffffffffff1673ffffffffffffffffffffffffffffffffffffffff16815260200190815260200160002090506000600e60003373ffffffffffffffffffffffffffffffffffffffff1673ffffffffffffffffffffffffffffffffffffffff168152602001908152602001600020905060008160000154116113a6576040517f08c379a000000000000000000000000000000000000000000000000000000000815260040161139d90613669565b60405180910390fd5b42600c5482600101546113b9919061311f565b10156113fa576040517f08c379a00000000000000000000000000000000000000000000000000000000081526004016113f1906136d5565b60405180910390fd5b60005b848490508110156115a557600085858381811061141d5761141c613201565b5b9050602002013590506000805b846003018054905081101561158f57828560030182815481106114505761144f613201565b5b90600052602060002001540361157c57600960009054906101000a900473ffffffffffffffffffffffffffffffffffffffff1673ffffffffffffffffffffffffffffffffffffffff166342842e0e3033866040518463ffffffff1660e01b81526004016114bf93929190613368565b600060405180830381600087803b1580156114d957600080fd5b505af11580156114ed573d6000803e3d6000fd5b50505050846003016001866003018054905061150991906130eb565b8154811061151a57611519613201565b5b906000526020600020015485600301828154811061153b5761153a613201565b5b90600052602060002001819055508460030180548061155d5761155c6136f5565b5b600190038181906000526020600020016000905590556001915061158f565b808061158790613272565b91505061142a565b505050808061159d90613272565b9150506113fd565b50838390508160000160008282546115bd91906130eb565b925050819055506115cc6107c3565b826004018190555060008260030181905550600084849050600b546115f19190613153565b90508082600201600082825461160791906130eb565b925050819055505050505050565b6000806116206107c3565b600d60003373ffffffffffffffffffffffffffffffffffffffff1673ffffffffffffffffffffffffffffffffffffffff1681526020019081526020016000206004015461166d919061311f565b90508091505090565b60008060008373ffffffffffffffffffffffffffffffffffffffff1673ffffffffffffffffffffffffffffffffffffffff168152602001908152602001600020549050919050565b6116c66123b4565b6116d0600061243b565b565b6005548111156116e3600554612501565b6040516020016116f391906137d2565b60405160208183030381529060405290611743576040517f08c379a000000000000000000000000000000000000000000000000000000000815260040161173a9190612bae565b60405180910390fd5b508061174e30611676565b101561178f576040517f08c379a000000000000000000000000000000000000000000000000000000000815260040161178690613411565b60405180910390fd5b61179a308383612270565b5050565b6000600860009054906101000a900473ffffffffffffffffffffffffffffffffffffffff1673ffffffffffffffffffffffffffffffffffffffff166370a08231836040518263ffffffff1660e01b81526004016117fb9190612e86565b602060405180830381865afa158015611818573d6000803e3d6000fd5b505050506040513d601f19601f8201168201806040525081019061183c91906132cf565b9050919050565b6000600760009054906101000a900473ffffffffffffffffffffffffffffffffffffffff16905090565b6b033b2e3c9fd0803ce800000081565b600d6020528060005260406000206000915090508060000154908060010154908060020154908060030154908060040154908060050154905086565b6060600480546118c89061308b565b80601f01602080910402602001604051908101604052809291908181526020018280546118f49061308b565b80156119415780601f1061191657610100808354040283529160200191611941565b820191906000526020600020905b81548152906001019060200180831161192457829003601f168201915b5050505050905090565b6000811161198e576040517f08c379a000000000000000000000000000000000000000000000000000000000815260040161198590613866565b60405180910390fd5b600860009054906101000a900473ffffffffffffffffffffffffffffffffffffffff1673ffffffffffffffffffffffffffffffffffffffff16637b56c2b233836040518363ffffffff1660e01b81526004016119eb92919061352f565b600060405180830381600087803b158015611a0557600080fd5b505af1158015611a19573d6000803e3d6000fd5b5050505050565b600860009054906101000a900473ffffffffffffffffffffffffffffffffffffffff1681565b600080611a516121c2565b9050611a5e818585612270565b600191505092915050565b600b5481565b611a77612364565b6000600d60003373ffffffffffffffffffffffffffffffffffffffff1673ffffffffffffffffffffffffffffffffffffffff168152602001908152602001600020905060008211611afd576040517f08c379a0000000000000000000000000000000000000000000000000000000008152600401611af4906138f8565b60405180910390fd5b81600860009054906101000a900473ffffffffffffffffffffffffffffffffffffffff1673ffffffffffffffffffffffffffffffffffffffff166370a08231336040518263ffffffff1660e01b8152600401611b599190612e86565b602060405180830381865afa158015611b76573d6000803e3d6000fd5b505050506040513d601f19601f82011682018060405250810190611b9a91906132cf565b1015611bdb576040517f08c379a0000000000000000000000000000000000000000000000000000000008152600401611bd29061398a565b60405180910390fd5b600860009054906101000a900473ffffffffffffffffffffffffffffffffffffffff1673ffffffffffffffffffffffffffffffffffffffff166323b872dd3330856040518463ffffffff1660e01b8152600401611c3a93929190613368565b6020604051808303816000875af1158015611c59573d6000803e3d6000fd5b505050506040513d601f19601f82011682018060405250810190611c7d9190613584565b5081816000016000828254611c92919061311f565b925050819055506000816003015414611cce576000611caf6107c3565b905080826004016000828254611cc5919061311f565b92505081905550505b4281600301819055506000816005015469d3c21bcecceda10000008360000154611cf891906139d9565b611d0291906130eb565b905060005b81811015611ddd57600960009054906101000a900473ffffffffffffffffffffffffffffffffffffffff1673ffffffffffffffffffffffffffffffffffffffff16636a627842336040518263ffffffff1660e01b8152600401611d6a9190612e86565b6020604051808303816000875af1158015611d89573d6000803e3d6000fd5b505050506040513d601f19601f82011682018060405250810190611dad91906132cf565b506001836005016000828254611dc3919061311f565b925050819055508080611dd590613272565b915050611d07565b505050611de86123aa565b50565b6000611df630611676565b905090565b6000600860009054906101000a900473ffffffffffffffffffffffffffffffffffffffff1673ffffffffffffffffffffffffffffffffffffffff1663ba94f61b6040518163ffffffff1660e01b8152600401602060405180830381865afa158015611e6a573d6000803e3d6000fd5b505050506040513d601f19601f82011682018060405250810190611e8e91906132cf565b905090565b69d3c21bcecceda100000081565b60055481565b6000600160008473ffffffffffffffffffffffffffffffffffffffff1673ffffffffffffffffffffffffffffffffffffffff16815260200190815260200160002060008373ffffffffffffffffffffffffffffffffffffffff1673ffffffffffffffffffffffffffffffffffffffff16815260200190815260200160002054905092915050565b6000600960009054906101000a900473ffffffffffffffffffffffffffffffffffffffff1673ffffffffffffffffffffffffffffffffffffffff166370a08231836040518263ffffffff1660e01b8152600401611f8b9190612e86565b602060405180830381865afa158015611fa8573d6000803e3d6000fd5b505050506040513d601f19601f82011682018060405250810190611fcc91906132cf565b9050919050565b600e6020528060005260406000206000915090508060000154908060010154908060020154905083565b6120056123b4565b80600a8190555050565b600960009054906101000a900473ffffffffffffffffffffffffffffffffffffffff1681565b61203d6123b4565b600073ffffffffffffffffffffffffffffffffffffffff168173ffffffffffffffffffffffffffffffffffffffff16036120af5760006040517f1e4fbdf70000000000000000000000000000000000000000000000000000000081526004016120a69190612e86565b60405180910390fd5b6120b88161243b565b50565b60008083850290506000801985870982811083820303915050600081036120f6578382816120ec576120eb6139aa565b5b04925050506121bb565b80841161212f576040517f227bc15300000000000000000000000000000000000000000000000000000000815260040160405180910390fd5b600084868809905082811182039150808303925060008560000386169050808604955080840493506001818260000304019050808302841793506000600287600302189050808702600203810290508087026002038102905080870260020381029050808702600203810290508087026002038102905080870260020381029050808502955050505050505b9392505050565b600033905090565b6121d783838360016125cf565b505050565b60006121e88484611ea7565b90507fffffffffffffffffffffffffffffffffffffffffffffffffffffffffffffffff811461226a578181101561225a578281836040517ffb8f41b200000000000000000000000000000000000000000000000000000000815260040161225193929190613a0a565b60405180910390fd5b612269848484840360006125cf565b5b50505050565b600073ffffffffffffffffffffffffffffffffffffffff168373ffffffffffffffffffffffffffffffffffffffff16036122e25760006040517f96c6fd1e0000000000000000000000000000000000000000000000000000000081526004016122d99190612e86565b60405180910390fd5b600073ffffffffffffffffffffffffffffffffffffffff168273ffffffffffffffffffffffffffffffffffffffff16036123545760006040517fec442f0500000000000000000000000000000000000000000000000000000000815260040161234b9190612e86565b60405180910390fd5b61235f8383836127a6565b505050565b6002600654036123a0576040517f3ee5aeb500000000000000000000000000000000000000000000000000000000815260040160405180910390fd5b6002600681905550565b6001600681905550565b6123bc6121c2565b73ffffffffffffffffffffffffffffffffffffffff166123da611843565b73ffffffffffffffffffffffffffffffffffffffff1614612439576123fd6121c2565b6040517f118cdaa70000000000000000000000000000000000000000000000000000000081526004016124309190612e86565b60405180910390fd5b565b6000600760009054906101000a900473ffffffffffffffffffffffffffffffffffffffff16905081600760006101000a81548173ffffffffffffffffffffffffffffffffffffffff021916908373ffffffffffffffffffffffffffffffffffffffff1602179055508173ffffffffffffffffffffffffffffffffffffffff168173ffffffffffffffffffffffffffffffffffffffff167f8be0079c531659141344cd1fd0a4f28419497f9722a3daafe3b4186f6b6457e060405160405180910390a35050565b606060006001612510846129cb565b01905060008167ffffffffffffffff81111561252f5761252e613a41565b5b6040519080825280601f01601f1916602001820160405280156125615781602001600182028036833780820191505090505b509050600082602001820190505b6001156125c4578080600190039150507f3031323334353637383961626364656600000000000000000000000000000000600a86061a8153600a85816125b8576125b76139aa565b5b0494506000850361256f575b819350505050919050565b600073ffffffffffffffffffffffffffffffffffffffff168473ffffffffffffffffffffffffffffffffffffffff16036126415760006040517fe602df050000000000000000000000000000000000000000000000000000000081526004016126389190612e86565b60405180910390fd5b600073ffffffffffffffffffffffffffffffffffffffff168373ffffffffffffffffffffffffffffffffffffffff16036126b35760006040517f94280d620000000000000000000000000000000000000000000000000000000081526004016126aa9190612e86565b60405180910390fd5b81600160008673ffffffffffffffffffffffffffffffffffffffff1673ffffffffffffffffffffffffffffffffffffffff16815260200190815260200160002060008573ffffffffffffffffffffffffffffffffffffffff1673ffffffffffffffffffffffffffffffffffffffff1681526020019081526020016000208190555080156127a0578273ffffffffffffffffffffffffffffffffffffffff168473ffffffffffffffffffffffffffffffffffffffff167f8c5be1e5ebec7d5bd14f71427d1e84f3dd0314c0f7b2291e5b200ac8c7c3b925846040516127979190612be9565b60405180910390a35b50505050565b600073ffffffffffffffffffffffffffffffffffffffff168373ffffffffffffffffffffffffffffffffffffffff16036127f85780600260008282546127ec919061311f565b925050819055506128cb565b60008060008573ffffffffffffffffffffffffffffffffffffffff1673ffffffffffffffffffffffffffffffffffffffff16815260200190815260200160002054905081811015612884578381836040517fe450d38c00000000000000000000000000000000000000000000000000000000815260040161287b93929190613a0a565b60405180910390fd5b8181036000808673ffffffffffffffffffffffffffffffffffffffff1673ffffffffffffffffffffffffffffffffffffffff16815260200190815260200160002081905550505b600073ffffffffffffffffffffffffffffffffffffffff168273ffffffffffffffffffffffffffffffffffffffff16036129145780600260008282540392505081905550612961565b806000808473ffffffffffffffffffffffffffffffffffffffff1673ffffffffffffffffffffffffffffffffffffffff168152602001908152602001600020600082825401925050819055505b8173ffffffffffffffffffffffffffffffffffffffff168373ffffffffffffffffffffffffffffffffffffffff167fddf252ad1be2c89b69c2b068fc378daa952ba7f163c4a11628f55a4df523b3ef836040516129be9190612be9565b60405180910390a3505050565b600080600090507a184f03e93ff9f4daa797ed6e38ed64bf6a1f0100000000000000008310612a29577a184f03e93ff9f4daa797ed6e38ed64bf6a1f0100000000000000008381612a1f57612a1e6139aa565b5b0492506040810190505b6d04ee2d6d415b85acef81000000008310612a66576d04ee2d6d415b85acef81000000008381612a5c57612a5b6139aa565b5b0492506020810190505b662386f26fc100008310612a9557662386f26fc100008381612a8b57612a8a6139aa565b5b0492506010810190505b6305f5e1008310612abe576305f5e1008381612ab457612ab36139aa565b5b0492506008810190505b6127108310612ae3576127108381612ad957612ad86139aa565b5b0492506004810190505b60648310612b065760648381612afc57612afb6139aa565b5b0492506002810190505b600a8310612b15576001810190505b80915050919050565b600081519050919050565b600082825260208201905092915050565b60005b83811015612b58578082015181840152602081019050612b3d565b60008484015250505050565b6000601f19601f8301169050919050565b6000612b8082612b1e565b612b8a8185612b29565b9350612b9a818560208601612b3a565b612ba381612b64565b840191505092915050565b60006020820190508181036000830152612bc88184612b75565b905092915050565b6000819050919050565b612be381612bd0565b82525050565b6000602082019050612bfe6000830184612bda565b92915050565b600080fd5b600080fd5b600073ffffffffffffffffffffffffffffffffffffffff82169050919050565b6000612c3982612c0e565b9050919050565b612c4981612c2e565b8114612c5457600080fd5b50565b600081359050612c6681612c40565b92915050565b612c7581612bd0565b8114612c8057600080fd5b50565b600081359050612c9281612c6c565b92915050565b60008060408385031215612caf57612cae612c04565b5b6000612cbd85828601612c57565b9250506020612cce85828601612c83565b9150509250929050565b60008115159050919050565b612ced81612cd8565b82525050565b6000602082019050612d086000830184612ce4565b92915050565b600080600060608486031215612d2757612d26612c04565b5b6000612d3586828701612c57565b9350506020612d4686828701612c57565b9250506040612d5786828701612c83565b9150509250925092565b600060ff82169050919050565b612d7781612d61565b82525050565b6000602082019050612d926000830184612d6e565b92915050565b600080fd5b600080fd5b600080fd5b60008083601f840112612dbd57612dbc612d98565b5b8235905067ffffffffffffffff811115612dda57612dd9612d9d565b5b602083019150836020820283011115612df657612df5612da2565b5b9250929050565b60008060208385031215612e1457612e13612c04565b5b600083013567ffffffffffffffff811115612e3257612e31612c09565b5b612e3e85828601612da7565b92509250509250929050565b600060208284031215612e6057612e5f612c04565b5b6000612e6e84828501612c57565b91505092915050565b612e8081612c2e565b82525050565b6000602082019050612e9b6000830184612e77565b92915050565b600060c082019050612eb66000830189612bda565b612ec36020830188612bda565b612ed06040830187612bda565b612edd6060830186612bda565b612eea6080830185612bda565b612ef760a0830184612bda565b979650505050505050565b600060208284031215612f1857612f17612c04565b5b6000612f2684828501612c83565b91505092915050565b6000819050919050565b6000612f54612f4f612f4a84612c0e565b612f2f565b612c0e565b9050919050565b6000612f6682612f39565b9050919050565b6000612f7882612f5b565b9050919050565b612f8881612f6d565b82525050565b6000602082019050612fa36000830184612f7f565b92915050565b60008060408385031215612fc057612fbf612c04565b5b6000612fce85828601612c57565b9250506020612fdf85828601612c57565b9150509250929050565b6000606082019050612ffe6000830186612bda565b61300b6020830185612bda565b6130186040830184612bda565b949350505050565b600061302b82612f5b565b9050919050565b61303b81613020565b82525050565b60006020820190506130566000830184613032565b92915050565b7f4e487b7100000000000000000000000000000000000000000000000000000000600052602260045260246000fd5b600060028204905060018216806130a357607f821691505b6020821081036130b6576130b561305c565b5b50919050565b7f4e487b7100000000000000000000000000000000000000000000000000000000600052601160045260246000fd5b60006130f682612bd0565b915061310183612bd0565b9250828203905081811115613119576131186130bc565b5b92915050565b600061312a82612bd0565b915061313583612bd0565b925082820190508082111561314d5761314c6130bc565b5b92915050565b600061315e82612bd0565b915061316983612bd0565b925082820261317781612bd0565b9150828204841483151761318e5761318d6130bc565b5b5092915050565b7f4e46542d423a20496e76616c696420746f6b656e496400000000000000000000600082015250565b60006131cb601683612b29565b91506131d682613195565b602082019050919050565b600060208201905081810360008301526131fa816131be565b9050919050565b7f4e487b7100000000000000000000000000000000000000000000000000000000600052603260045260246000fd5b60008151905061323f81612c40565b92915050565b60006020828403121561325b5761325a612c04565b5b600061326984828501613230565b91505092915050565b600061327d82612bd0565b91507fffffffffffffffffffffffffffffffffffffffffffffffffffffffffffffffff82036132af576132ae6130bc565b5b600182019050919050565b6000815190506132c981612c6c565b92915050565b6000602082840312156132e5576132e4612c04565b5b60006132f3848285016132ba565b91505092915050565b7f4e46542d423a204e6f2068617665204e4654204220746f206465706f73697400600082015250565b6000613332601f83612b29565b915061333d826132fc565b602082019050919050565b6000602082019050818103600083015261336181613325565b9050919050565b600060608201905061337d6000830186612e77565b61338a6020830185612e77565b6133976040830184612bda565b949350505050565b7f4552433230546f6b656e3a20696e73756666696369656e742062616c616e636560008201527f20696e20636f6e74726163740000000000000000000000000000000000000000602082015250565b60006133fb602c83612b29565b91506134068261339f565b604082019050919050565b6000602082019050818103600083015261342a816133ee565b9050919050565b7f546f6b656e413a20596f752063616e2774207769746864726177206e6f770000600082015250565b6000613467601e83612b29565b915061347282613431565b602082019050919050565b600060208201905081810360008301526134968161345a565b9050919050565b7f546f6b656e413a204e6f20686176652072657761726420746f2057697468647260008201527f6177207265776172640000000000000000000000000000000000000000000000602082015250565b60006134f9602983612b29565b91506135048261349d565b604082019050919050565b60006020820190508181036000830152613528816134ec565b9050919050565b60006040820190506135446000830185612e77565b6135516020830184612bda565b9392505050565b61356181612cd8565b811461356c57600080fd5b50565b60008151905061357e81613558565b92915050565b60006020828403121561359a57613599612c04565b5b60006135a88482850161356f565b91505092915050565b7f436c61696d205265776172643a204e6f20686176652072657761726421000000600082015250565b60006135e7601d83612b29565b91506135f2826135b1565b602082019050919050565b60006020820190508181036000830152613616816135da565b9050919050565b7f4e46542d423a204e6f206465706f736974000000000000000000000000000000600082015250565b6000613653601183612b29565b915061365e8261361d565b602082019050919050565b6000602082019050818103600083015261368281613646565b9050919050565b7f4e46542d423a20596f752063616e2774207769746864726177206e6f77000000600082015250565b60006136bf601d83612b29565b91506136ca82613689565b602082019050919050565b600060208201905081810360008301526136ee816136b2565b9050919050565b7f4e487b7100000000000000000000000000000000000000000000000000000000600052603160045260246000fd5b600081905092915050565b7f4552433230546f6b656e3a2066617563657420616d6f756e7420746f6f206c6160008201527f7267652c206d61783a2000000000000000000000000000000000000000000000602082015250565b600061378b602a83613724565b91506137968261372f565b602a82019050919050565b60006137ac82612b1e565b6137b68185613724565b93506137c6818560208601612b3a565b80840191505092915050565b60006137dd8261377e565b91506137e982846137a1565b915081905092915050565b7f546f6b656e413a2066617563657420616d6f756e74206d75737420626520677260008201527f6561746572207468616e207a65726f0000000000000000000000000000000000602082015250565b6000613850602f83612b29565b915061385b826137f4565b604082019050919050565b6000602082019050818103600083015261387f81613843565b9050919050565b7f546f6b656e413a206465706f73697420616d6f756e74206d757374206265206760008201527f726561746572207468616e207a65726f00000000000000000000000000000000602082015250565b60006138e2603083612b29565b91506138ed82613886565b604082019050919050565b60006020820190508181036000830152613911816138d5565b9050919050565b7f546f6b656e413a20696e73756666696369656e742062616c616e636520696e2060008201527f636f6e7472616374000000000000000000000000000000000000000000000000602082015250565b6000613974602883612b29565b915061397f82613918565b604082019050919050565b600060208201905081810360008301526139a381613967565b9050919050565b7f4e487b7100000000000000000000000000000000000000000000000000000000600052601260045260246000fd5b60006139e482612bd0565b91506139ef83612bd0565b9250826139ff576139fe6139aa565b5b828204905092915050565b6000606082019050613a1f6000830186612e77565b613a2c6020830185612bda565b613a396040830184612bda565b949350505050565b7f4e487b7100000000000000000000000000000000000000000000000000000000600052604160045260246000fdfea264697066735822122070d240936f433df1db25aecd5f18169e200ededf4f30ff783d36e2924a12ee7764736f6c63430008140033",
  "linkReferences": {},
  "deployedLinkReferences": {}
}