{
  "_format": "hh-sol-artifact-1",
  "contractName": "ContractHandle",
  "sourceName": "contracts/ContractHandle.sol",
  "abi": [
    {
      "inputs": [
        {
          "internalType": "contract TokenERC20",
          "name": "_tokenERC20",
          "type": "address"
        },
        {
          "internalType": "contract TokenERC721",
          "name": "_tokenERC721",
          "type": "address"
        }
      ],
      "stateMutability": "nonpayable",
      "type": "constructor"
    },
    {
      "inputs": [
        {
          "internalType": "address",
          "name": "spender",
          "type": "address"
        },
        {
          "internalType": "uint256",
          "name": "allowance",
          "type": "uint256"
        },
        {
          "internalType": "uint256",
          "name": "needed",
          "type": "uint256"
        }
      ],
      "name": "ERC20InsufficientAllowance",
      "type": "error"
    },
    {
      "inputs": [
        {
          "internalType": "address",
          "name": "sender",
          "type": "address"
        },
        {
          "internalType": "uint256",
          "name": "balance",
          "type": "uint256"
        },
        {
          "internalType": "uint256",
          "name": "needed",
          "type": "uint256"
        }
      ],
      "name": "ERC20InsufficientBalance",
      "type": "error"
    },
    {
      "inputs": [
        {
          "internalType": "address",
          "name": "approver",
          "type": "address"
        }
      ],
      "name": "ERC20InvalidApprover",
      "type": "error"
    },
    {
      "inputs": [
        {
          "internalType": "address",
          "name": "receiver",
          "type": "address"
        }
      ],
      "name": "ERC20InvalidReceiver",
      "type": "error"
    },
    {
      "inputs": [
        {
          "internalType": "address",
          "name": "sender",
          "type": "address"
        }
      ],
      "name": "ERC20InvalidSender",
      "type": "error"
    },
    {
      "inputs": [
        {
          "internalType": "address",
          "name": "spender",
          "type": "address"
        }
      ],
      "name": "ERC20InvalidSpender",
      "type": "error"
    },
    {
      "inputs": [],
      "name": "MathOverflowedMulDiv",
      "type": "error"
    },
    {
      "inputs": [
        {
          "internalType": "address",
          "name": "owner",
          "type": "address"
        }
      ],
      "name": "OwnableInvalidOwner",
      "type": "error"
    },
    {
      "inputs": [
        {
          "internalType": "address",
          "name": "account",
          "type": "address"
        }
      ],
      "name": "OwnableUnauthorizedAccount",
      "type": "error"
    },
    {
      "inputs": [],
      "name": "ReentrancyGuardReentrantCall",
      "type": "error"
    },
    {
      "anonymous": false,
      "inputs": [
        {
          "indexed": true,
          "internalType": "address",
          "name": "owner",
          "type": "address"
        },
        {
          "indexed": true,
          "internalType": "address",
          "name": "spender",
          "type": "address"
        },
        {
          "indexed": false,
          "internalType": "uint256",
          "name": "value",
          "type": "uint256"
        }
      ],
      "name": "Approval",
      "type": "event"
    },
    {
      "anonymous": false,
      "inputs": [
        {
          "indexed": true,
          "internalType": "address",
          "name": "previousOwner",
          "type": "address"
        },
        {
          "indexed": true,
          "internalType": "address",
          "name": "newOwner",
          "type": "address"
        }
      ],
      "name": "OwnershipTransferred",
      "type": "event"
    },
    {
      "anonymous": false,
      "inputs": [
        {
          "indexed": true,
          "internalType": "address",
          "name": "from",
          "type": "address"
        },
        {
          "indexed": true,
          "internalType": "address",
          "name": "to",
          "type": "address"
        },
        {
          "indexed": false,
          "internalType": "uint256",
          "name": "value",
          "type": "uint256"
        }
      ],
      "name": "Transfer",
      "type": "event"
    },
    {
      "anonymous": false,
      "inputs": [
        {
          "indexed": false,
          "internalType": "uint256",
          "name": "data",
          "type": "uint256"
        },
        {
          "indexed": false,
          "internalType": "address",
          "name": "_from",
          "type": "address"
        },
        {
          "indexed": false,
          "internalType": "address",
          "name": "_to",
          "type": "address"
        }
      ],
      "name": "getData",
      "type": "event"
    },
    {
      "inputs": [],
      "name": "MINIMUM_DEPOSIT_FOR_CERTIFICATE",
      "outputs": [
        {
          "internalType": "uint256",
          "name": "",
          "type": "uint256"
        }
      ],
      "stateMutability": "view",
      "type": "function"
    },
    {
      "inputs": [],
      "name": "TOTAL_SUPPLY",
      "outputs": [
        {
          "internalType": "uint256",
          "name": "",
          "type": "uint256"
        }
      ],
      "stateMutability": "view",
      "type": "function"
    },
    {
      "inputs": [],
      "name": "TOTAL_faucet_MAX",
      "outputs": [
        {
          "internalType": "uint256",
          "name": "",
          "type": "uint256"
        }
      ],
      "stateMutability": "view",
      "type": "function"
    },
    {
      "inputs": [
        {
          "internalType": "address",
          "name": "owner",
          "type": "address"
        },
        {
          "internalType": "address",
          "name": "spender",
          "type": "address"
        }
      ],
      "name": "allowance",
      "outputs": [
        {
          "internalType": "uint256",
          "name": "",
          "type": "uint256"
        }
      ],
      "stateMutability": "view",
      "type": "function"
    },
    {
      "inputs": [
        {
          "internalType": "address",
          "name": "spender",
          "type": "address"
        },
        {
          "internalType": "uint256",
          "name": "value",
          "type": "uint256"
        }
      ],
      "name": "approve",
      "outputs": [
        {
          "internalType": "bool",
          "name": "",
          "type": "bool"
        }
      ],
      "stateMutability": "nonpayable",
      "type": "function"
    },
    {
      "inputs": [
        {
          "internalType": "address",
          "name": "_address",
          "type": "address"
        }
      ],
      "name": "balaceOfERC20",
      "outputs": [
        {
          "internalType": "uint256",
          "name": "",
          "type": "uint256"
        }
      ],
      "stateMutability": "view",
      "type": "function"
    },
    {
      "inputs": [],
      "name": "balaceOfERC20TotalSupply",
      "outputs": [
        {
          "internalType": "uint256",
          "name": "",
          "type": "uint256"
        }
      ],
      "stateMutability": "view",
      "type": "function"
    },
    {
      "inputs": [
        {
          "internalType": "address",
          "name": "_address",
          "type": "address"
        }
      ],
      "name": "balaceOfERC721",
      "outputs": [
        {
          "internalType": "uint256",
          "name": "",
          "type": "uint256"
        }
      ],
      "stateMutability": "view",
      "type": "function"
    },
    {
      "inputs": [],
      "name": "balaceOfERC721TotalSupply",
      "outputs": [
        {
          "internalType": "uint256",
          "name": "",
          "type": "uint256"
        }
      ],
      "stateMutability": "view",
      "type": "function"
    },
    {
      "inputs": [
        {
          "internalType": "address",
          "name": "account",
          "type": "address"
        }
      ],
      "name": "balanceOf",
      "outputs": [
        {
          "internalType": "uint256",
          "name": "",
          "type": "uint256"
        }
      ],
      "stateMutability": "view",
      "type": "function"
    },
    {
      "inputs": [],
      "name": "balanceOfTokenERC20",
      "outputs": [
        {
          "internalType": "uint256",
          "name": "",
          "type": "uint256"
        }
      ],
      "stateMutability": "view",
      "type": "function"
    },
    {
      "inputs": [],
      "name": "baseAPR",
      "outputs": [
        {
          "internalType": "uint256",
          "name": "",
          "type": "uint256"
        }
      ],
      "stateMutability": "view",
      "type": "function"
    },
    {
      "inputs": [],
      "name": "bonusAPR",
      "outputs": [
        {
          "internalType": "uint256",
          "name": "",
          "type": "uint256"
        }
      ],
      "stateMutability": "view",
      "type": "function"
    },
    {
      "inputs": [],
      "name": "calculateRewardERC20",
      "outputs": [
        {
          "internalType": "uint256",
          "name": "",
          "type": "uint256"
        }
      ],
      "stateMutability": "view",
      "type": "function"
    },
    {
      "inputs": [],
      "name": "claimRewardERC20",
      "outputs": [],
      "stateMutability": "nonpayable",
      "type": "function"
    },
    {
      "inputs": [],
      "name": "decimals",
      "outputs": [
        {
          "internalType": "uint8",
          "name": "",
          "type": "uint8"
        }
      ],
      "stateMutability": "view",
      "type": "function"
    },
    {
      "inputs": [
        {
          "internalType": "uint256",
          "name": "_amount",
          "type": "uint256"
        }
      ],
      "name": "depositERC20",
      "outputs": [],
      "stateMutability": "nonpayable",
      "type": "function"
    },
    {
      "inputs": [
        {
          "internalType": "uint256[]",
          "name": "tokenId",
          "type": "uint256[]"
        }
      ],
      "name": "depositNFTB",
      "outputs": [],
      "stateMutability": "nonpayable",
      "type": "function"
    },
    {
      "inputs": [
        {
          "internalType": "address",
          "name": "_to",
          "type": "address"
        },
        {
          "internalType": "uint256",
          "name": "_amount",
          "type": "uint256"
        }
      ],
      "name": "faucet",
      "outputs": [],
      "stateMutability": "nonpayable",
      "type": "function"
    },
    {
      "inputs": [
        {
          "internalType": "uint256",
          "name": "_amount",
          "type": "uint256"
        }
      ],
      "name": "faucetERC20",
      "outputs": [],
      "stateMutability": "nonpayable",
      "type": "function"
    },
    {
      "inputs": [],
      "name": "getCurrentAPR",
      "outputs": [
        {
          "internalType": "uint256",
          "name": "",
          "type": "uint256"
        }
      ],
      "stateMutability": "view",
      "type": "function"
    },
    {
      "inputs": [],
      "name": "getCurrentRewardERC20",
      "outputs": [
        {
          "internalType": "uint256",
          "name": "",
          "type": "uint256"
        }
      ],
      "stateMutability": "view",
      "type": "function"
    },
    {
      "inputs": [],
      "name": "lockTime",
      "outputs": [
        {
          "internalType": "uint256",
          "name": "",
          "type": "uint256"
        }
      ],
      "stateMutability": "view",
      "type": "function"
    },
    {
      "inputs": [],
      "name": "name",
      "outputs": [
        {
          "internalType": "string",
          "name": "",
          "type": "string"
        }
      ],
      "stateMutability": "view",
      "type": "function"
    },
    {
      "inputs": [],
      "name": "owner",
      "outputs": [
        {
          "internalType": "address",
          "name": "",
          "type": "address"
        }
      ],
      "stateMutability": "view",
      "type": "function"
    },
    {
      "inputs": [],
      "name": "renounceOwnership",
      "outputs": [],
      "stateMutability": "nonpayable",
      "type": "function"
    },
    {
      "inputs": [
        {
          "internalType": "address",
          "name": "",
          "type": "address"
        }
      ],
      "name": "stakingInfo",
      "outputs": [
        {
          "internalType": "uint256",
          "name": "totalAmountERC20",
          "type": "uint256"
        },
        {
          "internalType": "uint256",
          "name": "APR",
          "type": "uint256"
        },
        {
          "internalType": "uint256",
          "name": "bonusAPR",
          "type": "uint256"
        },
        {
          "internalType": "uint256",
          "name": "startTimeDeposit",
          "type": "uint256"
        },
        {
          "internalType": "uint256",
          "name": "totalRewardERC20",
          "type": "uint256"
        },
        {
          "internalType": "uint256",
          "name": "mintNFTbCount",
          "type": "uint256"
        }
      ],
      "stateMutability": "view",
      "type": "function"
    },
    {
      "inputs": [
        {
          "internalType": "address",
          "name": "",
          "type": "address"
        }
      ],
      "name": "stakingInfoNFTB",
      "outputs": [
        {
          "internalType": "uint256",
          "name": "totalAmountERC721",
          "type": "uint256"
        },
        {
          "internalType": "uint256",
          "name": "startTimeDeposit",
          "type": "uint256"
        },
        {
          "internalType": "uint256",
          "name": "bonusAPR",
          "type": "uint256"
        }
      ],
      "stateMutability": "view",
      "type": "function"
    },
    {
      "inputs": [],
      "name": "symbol",
      "outputs": [
        {
          "internalType": "string",
          "name": "",
          "type": "string"
        }
      ],
      "stateMutability": "view",
      "type": "function"
    },
    {
      "inputs": [],
      "name": "tokenERC20",
      "outputs": [
        {
          "internalType": "contract TokenERC20",
          "name": "",
          "type": "address"
        }
      ],
      "stateMutability": "view",
      "type": "function"
    },
    {
      "inputs": [],
      "name": "tokenERC721",
      "outputs": [
        {
          "internalType": "contract TokenERC721",
          "name": "",
          "type": "address"
        }
      ],
      "stateMutability": "view",
      "type": "function"
    },
    {
      "inputs": [],
      "name": "totalSupply",
      "outputs": [
        {
          "internalType": "uint256",
          "name": "",
          "type": "uint256"
        }
      ],
      "stateMutability": "view",
      "type": "function"
    },
    {
      "inputs": [
        {
          "internalType": "address",
          "name": "to",
          "type": "address"
        },
        {
          "internalType": "uint256",
          "name": "value",
          "type": "uint256"
        }
      ],
      "name": "transfer",
      "outputs": [
        {
          "internalType": "bool",
          "name": "",
          "type": "bool"
        }
      ],
      "stateMutability": "nonpayable",
      "type": "function"
    },
    {
      "inputs": [
        {
          "internalType": "address",
          "name": "from",
          "type": "address"
        },
        {
          "internalType": "address",
          "name": "to",
          "type": "address"
        },
        {
          "internalType": "uint256",
          "name": "value",
          "type": "uint256"
        }
      ],
      "name": "transferFrom",
      "outputs": [
        {
          "internalType": "bool",
          "name": "",
          "type": "bool"
        }
      ],
      "stateMutability": "nonpayable",
      "type": "function"
    },
    {
      "inputs": [
        {
          "internalType": "address",
          "name": "newOwner",
          "type": "address"
        }
      ],
      "name": "transferOwnership",
      "outputs": [],
      "stateMutability": "nonpayable",
      "type": "function"
    },
    {
      "inputs": [
        {
          "internalType": "address",
          "name": "_to",
          "type": "address"
        },
        {
          "internalType": "uint256",
          "name": "_amount",
          "type": "uint256"
        }
      ],
      "name": "transferRewardERC20",
      "outputs": [],
      "stateMutability": "nonpayable",
      "type": "function"
    },
    {
      "inputs": [
        {
          "internalType": "uint256",
          "name": "newBaseAPR",
          "type": "uint256"
        }
      ],
      "name": "updateAPR",
      "outputs": [],
      "stateMutability": "nonpayable",
      "type": "function"
    },
    {
      "inputs": [
        {
          "internalType": "uint256[]",
          "name": "tokenId",
          "type": "uint256[]"
        }
      ],
      "name": "withRewardNFTB",
      "outputs": [],
      "stateMutability": "nonpayable",
      "type": "function"
    },
    {
      "inputs": [],
      "name": "withdrawRewardERC20",
      "outputs": [],
      "stateMutability": "nonpayable",
      "type": "function"
    }
  ],
  "bytecode": "0x60806040526a084595161401484a000000600555610320600a5560c8600b55601e600c553480156200003057600080fd5b50604051620045dc380380620045dc833981810160405281019062000056919062000666565b336040518060400160405280600681526020017f746f6b656e4100000000000000000000000000000000000000000000000000008152506040518060400160405280600581526020017f45524332300000000000000000000000000000000000000000000000000000008152508160039081620000d4919062000927565b508060049081620000e6919062000927565b50505062000107306b033b2e3c9fd0803ce80000006200022060201b60201c565b6001600681905550600073ffffffffffffffffffffffffffffffffffffffff168173ffffffffffffffffffffffffffffffffffffffff1603620001845760006040517f1e4fbdf70000000000000000000000000000000000000000000000000000000081526004016200017b919062000a1f565b60405180910390fd5b6200019581620002ad60201b60201c565b5081600860006101000a81548173ffffffffffffffffffffffffffffffffffffffff021916908373ffffffffffffffffffffffffffffffffffffffff16021790555080600960006101000a81548173ffffffffffffffffffffffffffffffffffffffff021916908373ffffffffffffffffffffffffffffffffffffffff160217905550505062000b11565b600073ffffffffffffffffffffffffffffffffffffffff168273ffffffffffffffffffffffffffffffffffffffff1603620002955760006040517fec442f050000000000000000000000000000000000000000000000000000000081526004016200028c919062000a1f565b60405180910390fd5b620002a9600083836200037360201b60201c565b5050565b6000600760009054906101000a900473ffffffffffffffffffffffffffffffffffffffff16905081600760006101000a81548173ffffffffffffffffffffffffffffffffffffffff021916908373ffffffffffffffffffffffffffffffffffffffff1602179055508173ffffffffffffffffffffffffffffffffffffffff168173ffffffffffffffffffffffffffffffffffffffff167f8be0079c531659141344cd1fd0a4f28419497f9722a3daafe3b4186f6b6457e060405160405180910390a35050565b600073ffffffffffffffffffffffffffffffffffffffff168373ffffffffffffffffffffffffffffffffffffffff1603620003c9578060026000828254620003bc919062000a6b565b925050819055506200049f565b60008060008573ffffffffffffffffffffffffffffffffffffffff1673ffffffffffffffffffffffffffffffffffffffff1681526020019081526020016000205490508181101562000458578381836040517fe450d38c0000000000000000000000000000000000000000000000000000000081526004016200044f9392919062000ab7565b60405180910390fd5b8181036000808673ffffffffffffffffffffffffffffffffffffffff1673ffffffffffffffffffffffffffffffffffffffff16815260200190815260200160002081905550505b600073ffffffffffffffffffffffffffffffffffffffff168273ffffffffffffffffffffffffffffffffffffffff1603620004ea578060026000828254039250508190555062000537565b806000808473ffffffffffffffffffffffffffffffffffffffff1673ffffffffffffffffffffffffffffffffffffffff168152602001908152602001600020600082825401925050819055505b8173ffffffffffffffffffffffffffffffffffffffff168373ffffffffffffffffffffffffffffffffffffffff167fddf252ad1be2c89b69c2b068fc378daa952ba7f163c4a11628f55a4df523b3ef8360405162000596919062000af4565b60405180910390a3505050565b600080fd5b600073ffffffffffffffffffffffffffffffffffffffff82169050919050565b6000620005d582620005a8565b9050919050565b6000620005e982620005c8565b9050919050565b620005fb81620005dc565b81146200060757600080fd5b50565b6000815190506200061b81620005f0565b92915050565b60006200062e82620005c8565b9050919050565b620006408162000621565b81146200064c57600080fd5b50565b600081519050620006608162000635565b92915050565b6000806040838503121562000680576200067f620005a3565b5b600062000690858286016200060a565b9250506020620006a3858286016200064f565b9150509250929050565b600081519050919050565b7f4e487b7100000000000000000000000000000000000000000000000000000000600052604160045260246000fd5b7f4e487b7100000000000000000000000000000000000000000000000000000000600052602260045260246000fd5b600060028204905060018216806200072f57607f821691505b602082108103620007455762000744620006e7565b5b50919050565b60008190508160005260206000209050919050565b60006020601f8301049050919050565b600082821b905092915050565b600060088302620007af7fffffffffffffffffffffffffffffffffffffffffffffffffffffffffffffffff8262000770565b620007bb868362000770565b95508019841693508086168417925050509392505050565b6000819050919050565b6000819050919050565b60006200080862000802620007fc84620007d3565b620007dd565b620007d3565b9050919050565b6000819050919050565b6200082483620007e7565b6200083c62000833826200080f565b8484546200077d565b825550505050565b600090565b6200085362000844565b6200086081848462000819565b505050565b5b8181101562000888576200087c60008262000849565b60018101905062000866565b5050565b601f821115620008d757620008a1816200074b565b620008ac8462000760565b81016020851015620008bc578190505b620008d4620008cb8562000760565b83018262000865565b50505b505050565b600082821c905092915050565b6000620008fc60001984600802620008dc565b1980831691505092915050565b6000620009178383620008e9565b9150826002028217905092915050565b6200093282620006ad565b67ffffffffffffffff8111156200094e576200094d620006b8565b5b6200095a825462000716565b620009678282856200088c565b600060209050601f8311600181146200099f57600084156200098a578287015190505b62000996858262000909565b86555062000a06565b601f198416620009af866200074b565b60005b82811015620009d957848901518255600182019150602085019450602081019050620009b2565b86831015620009f95784890151620009f5601f891682620008e9565b8355505b6001600288020188555050505b505050505050565b62000a1981620005c8565b82525050565b600060208201905062000a36600083018462000a0e565b92915050565b7f4e487b7100000000000000000000000000000000000000000000000000000000600052601160045260246000fd5b600062000a7882620007d3565b915062000a8583620007d3565b925082820190508082111562000aa05762000a9f62000a3c565b5b92915050565b62000ab181620007d3565b82525050565b600060608201905062000ace600083018662000a0e565b62000add602083018562000aa6565b62000aec604083018462000aa6565b949350505050565b600060208201905062000b0b600083018462000aa6565b92915050565b613abb8062000b216000396000f3fe608060405234801561001057600080fd5b506004361061023d5760003560e01c80638cb8564d1161013b578063ba94f61b116100b8578063de9ad1341161007c578063de9ad13414610679578063e08835fd146106a9578063e7e2629e146106db578063e9adc770146106f7578063f2fde38b146107155761023d565b8063ba94f61b146105d1578063bcd19e70146105ef578063ce55f9471461060d578063d05dd73f1461062b578063dd62ed3e146106495761023d565b80639b3a6c88116100ff5780639b3a6c881461052d5780639d143e8e14610549578063a9059cbb14610567578063b3a36f1e14610597578063b79092fd146105b55761023d565b80638cb8564d1461046e5780638da5cb5b1461049e578063902d55a5146104bc57806394eecb50146104da57806395d89b411461050f5761023d565b8063499ff3ef116101c95780636a78c7d21161018d5780636a78c7d2146103de5780637098692e146103fa57806370a0823114610418578063715018a6146104485780637b56c2b2146104525761023d565b8063499ff3ef146103725780634ca903ba1461038e578063556e7cee146103ac57806358ac0e80146103b65780636014a449146103d45761023d565b806318160ddd1161021057806318160ddd146102cc57806321ae05c8146102ea57806323b872dd14610308578063313ce5671461033857806336ed1f0d146103565761023d565b806306fdde03146102425780630882e64e14610260578063095ea7b31461027e5780630d668087146102ae575b600080fd5b61024a610731565b6040516102579190612bc3565b60405180910390f35b6102686107c3565b6040516102759190612bfe565b60405180910390f35b61029860048036038101906102939190612cad565b61088c565b6040516102a59190612d08565b60405180910390f35b6102b66108af565b6040516102c39190612bfe565b60405180910390f35b6102d46108b5565b6040516102e19190612bfe565b60405180910390f35b6102f26108bf565b6040516102ff9190612bfe565b60405180910390f35b610322600480360381019061031d9190612d23565b610933565b60405161032f9190612d08565b60405180910390f35b610340610962565b60405161034d9190612d92565b60405180910390f35b610370600480360381019061036b9190612e12565b61096b565b005b61038c60048036038101906103879190612cad565b610e0b565b005b610396610e65565b6040516103a39190612bfe565b60405180910390f35b6103b4610efd565b005b6103be611148565b6040516103cb9190612bfe565b60405180910390f35b6103dc61114e565b005b6103f860048036038101906103f39190612e12565b61129c565b005b610402611639565b60405161040f9190612bfe565b60405180910390f35b610432600480360381019061042d9190612e5f565b611695565b60405161043f9190612bfe565b60405180910390f35b6104506116dd565b005b61046c60048036038101906104679190612cad565b6116f1565b005b61048860048036038101906104839190612e5f565b6117bd565b6040516104959190612bfe565b60405180910390f35b6104a6611862565b6040516104b39190612e9b565b60405180910390f35b6104c461188c565b6040516104d19190612bfe565b60405180910390f35b6104f460048036038101906104ef9190612e5f565b61189c565b60405161050696959493929190612eb6565b60405180910390f35b6105176118d8565b6040516105249190612bc3565b60405180910390f35b61054760048036038101906105429190612f17565b61196a565b005b610551611a3f565b60405161055e9190612fa3565b60405180910390f35b610581600480360381019061057c9190612cad565b611a65565b60405161058e9190612d08565b60405180910390f35b61059f611a88565b6040516105ac9190612bfe565b60405180910390f35b6105cf60048036038101906105ca9190612f17565b611a8e565b005b6105d9611e00565b6040516105e69190612bfe565b60405180910390f35b6105f7611e10565b6040516106049190612bfe565b60405180910390f35b610615611ea8565b6040516106229190612bfe565b60405180910390f35b610633611eb6565b6040516106409190612bfe565b60405180910390f35b610663600480360381019061065e9190612fbe565b611ebc565b6040516106709190612bfe565b60405180910390f35b610693600480360381019061068e9190612e5f565b611f43565b6040516106a09190612bfe565b60405180910390f35b6106c360048036038101906106be9190612e5f565b611fe8565b6040516106d293929190612ffe565b60405180910390f35b6106f560048036038101906106f09190612f17565b612012565b005b6106ff612024565b60405161070c9190613056565b60405180910390f35b61072f600480360381019061072a9190612e5f565b61204a565b005b606060038054610740906130a0565b80601f016020809104026020016040519081016040528092919081815260200182805461076c906130a0565b80156107b95780601f1061078e576101008083540402835291602001916107b9565b820191906000526020600020905b81548152906001019060200180831161079c57829003601f168201915b5050505050905090565b600080600d60003373ffffffffffffffffffffffffffffffffffffffff1673ffffffffffffffffffffffffffffffffffffffff16815260200190815260200160002090506000816000015490506000810361082357600092505050610889565b600082600301549050600081036108405760009350505050610889565b6000814261084e9190613100565b9050600061087e8560020154600a546108679190613134565b856108729190613168565b8364496cebb8006120d0565b905080955050505050505b90565b6000806108976121d7565b90506108a48185856121df565b600191505092915050565b600c5481565b6000600254905090565b600080600e60003373ffffffffffffffffffffffffffffffffffffffff1673ffffffffffffffffffffffffffffffffffffffff1681526020019081526020016000209050600081600201540361091a57600a54915050610930565b8060020154600a5461092c9190613134565b9150505b90565b60008061093e6121d7565b905061094b8582856121f1565b610956858585612285565b60019150509392505050565b60006012905090565b610973612379565b600082829050116109b9576040517f08c379a00000000000000000000000000000000000000000000000000000000081526004016109b0906131f6565b60405180910390fd5b60005b82829050811015610afc573373ffffffffffffffffffffffffffffffffffffffff16600960009054906101000a900473ffffffffffffffffffffffffffffffffffffffff1673ffffffffffffffffffffffffffffffffffffffff16636352211e858585818110610a2f57610a2e613216565b5b905060200201356040518263ffffffff1660e01b8152600401610a529190612bfe565b602060405180830381865afa158015610a6f573d6000803e3d6000fd5b505050506040513d601f19601f82011682018060405250810190610a93919061325a565b73ffffffffffffffffffffffffffffffffffffffff1614610ae9576040517f08c379a0000000000000000000000000000000000000000000000000000000008152600401610ae0906131f6565b60405180910390fd5b8080610af490613287565b9150506109bc565b506000600d60003373ffffffffffffffffffffffffffffffffffffffff1673ffffffffffffffffffffffffffffffffffffffff16815260200190815260200160002090506000600e60003373ffffffffffffffffffffffffffffffffffffffff1673ffffffffffffffffffffffffffffffffffffffff16815260200190815260200160002090506000600960009054906101000a900473ffffffffffffffffffffffffffffffffffffffff1673ffffffffffffffffffffffffffffffffffffffff166370a08231336040518263ffffffff1660e01b8152600401610be09190612e9b565b602060405180830381865afa158015610bfd573d6000803e3d6000fd5b505050506040513d601f19601f82011682018060405250810190610c2191906132e4565b11610c61576040517f08c379a0000000000000000000000000000000000000000000000000000000008152600401610c589061335d565b60405180910390fd5b60005b84849050811015610d7057600960009054906101000a900473ffffffffffffffffffffffffffffffffffffffff1673ffffffffffffffffffffffffffffffffffffffff166342842e0e3330888886818110610cc257610cc1613216565b5b905060200201356040518463ffffffff1660e01b8152600401610ce79392919061337d565b600060405180830381600087803b158015610d0157600080fd5b505af1158015610d15573d6000803e3d6000fd5b5050505081600301858583818110610d3057610d2f613216565b5b9050602002013590806001815401808255809150506001900390600052602060002001600090919091909150558080610d6890613287565b915050610c64565b50610d796107c3565b8260040181905550428260030181905550600084849050600b54610d9d9190613168565b905080836001016000828254610db39190613134565b9250508190555080826002016000828254610dce9190613134565b9250508190555084849050826000016000828254610dec9190613134565b92505081905550428260010181905550505050610e076123bf565b5050565b80610e1530611695565b1015610e56576040517f08c379a0000000000000000000000000000000000000000000000000000000008152600401610e4d90613426565b60405180910390fd5b610e61308383612285565b5050565b6000600960009054906101000a900473ffffffffffffffffffffffffffffffffffffffff1673ffffffffffffffffffffffffffffffffffffffff166322a579cb6040518163ffffffff1660e01b8152600401602060405180830381865afa158015610ed4573d6000803e3d6000fd5b505050506040513d601f19601f82011682018060405250810190610ef891906132e4565b905090565b6000600d60003373ffffffffffffffffffffffffffffffffffffffff1673ffffffffffffffffffffffffffffffffffffffff168152602001908152602001600020905042600c548260030154610f539190613134565b1015610f94576040517f08c379a0000000000000000000000000000000000000000000000000000000008152600401610f8b90613492565b60405180910390fd5b6000610f9e6107c3565b8260000154610fad9190613134565b905060008111610ff2576040517f08c379a0000000000000000000000000000000000000000000000000000000008152600401610fe990613524565b60405180910390fd5b600860009054906101000a900473ffffffffffffffffffffffffffffffffffffffff1673ffffffffffffffffffffffffffffffffffffffff1663a9059cbb3384600001546040518363ffffffff1660e01b8152600401611053929190613544565b6020604051808303816000875af1158015611072573d6000803e3d6000fd5b505050506040513d601f19601f820116820180604052508101906110969190613599565b50600860009054906101000a900473ffffffffffffffffffffffffffffffffffffffff1673ffffffffffffffffffffffffffffffffffffffff1663499ff3ef33836040518363ffffffff1660e01b81526004016110f4929190613544565b600060405180830381600087803b15801561110e57600080fd5b505af1158015611122573d6000803e3d6000fd5b505050506000826000018190555060008260040181905550600082600301819055505050565b600a5481565b6000600d60003373ffffffffffffffffffffffffffffffffffffffff1673ffffffffffffffffffffffffffffffffffffffff1681526020019081526020016000209050600061119b6107c3565b116111db576040517f08c379a00000000000000000000000000000000000000000000000000000000081526004016111d290613612565b60405180910390fd5b60006111e56107c3565b82600401546111f49190613134565b9050600860009054906101000a900473ffffffffffffffffffffffffffffffffffffffff1673ffffffffffffffffffffffffffffffffffffffff1663499ff3ef33836040518363ffffffff1660e01b8152600401611253929190613544565b600060405180830381600087803b15801561126d57600080fd5b505af1158015611281573d6000803e3d6000fd5b50505050600082600401819055504282600301819055505050565b600082829050116112e2576040517f08c379a00000000000000000000000000000000000000000000000000000000081526004016112d9906131f6565b60405180910390fd5b6000600d60003373ffffffffffffffffffffffffffffffffffffffff1673ffffffffffffffffffffffffffffffffffffffff16815260200190815260200160002090506000600e60003373ffffffffffffffffffffffffffffffffffffffff1673ffffffffffffffffffffffffffffffffffffffff168152602001908152602001600020905060008160000154116113af576040517f08c379a00000000000000000000000000000000000000000000000000000000081526004016113a69061367e565b60405180910390fd5b42600c5482600101546113c29190613134565b1115611403576040517f08c379a00000000000000000000000000000000000000000000000000000000081526004016113fa906136ea565b60405180910390fd5b60005b848490508110156115ae57600085858381811061142657611425613216565b5b9050602002013590506000805b8460030180549050811015611598578285600301828154811061145957611458613216565b5b90600052602060002001540361158557600960009054906101000a900473ffffffffffffffffffffffffffffffffffffffff1673ffffffffffffffffffffffffffffffffffffffff166342842e0e3033866040518463ffffffff1660e01b81526004016114c89392919061337d565b600060405180830381600087803b1580156114e257600080fd5b505af11580156114f6573d6000803e3d6000fd5b5050505084600301600186600301805490506115129190613100565b8154811061152357611522613216565b5b906000526020600020015485600301828154811061154457611543613216565b5b9060005260206000200181905550846003018054806115665761156561370a565b5b6001900381819060005260206000200160009055905560019150611598565b808061159090613287565b915050611433565b50505080806115a690613287565b915050611406565b50838390508160000160008282546115c69190613100565b925050819055506115d56107c3565b826004018190555060008260030181905550600084849050600b546115fa9190613168565b9050808360010160008282546116109190613100565b925050819055508082600201600082825461162b9190613100565b925050819055505050505050565b60006116436107c3565b600d60003373ffffffffffffffffffffffffffffffffffffffff1673ffffffffffffffffffffffffffffffffffffffff168152602001908152602001600020600401546116909190613134565b905090565b60008060008373ffffffffffffffffffffffffffffffffffffffff1673ffffffffffffffffffffffffffffffffffffffff168152602001908152602001600020549050919050565b6116e56123c9565b6116ef6000612450565b565b600554811115611702600554612516565b60405160200161171291906137e7565b60405160208183030381529060405290611762576040517f08c379a00000000000000000000000000000000000000000000000000000000081526004016117599190612bc3565b60405180910390fd5b508061176d30611695565b10156117ae576040517f08c379a00000000000000000000000000000000000000000000000000000000081526004016117a590613426565b60405180910390fd5b6117b9308383612285565b5050565b6000600860009054906101000a900473ffffffffffffffffffffffffffffffffffffffff1673ffffffffffffffffffffffffffffffffffffffff166370a08231836040518263ffffffff1660e01b815260040161181a9190612e9b565b602060405180830381865afa158015611837573d6000803e3d6000fd5b505050506040513d601f19601f8201168201806040525081019061185b91906132e4565b9050919050565b6000600760009054906101000a900473ffffffffffffffffffffffffffffffffffffffff16905090565b6b033b2e3c9fd0803ce800000081565b600d6020528060005260406000206000915090508060000154908060010154908060020154908060030154908060040154908060050154905086565b6060600480546118e7906130a0565b80601f0160208091040260200160405190810160405280929190818152602001828054611913906130a0565b80156119605780601f1061193557610100808354040283529160200191611960565b820191906000526020600020905b81548152906001019060200180831161194357829003601f168201915b5050505050905090565b600081116119ad576040517f08c379a00000000000000000000000000000000000000000000000000000000081526004016119a49061387b565b60405180910390fd5b600860009054906101000a900473ffffffffffffffffffffffffffffffffffffffff1673ffffffffffffffffffffffffffffffffffffffff16637b56c2b233836040518363ffffffff1660e01b8152600401611a0a929190613544565b600060405180830381600087803b158015611a2457600080fd5b505af1158015611a38573d6000803e3d6000fd5b5050505050565b600860009054906101000a900473ffffffffffffffffffffffffffffffffffffffff1681565b600080611a706121d7565b9050611a7d818585612285565b600191505092915050565b600b5481565b611a96612379565b6000600d60003373ffffffffffffffffffffffffffffffffffffffff1673ffffffffffffffffffffffffffffffffffffffff168152602001908152602001600020905060008211611b1c576040517f08c379a0000000000000000000000000000000000000000000000000000000008152600401611b139061390d565b60405180910390fd5b81600860009054906101000a900473ffffffffffffffffffffffffffffffffffffffff1673ffffffffffffffffffffffffffffffffffffffff166370a08231336040518263ffffffff1660e01b8152600401611b789190612e9b565b602060405180830381865afa158015611b95573d6000803e3d6000fd5b505050506040513d601f19601f82011682018060405250810190611bb991906132e4565b1015611bfa576040517f08c379a0000000000000000000000000000000000000000000000000000000008152600401611bf19061399f565b60405180910390fd5b600860009054906101000a900473ffffffffffffffffffffffffffffffffffffffff1673ffffffffffffffffffffffffffffffffffffffff166323b872dd3330856040518463ffffffff1660e01b8152600401611c599392919061337d565b6020604051808303816000875af1158015611c78573d6000803e3d6000fd5b505050506040513d601f19601f82011682018060405250810190611c9c9190613599565b5081816000016000828254611cb19190613134565b925050819055506000816003015403611cd257428160030181905550611cec565b611cda6107c3565b81600401819055504281600301819055505b6000816005015469d3c21bcecceda10000008360000154611d0d91906139ee565b611d179190613100565b905060005b81811015611df257600960009054906101000a900473ffffffffffffffffffffffffffffffffffffffff1673ffffffffffffffffffffffffffffffffffffffff16636a627842336040518263ffffffff1660e01b8152600401611d7f9190612e9b565b6020604051808303816000875af1158015611d9e573d6000803e3d6000fd5b505050506040513d601f19601f82011682018060405250810190611dc291906132e4565b506001836005016000828254611dd89190613134565b925050819055508080611dea90613287565b915050611d1c565b505050611dfd6123bf565b50565b6000611e0b30611695565b905090565b6000600860009054906101000a900473ffffffffffffffffffffffffffffffffffffffff1673ffffffffffffffffffffffffffffffffffffffff1663ba94f61b6040518163ffffffff1660e01b8152600401602060405180830381865afa158015611e7f573d6000803e3d6000fd5b505050506040513d601f19601f82011682018060405250810190611ea391906132e4565b905090565b69d3c21bcecceda100000081565b60055481565b6000600160008473ffffffffffffffffffffffffffffffffffffffff1673ffffffffffffffffffffffffffffffffffffffff16815260200190815260200160002060008373ffffffffffffffffffffffffffffffffffffffff1673ffffffffffffffffffffffffffffffffffffffff16815260200190815260200160002054905092915050565b6000600960009054906101000a900473ffffffffffffffffffffffffffffffffffffffff1673ffffffffffffffffffffffffffffffffffffffff166370a08231836040518263ffffffff1660e01b8152600401611fa09190612e9b565b602060405180830381865afa158015611fbd573d6000803e3d6000fd5b505050506040513d601f19601f82011682018060405250810190611fe191906132e4565b9050919050565b600e6020528060005260406000206000915090508060000154908060010154908060020154905083565b61201a6123c9565b80600a8190555050565b600960009054906101000a900473ffffffffffffffffffffffffffffffffffffffff1681565b6120526123c9565b600073ffffffffffffffffffffffffffffffffffffffff168173ffffffffffffffffffffffffffffffffffffffff16036120c45760006040517f1e4fbdf70000000000000000000000000000000000000000000000000000000081526004016120bb9190612e9b565b60405180910390fd5b6120cd81612450565b50565b600080838502905060008019858709828110838203039150506000810361210b57838281612101576121006139bf565b5b04925050506121d0565b808411612144576040517f227bc15300000000000000000000000000000000000000000000000000000000815260040160405180910390fd5b600084868809905082811182039150808303925060008560000386169050808604955080840493506001818260000304019050808302841793506000600287600302189050808702600203810290508087026002038102905080870260020381029050808702600203810290508087026002038102905080870260020381029050808502955050505050505b9392505050565b600033905090565b6121ec83838360016125e4565b505050565b60006121fd8484611ebc565b90507fffffffffffffffffffffffffffffffffffffffffffffffffffffffffffffffff811461227f578181101561226f578281836040517ffb8f41b200000000000000000000000000000000000000000000000000000000815260040161226693929190613a1f565b60405180910390fd5b61227e848484840360006125e4565b5b50505050565b600073ffffffffffffffffffffffffffffffffffffffff168373ffffffffffffffffffffffffffffffffffffffff16036122f75760006040517f96c6fd1e0000000000000000000000000000000000000000000000000000000081526004016122ee9190612e9b565b60405180910390fd5b600073ffffffffffffffffffffffffffffffffffffffff168273ffffffffffffffffffffffffffffffffffffffff16036123695760006040517fec442f050000000000000000000000000000000000000000000000000000000081526004016123609190612e9b565b60405180910390fd5b6123748383836127bb565b505050565b6002600654036123b5576040517f3ee5aeb500000000000000000000000000000000000000000000000000000000815260040160405180910390fd5b6002600681905550565b6001600681905550565b6123d16121d7565b73ffffffffffffffffffffffffffffffffffffffff166123ef611862565b73ffffffffffffffffffffffffffffffffffffffff161461244e576124126121d7565b6040517f118cdaa70000000000000000000000000000000000000000000000000000000081526004016124459190612e9b565b60405180910390fd5b565b6000600760009054906101000a900473ffffffffffffffffffffffffffffffffffffffff16905081600760006101000a81548173ffffffffffffffffffffffffffffffffffffffff021916908373ffffffffffffffffffffffffffffffffffffffff1602179055508173ffffffffffffffffffffffffffffffffffffffff168173ffffffffffffffffffffffffffffffffffffffff167f8be0079c531659141344cd1fd0a4f28419497f9722a3daafe3b4186f6b6457e060405160405180910390a35050565b606060006001612525846129e0565b01905060008167ffffffffffffffff81111561254457612543613a56565b5b6040519080825280601f01601f1916602001820160405280156125765781602001600182028036833780820191505090505b509050600082602001820190505b6001156125d9578080600190039150507f3031323334353637383961626364656600000000000000000000000000000000600a86061a8153600a85816125cd576125cc6139bf565b5b04945060008503612584575b819350505050919050565b600073ffffffffffffffffffffffffffffffffffffffff168473ffffffffffffffffffffffffffffffffffffffff16036126565760006040517fe602df0500000000000000000000000000000000000000000000000000000000815260040161264d9190612e9b565b60405180910390fd5b600073ffffffffffffffffffffffffffffffffffffffff168373ffffffffffffffffffffffffffffffffffffffff16036126c85760006040517f94280d620000000000000000000000000000000000000000000000000000000081526004016126bf9190612e9b565b60405180910390fd5b81600160008673ffffffffffffffffffffffffffffffffffffffff1673ffffffffffffffffffffffffffffffffffffffff16815260200190815260200160002060008573ffffffffffffffffffffffffffffffffffffffff1673ffffffffffffffffffffffffffffffffffffffff1681526020019081526020016000208190555080156127b5578273ffffffffffffffffffffffffffffffffffffffff168473ffffffffffffffffffffffffffffffffffffffff167f8c5be1e5ebec7d5bd14f71427d1e84f3dd0314c0f7b2291e5b200ac8c7c3b925846040516127ac9190612bfe565b60405180910390a35b50505050565b600073ffffffffffffffffffffffffffffffffffffffff168373ffffffffffffffffffffffffffffffffffffffff160361280d5780600260008282546128019190613134565b925050819055506128e0565b60008060008573ffffffffffffffffffffffffffffffffffffffff1673ffffffffffffffffffffffffffffffffffffffff16815260200190815260200160002054905081811015612899578381836040517fe450d38c00000000000000000000000000000000000000000000000000000000815260040161289093929190613a1f565b60405180910390fd5b8181036000808673ffffffffffffffffffffffffffffffffffffffff1673ffffffffffffffffffffffffffffffffffffffff16815260200190815260200160002081905550505b600073ffffffffffffffffffffffffffffffffffffffff168273ffffffffffffffffffffffffffffffffffffffff16036129295780600260008282540392505081905550612976565b806000808473ffffffffffffffffffffffffffffffffffffffff1673ffffffffffffffffffffffffffffffffffffffff168152602001908152602001600020600082825401925050819055505b8173ffffffffffffffffffffffffffffffffffffffff168373ffffffffffffffffffffffffffffffffffffffff167fddf252ad1be2c89b69c2b068fc378daa952ba7f163c4a11628f55a4df523b3ef836040516129d39190612bfe565b60405180910390a3505050565b600080600090507a184f03e93ff9f4daa797ed6e38ed64bf6a1f0100000000000000008310612a3e577a184f03e93ff9f4daa797ed6e38ed64bf6a1f0100000000000000008381612a3457612a336139bf565b5b0492506040810190505b6d04ee2d6d415b85acef81000000008310612a7b576d04ee2d6d415b85acef81000000008381612a7157612a706139bf565b5b0492506020810190505b662386f26fc100008310612aaa57662386f26fc100008381612aa057612a9f6139bf565b5b0492506010810190505b6305f5e1008310612ad3576305f5e1008381612ac957612ac86139bf565b5b0492506008810190505b6127108310612af8576127108381612aee57612aed6139bf565b5b0492506004810190505b60648310612b1b5760648381612b1157612b106139bf565b5b0492506002810190505b600a8310612b2a576001810190505b80915050919050565b600081519050919050565b600082825260208201905092915050565b60005b83811015612b6d578082015181840152602081019050612b52565b60008484015250505050565b6000601f19601f8301169050919050565b6000612b9582612b33565b612b9f8185612b3e565b9350612baf818560208601612b4f565b612bb881612b79565b840191505092915050565b60006020820190508181036000830152612bdd8184612b8a565b905092915050565b6000819050919050565b612bf881612be5565b82525050565b6000602082019050612c136000830184612bef565b92915050565b600080fd5b600080fd5b600073ffffffffffffffffffffffffffffffffffffffff82169050919050565b6000612c4e82612c23565b9050919050565b612c5e81612c43565b8114612c6957600080fd5b50565b600081359050612c7b81612c55565b92915050565b612c8a81612be5565b8114612c9557600080fd5b50565b600081359050612ca781612c81565b92915050565b60008060408385031215612cc457612cc3612c19565b5b6000612cd285828601612c6c565b9250506020612ce385828601612c98565b9150509250929050565b60008115159050919050565b612d0281612ced565b82525050565b6000602082019050612d1d6000830184612cf9565b92915050565b600080600060608486031215612d3c57612d3b612c19565b5b6000612d4a86828701612c6c565b9350506020612d5b86828701612c6c565b9250506040612d6c86828701612c98565b9150509250925092565b600060ff82169050919050565b612d8c81612d76565b82525050565b6000602082019050612da76000830184612d83565b92915050565b600080fd5b600080fd5b600080fd5b60008083601f840112612dd257612dd1612dad565b5b8235905067ffffffffffffffff811115612def57612dee612db2565b5b602083019150836020820283011115612e0b57612e0a612db7565b5b9250929050565b60008060208385031215612e2957612e28612c19565b5b600083013567ffffffffffffffff811115612e4757612e46612c1e565b5b612e5385828601612dbc565b92509250509250929050565b600060208284031215612e7557612e74612c19565b5b6000612e8384828501612c6c565b91505092915050565b612e9581612c43565b82525050565b6000602082019050612eb06000830184612e8c565b92915050565b600060c082019050612ecb6000830189612bef565b612ed86020830188612bef565b612ee56040830187612bef565b612ef26060830186612bef565b612eff6080830185612bef565b612f0c60a0830184612bef565b979650505050505050565b600060208284031215612f2d57612f2c612c19565b5b6000612f3b84828501612c98565b91505092915050565b6000819050919050565b6000612f69612f64612f5f84612c23565b612f44565b612c23565b9050919050565b6000612f7b82612f4e565b9050919050565b6000612f8d82612f70565b9050919050565b612f9d81612f82565b82525050565b6000602082019050612fb86000830184612f94565b92915050565b60008060408385031215612fd557612fd4612c19565b5b6000612fe385828601612c6c565b9250506020612ff485828601612c6c565b9150509250929050565b60006060820190506130136000830186612bef565b6130206020830185612bef565b61302d6040830184612bef565b949350505050565b600061304082612f70565b9050919050565b61305081613035565b82525050565b600060208201905061306b6000830184613047565b92915050565b7f4e487b7100000000000000000000000000000000000000000000000000000000600052602260045260246000fd5b600060028204905060018216806130b857607f821691505b6020821081036130cb576130ca613071565b5b50919050565b7f4e487b7100000000000000000000000000000000000000000000000000000000600052601160045260246000fd5b600061310b82612be5565b915061311683612be5565b925082820390508181111561312e5761312d6130d1565b5b92915050565b600061313f82612be5565b915061314a83612be5565b9250828201905080821115613162576131616130d1565b5b92915050565b600061317382612be5565b915061317e83612be5565b925082820261318c81612be5565b915082820484148315176131a3576131a26130d1565b5b5092915050565b7f4e46542d423a20496e76616c696420746f6b656e496400000000000000000000600082015250565b60006131e0601683612b3e565b91506131eb826131aa565b602082019050919050565b6000602082019050818103600083015261320f816131d3565b9050919050565b7f4e487b7100000000000000000000000000000000000000000000000000000000600052603260045260246000fd5b60008151905061325481612c55565b92915050565b6000602082840312156132705761326f612c19565b5b600061327e84828501613245565b91505092915050565b600061329282612be5565b91507fffffffffffffffffffffffffffffffffffffffffffffffffffffffffffffffff82036132c4576132c36130d1565b5b600182019050919050565b6000815190506132de81612c81565b92915050565b6000602082840312156132fa576132f9612c19565b5b6000613308848285016132cf565b91505092915050565b7f4e46542d423a204e6f2068617665204e4654204220746f206465706f73697400600082015250565b6000613347601f83612b3e565b915061335282613311565b602082019050919050565b600060208201905081810360008301526133768161333a565b9050919050565b60006060820190506133926000830186612e8c565b61339f6020830185612e8c565b6133ac6040830184612bef565b949350505050565b7f4552433230546f6b656e3a20696e73756666696369656e742062616c616e636560008201527f20696e20636f6e74726163740000000000000000000000000000000000000000602082015250565b6000613410602c83612b3e565b915061341b826133b4565b604082019050919050565b6000602082019050818103600083015261343f81613403565b9050919050565b7f546f6b656e413a20596f752063616e2774207769746864726177206e6f770000600082015250565b600061347c601e83612b3e565b915061348782613446565b602082019050919050565b600060208201905081810360008301526134ab8161346f565b9050919050565b7f546f6b656e413a204e6f20686176652072657761726420746f2057697468647260008201527f6177207265776172640000000000000000000000000000000000000000000000602082015250565b600061350e602983612b3e565b9150613519826134b2565b604082019050919050565b6000602082019050818103600083015261353d81613501565b9050919050565b60006040820190506135596000830185612e8c565b6135666020830184612bef565b9392505050565b61357681612ced565b811461358157600080fd5b50565b6000815190506135938161356d565b92915050565b6000602082840312156135af576135ae612c19565b5b60006135bd84828501613584565b91505092915050565b7f436c61696d205265776172643a204e6f20686176652072657761726421000000600082015250565b60006135fc601d83612b3e565b9150613607826135c6565b602082019050919050565b6000602082019050818103600083015261362b816135ef565b9050919050565b7f4e46542d423a204e6f206465706f736974000000000000000000000000000000600082015250565b6000613668601183612b3e565b915061367382613632565b602082019050919050565b600060208201905081810360008301526136978161365b565b9050919050565b7f4e46542d423a20596f752063616e2774207769746864726177206e6f77000000600082015250565b60006136d4601d83612b3e565b91506136df8261369e565b602082019050919050565b60006020820190508181036000830152613703816136c7565b9050919050565b7f4e487b7100000000000000000000000000000000000000000000000000000000600052603160045260246000fd5b600081905092915050565b7f4552433230546f6b656e3a2066617563657420616d6f756e7420746f6f206c6160008201527f7267652c206d61783a2000000000000000000000000000000000000000000000602082015250565b60006137a0602a83613739565b91506137ab82613744565b602a82019050919050565b60006137c182612b33565b6137cb8185613739565b93506137db818560208601612b4f565b80840191505092915050565b60006137f282613793565b91506137fe82846137b6565b915081905092915050565b7f546f6b656e413a2066617563657420616d6f756e74206d75737420626520677260008201527f6561746572207468616e207a65726f0000000000000000000000000000000000602082015250565b6000613865602f83612b3e565b915061387082613809565b604082019050919050565b6000602082019050818103600083015261389481613858565b9050919050565b7f546f6b656e413a206465706f73697420616d6f756e74206d757374206265206760008201527f726561746572207468616e207a65726f00000000000000000000000000000000602082015250565b60006138f7603083612b3e565b91506139028261389b565b604082019050919050565b60006020820190508181036000830152613926816138ea565b9050919050565b7f546f6b656e413a20696e73756666696369656e742062616c616e636520696e2060008201527f636f6e7472616374000000000000000000000000000000000000000000000000602082015250565b6000613989602883612b3e565b91506139948261392d565b604082019050919050565b600060208201905081810360008301526139b88161397c565b9050919050565b7f4e487b7100000000000000000000000000000000000000000000000000000000600052601260045260246000fd5b60006139f982612be5565b9150613a0483612be5565b925082613a1457613a136139bf565b5b828204905092915050565b6000606082019050613a346000830186612e8c565b613a416020830185612bef565b613a4e6040830184612bef565b949350505050565b7f4e487b7100000000000000000000000000000000000000000000000000000000600052604160045260246000fdfea2646970667358221220857c2c5f26fc88bead8541b7c4c1124e74801242ce477ce560e7ee8d559af5db64736f6c63430008140033",
  "linkReferences": {},
  "deployedLinkReferences": {}
}