{
  "_format": "hh-sol-artifact-1",
  "contractName": "ContractHandle",
  "sourceName": "contracts/ContractHandle.sol",
  "abi": [
    {
      "inputs": [
        {
          "internalType": "contract TokenERC20",
          "name": "_tokenERC20",
          "type": "address"
        },
        {
          "internalType": "contract TokenERC721",
          "name": "_tokenERC721",
          "type": "address"
        }
      ],
      "stateMutability": "nonpayable",
      "type": "constructor"
    },
    {
      "inputs": [],
      "name": "MathOverflowedMulDiv",
      "type": "error"
    },
    {
      "inputs": [
        {
          "internalType": "address",
          "name": "owner",
          "type": "address"
        }
      ],
      "name": "OwnableInvalidOwner",
      "type": "error"
    },
    {
      "inputs": [
        {
          "internalType": "address",
          "name": "account",
          "type": "address"
        }
      ],
      "name": "OwnableUnauthorizedAccount",
      "type": "error"
    },
    {
      "inputs": [],
      "name": "ReentrancyGuardReentrantCall",
      "type": "error"
    },
    {
      "anonymous": false,
      "inputs": [
        {
          "indexed": true,
          "internalType": "address",
          "name": "_from",
          "type": "address"
        },
        {
          "indexed": false,
          "internalType": "uint256",
          "name": "_reward",
          "type": "uint256"
        }
      ],
      "name": "ClaimTokenA",
      "type": "event"
    },
    {
      "anonymous": false,
      "inputs": [
        {
          "indexed": true,
          "internalType": "address",
          "name": "_from",
          "type": "address"
        },
        {
          "indexed": false,
          "internalType": "uint256[]",
          "name": "_tokenIds",
          "type": "uint256[]"
        }
      ],
      "name": "DepositNFTB",
      "type": "event"
    },
    {
      "anonymous": false,
      "inputs": [
        {
          "indexed": true,
          "internalType": "address",
          "name": "_from",
          "type": "address"
        },
        {
          "indexed": false,
          "internalType": "uint256",
          "name": "_amount",
          "type": "uint256"
        }
      ],
      "name": "DepositTokenA",
      "type": "event"
    },
    {
      "anonymous": false,
      "inputs": [
        {
          "indexed": true,
          "internalType": "address",
          "name": "_from",
          "type": "address"
        },
        {
          "indexed": false,
          "internalType": "uint256",
          "name": "_tokenId",
          "type": "uint256"
        }
      ],
      "name": "MintedNFTB",
      "type": "event"
    },
    {
      "anonymous": false,
      "inputs": [
        {
          "indexed": true,
          "internalType": "address",
          "name": "operator",
          "type": "address"
        },
        {
          "indexed": true,
          "internalType": "address",
          "name": "from",
          "type": "address"
        },
        {
          "indexed": true,
          "internalType": "uint256",
          "name": "tokenId",
          "type": "uint256"
        },
        {
          "indexed": false,
          "internalType": "bytes",
          "name": "data",
          "type": "bytes"
        }
      ],
      "name": "NFTReceived",
      "type": "event"
    },
    {
      "anonymous": false,
      "inputs": [
        {
          "indexed": true,
          "internalType": "address",
          "name": "previousOwner",
          "type": "address"
        },
        {
          "indexed": true,
          "internalType": "address",
          "name": "newOwner",
          "type": "address"
        }
      ],
      "name": "OwnershipTransferred",
      "type": "event"
    },
    {
      "anonymous": false,
      "inputs": [
        {
          "indexed": false,
          "internalType": "uint256",
          "name": "_newBaseAPR",
          "type": "uint256"
        }
      ],
      "name": "UpdateAPR",
      "type": "event"
    },
    {
      "anonymous": false,
      "inputs": [
        {
          "indexed": true,
          "internalType": "address",
          "name": "_from",
          "type": "address"
        },
        {
          "indexed": false,
          "internalType": "uint256[]",
          "name": "_tokenIds",
          "type": "uint256[]"
        }
      ],
      "name": "WithdrawNFTB",
      "type": "event"
    },
    {
      "anonymous": false,
      "inputs": [
        {
          "indexed": true,
          "internalType": "address",
          "name": "_from",
          "type": "address"
        },
        {
          "indexed": false,
          "internalType": "uint256",
          "name": "_amount",
          "type": "uint256"
        },
        {
          "indexed": false,
          "internalType": "uint256",
          "name": "_reward",
          "type": "uint256"
        }
      ],
      "name": "WithdrawTokenA",
      "type": "event"
    },
    {
      "anonymous": false,
      "inputs": [
        {
          "indexed": false,
          "internalType": "uint256",
          "name": "data",
          "type": "uint256"
        },
        {
          "indexed": false,
          "internalType": "address",
          "name": "_from",
          "type": "address"
        },
        {
          "indexed": false,
          "internalType": "address",
          "name": "_to",
          "type": "address"
        }
      ],
      "name": "getData",
      "type": "event"
    },
    {
      "inputs": [],
      "name": "MINIMUM_DEPOSIT_FOR_CERTIFICATE",
      "outputs": [
        {
          "internalType": "uint256",
          "name": "",
          "type": "uint256"
        }
      ],
      "stateMutability": "view",
      "type": "function"
    },
    {
      "inputs": [
        {
          "internalType": "address",
          "name": "_address",
          "type": "address"
        }
      ],
      "name": "balaceOfERC20",
      "outputs": [
        {
          "internalType": "uint256",
          "name": "",
          "type": "uint256"
        }
      ],
      "stateMutability": "view",
      "type": "function"
    },
    {
      "inputs": [],
      "name": "balaceOfERC20TotalSupply",
      "outputs": [
        {
          "internalType": "uint256",
          "name": "",
          "type": "uint256"
        }
      ],
      "stateMutability": "view",
      "type": "function"
    },
    {
      "inputs": [
        {
          "internalType": "address",
          "name": "_address",
          "type": "address"
        }
      ],
      "name": "balaceOfERC721",
      "outputs": [
        {
          "internalType": "uint256",
          "name": "",
          "type": "uint256"
        }
      ],
      "stateMutability": "view",
      "type": "function"
    },
    {
      "inputs": [],
      "name": "balaceOfERC721TotalSupply",
      "outputs": [
        {
          "internalType": "uint256",
          "name": "",
          "type": "uint256"
        }
      ],
      "stateMutability": "view",
      "type": "function"
    },
    {
      "inputs": [],
      "name": "baseAPR",
      "outputs": [
        {
          "internalType": "uint256",
          "name": "",
          "type": "uint256"
        }
      ],
      "stateMutability": "view",
      "type": "function"
    },
    {
      "inputs": [],
      "name": "bonusAPR",
      "outputs": [
        {
          "internalType": "uint256",
          "name": "",
          "type": "uint256"
        }
      ],
      "stateMutability": "view",
      "type": "function"
    },
    {
      "inputs": [],
      "name": "calculateRewardERC20",
      "outputs": [
        {
          "internalType": "uint256",
          "name": "",
          "type": "uint256"
        }
      ],
      "stateMutability": "view",
      "type": "function"
    },
    {
      "inputs": [],
      "name": "claimRewardERC20",
      "outputs": [],
      "stateMutability": "nonpayable",
      "type": "function"
    },
    {
      "inputs": [
        {
          "internalType": "uint256",
          "name": "_amount",
          "type": "uint256"
        }
      ],
      "name": "depositERC20",
      "outputs": [],
      "stateMutability": "nonpayable",
      "type": "function"
    },
    {
      "inputs": [
        {
          "internalType": "uint256[]",
          "name": "tokenIds",
          "type": "uint256[]"
        }
      ],
      "name": "depositNFTB",
      "outputs": [],
      "stateMutability": "nonpayable",
      "type": "function"
    },
    {
      "inputs": [
        {
          "internalType": "uint256",
          "name": "_amount",
          "type": "uint256"
        }
      ],
      "name": "faucetERC20",
      "outputs": [],
      "stateMutability": "nonpayable",
      "type": "function"
    },
    {
      "inputs": [],
      "name": "getCurrentRewardERC20",
      "outputs": [
        {
          "internalType": "uint256",
          "name": "",
          "type": "uint256"
        }
      ],
      "stateMutability": "view",
      "type": "function"
    },
    {
      "inputs": [
        {
          "internalType": "address",
          "name": "_address",
          "type": "address"
        }
      ],
      "name": "getOwnedNFTs",
      "outputs": [
        {
          "internalType": "uint256[]",
          "name": "",
          "type": "uint256[]"
        }
      ],
      "stateMutability": "view",
      "type": "function"
    },
    {
      "inputs": [
        {
          "internalType": "address",
          "name": "_address",
          "type": "address"
        }
      ],
      "name": "getStakingInfo",
      "outputs": [
        {
          "components": [
            {
              "internalType": "uint256",
              "name": "totalAmountERC20",
              "type": "uint256"
            },
            {
              "internalType": "uint256",
              "name": "APR",
              "type": "uint256"
            },
            {
              "internalType": "uint256",
              "name": "bonusAPR",
              "type": "uint256"
            },
            {
              "internalType": "uint256",
              "name": "startTimeDeposit",
              "type": "uint256"
            },
            {
              "internalType": "uint256",
              "name": "totalRewardERC20",
              "type": "uint256"
            },
            {
              "internalType": "uint256",
              "name": "mintNFTbCount",
              "type": "uint256"
            },
            {
              "internalType": "uint256",
              "name": "totalAmountERC721",
              "type": "uint256"
            },
            {
              "internalType": "uint256",
              "name": "startTimeDepositNFTB",
              "type": "uint256"
            },
            {
              "internalType": "uint256[]",
              "name": "tokenId",
              "type": "uint256[]"
            }
          ],
          "internalType": "struct ContractHandle.StakingInfo",
          "name": "",
          "type": "tuple"
        }
      ],
      "stateMutability": "view",
      "type": "function"
    },
    {
      "inputs": [],
      "name": "lockTime",
      "outputs": [
        {
          "internalType": "uint256",
          "name": "",
          "type": "uint256"
        }
      ],
      "stateMutability": "view",
      "type": "function"
    },
    {
      "inputs": [
        {
          "internalType": "address",
          "name": "operator",
          "type": "address"
        },
        {
          "internalType": "address",
          "name": "from",
          "type": "address"
        },
        {
          "internalType": "uint256",
          "name": "tokenId",
          "type": "uint256"
        },
        {
          "internalType": "bytes",
          "name": "data",
          "type": "bytes"
        }
      ],
      "name": "onERC721Received",
      "outputs": [
        {
          "internalType": "bytes4",
          "name": "",
          "type": "bytes4"
        }
      ],
      "stateMutability": "nonpayable",
      "type": "function"
    },
    {
      "inputs": [],
      "name": "owner",
      "outputs": [
        {
          "internalType": "address",
          "name": "",
          "type": "address"
        }
      ],
      "stateMutability": "view",
      "type": "function"
    },
    {
      "inputs": [],
      "name": "renounceOwnership",
      "outputs": [],
      "stateMutability": "nonpayable",
      "type": "function"
    },
    {
      "inputs": [
        {
          "internalType": "address",
          "name": "",
          "type": "address"
        }
      ],
      "name": "stakingInfo",
      "outputs": [
        {
          "internalType": "uint256",
          "name": "totalAmountERC20",
          "type": "uint256"
        },
        {
          "internalType": "uint256",
          "name": "APR",
          "type": "uint256"
        },
        {
          "internalType": "uint256",
          "name": "bonusAPR",
          "type": "uint256"
        },
        {
          "internalType": "uint256",
          "name": "startTimeDeposit",
          "type": "uint256"
        },
        {
          "internalType": "uint256",
          "name": "totalRewardERC20",
          "type": "uint256"
        },
        {
          "internalType": "uint256",
          "name": "mintNFTbCount",
          "type": "uint256"
        },
        {
          "internalType": "uint256",
          "name": "totalAmountERC721",
          "type": "uint256"
        },
        {
          "internalType": "uint256",
          "name": "startTimeDepositNFTB",
          "type": "uint256"
        }
      ],
      "stateMutability": "view",
      "type": "function"
    },
    {
      "inputs": [],
      "name": "tokenERC20",
      "outputs": [
        {
          "internalType": "contract TokenERC20",
          "name": "",
          "type": "address"
        }
      ],
      "stateMutability": "view",
      "type": "function"
    },
    {
      "inputs": [],
      "name": "tokenERC721",
      "outputs": [
        {
          "internalType": "contract TokenERC721",
          "name": "",
          "type": "address"
        }
      ],
      "stateMutability": "view",
      "type": "function"
    },
    {
      "inputs": [
        {
          "internalType": "address",
          "name": "newOwner",
          "type": "address"
        }
      ],
      "name": "transferOwnership",
      "outputs": [],
      "stateMutability": "nonpayable",
      "type": "function"
    },
    {
      "inputs": [
        {
          "internalType": "uint256",
          "name": "newBaseAPR",
          "type": "uint256"
        }
      ],
      "name": "updateAPR",
      "outputs": [],
      "stateMutability": "nonpayable",
      "type": "function"
    },
    {
      "inputs": [
        {
          "internalType": "uint256[]",
          "name": "tokenId",
          "type": "uint256[]"
        }
      ],
      "name": "withRewardNFTB",
      "outputs": [],
      "stateMutability": "nonpayable",
      "type": "function"
    },
    {
      "inputs": [],
      "name": "withdrawRewardERC20",
      "outputs": [],
      "stateMutability": "nonpayable",
      "type": "function"
    }
  ],
  "bytecode": "0x608060405261032060045560c8600555601e6006553480156200002157600080fd5b5060405162003640380380620036408339818101604052810190620000479190620002ea565b336001600081905550600073ffffffffffffffffffffffffffffffffffffffff168173ffffffffffffffffffffffffffffffffffffffff1603620000c55760006040517f1e4fbdf7000000000000000000000000000000000000000000000000000000008152600401620000bc919062000342565b60405180910390fd5b620000d6816200016160201b60201c565b5081600260006101000a81548173ffffffffffffffffffffffffffffffffffffffff021916908373ffffffffffffffffffffffffffffffffffffffff16021790555080600360006101000a81548173ffffffffffffffffffffffffffffffffffffffff021916908373ffffffffffffffffffffffffffffffffffffffff16021790555050506200035f565b6000600160009054906101000a900473ffffffffffffffffffffffffffffffffffffffff16905081600160006101000a81548173ffffffffffffffffffffffffffffffffffffffff021916908373ffffffffffffffffffffffffffffffffffffffff1602179055508173ffffffffffffffffffffffffffffffffffffffff168173ffffffffffffffffffffffffffffffffffffffff167f8be0079c531659141344cd1fd0a4f28419497f9722a3daafe3b4186f6b6457e060405160405180910390a35050565b600080fd5b600073ffffffffffffffffffffffffffffffffffffffff82169050919050565b600062000259826200022c565b9050919050565b60006200026d826200024c565b9050919050565b6200027f8162000260565b81146200028b57600080fd5b50565b6000815190506200029f8162000274565b92915050565b6000620002b2826200024c565b9050919050565b620002c481620002a5565b8114620002d057600080fd5b50565b600081519050620002e481620002b9565b92915050565b6000806040838503121562000304576200030362000227565b5b600062000314858286016200028e565b92505060206200032785828601620002d3565b9150509250929050565b6200033c816200024c565b82525050565b600060208201905062000359600083018462000331565b92915050565b6132d1806200036f6000396000f3fe608060405234801561001057600080fd5b506004361061018e5760003560e01c80638da5cb5b116100de578063b79092fd11610097578063de9ad13411610071578063de9ad13414610444578063e7e2629e14610474578063e9adc77014610490578063f2fde38b146104ae5761018e565b8063b79092fd146103ec578063bcd19e7014610408578063ce55f947146104265761018e565b80638da5cb5b1461030f57806394eecb501461032d5780639b3a6c88146103645780639d143e8e14610380578063aa4704f31461039e578063b3a36f1e146103ce5761018e565b8063556e7cee1161014b5780636a78c7d2116101255780636a78c7d21461029b5780637098692e146102b7578063715018a6146102d55780638cb8564d146102df5761018e565b8063556e7cee1461026957806358ac0e80146102735780636014a449146102915761018e565b80630882e64e146101935780630d668087146101b1578063150b7a02146101cf57806318148f1b146101ff57806336ed1f0d1461022f5780634ca903ba1461024b575b600080fd5b61019b6104ca565b6040516101a891906120d9565b60405180910390f35b6101b9610593565b6040516101c691906120d9565b60405180910390f35b6101e960048036038101906101e491906121f7565b610599565b6040516101f691906122ba565b60405180910390f35b610219600480360381019061021491906122d5565b610616565b60405161022691906123c0565b60405180910390f35b61024960048036038101906102449190612438565b6106c0565b005b610253610aec565b60405161026091906120d9565b60405180910390f35b610271610b84565b005b61027b610eb9565b60405161028891906120d9565b60405180910390f35b610299610ebf565b005b6102b560048036038101906102b09190612438565b61105b565b005b6102bf611403565b6040516102cc91906120d9565b60405180910390f35b6102dd611464565b005b6102f960048036038101906102f491906122d5565b611478565b60405161030691906120d9565b60405180910390f35b61031761151d565b6040516103249190612494565b60405180910390f35b610347600480360381019061034291906122d5565b611547565b60405161035b9897969594939291906124af565b60405180910390f35b61037e6004803603810190610379919061252d565b61158f565b005b610388611664565b60405161039591906125b9565b60405180910390f35b6103b860048036038101906103b391906122d5565b61168a565b6040516103c59190612708565b60405180910390f35b6103d661178c565b6040516103e391906120d9565b60405180910390f35b6104066004803603810190610401919061252d565b611792565b005b610410611b4a565b60405161041d91906120d9565b60405180910390f35b61042e611be2565b60405161043b91906120d9565b60405180910390f35b61045e600480360381019061045991906122d5565b611bf0565b60405161046b91906120d9565b60405180910390f35b61048e6004803603810190610489919061252d565b611c95565b005b610498611cde565b6040516104a5919061274b565b60405180910390f35b6104c860048036038101906104c391906122d5565b611d04565b005b600080600760003373ffffffffffffffffffffffffffffffffffffffff1673ffffffffffffffffffffffffffffffffffffffff16815260200190815260200160002090506000816000015490506000810361052a57600092505050610590565b600082600301549050600081036105475760009350505050610590565b600081426105559190612795565b90506000610585856002015460045461056e91906127c9565b8561057991906127fd565b83644979cb9e00611d8a565b905080955050505050505b90565b60065481565b6000838573ffffffffffffffffffffffffffffffffffffffff168773ffffffffffffffffffffffffffffffffffffffff167f1d823cdc8f0514a95b53538df2d2f3deaf98d1c534c6e750daa593173c27f8f086866040516105fb92919061289d565b60405180910390a463150b7a0260e01b905095945050505050565b6060600360009054906101000a900473ffffffffffffffffffffffffffffffffffffffff1673ffffffffffffffffffffffffffffffffffffffff1663d9d61655836040518263ffffffff1660e01b81526004016106739190612494565b600060405180830381865afa158015610690573d6000803e3d6000fd5b505050506040513d6000823e3d601f19601f820116820180604052508101906106b99190612a14565b9050919050565b6106c8611e91565b6000828290501161070e576040517f08c379a000000000000000000000000000000000000000000000000000000000815260040161070590612aba565b60405180910390fd5b6000600760003373ffffffffffffffffffffffffffffffffffffffff1673ffffffffffffffffffffffffffffffffffffffff168152602001908152602001600020905060005b83839050811015610894573373ffffffffffffffffffffffffffffffffffffffff16600360009054906101000a900473ffffffffffffffffffffffffffffffffffffffff1673ffffffffffffffffffffffffffffffffffffffff16636352211e8686858181106107c7576107c6612ada565b5b905060200201356040518263ffffffff1660e01b81526004016107ea91906120d9565b602060405180830381865afa158015610807573d6000803e3d6000fd5b505050506040513d601f19601f8201168201806040525081019061082b9190612b1e565b73ffffffffffffffffffffffffffffffffffffffff1614610881576040517f08c379a000000000000000000000000000000000000000000000000000000000815260040161087890612b97565b60405180910390fd5b808061088c90612bb7565b915050610754565b5060005b83839050811015610a0b57600360009054906101000a900473ffffffffffffffffffffffffffffffffffffffff1673ffffffffffffffffffffffffffffffffffffffff16639e872ce933308787868181106108f6576108f5612ada565b5b905060200201356040518463ffffffff1660e01b815260040161091b93929190612bff565b600060405180830381600087803b15801561093557600080fd5b505af1158015610949573d6000803e3d6000fd5b505050508160080184848381811061096457610963612ada565b5b9050602002013590806001815401808255809150506001900390600052602060002001600090919091909150553373ffffffffffffffffffffffffffffffffffffffff167f43099788aa6a85c8c54fe310da7c01c5f8a6bd12e2117d985aa2733b0e38b7e98585848181106109dc576109db612ada565b5b905060200201356040516109f091906120d9565b60405180910390a28080610a0390612bb7565b915050610898565b50610a146104ca565b816004016000828254610a2791906127c9565b9250508190555042816003018190555082829050816006016000828254610a4e91906127c9565b92505081905550428160070181905550600083839050600554610a7191906127fd565b905080826002016000828254610a8791906127c9565b925050819055503373ffffffffffffffffffffffffffffffffffffffff167fa3a0164c9e2cd60f839c44ac37ee337bef86562463c1644072111ade50bf2ddc8585604051610ad6929190612ca0565b60405180910390a25050610ae8611ed7565b5050565b6000600360009054906101000a900473ffffffffffffffffffffffffffffffffffffffff1673ffffffffffffffffffffffffffffffffffffffff166322a579cb6040518163ffffffff1660e01b8152600401602060405180830381865afa158015610b5b573d6000803e3d6000fd5b505050506040513d601f19601f82011682018060405250810190610b7f9190612cc4565b905090565b6000600760003373ffffffffffffffffffffffffffffffffffffffff1673ffffffffffffffffffffffffffffffffffffffff16815260200190815260200160002090506006548160030154610bd991906127c9565b421015610c1b576040517f08c379a0000000000000000000000000000000000000000000000000000000008152600401610c1290612d3d565b60405180910390fd5b6000816000015411610c62576040517f08c379a0000000000000000000000000000000000000000000000000000000008152600401610c5990612dcf565b60405180910390fd5b6000610c6c6104ca565b8260040154610c7b91906127c9565b9050600260009054906101000a900473ffffffffffffffffffffffffffffffffffffffff1673ffffffffffffffffffffffffffffffffffffffff1663a9059cbb3384600001546040518363ffffffff1660e01b8152600401610cde929190612def565b6020604051808303816000875af1158015610cfd573d6000803e3d6000fd5b505050506040513d601f19601f82011682018060405250810190610d219190612e50565b50600260009054906101000a900473ffffffffffffffffffffffffffffffffffffffff1673ffffffffffffffffffffffffffffffffffffffff1663499ff3ef33836040518363ffffffff1660e01b8152600401610d7f929190612def565b600060405180830381600087803b158015610d9957600080fd5b505af1158015610dad573d6000803e3d6000fd5b505050506000826000018190555060008260040181905550600082600301819055503373ffffffffffffffffffffffffffffffffffffffff167fbeaca2bab4d701ffc02ef505ed5589fe9f722e358c45d3bfb8bd17e8e6a5e02a836000015483604051610e1b929190612e7d565b60405180910390a2600760003373ffffffffffffffffffffffffffffffffffffffff1673ffffffffffffffffffffffffffffffffffffffff1681526020019081526020016000206000808201600090556001820160009055600282016000905560038201600090556004820160009055600582016000905560068201600090556007820160009055600882016000610eb39190612036565b50505050565b60045481565b6000600760003373ffffffffffffffffffffffffffffffffffffffff1673ffffffffffffffffffffffffffffffffffffffff16815260200190815260200160002090506000610f0c6104ca565b11610f4c576040517f08c379a0000000000000000000000000000000000000000000000000000000008152600401610f4390612ef2565b60405180910390fd5b6000610f566104ca565b8260040154610f6591906127c9565b9050600260009054906101000a900473ffffffffffffffffffffffffffffffffffffffff1673ffffffffffffffffffffffffffffffffffffffff1663499ff3ef33836040518363ffffffff1660e01b8152600401610fc4929190612def565b600060405180830381600087803b158015610fde57600080fd5b505af1158015610ff2573d6000803e3d6000fd5b50505050600082600401819055504282600301819055503373ffffffffffffffffffffffffffffffffffffffff167fa49c8c0690959dce11bf2a6d370b071f606eba040cc3441f59f123c2be384cb38260405161104f91906120d9565b60405180910390a25050565b600082829050116110a1576040517f08c379a000000000000000000000000000000000000000000000000000000000815260040161109890612f5e565b60405180910390fd5b6000600760003373ffffffffffffffffffffffffffffffffffffffff1673ffffffffffffffffffffffffffffffffffffffff1681526020019081526020016000209050600081600601541161112b576040517f08c379a000000000000000000000000000000000000000000000000000000000815260040161112290612fca565b60405180910390fd5b600654816003015461113d91906127c9565b42101561117f576040517f08c379a000000000000000000000000000000000000000000000000000000000815260040161117690613036565b60405180910390fd5b60005b8383905081101561132a5760008484838181106111a2576111a1612ada565b5b9050602002013590506000805b846008018054905081101561131457828560080182815481106111d5576111d4612ada565b5b90600052602060002001540361130157600360009054906101000a900473ffffffffffffffffffffffffffffffffffffffff1673ffffffffffffffffffffffffffffffffffffffff16639e872ce93033866040518463ffffffff1660e01b815260040161124493929190612bff565b600060405180830381600087803b15801561125e57600080fd5b505af1158015611272573d6000803e3d6000fd5b50505050846008016001866008018054905061128e9190612795565b8154811061129f5761129e612ada565b5b90600052602060002001548560080182815481106112c0576112bf612ada565b5b9060005260206000200181905550846008018054806112e2576112e1613056565b5b6001900381819060005260206000200160009055905560019150611314565b808061130c90612bb7565b9150506111af565b505050808061132290612bb7565b915050611182565b50828290508160060160008282546113429190612795565b925050819055506113516104ca565b81600401600082825461136491906127c9565b9250508190555042816003018190555042816007018190555060008383905060055461139091906127fd565b9050808260020160008282546113a69190612795565b925050819055503373ffffffffffffffffffffffffffffffffffffffff167f13322dfa88e42c170b17f7ab5878e814549f5394685222952a2620e37caff41585856040516113f5929190612ca0565b60405180910390a250505050565b60008061140e6104ca565b600760003373ffffffffffffffffffffffffffffffffffffffff1673ffffffffffffffffffffffffffffffffffffffff1681526020019081526020016000206004015461145b91906127c9565b90508091505090565b61146c611ee1565b6114766000611f68565b565b6000600260009054906101000a900473ffffffffffffffffffffffffffffffffffffffff1673ffffffffffffffffffffffffffffffffffffffff166370a08231836040518263ffffffff1660e01b81526004016114d59190612494565b602060405180830381865afa1580156114f2573d6000803e3d6000fd5b505050506040513d601f19601f820116820180604052508101906115169190612cc4565b9050919050565b6000600160009054906101000a900473ffffffffffffffffffffffffffffffffffffffff16905090565b60076020528060005260406000206000915090508060000154908060010154908060020154908060030154908060040154908060050154908060060154908060070154905088565b600081116115d2576040517f08c379a00000000000000000000000000000000000000000000000000000000081526004016115c9906130f7565b60405180910390fd5b600260009054906101000a900473ffffffffffffffffffffffffffffffffffffffff1673ffffffffffffffffffffffffffffffffffffffff16637b56c2b233836040518363ffffffff1660e01b815260040161162f929190612def565b600060405180830381600087803b15801561164957600080fd5b505af115801561165d573d6000803e3d6000fd5b5050505050565b600260009054906101000a900473ffffffffffffffffffffffffffffffffffffffff1681565b611692612057565b600760008373ffffffffffffffffffffffffffffffffffffffff1673ffffffffffffffffffffffffffffffffffffffff1681526020019081526020016000206040518061012001604052908160008201548152602001600182015481526020016002820154815260200160038201548152602001600482015481526020016005820154815260200160068201548152602001600782015481526020016008820180548060200260200160405190810160405280929190818152602001828054801561177c57602002820191906000526020600020905b815481526020019060010190808311611768575b5050505050815250509050919050565b60055481565b61179a611e91565b6000600760003373ffffffffffffffffffffffffffffffffffffffff1673ffffffffffffffffffffffffffffffffffffffff168152602001908152602001600020905060008211611820576040517f08c379a000000000000000000000000000000000000000000000000000000000815260040161181790613189565b60405180910390fd5b81600260009054906101000a900473ffffffffffffffffffffffffffffffffffffffff1673ffffffffffffffffffffffffffffffffffffffff166370a08231336040518263ffffffff1660e01b815260040161187c9190612494565b602060405180830381865afa158015611899573d6000803e3d6000fd5b505050506040513d601f19601f820116820180604052508101906118bd9190612cc4565b10156118fe576040517f08c379a00000000000000000000000000000000000000000000000000000000081526004016118f59061321b565b60405180910390fd5b60008160030154146119335760006119146104ca565b90508082600401600082825461192a91906127c9565b92505081905550505b428160030181905550600260009054906101000a900473ffffffffffffffffffffffffffffffffffffffff1673ffffffffffffffffffffffffffffffffffffffff166323b872dd3330856040518463ffffffff1660e01b815260040161199b93929190612bff565b6020604051808303816000875af11580156119ba573d6000803e3d6000fd5b505050506040513d601f19601f820116820180604052508101906119de9190612e50565b50818160000160008282546119f391906127c9565b925050819055506000816005015469d3c21bcecceda10000008360000154611a1b919061326a565b611a259190612795565b905060005b81811015611aee57600360009054906101000a900473ffffffffffffffffffffffffffffffffffffffff1673ffffffffffffffffffffffffffffffffffffffff16636a627842336040518263ffffffff1660e01b8152600401611a8d9190612494565b600060405180830381600087803b158015611aa757600080fd5b505af1158015611abb573d6000803e3d6000fd5b505050506001836005016000828254611ad491906127c9565b925050819055508080611ae690612bb7565b915050611a2a565b503373ffffffffffffffffffffffffffffffffffffffff167f20d54f565fa567e3ef907fa0a0a7991dc37f03a6563226d8457dcac8ae7d064f84604051611b3591906120d9565b60405180910390a25050611b47611ed7565b50565b6000600260009054906101000a900473ffffffffffffffffffffffffffffffffffffffff1673ffffffffffffffffffffffffffffffffffffffff1663ba94f61b6040518163ffffffff1660e01b8152600401602060405180830381865afa158015611bb9573d6000803e3d6000fd5b505050506040513d601f19601f82011682018060405250810190611bdd9190612cc4565b905090565b69d3c21bcecceda100000081565b6000600360009054906101000a900473ffffffffffffffffffffffffffffffffffffffff1673ffffffffffffffffffffffffffffffffffffffff166370a08231836040518263ffffffff1660e01b8152600401611c4d9190612494565b602060405180830381865afa158015611c6a573d6000803e3d6000fd5b505050506040513d601f19601f82011682018060405250810190611c8e9190612cc4565b9050919050565b611c9d611ee1565b806004819055507fa4d497001986ab9f4b8dd10df5ea316e2c0970f709375ccc75d1cfaf3b14e84f81604051611cd391906120d9565b60405180910390a150565b600360009054906101000a900473ffffffffffffffffffffffffffffffffffffffff1681565b611d0c611ee1565b600073ffffffffffffffffffffffffffffffffffffffff168173ffffffffffffffffffffffffffffffffffffffff1603611d7e5760006040517f1e4fbdf7000000000000000000000000000000000000000000000000000000008152600401611d759190612494565b60405180910390fd5b611d8781611f68565b50565b6000808385029050600080198587098281108382030391505060008103611dc557838281611dbb57611dba61323b565b5b0492505050611e8a565b808411611dfe576040517f227bc15300000000000000000000000000000000000000000000000000000000815260040160405180910390fd5b600084868809905082811182039150808303925060008560000386169050808604955080840493506001818260000304019050808302841793506000600287600302189050808702600203810290508087026002038102905080870260020381029050808702600203810290508087026002038102905080870260020381029050808502955050505050505b9392505050565b600260005403611ecd576040517f3ee5aeb500000000000000000000000000000000000000000000000000000000815260040160405180910390fd5b6002600081905550565b6001600081905550565b611ee961202e565b73ffffffffffffffffffffffffffffffffffffffff16611f0761151d565b73ffffffffffffffffffffffffffffffffffffffff1614611f6657611f2a61202e565b6040517f118cdaa7000000000000000000000000000000000000000000000000000000008152600401611f5d9190612494565b60405180910390fd5b565b6000600160009054906101000a900473ffffffffffffffffffffffffffffffffffffffff16905081600160006101000a81548173ffffffffffffffffffffffffffffffffffffffff021916908373ffffffffffffffffffffffffffffffffffffffff1602179055508173ffffffffffffffffffffffffffffffffffffffff168173ffffffffffffffffffffffffffffffffffffffff167f8be0079c531659141344cd1fd0a4f28419497f9722a3daafe3b4186f6b6457e060405160405180910390a35050565b600033905090565b508054600082559060005260206000209081019061205491906120a3565b50565b6040518061012001604052806000815260200160008152602001600081526020016000815260200160008152602001600081526020016000815260200160008152602001606081525090565b5b808211156120bc5760008160009055506001016120a4565b5090565b6000819050919050565b6120d3816120c0565b82525050565b60006020820190506120ee60008301846120ca565b92915050565b6000604051905090565b600080fd5b600080fd5b600073ffffffffffffffffffffffffffffffffffffffff82169050919050565b600061213382612108565b9050919050565b61214381612128565b811461214e57600080fd5b50565b6000813590506121608161213a565b92915050565b61216f816120c0565b811461217a57600080fd5b50565b60008135905061218c81612166565b92915050565b600080fd5b600080fd5b600080fd5b60008083601f8401126121b7576121b6612192565b5b8235905067ffffffffffffffff8111156121d4576121d3612197565b5b6020830191508360018202830111156121f0576121ef61219c565b5b9250929050565b600080600080600060808688031215612213576122126120fe565b5b600061222188828901612151565b955050602061223288828901612151565b94505060406122438882890161217d565b935050606086013567ffffffffffffffff81111561226457612263612103565b5b612270888289016121a1565b92509250509295509295909350565b60007fffffffff0000000000000000000000000000000000000000000000000000000082169050919050565b6122b48161227f565b82525050565b60006020820190506122cf60008301846122ab565b92915050565b6000602082840312156122eb576122ea6120fe565b5b60006122f984828501612151565b91505092915050565b600081519050919050565b600082825260208201905092915050565b6000819050602082019050919050565b612337816120c0565b82525050565b6000612349838361232e565b60208301905092915050565b6000602082019050919050565b600061236d82612302565b612377818561230d565b93506123828361231e565b8060005b838110156123b357815161239a888261233d565b97506123a583612355565b925050600181019050612386565b5085935050505092915050565b600060208201905081810360008301526123da8184612362565b905092915050565b60008083601f8401126123f8576123f7612192565b5b8235905067ffffffffffffffff81111561241557612414612197565b5b6020830191508360208202830111156124315761243061219c565b5b9250929050565b6000806020838503121561244f5761244e6120fe565b5b600083013567ffffffffffffffff81111561246d5761246c612103565b5b612479858286016123e2565b92509250509250929050565b61248e81612128565b82525050565b60006020820190506124a96000830184612485565b92915050565b6000610100820190506124c5600083018b6120ca565b6124d2602083018a6120ca565b6124df60408301896120ca565b6124ec60608301886120ca565b6124f960808301876120ca565b61250660a08301866120ca565b61251360c08301856120ca565b61252060e08301846120ca565b9998505050505050505050565b600060208284031215612543576125426120fe565b5b60006125518482850161217d565b91505092915050565b6000819050919050565b600061257f61257a61257584612108565b61255a565b612108565b9050919050565b600061259182612564565b9050919050565b60006125a382612586565b9050919050565b6125b381612598565b82525050565b60006020820190506125ce60008301846125aa565b92915050565b600082825260208201905092915050565b60006125f082612302565b6125fa81856125d4565b93506126058361231e565b8060005b8381101561263657815161261d888261233d565b975061262883612355565b925050600181019050612609565b5085935050505092915050565b60006101208301600083015161265c600086018261232e565b50602083015161266f602086018261232e565b506040830151612682604086018261232e565b506060830151612695606086018261232e565b5060808301516126a8608086018261232e565b5060a08301516126bb60a086018261232e565b5060c08301516126ce60c086018261232e565b5060e08301516126e160e086018261232e565b506101008301518482036101008601526126fb82826125e5565b9150508091505092915050565b600060208201905081810360008301526127228184612643565b905092915050565b600061273582612586565b9050919050565b6127458161272a565b82525050565b6000602082019050612760600083018461273c565b92915050565b7f4e487b7100000000000000000000000000000000000000000000000000000000600052601160045260246000fd5b60006127a0826120c0565b91506127ab836120c0565b92508282039050818111156127c3576127c2612766565b5b92915050565b60006127d4826120c0565b91506127df836120c0565b92508282019050808211156127f7576127f6612766565b5b92915050565b6000612808826120c0565b9150612813836120c0565b9250828202612821816120c0565b9150828204841483151761283857612837612766565b5b5092915050565b600082825260208201905092915050565b82818337600083830152505050565b6000601f19601f8301169050919050565b600061287c838561283f565b9350612889838584612850565b6128928361285f565b840190509392505050565b600060208201905081810360008301526128b8818486612870565b90509392505050565b7f4e487b7100000000000000000000000000000000000000000000000000000000600052604160045260246000fd5b6128f98261285f565b810181811067ffffffffffffffff82111715612918576129176128c1565b5b80604052505050565b600061292b6120f4565b905061293782826128f0565b919050565b600067ffffffffffffffff821115612957576129566128c1565b5b602082029050602081019050919050565b60008151905061297781612166565b92915050565b600061299061298b8461293c565b612921565b905080838252602082019050602084028301858111156129b3576129b261219c565b5b835b818110156129dc57806129c88882612968565b8452602084019350506020810190506129b5565b5050509392505050565b600082601f8301126129fb576129fa612192565b5b8151612a0b84826020860161297d565b91505092915050565b600060208284031215612a2a57612a296120fe565b5b600082015167ffffffffffffffff811115612a4857612a47612103565b5b612a54848285016129e6565b91505092915050565b600082825260208201905092915050565b7f4e46542d423a204e6f20746f6b656e204944732070726f766964656400000000600082015250565b6000612aa4601c83612a5d565b9150612aaf82612a6e565b602082019050919050565b60006020820190508181036000830152612ad381612a97565b9050919050565b7f4e487b7100000000000000000000000000000000000000000000000000000000600052603260045260246000fd5b600081519050612b188161213a565b92915050565b600060208284031215612b3457612b336120fe565b5b6000612b4284828501612b09565b91505092915050565b7f4e46542d423a204e6f74206f776e6572206f6620746f6b656e20494400000000600082015250565b6000612b81601c83612a5d565b9150612b8c82612b4b565b602082019050919050565b60006020820190508181036000830152612bb081612b74565b9050919050565b6000612bc2826120c0565b91507fffffffffffffffffffffffffffffffffffffffffffffffffffffffffffffffff8203612bf457612bf3612766565b5b600182019050919050565b6000606082019050612c146000830186612485565b612c216020830185612485565b612c2e60408301846120ca565b949350505050565b600080fd5b82818337505050565b6000612c50838561230d565b93507f07ffffffffffffffffffffffffffffffffffffffffffffffffffffffffffffff831115612c8357612c82612c36565b5b602083029250612c94838584612c3b565b82840190509392505050565b60006020820190508181036000830152612cbb818486612c44565b90509392505050565b600060208284031215612cda57612cd96120fe565b5b6000612ce884828501612968565b91505092915050565b7f546f6b656e413a20596f752063616e2774207769746864726177206e6f770000600082015250565b6000612d27601e83612a5d565b9150612d3282612cf1565b602082019050919050565b60006020820190508181036000830152612d5681612d1a565b9050919050565b7f546f6b656e413a204e6f20686176652072657761726420746f2057697468647260008201527f6177207265776172640000000000000000000000000000000000000000000000602082015250565b6000612db9602983612a5d565b9150612dc482612d5d565b604082019050919050565b60006020820190508181036000830152612de881612dac565b9050919050565b6000604082019050612e046000830185612485565b612e1160208301846120ca565b9392505050565b60008115159050919050565b612e2d81612e18565b8114612e3857600080fd5b50565b600081519050612e4a81612e24565b92915050565b600060208284031215612e6657612e656120fe565b5b6000612e7484828501612e3b565b91505092915050565b6000604082019050612e9260008301856120ca565b612e9f60208301846120ca565b9392505050565b7f436c61696d205265776172643a204e6f20686176652072657761726421000000600082015250565b6000612edc601d83612a5d565b9150612ee782612ea6565b602082019050919050565b60006020820190508181036000830152612f0b81612ecf565b9050919050565b7f4e46542d423a20496e76616c696420746f6b656e496400000000000000000000600082015250565b6000612f48601683612a5d565b9150612f5382612f12565b602082019050919050565b60006020820190508181036000830152612f7781612f3b565b9050919050565b7f4e46542d423a204e6f206465706f736974000000000000000000000000000000600082015250565b6000612fb4601183612a5d565b9150612fbf82612f7e565b602082019050919050565b60006020820190508181036000830152612fe381612fa7565b9050919050565b7f4e46542d423a20596f752063616e2774207769746864726177206e6f77000000600082015250565b6000613020601d83612a5d565b915061302b82612fea565b602082019050919050565b6000602082019050818103600083015261304f81613013565b9050919050565b7f4e487b7100000000000000000000000000000000000000000000000000000000600052603160045260246000fd5b7f546f6b656e413a2066617563657420616d6f756e74206d75737420626520677260008201527f6561746572207468616e207a65726f0000000000000000000000000000000000602082015250565b60006130e1602f83612a5d565b91506130ec82613085565b604082019050919050565b60006020820190508181036000830152613110816130d4565b9050919050565b7f546f6b656e413a206465706f73697420616d6f756e74206d757374206265206760008201527f726561746572207468616e207a65726f00000000000000000000000000000000602082015250565b6000613173603083612a5d565b915061317e82613117565b604082019050919050565b600060208201905081810360008301526131a281613166565b9050919050565b7f546f6b656e413a20696e73756666696369656e742062616c616e636520696e2060008201527f636f6e7472616374000000000000000000000000000000000000000000000000602082015250565b6000613205602883612a5d565b9150613210826131a9565b604082019050919050565b60006020820190508181036000830152613234816131f8565b9050919050565b7f4e487b7100000000000000000000000000000000000000000000000000000000600052601260045260246000fd5b6000613275826120c0565b9150613280836120c0565b9250826132905761328f61323b565b5b82820490509291505056fea26469706673582212205f7c613e9b3745f7e601ae96446b8c6c4f74c15cfdfb1dfd7745c0b53a4b4c4764736f6c63430008140033",
  "linkReferences": {},
  "deployedLinkReferences": {}
}