{
  "_format": "hh-sol-artifact-1",
  "contractName": "ContractHandle",
  "sourceName": "contracts/ContractHandle.sol",
  "abi": [
    {
      "inputs": [
        {
          "internalType": "contract TokenERC20",
          "name": "_tokenERC20",
          "type": "address"
        },
        {
          "internalType": "contract TokenERC721",
          "name": "_tokenERC721",
          "type": "address"
        }
      ],
      "stateMutability": "nonpayable",
      "type": "constructor"
    },
    {
      "inputs": [],
      "name": "ReentrancyGuardReentrantCall",
      "type": "error"
    },
    {
      "anonymous": false,
      "inputs": [
        {
          "indexed": false,
          "internalType": "uint256",
          "name": "data",
          "type": "uint256"
        },
        {
          "indexed": false,
          "internalType": "address",
          "name": "_from",
          "type": "address"
        },
        {
          "indexed": false,
          "internalType": "address",
          "name": "_to",
          "type": "address"
        }
      ],
      "name": "getData",
      "type": "event"
    },
    {
      "inputs": [],
      "name": "MINIMUM_DEPOSIT_FOR_CERTIFICATE",
      "outputs": [
        {
          "internalType": "uint256",
          "name": "",
          "type": "uint256"
        }
      ],
      "stateMutability": "view",
      "type": "function"
    },
    {
      "inputs": [
        {
          "internalType": "address",
          "name": "_address",
          "type": "address"
        }
      ],
      "name": "balaceOfERC20",
      "outputs": [
        {
          "internalType": "uint256",
          "name": "",
          "type": "uint256"
        }
      ],
      "stateMutability": "view",
      "type": "function"
    },
    {
      "inputs": [],
      "name": "balaceOfERC20TotalSupply",
      "outputs": [
        {
          "internalType": "uint256",
          "name": "",
          "type": "uint256"
        }
      ],
      "stateMutability": "view",
      "type": "function"
    },
    {
      "inputs": [
        {
          "internalType": "address",
          "name": "_address",
          "type": "address"
        }
      ],
      "name": "balaceOfERC721",
      "outputs": [
        {
          "internalType": "uint256",
          "name": "",
          "type": "uint256"
        }
      ],
      "stateMutability": "view",
      "type": "function"
    },
    {
      "inputs": [],
      "name": "balaceOfERC721TotalSupply",
      "outputs": [
        {
          "internalType": "uint256",
          "name": "",
          "type": "uint256"
        }
      ],
      "stateMutability": "view",
      "type": "function"
    },
    {
      "inputs": [],
      "name": "baseAPR",
      "outputs": [
        {
          "internalType": "uint256",
          "name": "",
          "type": "uint256"
        }
      ],
      "stateMutability": "view",
      "type": "function"
    },
    {
      "inputs": [],
      "name": "bonusAPR",
      "outputs": [
        {
          "internalType": "uint256",
          "name": "",
          "type": "uint256"
        }
      ],
      "stateMutability": "view",
      "type": "function"
    },
    {
      "inputs": [],
      "name": "calculateLastRewardERC20",
      "outputs": [
        {
          "internalType": "uint256",
          "name": "",
          "type": "uint256"
        }
      ],
      "stateMutability": "view",
      "type": "function"
    },
    {
      "inputs": [],
      "name": "calculateRewardERC20",
      "outputs": [
        {
          "internalType": "uint256",
          "name": "",
          "type": "uint256"
        }
      ],
      "stateMutability": "view",
      "type": "function"
    },
    {
      "inputs": [],
      "name": "claimRewardERC20",
      "outputs": [],
      "stateMutability": "nonpayable",
      "type": "function"
    },
    {
      "inputs": [
        {
          "internalType": "uint256",
          "name": "_amount",
          "type": "uint256"
        }
      ],
      "name": "depositERC20",
      "outputs": [],
      "stateMutability": "nonpayable",
      "type": "function"
    },
    {
      "inputs": [
        {
          "internalType": "uint256[]",
          "name": "tokenId",
          "type": "uint256[]"
        }
      ],
      "name": "depositNFTB",
      "outputs": [],
      "stateMutability": "nonpayable",
      "type": "function"
    },
    {
      "inputs": [
        {
          "internalType": "uint256",
          "name": "_amount",
          "type": "uint256"
        }
      ],
      "name": "faucetERC20",
      "outputs": [],
      "stateMutability": "nonpayable",
      "type": "function"
    },
    {
      "inputs": [],
      "name": "lockTime",
      "outputs": [
        {
          "internalType": "uint256",
          "name": "",
          "type": "uint256"
        }
      ],
      "stateMutability": "view",
      "type": "function"
    },
    {
      "inputs": [
        {
          "internalType": "address",
          "name": "",
          "type": "address"
        }
      ],
      "name": "stakingInfo",
      "outputs": [
        {
          "internalType": "uint256",
          "name": "totalAmountERC20",
          "type": "uint256"
        },
        {
          "internalType": "uint256",
          "name": "APR",
          "type": "uint256"
        },
        {
          "internalType": "uint256",
          "name": "startTimeDeposit",
          "type": "uint256"
        },
        {
          "internalType": "uint256",
          "name": "lastTimeDeposit",
          "type": "uint256"
        },
        {
          "internalType": "uint256",
          "name": "mintNFTbCount",
          "type": "uint256"
        },
        {
          "internalType": "uint256",
          "name": "totalRewardERC20",
          "type": "uint256"
        },
        {
          "internalType": "uint256",
          "name": "latRewardERC20",
          "type": "uint256"
        }
      ],
      "stateMutability": "view",
      "type": "function"
    },
    {
      "inputs": [
        {
          "internalType": "address",
          "name": "",
          "type": "address"
        }
      ],
      "name": "stakingInfoNFTB",
      "outputs": [
        {
          "internalType": "uint256",
          "name": "totalAmountERC721",
          "type": "uint256"
        },
        {
          "internalType": "uint256",
          "name": "startTimeDeposit",
          "type": "uint256"
        }
      ],
      "stateMutability": "view",
      "type": "function"
    },
    {
      "inputs": [],
      "name": "tokenERC20",
      "outputs": [
        {
          "internalType": "contract TokenERC20",
          "name": "",
          "type": "address"
        }
      ],
      "stateMutability": "view",
      "type": "function"
    },
    {
      "inputs": [],
      "name": "tokenERC721",
      "outputs": [
        {
          "internalType": "contract TokenERC721",
          "name": "",
          "type": "address"
        }
      ],
      "stateMutability": "view",
      "type": "function"
    },
    {
      "inputs": [],
      "name": "withRewardERC20",
      "outputs": [],
      "stateMutability": "nonpayable",
      "type": "function"
    },
    {
      "inputs": [
        {
          "internalType": "uint256[]",
          "name": "tokenId",
          "type": "uint256[]"
        }
      ],
      "name": "withRewardNFTB",
      "outputs": [],
      "stateMutability": "nonpayable",
      "type": "function"
    }
  ],
  "bytecode": "0x608060405261032060035560c8600455601e6005553480156200002157600080fd5b50604051620026133803806200261383398181016040528101906200004791906200019c565b600160008190555081600160006101000a81548173ffffffffffffffffffffffffffffffffffffffff021916908373ffffffffffffffffffffffffffffffffffffffff16021790555080600260006101000a81548173ffffffffffffffffffffffffffffffffffffffff021916908373ffffffffffffffffffffffffffffffffffffffff1602179055505050620001e3565b600080fd5b600073ffffffffffffffffffffffffffffffffffffffff82169050919050565b60006200010b82620000de565b9050919050565b60006200011f82620000fe565b9050919050565b620001318162000112565b81146200013d57600080fd5b50565b600081519050620001518162000126565b92915050565b60006200016482620000fe565b9050919050565b620001768162000157565b81146200018257600080fd5b50565b60008151905062000196816200016b565b92915050565b60008060408385031215620001b657620001b5620000d9565b5b6000620001c68582860162000140565b9250506020620001d98582860162000185565b9150509250929050565b61242080620001f36000396000f3fe608060405234801561001057600080fd5b506004361061012c5760003560e01c806394eecb50116100ad578063bcd19e7011610071578063bcd19e70146102ed578063ce55f9471461030b578063de9ad13414610329578063e08835fd14610359578063e9adc7701461038a5761012c565b806394eecb50146102435780639b3a6c88146102795780639d143e8e14610295578063b3a36f1e146102b3578063b79092fd146102d15761012c565b80636014a449116100f45780636014a449146101c55780636a78c7d2146101cf5780636bfcf13f146101eb5780637e34b4f9146101f55780638cb8564d146102135761012c565b80630882e64e146101315780630d6680871461014f57806336ed1f0d1461016d5780634ca903ba1461018957806358ac0e80146101a7575b600080fd5b6101396103a8565b6040516101469190611909565b60405180910390f35b6101576104fd565b6040516101649190611909565b60405180910390f35b61018760048036038101906101829190611993565b610503565b005b6101916108eb565b60405161019e9190611909565b60405180910390f35b6101af610983565b6040516101bc9190611909565b60405180910390f35b6101cd610989565b005b6101e960048036038101906101e49190611993565b610acf565b005b6101f3610e4b565b005b6101fd61103f565b60405161020a9190611909565b60405180910390f35b61022d60048036038101906102289190611a3e565b611194565b60405161023a9190611909565b60405180910390f35b61025d60048036038101906102589190611a3e565b611239565b6040516102709796959493929190611a6b565b60405180910390f35b610293600480360381019061028e9190611b06565b61127b565b005b61029d611350565b6040516102aa9190611b92565b60405180910390f35b6102bb611376565b6040516102c89190611909565b60405180910390f35b6102eb60048036038101906102e69190611b06565b61137c565b005b6102f561170b565b6040516103029190611909565b60405180910390f35b6103136117a3565b6040516103209190611909565b60405180910390f35b610343600480360381019061033e9190611a3e565b6117b1565b6040516103509190611909565b60405180910390f35b610373600480360381019061036e9190611a3e565b611856565b604051610381929190611bad565b60405180910390f35b61039261187a565b60405161039f9190611bf7565b60405180910390f35b600080600160009054906101000a900473ffffffffffffffffffffffffffffffffffffffff1673ffffffffffffffffffffffffffffffffffffffff166370a08231336040518263ffffffff1660e01b81526004016104069190611c21565b602060405180830381865afa158015610423573d6000803e3d6000fd5b505050506040513d601f19601f820116820180604052508101906104479190611c51565b90506000600660003373ffffffffffffffffffffffffffffffffffffffff1673ffffffffffffffffffffffffffffffffffffffff1681526020019081526020016000209050600081600201549050600081036104a957600093505050506104fa565b600081426104b79190611cad565b9050600060b4826104c89190611d10565b6127108560010154876104db9190611d41565b6104e59190611d10565b6104ef9190611d41565b905080955050505050505b90565b60055481565b61050b6118a0565b60008282905011610551576040517f08c379a000000000000000000000000000000000000000000000000000000000815260040161054890611de0565b60405180910390fd5b60005b82829050811015610694573373ffffffffffffffffffffffffffffffffffffffff16600260009054906101000a900473ffffffffffffffffffffffffffffffffffffffff1673ffffffffffffffffffffffffffffffffffffffff16636352211e8585858181106105c7576105c6611e00565b5b905060200201356040518263ffffffff1660e01b81526004016105ea9190611909565b602060405180830381865afa158015610607573d6000803e3d6000fd5b505050506040513d601f19601f8201168201806040525081019061062b9190611e44565b73ffffffffffffffffffffffffffffffffffffffff1614610681576040517f08c379a000000000000000000000000000000000000000000000000000000000815260040161067890611de0565b60405180910390fd5b808061068c90611e71565b915050610554565b506000600660003373ffffffffffffffffffffffffffffffffffffffff1673ffffffffffffffffffffffffffffffffffffffff16815260200190815260200160002090506000600760003373ffffffffffffffffffffffffffffffffffffffff1673ffffffffffffffffffffffffffffffffffffffff16815260200190815260200160002090506000816000015411610762576040517f08c379a000000000000000000000000000000000000000000000000000000000815260040161075990611f05565b60405180910390fd5b60005b8484905081101561087157600260009054906101000a900473ffffffffffffffffffffffffffffffffffffffff1673ffffffffffffffffffffffffffffffffffffffff166342842e0e33308888868181106107c3576107c2611e00565b5b905060200201356040518463ffffffff1660e01b81526004016107e893929190611f25565b600060405180830381600087803b15801561080257600080fd5b505af1158015610816573d6000803e3d6000fd5b505050508160020185858381811061083157610830611e00565b5b905060200201359080600181540180825580915050600190039060005260206000200160009091909190915055808061086990611e71565b915050610765565b5061087a6103a8565b82600501819055504282600201819055508383905060045461089c9190611d41565b8260010160008282546108af9190611f5c565b92505081905550838390508160000160008282546108cd9190611f5c565b9250508190555042816001018190555050506108e76118e6565b5050565b6000600260009054906101000a900473ffffffffffffffffffffffffffffffffffffffff1673ffffffffffffffffffffffffffffffffffffffff166322a579cb6040518163ffffffff1660e01b8152600401602060405180830381865afa15801561095a573d6000803e3d6000fd5b505050506040513d601f19601f8201168201806040525081019061097e9190611c51565b905090565b60035481565b6000600660003373ffffffffffffffffffffffffffffffffffffffff1673ffffffffffffffffffffffffffffffffffffffff16815260200190815260200160002090506000816005015411610a13576040517f08c379a0000000000000000000000000000000000000000000000000000000008152600401610a0a90611fdc565b60405180910390fd5b600160009054906101000a900473ffffffffffffffffffffffffffffffffffffffff1673ffffffffffffffffffffffffffffffffffffffff1663a9059cbb3383600501546040518363ffffffff1660e01b8152600401610a74929190611ffc565b6020604051808303816000875af1158015610a93573d6000803e3d6000fd5b505050506040513d601f19601f82011682018060405250810190610ab7919061205d565b50600081600501819055506000816002018190555050565b60008282905011610b15576040517f08c379a0000000000000000000000000000000000000000000000000000000008152600401610b0c90611de0565b60405180910390fd5b6000600660003373ffffffffffffffffffffffffffffffffffffffff1673ffffffffffffffffffffffffffffffffffffffff16815260200190815260200160002090506000600760003373ffffffffffffffffffffffffffffffffffffffff1673ffffffffffffffffffffffffffffffffffffffff16815260200190815260200160002090506000816000015411610be2576040517f08c379a0000000000000000000000000000000000000000000000000000000008152600401610bd990611f05565b60405180910390fd5b426005548260010154610bf59190611f5c565b1115610c36576040517f08c379a0000000000000000000000000000000000000000000000000000000008152600401610c2d906120d6565b60405180910390fd5b60005b84849050811015610de1576000858583818110610c5957610c58611e00565b5b9050602002013590506000805b8460020180549050811015610dcb5782856002018281548110610c8c57610c8b611e00565b5b906000526020600020015403610db857600260009054906101000a900473ffffffffffffffffffffffffffffffffffffffff1673ffffffffffffffffffffffffffffffffffffffff166342842e0e3033866040518463ffffffff1660e01b8152600401610cfb93929190611f25565b600060405180830381600087803b158015610d1557600080fd5b505af1158015610d29573d6000803e3d6000fd5b505050508460020160018660020180549050610d459190611cad565b81548110610d5657610d55611e00565b5b9060005260206000200154856002018281548110610d7757610d76611e00565b5b906000526020600020018190555084600201805480610d9957610d986120f6565b5b6001900381819060005260206000200160009055905560019150610dcb565b8080610dc390611e71565b915050610c66565b5050508080610dd990611e71565b915050610c39565b5083839050816000016000828254610df99190611cad565b92505081905550610e086103a8565b826005018190555083839050600454610e219190611d41565b826001016000828254610e349190611cad565b925050819055506000826002018190555050505050565b6000600660003373ffffffffffffffffffffffffffffffffffffffff1673ffffffffffffffffffffffffffffffffffffffff1681526020019081526020016000209050426005548260030154610ea19190611f5c565b1015610ee2576040517f08c379a0000000000000000000000000000000000000000000000000000000008152600401610ed990612171565b60405180910390fd5b6000816000015411610f29576040517f08c379a0000000000000000000000000000000000000000000000000000000008152600401610f20906121dd565b60405180910390fd5b600081600501548260000154610f3f9190611f5c565b9050600160009054906101000a900473ffffffffffffffffffffffffffffffffffffffff1673ffffffffffffffffffffffffffffffffffffffff1663a9059cbb33836040518363ffffffff1660e01b8152600401610f9e929190611ffc565b6020604051808303816000875af1158015610fbd573d6000803e3d6000fd5b505050506040513d601f19601f82011682018060405250810190610fe1919061205d565b506000826000018190555060008260050181905550600082600201819055507f76e22833d0a8b86184f3dda6110138d8c1801a26ec78fb9a6e437ecf3911793b813033604051611033939291906121fd565b60405180910390a15050565b600080600160009054906101000a900473ffffffffffffffffffffffffffffffffffffffff1673ffffffffffffffffffffffffffffffffffffffff166370a08231336040518263ffffffff1660e01b815260040161109d9190611c21565b602060405180830381865afa1580156110ba573d6000803e3d6000fd5b505050506040513d601f19601f820116820180604052508101906110de9190611c51565b90506000600660003373ffffffffffffffffffffffffffffffffffffffff1673ffffffffffffffffffffffffffffffffffffffff1681526020019081526020016000209050600081600301549050600081036111405760009350505050611191565b6000814261114e9190611cad565b9050600060b48261115f9190611d10565b6127108560010154876111729190611d41565b61117c9190611d10565b6111869190611d41565b905080955050505050505b90565b6000600160009054906101000a900473ffffffffffffffffffffffffffffffffffffffff1673ffffffffffffffffffffffffffffffffffffffff166370a08231836040518263ffffffff1660e01b81526004016111f19190611c21565b602060405180830381865afa15801561120e573d6000803e3d6000fd5b505050506040513d601f19601f820116820180604052508101906112329190611c51565b9050919050565b60066020528060005260406000206000915090508060000154908060010154908060020154908060030154908060040154908060050154908060060154905087565b600081116112be576040517f08c379a00000000000000000000000000000000000000000000000000000000081526004016112b5906122a6565b60405180910390fd5b600160009054906101000a900473ffffffffffffffffffffffffffffffffffffffff1673ffffffffffffffffffffffffffffffffffffffff16637b56c2b233836040518363ffffffff1660e01b815260040161131b929190611ffc565b600060405180830381600087803b15801561133557600080fd5b505af1158015611349573d6000803e3d6000fd5b5050505050565b600160009054906101000a900473ffffffffffffffffffffffffffffffffffffffff1681565b60045481565b6113846118a0565b6000600660003373ffffffffffffffffffffffffffffffffffffffff1673ffffffffffffffffffffffffffffffffffffffff16815260200190815260200160002090506000821161140a576040517f08c379a000000000000000000000000000000000000000000000000000000000815260040161140190612338565b60405180910390fd5b81600160009054906101000a900473ffffffffffffffffffffffffffffffffffffffff1673ffffffffffffffffffffffffffffffffffffffff166370a08231336040518263ffffffff1660e01b81526004016114669190611c21565b602060405180830381865afa158015611483573d6000803e3d6000fd5b505050506040513d601f19601f820116820180604052508101906114a79190611c51565b10156114e8576040517f08c379a00000000000000000000000000000000000000000000000000000000081526004016114df906123ca565b60405180910390fd5b600160009054906101000a900473ffffffffffffffffffffffffffffffffffffffff1673ffffffffffffffffffffffffffffffffffffffff166323b872dd3330856040518463ffffffff1660e01b815260040161154793929190611f25565b6020604051808303816000875af1158015611566573d6000803e3d6000fd5b505050506040513d601f19601f8201168201806040525081019061158a919061205d565b508181600001600082825461159f9190611f5c565b9250508190555060008160020154036115cb5742816002018190555060035481600101819055506115f7565b6115d36103a8565b8160050160008282546115e69190611f5c565b925050819055504281600201819055505b6000816004015469d3c21bcecceda100000083600001546116189190611d10565b6116229190611cad565b905060005b818110156116fd57600260009054906101000a900473ffffffffffffffffffffffffffffffffffffffff1673ffffffffffffffffffffffffffffffffffffffff16636a627842336040518263ffffffff1660e01b815260040161168a9190611c21565b6020604051808303816000875af11580156116a9573d6000803e3d6000fd5b505050506040513d601f19601f820116820180604052508101906116cd9190611c51565b5060018360040160008282546116e39190611f5c565b9250508190555080806116f590611e71565b915050611627565b5050506117086118e6565b50565b6000600160009054906101000a900473ffffffffffffffffffffffffffffffffffffffff1673ffffffffffffffffffffffffffffffffffffffff1663ba94f61b6040518163ffffffff1660e01b8152600401602060405180830381865afa15801561177a573d6000803e3d6000fd5b505050506040513d601f19601f8201168201806040525081019061179e9190611c51565b905090565b69d3c21bcecceda100000081565b6000600260009054906101000a900473ffffffffffffffffffffffffffffffffffffffff1673ffffffffffffffffffffffffffffffffffffffff166370a08231836040518263ffffffff1660e01b815260040161180e9190611c21565b602060405180830381865afa15801561182b573d6000803e3d6000fd5b505050506040513d601f19601f8201168201806040525081019061184f9190611c51565b9050919050565b60076020528060005260406000206000915090508060000154908060010154905082565b600260009054906101000a900473ffffffffffffffffffffffffffffffffffffffff1681565b6002600054036118dc576040517f3ee5aeb500000000000000000000000000000000000000000000000000000000815260040160405180910390fd5b6002600081905550565b6001600081905550565b6000819050919050565b611903816118f0565b82525050565b600060208201905061191e60008301846118fa565b92915050565b600080fd5b600080fd5b600080fd5b600080fd5b600080fd5b60008083601f8401126119535761195261192e565b5b8235905067ffffffffffffffff8111156119705761196f611933565b5b60208301915083602082028301111561198c5761198b611938565b5b9250929050565b600080602083850312156119aa576119a9611924565b5b600083013567ffffffffffffffff8111156119c8576119c7611929565b5b6119d48582860161193d565b92509250509250929050565b600073ffffffffffffffffffffffffffffffffffffffff82169050919050565b6000611a0b826119e0565b9050919050565b611a1b81611a00565b8114611a2657600080fd5b50565b600081359050611a3881611a12565b92915050565b600060208284031215611a5457611a53611924565b5b6000611a6284828501611a29565b91505092915050565b600060e082019050611a80600083018a6118fa565b611a8d60208301896118fa565b611a9a60408301886118fa565b611aa760608301876118fa565b611ab460808301866118fa565b611ac160a08301856118fa565b611ace60c08301846118fa565b98975050505050505050565b611ae3816118f0565b8114611aee57600080fd5b50565b600081359050611b0081611ada565b92915050565b600060208284031215611b1c57611b1b611924565b5b6000611b2a84828501611af1565b91505092915050565b6000819050919050565b6000611b58611b53611b4e846119e0565b611b33565b6119e0565b9050919050565b6000611b6a82611b3d565b9050919050565b6000611b7c82611b5f565b9050919050565b611b8c81611b71565b82525050565b6000602082019050611ba76000830184611b83565b92915050565b6000604082019050611bc260008301856118fa565b611bcf60208301846118fa565b9392505050565b6000611be182611b5f565b9050919050565b611bf181611bd6565b82525050565b6000602082019050611c0c6000830184611be8565b92915050565b611c1b81611a00565b82525050565b6000602082019050611c366000830184611c12565b92915050565b600081519050611c4b81611ada565b92915050565b600060208284031215611c6757611c66611924565b5b6000611c7584828501611c3c565b91505092915050565b7f4e487b7100000000000000000000000000000000000000000000000000000000600052601160045260246000fd5b6000611cb8826118f0565b9150611cc3836118f0565b9250828203905081811115611cdb57611cda611c7e565b5b92915050565b7f4e487b7100000000000000000000000000000000000000000000000000000000600052601260045260246000fd5b6000611d1b826118f0565b9150611d26836118f0565b925082611d3657611d35611ce1565b5b828204905092915050565b6000611d4c826118f0565b9150611d57836118f0565b9250828202611d65816118f0565b91508282048414831517611d7c57611d7b611c7e565b5b5092915050565b600082825260208201905092915050565b7f4e46542d423a20496e76616c696420746f6b656e496400000000000000000000600082015250565b6000611dca601683611d83565b9150611dd582611d94565b602082019050919050565b60006020820190508181036000830152611df981611dbd565b9050919050565b7f4e487b7100000000000000000000000000000000000000000000000000000000600052603260045260246000fd5b600081519050611e3e81611a12565b92915050565b600060208284031215611e5a57611e59611924565b5b6000611e6884828501611e2f565b91505092915050565b6000611e7c826118f0565b91507fffffffffffffffffffffffffffffffffffffffffffffffffffffffffffffffff8203611eae57611ead611c7e565b5b600182019050919050565b7f4e46542d423a204e6f206465706f736974000000000000000000000000000000600082015250565b6000611eef601183611d83565b9150611efa82611eb9565b602082019050919050565b60006020820190508181036000830152611f1e81611ee2565b9050919050565b6000606082019050611f3a6000830186611c12565b611f476020830185611c12565b611f5460408301846118fa565b949350505050565b6000611f67826118f0565b9150611f72836118f0565b9250828201905080821115611f8a57611f89611c7e565b5b92915050565b7f546f6b656e413a204e6f20726577617264000000000000000000000000000000600082015250565b6000611fc6601183611d83565b9150611fd182611f90565b602082019050919050565b60006020820190508181036000830152611ff581611fb9565b9050919050565b60006040820190506120116000830185611c12565b61201e60208301846118fa565b9392505050565b60008115159050919050565b61203a81612025565b811461204557600080fd5b50565b60008151905061205781612031565b92915050565b60006020828403121561207357612072611924565b5b600061208184828501612048565b91505092915050565b7f4e46542d423a20596f752063616e2774207769746864726177206e6f77000000600082015250565b60006120c0601d83611d83565b91506120cb8261208a565b602082019050919050565b600060208201905081810360008301526120ef816120b3565b9050919050565b7f4e487b7100000000000000000000000000000000000000000000000000000000600052603160045260246000fd5b7f546f6b656e413a20596f752063616e2774207769746864726177206e6f770000600082015250565b600061215b601e83611d83565b915061216682612125565b602082019050919050565b6000602082019050818103600083015261218a8161214e565b9050919050565b7f546f6b656e413a204e6f206465706f7369740000000000000000000000000000600082015250565b60006121c7601283611d83565b91506121d282612191565b602082019050919050565b600060208201905081810360008301526121f6816121ba565b9050919050565b600060608201905061221260008301866118fa565b61221f6020830185611c12565b61222c6040830184611c12565b949350505050565b7f546f6b656e413a2066617563657420616d6f756e74206d75737420626520677260008201527f6561746572207468616e207a65726f0000000000000000000000000000000000602082015250565b6000612290602f83611d83565b915061229b82612234565b604082019050919050565b600060208201905081810360008301526122bf81612283565b9050919050565b7f546f6b656e413a206465706f73697420616d6f756e74206d757374206265206760008201527f726561746572207468616e207a65726f00000000000000000000000000000000602082015250565b6000612322603083611d83565b915061232d826122c6565b604082019050919050565b6000602082019050818103600083015261235181612315565b9050919050565b7f546f6b656e413a20696e73756666696369656e742062616c616e636520696e2060008201527f636f6e7472616374000000000000000000000000000000000000000000000000602082015250565b60006123b4602883611d83565b91506123bf82612358565b604082019050919050565b600060208201905081810360008301526123e3816123a7565b905091905056fea2646970667358221220ea70b624f92a768ce0846e271e5af37a5a95ea9fa608e00afa618d305ca6d51864736f6c63430008140033",
  "linkReferences": {},
  "deployedLinkReferences": {}
}