{
  "_format": "hh-sol-artifact-1",
  "contractName": "ContractHandle",
  "sourceName": "contracts/ContractHandle.sol",
  "abi": [
    {
      "inputs": [
        {
          "internalType": "contract TokenERC20",
          "name": "_tokenERC20",
          "type": "address"
        },
        {
          "internalType": "contract TokenERC721",
          "name": "_tokenERC721",
          "type": "address"
        }
      ],
      "stateMutability": "nonpayable",
      "type": "constructor"
    },
    {
      "inputs": [
        {
          "internalType": "address",
          "name": "spender",
          "type": "address"
        },
        {
          "internalType": "uint256",
          "name": "allowance",
          "type": "uint256"
        },
        {
          "internalType": "uint256",
          "name": "needed",
          "type": "uint256"
        }
      ],
      "name": "ERC20InsufficientAllowance",
      "type": "error"
    },
    {
      "inputs": [
        {
          "internalType": "address",
          "name": "sender",
          "type": "address"
        },
        {
          "internalType": "uint256",
          "name": "balance",
          "type": "uint256"
        },
        {
          "internalType": "uint256",
          "name": "needed",
          "type": "uint256"
        }
      ],
      "name": "ERC20InsufficientBalance",
      "type": "error"
    },
    {
      "inputs": [
        {
          "internalType": "address",
          "name": "approver",
          "type": "address"
        }
      ],
      "name": "ERC20InvalidApprover",
      "type": "error"
    },
    {
      "inputs": [
        {
          "internalType": "address",
          "name": "receiver",
          "type": "address"
        }
      ],
      "name": "ERC20InvalidReceiver",
      "type": "error"
    },
    {
      "inputs": [
        {
          "internalType": "address",
          "name": "sender",
          "type": "address"
        }
      ],
      "name": "ERC20InvalidSender",
      "type": "error"
    },
    {
      "inputs": [
        {
          "internalType": "address",
          "name": "spender",
          "type": "address"
        }
      ],
      "name": "ERC20InvalidSpender",
      "type": "error"
    },
    {
      "inputs": [],
      "name": "MathOverflowedMulDiv",
      "type": "error"
    },
    {
      "inputs": [
        {
          "internalType": "address",
          "name": "owner",
          "type": "address"
        }
      ],
      "name": "OwnableInvalidOwner",
      "type": "error"
    },
    {
      "inputs": [
        {
          "internalType": "address",
          "name": "account",
          "type": "address"
        }
      ],
      "name": "OwnableUnauthorizedAccount",
      "type": "error"
    },
    {
      "inputs": [],
      "name": "ReentrancyGuardReentrantCall",
      "type": "error"
    },
    {
      "anonymous": false,
      "inputs": [
        {
          "indexed": true,
          "internalType": "address",
          "name": "owner",
          "type": "address"
        },
        {
          "indexed": true,
          "internalType": "address",
          "name": "spender",
          "type": "address"
        },
        {
          "indexed": false,
          "internalType": "uint256",
          "name": "value",
          "type": "uint256"
        }
      ],
      "name": "Approval",
      "type": "event"
    },
    {
      "anonymous": false,
      "inputs": [
        {
          "indexed": true,
          "internalType": "address",
          "name": "previousOwner",
          "type": "address"
        },
        {
          "indexed": true,
          "internalType": "address",
          "name": "newOwner",
          "type": "address"
        }
      ],
      "name": "OwnershipTransferred",
      "type": "event"
    },
    {
      "anonymous": false,
      "inputs": [
        {
          "indexed": true,
          "internalType": "address",
          "name": "from",
          "type": "address"
        },
        {
          "indexed": true,
          "internalType": "address",
          "name": "to",
          "type": "address"
        },
        {
          "indexed": false,
          "internalType": "uint256",
          "name": "value",
          "type": "uint256"
        }
      ],
      "name": "Transfer",
      "type": "event"
    },
    {
      "anonymous": false,
      "inputs": [
        {
          "indexed": false,
          "internalType": "uint256",
          "name": "data",
          "type": "uint256"
        },
        {
          "indexed": false,
          "internalType": "address",
          "name": "_from",
          "type": "address"
        },
        {
          "indexed": false,
          "internalType": "address",
          "name": "_to",
          "type": "address"
        }
      ],
      "name": "getData",
      "type": "event"
    },
    {
      "inputs": [],
      "name": "MINIMUM_DEPOSIT_FOR_CERTIFICATE",
      "outputs": [
        {
          "internalType": "uint256",
          "name": "",
          "type": "uint256"
        }
      ],
      "stateMutability": "view",
      "type": "function"
    },
    {
      "inputs": [],
      "name": "TOTAL_SUPPLY",
      "outputs": [
        {
          "internalType": "uint256",
          "name": "",
          "type": "uint256"
        }
      ],
      "stateMutability": "view",
      "type": "function"
    },
    {
      "inputs": [],
      "name": "TOTAL_faucet_MAX",
      "outputs": [
        {
          "internalType": "uint256",
          "name": "",
          "type": "uint256"
        }
      ],
      "stateMutability": "view",
      "type": "function"
    },
    {
      "inputs": [
        {
          "internalType": "address",
          "name": "owner",
          "type": "address"
        },
        {
          "internalType": "address",
          "name": "spender",
          "type": "address"
        }
      ],
      "name": "allowance",
      "outputs": [
        {
          "internalType": "uint256",
          "name": "",
          "type": "uint256"
        }
      ],
      "stateMutability": "view",
      "type": "function"
    },
    {
      "inputs": [
        {
          "internalType": "address",
          "name": "spender",
          "type": "address"
        },
        {
          "internalType": "uint256",
          "name": "value",
          "type": "uint256"
        }
      ],
      "name": "approve",
      "outputs": [
        {
          "internalType": "bool",
          "name": "",
          "type": "bool"
        }
      ],
      "stateMutability": "nonpayable",
      "type": "function"
    },
    {
      "inputs": [
        {
          "internalType": "address",
          "name": "_address",
          "type": "address"
        }
      ],
      "name": "balaceOfERC20",
      "outputs": [
        {
          "internalType": "uint256",
          "name": "",
          "type": "uint256"
        }
      ],
      "stateMutability": "view",
      "type": "function"
    },
    {
      "inputs": [],
      "name": "balaceOfERC20TotalSupply",
      "outputs": [
        {
          "internalType": "uint256",
          "name": "",
          "type": "uint256"
        }
      ],
      "stateMutability": "view",
      "type": "function"
    },
    {
      "inputs": [
        {
          "internalType": "address",
          "name": "_address",
          "type": "address"
        }
      ],
      "name": "balaceOfERC721",
      "outputs": [
        {
          "internalType": "uint256",
          "name": "",
          "type": "uint256"
        }
      ],
      "stateMutability": "view",
      "type": "function"
    },
    {
      "inputs": [],
      "name": "balaceOfERC721TotalSupply",
      "outputs": [
        {
          "internalType": "uint256",
          "name": "",
          "type": "uint256"
        }
      ],
      "stateMutability": "view",
      "type": "function"
    },
    {
      "inputs": [
        {
          "internalType": "address",
          "name": "account",
          "type": "address"
        }
      ],
      "name": "balanceOf",
      "outputs": [
        {
          "internalType": "uint256",
          "name": "",
          "type": "uint256"
        }
      ],
      "stateMutability": "view",
      "type": "function"
    },
    {
      "inputs": [],
      "name": "balanceOfTokenERC20",
      "outputs": [
        {
          "internalType": "uint256",
          "name": "",
          "type": "uint256"
        }
      ],
      "stateMutability": "view",
      "type": "function"
    },
    {
      "inputs": [],
      "name": "baseAPR",
      "outputs": [
        {
          "internalType": "uint256",
          "name": "",
          "type": "uint256"
        }
      ],
      "stateMutability": "view",
      "type": "function"
    },
    {
      "inputs": [],
      "name": "bonusAPR",
      "outputs": [
        {
          "internalType": "uint256",
          "name": "",
          "type": "uint256"
        }
      ],
      "stateMutability": "view",
      "type": "function"
    },
    {
      "inputs": [],
      "name": "calculateRewardERC20",
      "outputs": [
        {
          "internalType": "uint256",
          "name": "",
          "type": "uint256"
        }
      ],
      "stateMutability": "view",
      "type": "function"
    },
    {
      "inputs": [],
      "name": "claimRewardERC20",
      "outputs": [],
      "stateMutability": "nonpayable",
      "type": "function"
    },
    {
      "inputs": [],
      "name": "decimals",
      "outputs": [
        {
          "internalType": "uint8",
          "name": "",
          "type": "uint8"
        }
      ],
      "stateMutability": "view",
      "type": "function"
    },
    {
      "inputs": [
        {
          "internalType": "uint256",
          "name": "_amount",
          "type": "uint256"
        }
      ],
      "name": "depositERC20",
      "outputs": [],
      "stateMutability": "nonpayable",
      "type": "function"
    },
    {
      "inputs": [
        {
          "internalType": "uint256[]",
          "name": "tokenId",
          "type": "uint256[]"
        }
      ],
      "name": "depositNFTB",
      "outputs": [],
      "stateMutability": "nonpayable",
      "type": "function"
    },
    {
      "inputs": [
        {
          "internalType": "address",
          "name": "_to",
          "type": "address"
        },
        {
          "internalType": "uint256",
          "name": "_amount",
          "type": "uint256"
        }
      ],
      "name": "faucet",
      "outputs": [],
      "stateMutability": "nonpayable",
      "type": "function"
    },
    {
      "inputs": [
        {
          "internalType": "uint256",
          "name": "_amount",
          "type": "uint256"
        }
      ],
      "name": "faucetERC20",
      "outputs": [],
      "stateMutability": "nonpayable",
      "type": "function"
    },
    {
      "inputs": [],
      "name": "getCurrentAPR",
      "outputs": [
        {
          "internalType": "uint256",
          "name": "",
          "type": "uint256"
        }
      ],
      "stateMutability": "view",
      "type": "function"
    },
    {
      "inputs": [],
      "name": "getCurrentRewardERC20",
      "outputs": [
        {
          "internalType": "uint256",
          "name": "",
          "type": "uint256"
        }
      ],
      "stateMutability": "view",
      "type": "function"
    },
    {
      "inputs": [
        {
          "internalType": "address",
          "name": "_address",
          "type": "address"
        }
      ],
      "name": "getOwnedNFTs",
      "outputs": [
        {
          "internalType": "uint256[]",
          "name": "",
          "type": "uint256[]"
        }
      ],
      "stateMutability": "view",
      "type": "function"
    },
    {
      "inputs": [],
      "name": "lockTime",
      "outputs": [
        {
          "internalType": "uint256",
          "name": "",
          "type": "uint256"
        }
      ],
      "stateMutability": "view",
      "type": "function"
    },
    {
      "inputs": [],
      "name": "name",
      "outputs": [
        {
          "internalType": "string",
          "name": "",
          "type": "string"
        }
      ],
      "stateMutability": "view",
      "type": "function"
    },
    {
      "inputs": [],
      "name": "owner",
      "outputs": [
        {
          "internalType": "address",
          "name": "",
          "type": "address"
        }
      ],
      "stateMutability": "view",
      "type": "function"
    },
    {
      "inputs": [],
      "name": "renounceOwnership",
      "outputs": [],
      "stateMutability": "nonpayable",
      "type": "function"
    },
    {
      "inputs": [
        {
          "internalType": "address",
          "name": "",
          "type": "address"
        }
      ],
      "name": "stakingInfo",
      "outputs": [
        {
          "internalType": "uint256",
          "name": "totalAmountERC20",
          "type": "uint256"
        },
        {
          "internalType": "uint256",
          "name": "APR",
          "type": "uint256"
        },
        {
          "internalType": "uint256",
          "name": "bonusAPR",
          "type": "uint256"
        },
        {
          "internalType": "uint256",
          "name": "startTimeDeposit",
          "type": "uint256"
        },
        {
          "internalType": "uint256",
          "name": "totalRewardERC20",
          "type": "uint256"
        },
        {
          "internalType": "uint256",
          "name": "mintNFTbCount",
          "type": "uint256"
        }
      ],
      "stateMutability": "view",
      "type": "function"
    },
    {
      "inputs": [
        {
          "internalType": "address",
          "name": "",
          "type": "address"
        }
      ],
      "name": "stakingInfoNFTB",
      "outputs": [
        {
          "internalType": "uint256",
          "name": "totalAmountERC721",
          "type": "uint256"
        },
        {
          "internalType": "uint256",
          "name": "startTimeDeposit",
          "type": "uint256"
        },
        {
          "internalType": "uint256",
          "name": "bonusAPR",
          "type": "uint256"
        }
      ],
      "stateMutability": "view",
      "type": "function"
    },
    {
      "inputs": [],
      "name": "symbol",
      "outputs": [
        {
          "internalType": "string",
          "name": "",
          "type": "string"
        }
      ],
      "stateMutability": "view",
      "type": "function"
    },
    {
      "inputs": [],
      "name": "tokenERC20",
      "outputs": [
        {
          "internalType": "contract TokenERC20",
          "name": "",
          "type": "address"
        }
      ],
      "stateMutability": "view",
      "type": "function"
    },
    {
      "inputs": [],
      "name": "tokenERC721",
      "outputs": [
        {
          "internalType": "contract TokenERC721",
          "name": "",
          "type": "address"
        }
      ],
      "stateMutability": "view",
      "type": "function"
    },
    {
      "inputs": [],
      "name": "totalSupply",
      "outputs": [
        {
          "internalType": "uint256",
          "name": "",
          "type": "uint256"
        }
      ],
      "stateMutability": "view",
      "type": "function"
    },
    {
      "inputs": [
        {
          "internalType": "address",
          "name": "to",
          "type": "address"
        },
        {
          "internalType": "uint256",
          "name": "value",
          "type": "uint256"
        }
      ],
      "name": "transfer",
      "outputs": [
        {
          "internalType": "bool",
          "name": "",
          "type": "bool"
        }
      ],
      "stateMutability": "nonpayable",
      "type": "function"
    },
    {
      "inputs": [
        {
          "internalType": "address",
          "name": "from",
          "type": "address"
        },
        {
          "internalType": "address",
          "name": "to",
          "type": "address"
        },
        {
          "internalType": "uint256",
          "name": "value",
          "type": "uint256"
        }
      ],
      "name": "transferFrom",
      "outputs": [
        {
          "internalType": "bool",
          "name": "",
          "type": "bool"
        }
      ],
      "stateMutability": "nonpayable",
      "type": "function"
    },
    {
      "inputs": [
        {
          "internalType": "address",
          "name": "newOwner",
          "type": "address"
        }
      ],
      "name": "transferOwnership",
      "outputs": [],
      "stateMutability": "nonpayable",
      "type": "function"
    },
    {
      "inputs": [
        {
          "internalType": "address",
          "name": "_to",
          "type": "address"
        },
        {
          "internalType": "uint256",
          "name": "_amount",
          "type": "uint256"
        }
      ],
      "name": "transferRewardERC20",
      "outputs": [],
      "stateMutability": "nonpayable",
      "type": "function"
    },
    {
      "inputs": [
        {
          "internalType": "uint256",
          "name": "newBaseAPR",
          "type": "uint256"
        }
      ],
      "name": "updateAPR",
      "outputs": [],
      "stateMutability": "nonpayable",
      "type": "function"
    },
    {
      "inputs": [
        {
          "internalType": "uint256[]",
          "name": "tokenId",
          "type": "uint256[]"
        }
      ],
      "name": "withRewardNFTB",
      "outputs": [],
      "stateMutability": "nonpayable",
      "type": "function"
    },
    {
      "inputs": [],
      "name": "withdrawRewardERC20",
      "outputs": [],
      "stateMutability": "nonpayable",
      "type": "function"
    }
  ],
  "bytecode": "0x60806040526a084595161401484a000000600555610320600a5560c8600b55601e600c553480156200003057600080fd5b50604051620048ee380380620048ee833981810160405281019062000056919062000666565b336040518060400160405280600681526020017f746f6b656e4100000000000000000000000000000000000000000000000000008152506040518060400160405280600581526020017f45524332300000000000000000000000000000000000000000000000000000008152508160039081620000d4919062000927565b508060049081620000e6919062000927565b50505062000107306b033b2e3c9fd0803ce80000006200022060201b60201c565b6001600681905550600073ffffffffffffffffffffffffffffffffffffffff168173ffffffffffffffffffffffffffffffffffffffff1603620001845760006040517f1e4fbdf70000000000000000000000000000000000000000000000000000000081526004016200017b919062000a1f565b60405180910390fd5b6200019581620002ad60201b60201c565b5081600860006101000a81548173ffffffffffffffffffffffffffffffffffffffff021916908373ffffffffffffffffffffffffffffffffffffffff16021790555080600960006101000a81548173ffffffffffffffffffffffffffffffffffffffff021916908373ffffffffffffffffffffffffffffffffffffffff160217905550505062000b11565b600073ffffffffffffffffffffffffffffffffffffffff168273ffffffffffffffffffffffffffffffffffffffff1603620002955760006040517fec442f050000000000000000000000000000000000000000000000000000000081526004016200028c919062000a1f565b60405180910390fd5b620002a9600083836200037360201b60201c565b5050565b6000600760009054906101000a900473ffffffffffffffffffffffffffffffffffffffff16905081600760006101000a81548173ffffffffffffffffffffffffffffffffffffffff021916908373ffffffffffffffffffffffffffffffffffffffff1602179055508173ffffffffffffffffffffffffffffffffffffffff168173ffffffffffffffffffffffffffffffffffffffff167f8be0079c531659141344cd1fd0a4f28419497f9722a3daafe3b4186f6b6457e060405160405180910390a35050565b600073ffffffffffffffffffffffffffffffffffffffff168373ffffffffffffffffffffffffffffffffffffffff1603620003c9578060026000828254620003bc919062000a6b565b925050819055506200049f565b60008060008573ffffffffffffffffffffffffffffffffffffffff1673ffffffffffffffffffffffffffffffffffffffff1681526020019081526020016000205490508181101562000458578381836040517fe450d38c0000000000000000000000000000000000000000000000000000000081526004016200044f9392919062000ab7565b60405180910390fd5b8181036000808673ffffffffffffffffffffffffffffffffffffffff1673ffffffffffffffffffffffffffffffffffffffff16815260200190815260200160002081905550505b600073ffffffffffffffffffffffffffffffffffffffff168273ffffffffffffffffffffffffffffffffffffffff1603620004ea578060026000828254039250508190555062000537565b806000808473ffffffffffffffffffffffffffffffffffffffff1673ffffffffffffffffffffffffffffffffffffffff168152602001908152602001600020600082825401925050819055505b8173ffffffffffffffffffffffffffffffffffffffff168373ffffffffffffffffffffffffffffffffffffffff167fddf252ad1be2c89b69c2b068fc378daa952ba7f163c4a11628f55a4df523b3ef8360405162000596919062000af4565b60405180910390a3505050565b600080fd5b600073ffffffffffffffffffffffffffffffffffffffff82169050919050565b6000620005d582620005a8565b9050919050565b6000620005e982620005c8565b9050919050565b620005fb81620005dc565b81146200060757600080fd5b50565b6000815190506200061b81620005f0565b92915050565b60006200062e82620005c8565b9050919050565b620006408162000621565b81146200064c57600080fd5b50565b600081519050620006608162000635565b92915050565b6000806040838503121562000680576200067f620005a3565b5b600062000690858286016200060a565b9250506020620006a3858286016200064f565b9150509250929050565b600081519050919050565b7f4e487b7100000000000000000000000000000000000000000000000000000000600052604160045260246000fd5b7f4e487b7100000000000000000000000000000000000000000000000000000000600052602260045260246000fd5b600060028204905060018216806200072f57607f821691505b602082108103620007455762000744620006e7565b5b50919050565b60008190508160005260206000209050919050565b60006020601f8301049050919050565b600082821b905092915050565b600060088302620007af7fffffffffffffffffffffffffffffffffffffffffffffffffffffffffffffffff8262000770565b620007bb868362000770565b95508019841693508086168417925050509392505050565b6000819050919050565b6000819050919050565b60006200080862000802620007fc84620007d3565b620007dd565b620007d3565b9050919050565b6000819050919050565b6200082483620007e7565b6200083c62000833826200080f565b8484546200077d565b825550505050565b600090565b6200085362000844565b6200086081848462000819565b505050565b5b8181101562000888576200087c60008262000849565b60018101905062000866565b5050565b601f821115620008d757620008a1816200074b565b620008ac8462000760565b81016020851015620008bc578190505b620008d4620008cb8562000760565b83018262000865565b50505b505050565b600082821c905092915050565b6000620008fc60001984600802620008dc565b1980831691505092915050565b6000620009178383620008e9565b9150826002028217905092915050565b6200093282620006ad565b67ffffffffffffffff8111156200094e576200094d620006b8565b5b6200095a825462000716565b620009678282856200088c565b600060209050601f8311600181146200099f57600084156200098a578287015190505b62000996858262000909565b86555062000a06565b601f198416620009af866200074b565b60005b82811015620009d957848901518255600182019150602085019450602081019050620009b2565b86831015620009f95784890151620009f5601f891682620008e9565b8355505b6001600288020188555050505b505050505050565b62000a1981620005c8565b82525050565b600060208201905062000a36600083018462000a0e565b92915050565b7f4e487b7100000000000000000000000000000000000000000000000000000000600052601160045260246000fd5b600062000a7882620007d3565b915062000a8583620007d3565b925082820190508082111562000aa05762000a9f62000a3c565b5b92915050565b62000ab181620007d3565b82525050565b600060608201905062000ace600083018662000a0e565b62000add602083018562000aa6565b62000aec604083018462000aa6565b949350505050565b600060208201905062000b0b600083018462000aa6565b92915050565b613dcd8062000b216000396000f3fe608060405234801561001057600080fd5b50600436106102485760003560e01c80638cb8564d1161013b578063ba94f61b116100b8578063de9ad1341161007c578063de9ad134146106b4578063e08835fd146106e4578063e7e2629e14610716578063e9adc77014610732578063f2fde38b1461075057610248565b8063ba94f61b1461060c578063bcd19e701461062a578063ce55f94714610648578063d05dd73f14610666578063dd62ed3e1461068457610248565b80639b3a6c88116100ff5780639b3a6c88146105685780639d143e8e14610584578063a9059cbb146105a2578063b3a36f1e146105d2578063b79092fd146105f057610248565b80638cb8564d146104a95780638da5cb5b146104d9578063902d55a5146104f757806394eecb501461051557806395d89b411461054a57610248565b8063499ff3ef116101c95780636a78c7d21161018d5780636a78c7d2146104195780637098692e1461043557806370a0823114610453578063715018a6146104835780637b56c2b21461048d57610248565b8063499ff3ef146103ad5780634ca903ba146103c9578063556e7cee146103e757806358ac0e80146103f15780636014a4491461040f57610248565b806318160ddd1161021057806318160ddd1461030757806321ae05c81461032557806323b872dd14610343578063313ce5671461037357806336ed1f0d1461039157610248565b806306fdde031461024d5780630882e64e1461026b578063095ea7b3146102895780630d668087146102b957806318148f1b146102d7575b600080fd5b61025561076c565b6040516102629190612c93565b60405180910390f35b6102736107fe565b6040516102809190612cce565b60405180910390f35b6102a3600480360381019061029e9190612d87565b6108c7565b6040516102b09190612de2565b60405180910390f35b6102c16108ea565b6040516102ce9190612cce565b60405180910390f35b6102f160048036038101906102ec9190612dfd565b6108f0565b6040516102fe9190612ee8565b60405180910390f35b61030f61099a565b60405161031c9190612cce565b60405180910390f35b61032d6109a4565b60405161033a9190612cce565b60405180910390f35b61035d60048036038101906103589190612f0a565b610a18565b60405161036a9190612de2565b60405180910390f35b61037b610a47565b6040516103889190612f79565b60405180910390f35b6103ab60048036038101906103a69190612ff9565b610a50565b005b6103c760048036038101906103c29190612d87565b610ee7565b005b6103d1610f41565b6040516103de9190612cce565b60405180910390f35b6103ef610fd9565b005b6103f9611224565b6040516104069190612cce565b60405180910390f35b61041761122a565b005b610433600480360381019061042e9190612ff9565b611378565b005b61043d6116fa565b60405161044a9190612cce565b60405180910390f35b61046d60048036038101906104689190612dfd565b61175b565b60405161047a9190612cce565b60405180910390f35b61048b6117a3565b005b6104a760048036038101906104a29190612d87565b6117b7565b005b6104c360048036038101906104be9190612dfd565b611883565b6040516104d09190612cce565b60405180910390f35b6104e1611928565b6040516104ee9190613055565b60405180910390f35b6104ff611952565b60405161050c9190612cce565b60405180910390f35b61052f600480360381019061052a9190612dfd565b611962565b60405161054196959493929190613070565b60405180910390f35b61055261199e565b60405161055f9190612c93565b60405180910390f35b610582600480360381019061057d91906130d1565b611a30565b005b61058c611b05565b604051610599919061315d565b60405180910390f35b6105bc60048036038101906105b79190612d87565b611b2b565b6040516105c99190612de2565b60405180910390f35b6105da611b4e565b6040516105e79190612cce565b60405180910390f35b61060a600480360381019061060591906130d1565b611b54565b005b610614611ed0565b6040516106219190612cce565b60405180910390f35b610632611ee0565b60405161063f9190612cce565b60405180910390f35b610650611f78565b60405161065d9190612cce565b60405180910390f35b61066e611f86565b60405161067b9190612cce565b60405180910390f35b61069e60048036038101906106999190613178565b611f8c565b6040516106ab9190612cce565b60405180910390f35b6106ce60048036038101906106c99190612dfd565b612013565b6040516106db9190612cce565b60405180910390f35b6106fe60048036038101906106f99190612dfd565b6120b8565b60405161070d939291906131b8565b60405180910390f35b610730600480360381019061072b91906130d1565b6120e2565b005b61073a6120f4565b6040516107479190613210565b60405180910390f35b61076a60048036038101906107659190612dfd565b61211a565b005b60606003805461077b9061325a565b80601f01602080910402602001604051908101604052809291908181526020018280546107a79061325a565b80156107f45780601f106107c9576101008083540402835291602001916107f4565b820191906000526020600020905b8154815290600101906020018083116107d757829003601f168201915b5050505050905090565b600080600d60003373ffffffffffffffffffffffffffffffffffffffff1673ffffffffffffffffffffffffffffffffffffffff16815260200190815260200160002090506000816000015490506000810361085e576000925050506108c4565b6000826003015490506000810361087b57600093505050506108c4565b6000814261088991906132ba565b905060006108b98560020154600a546108a291906132ee565b856108ad9190613322565b83644979cb9e006121a0565b905080955050505050505b90565b6000806108d26122a7565b90506108df8185856122af565b600191505092915050565b600c5481565b6060600960009054906101000a900473ffffffffffffffffffffffffffffffffffffffff1673ffffffffffffffffffffffffffffffffffffffff1663d9d61655836040518263ffffffff1660e01b815260040161094d9190613055565b600060405180830381865afa15801561096a573d6000803e3d6000fd5b505050506040513d6000823e3d601f19601f8201168201806040525081019061099391906134b7565b9050919050565b6000600254905090565b600080600e60003373ffffffffffffffffffffffffffffffffffffffff1673ffffffffffffffffffffffffffffffffffffffff168152602001908152602001600020905060008160020154036109ff57600a54915050610a15565b8060020154600a54610a1191906132ee565b9150505b90565b600080610a236122a7565b9050610a308582856122c1565b610a3b858585612355565b60019150509392505050565b60006012905090565b610a58612449565b60008282905011610a9e576040517f08c379a0000000000000000000000000000000000000000000000000000000008152600401610a959061354c565b60405180910390fd5b60005b82829050811015610be1573373ffffffffffffffffffffffffffffffffffffffff16600960009054906101000a900473ffffffffffffffffffffffffffffffffffffffff1673ffffffffffffffffffffffffffffffffffffffff16636352211e858585818110610b1457610b1361356c565b5b905060200201356040518263ffffffff1660e01b8152600401610b379190612cce565b602060405180830381865afa158015610b54573d6000803e3d6000fd5b505050506040513d601f19601f82011682018060405250810190610b7891906135b0565b73ffffffffffffffffffffffffffffffffffffffff1614610bce576040517f08c379a0000000000000000000000000000000000000000000000000000000008152600401610bc59061354c565b60405180910390fd5b8080610bd9906135dd565b915050610aa1565b506000600d60003373ffffffffffffffffffffffffffffffffffffffff1673ffffffffffffffffffffffffffffffffffffffff16815260200190815260200160002090506000600e60003373ffffffffffffffffffffffffffffffffffffffff1673ffffffffffffffffffffffffffffffffffffffff16815260200190815260200160002090506000600960009054906101000a900473ffffffffffffffffffffffffffffffffffffffff1673ffffffffffffffffffffffffffffffffffffffff166370a08231336040518263ffffffff1660e01b8152600401610cc59190613055565b602060405180830381865afa158015610ce2573d6000803e3d6000fd5b505050506040513d601f19601f82011682018060405250810190610d069190613625565b11610d46576040517f08c379a0000000000000000000000000000000000000000000000000000000008152600401610d3d9061369e565b60405180910390fd5b60005b84849050811015610e5557600960009054906101000a900473ffffffffffffffffffffffffffffffffffffffff1673ffffffffffffffffffffffffffffffffffffffff166342842e0e3330888886818110610da757610da661356c565b5b905060200201356040518463ffffffff1660e01b8152600401610dcc939291906136be565b600060405180830381600087803b158015610de657600080fd5b505af1158015610dfa573d6000803e3d6000fd5b5050505081600301858583818110610e1557610e1461356c565b5b9050602002013590806001815401808255809150506001900390600052602060002001600090919091909150558080610e4d906135dd565b915050610d49565b50610e5e6107fe565b826004016000828254610e7191906132ee565b92505081905550428260030181905550600084849050600b54610e949190613322565b905080826002016000828254610eaa91906132ee565b9250508190555084849050826000016000828254610ec891906132ee565b92505081905550428260010181905550505050610ee361248f565b5050565b80610ef13061175b565b1015610f32576040517f08c379a0000000000000000000000000000000000000000000000000000000008152600401610f2990613767565b60405180910390fd5b610f3d308383612355565b5050565b6000600960009054906101000a900473ffffffffffffffffffffffffffffffffffffffff1673ffffffffffffffffffffffffffffffffffffffff166322a579cb6040518163ffffffff1660e01b8152600401602060405180830381865afa158015610fb0573d6000803e3d6000fd5b505050506040513d601f19601f82011682018060405250810190610fd49190613625565b905090565b6000600d60003373ffffffffffffffffffffffffffffffffffffffff1673ffffffffffffffffffffffffffffffffffffffff1681526020019081526020016000209050600c54816003015461102e91906132ee565b421015611070576040517f08c379a0000000000000000000000000000000000000000000000000000000008152600401611067906137d3565b60405180910390fd5b600061107a6107fe565b826000015461108991906132ee565b9050600081116110ce576040517f08c379a00000000000000000000000000000000000000000000000000000000081526004016110c590613865565b60405180910390fd5b600860009054906101000a900473ffffffffffffffffffffffffffffffffffffffff1673ffffffffffffffffffffffffffffffffffffffff1663a9059cbb3384600001546040518363ffffffff1660e01b815260040161112f929190613885565b6020604051808303816000875af115801561114e573d6000803e3d6000fd5b505050506040513d601f19601f8201168201806040525081019061117291906138da565b50600860009054906101000a900473ffffffffffffffffffffffffffffffffffffffff1673ffffffffffffffffffffffffffffffffffffffff1663499ff3ef33836040518363ffffffff1660e01b81526004016111d0929190613885565b600060405180830381600087803b1580156111ea57600080fd5b505af11580156111fe573d6000803e3d6000fd5b505050506000826000018190555060008260040181905550600082600301819055505050565b600a5481565b6000600d60003373ffffffffffffffffffffffffffffffffffffffff1673ffffffffffffffffffffffffffffffffffffffff168152602001908152602001600020905060006112776107fe565b116112b7576040517f08c379a00000000000000000000000000000000000000000000000000000000081526004016112ae90613953565b60405180910390fd5b60006112c16107fe565b82600401546112d091906132ee565b9050600860009054906101000a900473ffffffffffffffffffffffffffffffffffffffff1673ffffffffffffffffffffffffffffffffffffffff1663499ff3ef33836040518363ffffffff1660e01b815260040161132f929190613885565b600060405180830381600087803b15801561134957600080fd5b505af115801561135d573d6000803e3d6000fd5b50505050600082600401819055504282600301819055505050565b600082829050116113be576040517f08c379a00000000000000000000000000000000000000000000000000000000081526004016113b59061354c565b60405180910390fd5b6000600d60003373ffffffffffffffffffffffffffffffffffffffff1673ffffffffffffffffffffffffffffffffffffffff16815260200190815260200160002090506000600e60003373ffffffffffffffffffffffffffffffffffffffff1673ffffffffffffffffffffffffffffffffffffffff1681526020019081526020016000209050600081600001541161148b576040517f08c379a0000000000000000000000000000000000000000000000000000000008152600401611482906139bf565b60405180910390fd5b42600c54826001015461149e91906132ee565b10156114df576040517f08c379a00000000000000000000000000000000000000000000000000000000081526004016114d690613a2b565b60405180910390fd5b60005b8484905081101561168a5760008585838181106115025761150161356c565b5b9050602002013590506000805b846003018054905081101561167457828560030182815481106115355761153461356c565b5b90600052602060002001540361166157600960009054906101000a900473ffffffffffffffffffffffffffffffffffffffff1673ffffffffffffffffffffffffffffffffffffffff166342842e0e3033866040518463ffffffff1660e01b81526004016115a4939291906136be565b600060405180830381600087803b1580156115be57600080fd5b505af11580156115d2573d6000803e3d6000fd5b5050505084600301600186600301805490506115ee91906132ba565b815481106115ff576115fe61356c565b5b90600052602060002001548560030182815481106116205761161f61356c565b5b90600052602060002001819055508460030180548061164257611641613a4b565b5b6001900381819060005260206000200160009055905560019150611674565b808061166c906135dd565b91505061150f565b5050508080611682906135dd565b9150506114e2565b50838390508160000160008282546116a291906132ba565b925050819055506116b16107fe565b826004018190555060008260030181905550600084849050600b546116d69190613322565b9050808260020160008282546116ec91906132ba565b925050819055505050505050565b6000806117056107fe565b600d60003373ffffffffffffffffffffffffffffffffffffffff1673ffffffffffffffffffffffffffffffffffffffff1681526020019081526020016000206004015461175291906132ee565b90508091505090565b60008060008373ffffffffffffffffffffffffffffffffffffffff1673ffffffffffffffffffffffffffffffffffffffff168152602001908152602001600020549050919050565b6117ab612499565b6117b56000612520565b565b6005548111156117c86005546125e6565b6040516020016117d89190613b28565b60405160208183030381529060405290611828576040517f08c379a000000000000000000000000000000000000000000000000000000000815260040161181f9190612c93565b60405180910390fd5b50806118333061175b565b1015611874576040517f08c379a000000000000000000000000000000000000000000000000000000000815260040161186b90613767565b60405180910390fd5b61187f308383612355565b5050565b6000600860009054906101000a900473ffffffffffffffffffffffffffffffffffffffff1673ffffffffffffffffffffffffffffffffffffffff166370a08231836040518263ffffffff1660e01b81526004016118e09190613055565b602060405180830381865afa1580156118fd573d6000803e3d6000fd5b505050506040513d601f19601f820116820180604052508101906119219190613625565b9050919050565b6000600760009054906101000a900473ffffffffffffffffffffffffffffffffffffffff16905090565b6b033b2e3c9fd0803ce800000081565b600d6020528060005260406000206000915090508060000154908060010154908060020154908060030154908060040154908060050154905086565b6060600480546119ad9061325a565b80601f01602080910402602001604051908101604052809291908181526020018280546119d99061325a565b8015611a265780601f106119fb57610100808354040283529160200191611a26565b820191906000526020600020905b815481529060010190602001808311611a0957829003601f168201915b5050505050905090565b60008111611a73576040517f08c379a0000000000000000000000000000000000000000000000000000000008152600401611a6a90613bbc565b60405180910390fd5b600860009054906101000a900473ffffffffffffffffffffffffffffffffffffffff1673ffffffffffffffffffffffffffffffffffffffff16637b56c2b233836040518363ffffffff1660e01b8152600401611ad0929190613885565b600060405180830381600087803b158015611aea57600080fd5b505af1158015611afe573d6000803e3d6000fd5b5050505050565b600860009054906101000a900473ffffffffffffffffffffffffffffffffffffffff1681565b600080611b366122a7565b9050611b43818585612355565b600191505092915050565b600b5481565b611b5c612449565b6000600d60003373ffffffffffffffffffffffffffffffffffffffff1673ffffffffffffffffffffffffffffffffffffffff168152602001908152602001600020905060008211611be2576040517f08c379a0000000000000000000000000000000000000000000000000000000008152600401611bd990613c4e565b60405180910390fd5b81600860009054906101000a900473ffffffffffffffffffffffffffffffffffffffff1673ffffffffffffffffffffffffffffffffffffffff166370a08231336040518263ffffffff1660e01b8152600401611c3e9190613055565b602060405180830381865afa158015611c5b573d6000803e3d6000fd5b505050506040513d601f19601f82011682018060405250810190611c7f9190613625565b1015611cc0576040517f08c379a0000000000000000000000000000000000000000000000000000000008152600401611cb790613ce0565b60405180910390fd5b600860009054906101000a900473ffffffffffffffffffffffffffffffffffffffff1673ffffffffffffffffffffffffffffffffffffffff166323b872dd3330856040518463ffffffff1660e01b8152600401611d1f939291906136be565b6020604051808303816000875af1158015611d3e573d6000803e3d6000fd5b505050506040513d601f19601f82011682018060405250810190611d6291906138da565b5081816000016000828254611d7791906132ee565b925050819055506000816003015414611db3576000611d946107fe565b905080826004016000828254611daa91906132ee565b92505081905550505b4281600301819055506000816005015469d3c21bcecceda10000008360000154611ddd9190613d2f565b611de791906132ba565b905060005b81811015611ec257600960009054906101000a900473ffffffffffffffffffffffffffffffffffffffff1673ffffffffffffffffffffffffffffffffffffffff16636a627842336040518263ffffffff1660e01b8152600401611e4f9190613055565b6020604051808303816000875af1158015611e6e573d6000803e3d6000fd5b505050506040513d601f19601f82011682018060405250810190611e929190613625565b506001836005016000828254611ea891906132ee565b925050819055508080611eba906135dd565b915050611dec565b505050611ecd61248f565b50565b6000611edb3061175b565b905090565b6000600860009054906101000a900473ffffffffffffffffffffffffffffffffffffffff1673ffffffffffffffffffffffffffffffffffffffff1663ba94f61b6040518163ffffffff1660e01b8152600401602060405180830381865afa158015611f4f573d6000803e3d6000fd5b505050506040513d601f19601f82011682018060405250810190611f739190613625565b905090565b69d3c21bcecceda100000081565b60055481565b6000600160008473ffffffffffffffffffffffffffffffffffffffff1673ffffffffffffffffffffffffffffffffffffffff16815260200190815260200160002060008373ffffffffffffffffffffffffffffffffffffffff1673ffffffffffffffffffffffffffffffffffffffff16815260200190815260200160002054905092915050565b6000600960009054906101000a900473ffffffffffffffffffffffffffffffffffffffff1673ffffffffffffffffffffffffffffffffffffffff166370a08231836040518263ffffffff1660e01b81526004016120709190613055565b602060405180830381865afa15801561208d573d6000803e3d6000fd5b505050506040513d601f19601f820116820180604052508101906120b19190613625565b9050919050565b600e6020528060005260406000206000915090508060000154908060010154908060020154905083565b6120ea612499565b80600a8190555050565b600960009054906101000a900473ffffffffffffffffffffffffffffffffffffffff1681565b612122612499565b600073ffffffffffffffffffffffffffffffffffffffff168173ffffffffffffffffffffffffffffffffffffffff16036121945760006040517f1e4fbdf700000000000000000000000000000000000000000000000000000000815260040161218b9190613055565b60405180910390fd5b61219d81612520565b50565b60008083850290506000801985870982811083820303915050600081036121db578382816121d1576121d0613d00565b5b04925050506122a0565b808411612214576040517f227bc15300000000000000000000000000000000000000000000000000000000815260040160405180910390fd5b600084868809905082811182039150808303925060008560000386169050808604955080840493506001818260000304019050808302841793506000600287600302189050808702600203810290508087026002038102905080870260020381029050808702600203810290508087026002038102905080870260020381029050808502955050505050505b9392505050565b600033905090565b6122bc83838360016126b4565b505050565b60006122cd8484611f8c565b90507fffffffffffffffffffffffffffffffffffffffffffffffffffffffffffffffff811461234f578181101561233f578281836040517ffb8f41b200000000000000000000000000000000000000000000000000000000815260040161233693929190613d60565b60405180910390fd5b61234e848484840360006126b4565b5b50505050565b600073ffffffffffffffffffffffffffffffffffffffff168373ffffffffffffffffffffffffffffffffffffffff16036123c75760006040517f96c6fd1e0000000000000000000000000000000000000000000000000000000081526004016123be9190613055565b60405180910390fd5b600073ffffffffffffffffffffffffffffffffffffffff168273ffffffffffffffffffffffffffffffffffffffff16036124395760006040517fec442f050000000000000000000000000000000000000000000000000000000081526004016124309190613055565b60405180910390fd5b61244483838361288b565b505050565b600260065403612485576040517f3ee5aeb500000000000000000000000000000000000000000000000000000000815260040160405180910390fd5b6002600681905550565b6001600681905550565b6124a16122a7565b73ffffffffffffffffffffffffffffffffffffffff166124bf611928565b73ffffffffffffffffffffffffffffffffffffffff161461251e576124e26122a7565b6040517f118cdaa70000000000000000000000000000000000000000000000000000000081526004016125159190613055565b60405180910390fd5b565b6000600760009054906101000a900473ffffffffffffffffffffffffffffffffffffffff16905081600760006101000a81548173ffffffffffffffffffffffffffffffffffffffff021916908373ffffffffffffffffffffffffffffffffffffffff1602179055508173ffffffffffffffffffffffffffffffffffffffff168173ffffffffffffffffffffffffffffffffffffffff167f8be0079c531659141344cd1fd0a4f28419497f9722a3daafe3b4186f6b6457e060405160405180910390a35050565b6060600060016125f584612ab0565b01905060008167ffffffffffffffff81111561261457612613613364565b5b6040519080825280601f01601f1916602001820160405280156126465781602001600182028036833780820191505090505b509050600082602001820190505b6001156126a9578080600190039150507f3031323334353637383961626364656600000000000000000000000000000000600a86061a8153600a858161269d5761269c613d00565b5b04945060008503612654575b819350505050919050565b600073ffffffffffffffffffffffffffffffffffffffff168473ffffffffffffffffffffffffffffffffffffffff16036127265760006040517fe602df0500000000000000000000000000000000000000000000000000000000815260040161271d9190613055565b60405180910390fd5b600073ffffffffffffffffffffffffffffffffffffffff168373ffffffffffffffffffffffffffffffffffffffff16036127985760006040517f94280d6200000000000000000000000000000000000000000000000000000000815260040161278f9190613055565b60405180910390fd5b81600160008673ffffffffffffffffffffffffffffffffffffffff1673ffffffffffffffffffffffffffffffffffffffff16815260200190815260200160002060008573ffffffffffffffffffffffffffffffffffffffff1673ffffffffffffffffffffffffffffffffffffffff168152602001908152602001600020819055508015612885578273ffffffffffffffffffffffffffffffffffffffff168473ffffffffffffffffffffffffffffffffffffffff167f8c5be1e5ebec7d5bd14f71427d1e84f3dd0314c0f7b2291e5b200ac8c7c3b9258460405161287c9190612cce565b60405180910390a35b50505050565b600073ffffffffffffffffffffffffffffffffffffffff168373ffffffffffffffffffffffffffffffffffffffff16036128dd5780600260008282546128d191906132ee565b925050819055506129b0565b60008060008573ffffffffffffffffffffffffffffffffffffffff1673ffffffffffffffffffffffffffffffffffffffff16815260200190815260200160002054905081811015612969578381836040517fe450d38c00000000000000000000000000000000000000000000000000000000815260040161296093929190613d60565b60405180910390fd5b8181036000808673ffffffffffffffffffffffffffffffffffffffff1673ffffffffffffffffffffffffffffffffffffffff16815260200190815260200160002081905550505b600073ffffffffffffffffffffffffffffffffffffffff168273ffffffffffffffffffffffffffffffffffffffff16036129f95780600260008282540392505081905550612a46565b806000808473ffffffffffffffffffffffffffffffffffffffff1673ffffffffffffffffffffffffffffffffffffffff168152602001908152602001600020600082825401925050819055505b8173ffffffffffffffffffffffffffffffffffffffff168373ffffffffffffffffffffffffffffffffffffffff167fddf252ad1be2c89b69c2b068fc378daa952ba7f163c4a11628f55a4df523b3ef83604051612aa39190612cce565b60405180910390a3505050565b600080600090507a184f03e93ff9f4daa797ed6e38ed64bf6a1f0100000000000000008310612b0e577a184f03e93ff9f4daa797ed6e38ed64bf6a1f0100000000000000008381612b0457612b03613d00565b5b0492506040810190505b6d04ee2d6d415b85acef81000000008310612b4b576d04ee2d6d415b85acef81000000008381612b4157612b40613d00565b5b0492506020810190505b662386f26fc100008310612b7a57662386f26fc100008381612b7057612b6f613d00565b5b0492506010810190505b6305f5e1008310612ba3576305f5e1008381612b9957612b98613d00565b5b0492506008810190505b6127108310612bc8576127108381612bbe57612bbd613d00565b5b0492506004810190505b60648310612beb5760648381612be157612be0613d00565b5b0492506002810190505b600a8310612bfa576001810190505b80915050919050565b600081519050919050565b600082825260208201905092915050565b60005b83811015612c3d578082015181840152602081019050612c22565b60008484015250505050565b6000601f19601f8301169050919050565b6000612c6582612c03565b612c6f8185612c0e565b9350612c7f818560208601612c1f565b612c8881612c49565b840191505092915050565b60006020820190508181036000830152612cad8184612c5a565b905092915050565b6000819050919050565b612cc881612cb5565b82525050565b6000602082019050612ce36000830184612cbf565b92915050565b6000604051905090565b600080fd5b600080fd5b600073ffffffffffffffffffffffffffffffffffffffff82169050919050565b6000612d2882612cfd565b9050919050565b612d3881612d1d565b8114612d4357600080fd5b50565b600081359050612d5581612d2f565b92915050565b612d6481612cb5565b8114612d6f57600080fd5b50565b600081359050612d8181612d5b565b92915050565b60008060408385031215612d9e57612d9d612cf3565b5b6000612dac85828601612d46565b9250506020612dbd85828601612d72565b9150509250929050565b60008115159050919050565b612ddc81612dc7565b82525050565b6000602082019050612df76000830184612dd3565b92915050565b600060208284031215612e1357612e12612cf3565b5b6000612e2184828501612d46565b91505092915050565b600081519050919050565b600082825260208201905092915050565b6000819050602082019050919050565b612e5f81612cb5565b82525050565b6000612e718383612e56565b60208301905092915050565b6000602082019050919050565b6000612e9582612e2a565b612e9f8185612e35565b9350612eaa83612e46565b8060005b83811015612edb578151612ec28882612e65565b9750612ecd83612e7d565b925050600181019050612eae565b5085935050505092915050565b60006020820190508181036000830152612f028184612e8a565b905092915050565b600080600060608486031215612f2357612f22612cf3565b5b6000612f3186828701612d46565b9350506020612f4286828701612d46565b9250506040612f5386828701612d72565b9150509250925092565b600060ff82169050919050565b612f7381612f5d565b82525050565b6000602082019050612f8e6000830184612f6a565b92915050565b600080fd5b600080fd5b600080fd5b60008083601f840112612fb957612fb8612f94565b5b8235905067ffffffffffffffff811115612fd657612fd5612f99565b5b602083019150836020820283011115612ff257612ff1612f9e565b5b9250929050565b600080602083850312156130105761300f612cf3565b5b600083013567ffffffffffffffff81111561302e5761302d612cf8565b5b61303a85828601612fa3565b92509250509250929050565b61304f81612d1d565b82525050565b600060208201905061306a6000830184613046565b92915050565b600060c0820190506130856000830189612cbf565b6130926020830188612cbf565b61309f6040830187612cbf565b6130ac6060830186612cbf565b6130b96080830185612cbf565b6130c660a0830184612cbf565b979650505050505050565b6000602082840312156130e7576130e6612cf3565b5b60006130f584828501612d72565b91505092915050565b6000819050919050565b600061312361311e61311984612cfd565b6130fe565b612cfd565b9050919050565b600061313582613108565b9050919050565b60006131478261312a565b9050919050565b6131578161313c565b82525050565b6000602082019050613172600083018461314e565b92915050565b6000806040838503121561318f5761318e612cf3565b5b600061319d85828601612d46565b92505060206131ae85828601612d46565b9150509250929050565b60006060820190506131cd6000830186612cbf565b6131da6020830185612cbf565b6131e76040830184612cbf565b949350505050565b60006131fa8261312a565b9050919050565b61320a816131ef565b82525050565b60006020820190506132256000830184613201565b92915050565b7f4e487b7100000000000000000000000000000000000000000000000000000000600052602260045260246000fd5b6000600282049050600182168061327257607f821691505b6020821081036132855761328461322b565b5b50919050565b7f4e487b7100000000000000000000000000000000000000000000000000000000600052601160045260246000fd5b60006132c582612cb5565b91506132d083612cb5565b92508282039050818111156132e8576132e761328b565b5b92915050565b60006132f982612cb5565b915061330483612cb5565b925082820190508082111561331c5761331b61328b565b5b92915050565b600061332d82612cb5565b915061333883612cb5565b925082820261334681612cb5565b9150828204841483151761335d5761335c61328b565b5b5092915050565b7f4e487b7100000000000000000000000000000000000000000000000000000000600052604160045260246000fd5b61339c82612c49565b810181811067ffffffffffffffff821117156133bb576133ba613364565b5b80604052505050565b60006133ce612ce9565b90506133da8282613393565b919050565b600067ffffffffffffffff8211156133fa576133f9613364565b5b602082029050602081019050919050565b60008151905061341a81612d5b565b92915050565b600061343361342e846133df565b6133c4565b9050808382526020820190506020840283018581111561345657613455612f9e565b5b835b8181101561347f578061346b888261340b565b845260208401935050602081019050613458565b5050509392505050565b600082601f83011261349e5761349d612f94565b5b81516134ae848260208601613420565b91505092915050565b6000602082840312156134cd576134cc612cf3565b5b600082015167ffffffffffffffff8111156134eb576134ea612cf8565b5b6134f784828501613489565b91505092915050565b7f4e46542d423a20496e76616c696420746f6b656e496400000000000000000000600082015250565b6000613536601683612c0e565b915061354182613500565b602082019050919050565b6000602082019050818103600083015261356581613529565b9050919050565b7f4e487b7100000000000000000000000000000000000000000000000000000000600052603260045260246000fd5b6000815190506135aa81612d2f565b92915050565b6000602082840312156135c6576135c5612cf3565b5b60006135d48482850161359b565b91505092915050565b60006135e882612cb5565b91507fffffffffffffffffffffffffffffffffffffffffffffffffffffffffffffffff820361361a5761361961328b565b5b600182019050919050565b60006020828403121561363b5761363a612cf3565b5b60006136498482850161340b565b91505092915050565b7f4e46542d423a204e6f2068617665204e4654204220746f206465706f73697400600082015250565b6000613688601f83612c0e565b915061369382613652565b602082019050919050565b600060208201905081810360008301526136b78161367b565b9050919050565b60006060820190506136d36000830186613046565b6136e06020830185613046565b6136ed6040830184612cbf565b949350505050565b7f4552433230546f6b656e3a20696e73756666696369656e742062616c616e636560008201527f20696e20636f6e74726163740000000000000000000000000000000000000000602082015250565b6000613751602c83612c0e565b915061375c826136f5565b604082019050919050565b6000602082019050818103600083015261378081613744565b9050919050565b7f546f6b656e413a20596f752063616e2774207769746864726177206e6f770000600082015250565b60006137bd601e83612c0e565b91506137c882613787565b602082019050919050565b600060208201905081810360008301526137ec816137b0565b9050919050565b7f546f6b656e413a204e6f20686176652072657761726420746f2057697468647260008201527f6177207265776172640000000000000000000000000000000000000000000000602082015250565b600061384f602983612c0e565b915061385a826137f3565b604082019050919050565b6000602082019050818103600083015261387e81613842565b9050919050565b600060408201905061389a6000830185613046565b6138a76020830184612cbf565b9392505050565b6138b781612dc7565b81146138c257600080fd5b50565b6000815190506138d4816138ae565b92915050565b6000602082840312156138f0576138ef612cf3565b5b60006138fe848285016138c5565b91505092915050565b7f436c61696d205265776172643a204e6f20686176652072657761726421000000600082015250565b600061393d601d83612c0e565b915061394882613907565b602082019050919050565b6000602082019050818103600083015261396c81613930565b9050919050565b7f4e46542d423a204e6f206465706f736974000000000000000000000000000000600082015250565b60006139a9601183612c0e565b91506139b482613973565b602082019050919050565b600060208201905081810360008301526139d88161399c565b9050919050565b7f4e46542d423a20596f752063616e2774207769746864726177206e6f77000000600082015250565b6000613a15601d83612c0e565b9150613a20826139df565b602082019050919050565b60006020820190508181036000830152613a4481613a08565b9050919050565b7f4e487b7100000000000000000000000000000000000000000000000000000000600052603160045260246000fd5b600081905092915050565b7f4552433230546f6b656e3a2066617563657420616d6f756e7420746f6f206c6160008201527f7267652c206d61783a2000000000000000000000000000000000000000000000602082015250565b6000613ae1602a83613a7a565b9150613aec82613a85565b602a82019050919050565b6000613b0282612c03565b613b0c8185613a7a565b9350613b1c818560208601612c1f565b80840191505092915050565b6000613b3382613ad4565b9150613b3f8284613af7565b915081905092915050565b7f546f6b656e413a2066617563657420616d6f756e74206d75737420626520677260008201527f6561746572207468616e207a65726f0000000000000000000000000000000000602082015250565b6000613ba6602f83612c0e565b9150613bb182613b4a565b604082019050919050565b60006020820190508181036000830152613bd581613b99565b9050919050565b7f546f6b656e413a206465706f73697420616d6f756e74206d757374206265206760008201527f726561746572207468616e207a65726f00000000000000000000000000000000602082015250565b6000613c38603083612c0e565b9150613c4382613bdc565b604082019050919050565b60006020820190508181036000830152613c6781613c2b565b9050919050565b7f546f6b656e413a20696e73756666696369656e742062616c616e636520696e2060008201527f636f6e7472616374000000000000000000000000000000000000000000000000602082015250565b6000613cca602883612c0e565b9150613cd582613c6e565b604082019050919050565b60006020820190508181036000830152613cf981613cbd565b9050919050565b7f4e487b7100000000000000000000000000000000000000000000000000000000600052601260045260246000fd5b6000613d3a82612cb5565b9150613d4583612cb5565b925082613d5557613d54613d00565b5b828204905092915050565b6000606082019050613d756000830186613046565b613d826020830185612cbf565b613d8f6040830184612cbf565b94935050505056fea264697066735822122037bd51e65f5f86580442fe6bed41920822c6434cace4a1bdebb663535e5c0f4364736f6c63430008140033",
  "linkReferences": {},
  "deployedLinkReferences": {}
}