{
  "_format": "hh-sol-artifact-1",
  "contractName": "ContractHandle",
  "sourceName": "contracts/ContractHandle.sol",
  "abi": [
    {
      "inputs": [
        {
          "internalType": "contract TokenERC20",
          "name": "_tokenERC20",
          "type": "address"
        },
        {
          "internalType": "contract TokenERC721",
          "name": "_tokenERC721",
          "type": "address"
        }
      ],
      "stateMutability": "nonpayable",
      "type": "constructor"
    },
    {
      "inputs": [],
      "name": "MathOverflowedMulDiv",
      "type": "error"
    },
    {
      "inputs": [
        {
          "internalType": "address",
          "name": "owner",
          "type": "address"
        }
      ],
      "name": "OwnableInvalidOwner",
      "type": "error"
    },
    {
      "inputs": [
        {
          "internalType": "address",
          "name": "account",
          "type": "address"
        }
      ],
      "name": "OwnableUnauthorizedAccount",
      "type": "error"
    },
    {
      "inputs": [],
      "name": "ReentrancyGuardReentrantCall",
      "type": "error"
    },
    {
      "anonymous": false,
      "inputs": [
        {
          "indexed": true,
          "internalType": "address",
          "name": "previousOwner",
          "type": "address"
        },
        {
          "indexed": true,
          "internalType": "address",
          "name": "newOwner",
          "type": "address"
        }
      ],
      "name": "OwnershipTransferred",
      "type": "event"
    },
    {
      "anonymous": false,
      "inputs": [
        {
          "indexed": false,
          "internalType": "uint256",
          "name": "data",
          "type": "uint256"
        },
        {
          "indexed": false,
          "internalType": "address",
          "name": "_from",
          "type": "address"
        },
        {
          "indexed": false,
          "internalType": "address",
          "name": "_to",
          "type": "address"
        }
      ],
      "name": "getData",
      "type": "event"
    },
    {
      "inputs": [],
      "name": "MINIMUM_DEPOSIT_FOR_CERTIFICATE",
      "outputs": [
        {
          "internalType": "uint256",
          "name": "",
          "type": "uint256"
        }
      ],
      "stateMutability": "view",
      "type": "function"
    },
    {
      "inputs": [
        {
          "internalType": "address",
          "name": "_address",
          "type": "address"
        }
      ],
      "name": "balaceOfERC20",
      "outputs": [
        {
          "internalType": "uint256",
          "name": "",
          "type": "uint256"
        }
      ],
      "stateMutability": "view",
      "type": "function"
    },
    {
      "inputs": [],
      "name": "balaceOfERC20TotalSupply",
      "outputs": [
        {
          "internalType": "uint256",
          "name": "",
          "type": "uint256"
        }
      ],
      "stateMutability": "view",
      "type": "function"
    },
    {
      "inputs": [
        {
          "internalType": "address",
          "name": "_address",
          "type": "address"
        }
      ],
      "name": "balaceOfERC721",
      "outputs": [
        {
          "internalType": "uint256",
          "name": "",
          "type": "uint256"
        }
      ],
      "stateMutability": "view",
      "type": "function"
    },
    {
      "inputs": [],
      "name": "balaceOfERC721TotalSupply",
      "outputs": [
        {
          "internalType": "uint256",
          "name": "",
          "type": "uint256"
        }
      ],
      "stateMutability": "view",
      "type": "function"
    },
    {
      "inputs": [],
      "name": "baseAPR",
      "outputs": [
        {
          "internalType": "uint256",
          "name": "",
          "type": "uint256"
        }
      ],
      "stateMutability": "view",
      "type": "function"
    },
    {
      "inputs": [],
      "name": "bonusAPR",
      "outputs": [
        {
          "internalType": "uint256",
          "name": "",
          "type": "uint256"
        }
      ],
      "stateMutability": "view",
      "type": "function"
    },
    {
      "inputs": [],
      "name": "calculateRewardERC20",
      "outputs": [
        {
          "internalType": "uint256",
          "name": "",
          "type": "uint256"
        }
      ],
      "stateMutability": "view",
      "type": "function"
    },
    {
      "inputs": [],
      "name": "claimRewardERC20",
      "outputs": [],
      "stateMutability": "nonpayable",
      "type": "function"
    },
    {
      "inputs": [
        {
          "internalType": "uint256",
          "name": "_amount",
          "type": "uint256"
        }
      ],
      "name": "depositERC20",
      "outputs": [],
      "stateMutability": "nonpayable",
      "type": "function"
    },
    {
      "inputs": [
        {
          "internalType": "uint256[]",
          "name": "tokenIds",
          "type": "uint256[]"
        }
      ],
      "name": "depositNFTB",
      "outputs": [],
      "stateMutability": "nonpayable",
      "type": "function"
    },
    {
      "inputs": [
        {
          "internalType": "uint256",
          "name": "_amount",
          "type": "uint256"
        }
      ],
      "name": "faucetERC20",
      "outputs": [],
      "stateMutability": "nonpayable",
      "type": "function"
    },
    {
      "inputs": [],
      "name": "getCurrentRewardERC20",
      "outputs": [
        {
          "internalType": "uint256",
          "name": "",
          "type": "uint256"
        }
      ],
      "stateMutability": "view",
      "type": "function"
    },
    {
      "inputs": [
        {
          "internalType": "address",
          "name": "_address",
          "type": "address"
        }
      ],
      "name": "getOwnedNFTs",
      "outputs": [
        {
          "internalType": "uint256[]",
          "name": "",
          "type": "uint256[]"
        }
      ],
      "stateMutability": "view",
      "type": "function"
    },
    {
      "inputs": [
        {
          "internalType": "address",
          "name": "_address",
          "type": "address"
        }
      ],
      "name": "getStakingInfo",
      "outputs": [
        {
          "components": [
            {
              "internalType": "uint256",
              "name": "totalAmountERC20",
              "type": "uint256"
            },
            {
              "internalType": "uint256",
              "name": "APR",
              "type": "uint256"
            },
            {
              "internalType": "uint256",
              "name": "bonusAPR",
              "type": "uint256"
            },
            {
              "internalType": "uint256",
              "name": "startTimeDeposit",
              "type": "uint256"
            },
            {
              "internalType": "uint256",
              "name": "totalRewardERC20",
              "type": "uint256"
            },
            {
              "internalType": "uint256",
              "name": "mintNFTbCount",
              "type": "uint256"
            },
            {
              "internalType": "uint256",
              "name": "totalAmountERC721",
              "type": "uint256"
            },
            {
              "internalType": "uint256",
              "name": "startTimeDepositNFTB",
              "type": "uint256"
            },
            {
              "internalType": "uint256[]",
              "name": "tokenId",
              "type": "uint256[]"
            }
          ],
          "internalType": "struct ContractHandle.StakingInfo",
          "name": "",
          "type": "tuple"
        }
      ],
      "stateMutability": "view",
      "type": "function"
    },
    {
      "inputs": [],
      "name": "lockTime",
      "outputs": [
        {
          "internalType": "uint256",
          "name": "",
          "type": "uint256"
        }
      ],
      "stateMutability": "view",
      "type": "function"
    },
    {
      "inputs": [],
      "name": "owner",
      "outputs": [
        {
          "internalType": "address",
          "name": "",
          "type": "address"
        }
      ],
      "stateMutability": "view",
      "type": "function"
    },
    {
      "inputs": [],
      "name": "renounceOwnership",
      "outputs": [],
      "stateMutability": "nonpayable",
      "type": "function"
    },
    {
      "inputs": [
        {
          "internalType": "address",
          "name": "",
          "type": "address"
        }
      ],
      "name": "stakingInfo",
      "outputs": [
        {
          "internalType": "uint256",
          "name": "totalAmountERC20",
          "type": "uint256"
        },
        {
          "internalType": "uint256",
          "name": "APR",
          "type": "uint256"
        },
        {
          "internalType": "uint256",
          "name": "bonusAPR",
          "type": "uint256"
        },
        {
          "internalType": "uint256",
          "name": "startTimeDeposit",
          "type": "uint256"
        },
        {
          "internalType": "uint256",
          "name": "totalRewardERC20",
          "type": "uint256"
        },
        {
          "internalType": "uint256",
          "name": "mintNFTbCount",
          "type": "uint256"
        },
        {
          "internalType": "uint256",
          "name": "totalAmountERC721",
          "type": "uint256"
        },
        {
          "internalType": "uint256",
          "name": "startTimeDepositNFTB",
          "type": "uint256"
        }
      ],
      "stateMutability": "view",
      "type": "function"
    },
    {
      "inputs": [],
      "name": "tokenERC20",
      "outputs": [
        {
          "internalType": "contract TokenERC20",
          "name": "",
          "type": "address"
        }
      ],
      "stateMutability": "view",
      "type": "function"
    },
    {
      "inputs": [],
      "name": "tokenERC721",
      "outputs": [
        {
          "internalType": "contract TokenERC721",
          "name": "",
          "type": "address"
        }
      ],
      "stateMutability": "view",
      "type": "function"
    },
    {
      "inputs": [
        {
          "internalType": "address",
          "name": "newOwner",
          "type": "address"
        }
      ],
      "name": "transferOwnership",
      "outputs": [],
      "stateMutability": "nonpayable",
      "type": "function"
    },
    {
      "inputs": [
        {
          "internalType": "uint256",
          "name": "newBaseAPR",
          "type": "uint256"
        }
      ],
      "name": "updateAPR",
      "outputs": [],
      "stateMutability": "nonpayable",
      "type": "function"
    },
    {
      "inputs": [
        {
          "internalType": "uint256[]",
          "name": "tokenId",
          "type": "uint256[]"
        }
      ],
      "name": "withRewardNFTB",
      "outputs": [],
      "stateMutability": "nonpayable",
      "type": "function"
    },
    {
      "inputs": [],
      "name": "withdrawRewardERC20",
      "outputs": [],
      "stateMutability": "nonpayable",
      "type": "function"
    }
  ],
  "bytecode": "0x608060405261032060045560c8600555601e6006553480156200002157600080fd5b506040516200301e3803806200301e8339818101604052810190620000479190620002ea565b336001600081905550600073ffffffffffffffffffffffffffffffffffffffff168173ffffffffffffffffffffffffffffffffffffffff1603620000c55760006040517f1e4fbdf7000000000000000000000000000000000000000000000000000000008152600401620000bc919062000342565b60405180910390fd5b620000d6816200016160201b60201c565b5081600260006101000a81548173ffffffffffffffffffffffffffffffffffffffff021916908373ffffffffffffffffffffffffffffffffffffffff16021790555080600360006101000a81548173ffffffffffffffffffffffffffffffffffffffff021916908373ffffffffffffffffffffffffffffffffffffffff16021790555050506200035f565b6000600160009054906101000a900473ffffffffffffffffffffffffffffffffffffffff16905081600160006101000a81548173ffffffffffffffffffffffffffffffffffffffff021916908373ffffffffffffffffffffffffffffffffffffffff1602179055508173ffffffffffffffffffffffffffffffffffffffff168173ffffffffffffffffffffffffffffffffffffffff167f8be0079c531659141344cd1fd0a4f28419497f9722a3daafe3b4186f6b6457e060405160405180910390a35050565b600080fd5b600073ffffffffffffffffffffffffffffffffffffffff82169050919050565b600062000259826200022c565b9050919050565b60006200026d826200024c565b9050919050565b6200027f8162000260565b81146200028b57600080fd5b50565b6000815190506200029f8162000274565b92915050565b6000620002b2826200024c565b9050919050565b620002c481620002a5565b8114620002d057600080fd5b50565b600081519050620002e481620002b9565b92915050565b6000806040838503121562000304576200030362000227565b5b600062000314858286016200028e565b92505060206200032785828601620002d3565b9150509250929050565b6200033c816200024c565b82525050565b600060208201905062000359600083018462000331565b92915050565b612caf806200036f6000396000f3fe608060405234801561001057600080fd5b50600436106101735760003560e01c80638da5cb5b116100de578063b79092fd11610097578063de9ad13411610071578063de9ad134146103f9578063e7e2629e14610429578063e9adc77014610445578063f2fde38b1461046357610173565b8063b79092fd146103a1578063bcd19e70146103bd578063ce55f947146103db57610173565b80638da5cb5b146102c457806394eecb50146102e25780639b3a6c88146103195780639d143e8e14610335578063aa4704f314610353578063b3a36f1e1461038357610173565b806358ac0e801161013057806358ac0e80146102285780636014a449146102465780636a78c7d2146102505780637098692e1461026c578063715018a61461028a5780638cb8564d1461029457610173565b80630882e64e146101785780630d6680871461019657806318148f1b146101b457806336ed1f0d146101e45780634ca903ba14610200578063556e7cee1461021e575b600080fd5b61018061047f565b60405161018d9190611d13565b60405180910390f35b61019e610548565b6040516101ab9190611d13565b60405180910390f35b6101ce60048036038101906101c99190611da0565b61054e565b6040516101db9190611e8b565b60405180910390f35b6101fe60048036038101906101f99190611f12565b6105f8565b005b61020861096d565b6040516102159190611d13565b60405180910390f35b610226610a05565b005b610230610c54565b60405161023d9190611d13565b60405180910390f35b61024e610c5a565b005b61026a60048036038101906102659190611f12565b610da8565b005b610274611100565b6040516102819190611d13565b60405180910390f35b610292611161565b005b6102ae60048036038101906102a99190611da0565b611175565b6040516102bb9190611d13565b60405180910390f35b6102cc61121a565b6040516102d99190611f6e565b60405180910390f35b6102fc60048036038101906102f79190611da0565b611244565b604051610310989796959493929190611f89565b60405180910390f35b610333600480360381019061032e9190612033565b61128c565b005b61033d611361565b60405161034a91906120bf565b60405180910390f35b61036d60048036038101906103689190611da0565b611387565b60405161037a919061220e565b60405180910390f35b61038b611489565b6040516103989190611d13565b60405180910390f35b6103bb60048036038101906103b69190612033565b61148f565b005b6103c56117f9565b6040516103d29190611d13565b60405180910390f35b6103e3611891565b6040516103f09190611d13565b60405180910390f35b610413600480360381019061040e9190611da0565b61189f565b6040516104209190611d13565b60405180910390f35b610443600480360381019061043e9190612033565b611944565b005b61044d611956565b60405161045a9190612251565b60405180910390f35b61047d60048036038101906104789190611da0565b61197c565b005b600080600760003373ffffffffffffffffffffffffffffffffffffffff1673ffffffffffffffffffffffffffffffffffffffff1681526020019081526020016000209050600081600001549050600081036104df57600092505050610545565b600082600301549050600081036104fc5760009350505050610545565b6000814261050a919061229b565b9050600061053a856002015460045461052391906122cf565b8561052e9190612303565b83644979cb9e00611a02565b905080955050505050505b90565b60065481565b6060600360009054906101000a900473ffffffffffffffffffffffffffffffffffffffff1673ffffffffffffffffffffffffffffffffffffffff1663d9d61655836040518263ffffffff1660e01b81526004016105ab9190611f6e565b600060405180830381865afa1580156105c8573d6000803e3d6000fd5b505050506040513d6000823e3d601f19601f820116820180604052508101906105f191906124a9565b9050919050565b610600611b09565b60008282905011610646576040517f08c379a000000000000000000000000000000000000000000000000000000000815260040161063d9061254f565b60405180910390fd5b6000600760003373ffffffffffffffffffffffffffffffffffffffff1673ffffffffffffffffffffffffffffffffffffffff168152602001908152602001600020905060005b838390508110156107cc573373ffffffffffffffffffffffffffffffffffffffff16600360009054906101000a900473ffffffffffffffffffffffffffffffffffffffff1673ffffffffffffffffffffffffffffffffffffffff16636352211e8686858181106106ff576106fe61256f565b5b905060200201356040518263ffffffff1660e01b81526004016107229190611d13565b602060405180830381865afa15801561073f573d6000803e3d6000fd5b505050506040513d601f19601f8201168201806040525081019061076391906125b3565b73ffffffffffffffffffffffffffffffffffffffff16146107b9576040517f08c379a00000000000000000000000000000000000000000000000000000000081526004016107b09061262c565b60405180910390fd5b80806107c49061264c565b91505061068c565b5060005b838390508110156108dc57600360009054906101000a900473ffffffffffffffffffffffffffffffffffffffff1673ffffffffffffffffffffffffffffffffffffffff16639e872ce9333087878681811061082e5761082d61256f565b5b905060200201356040518463ffffffff1660e01b815260040161085393929190612694565b600060405180830381600087803b15801561086d57600080fd5b505af1158015610881573d6000803e3d6000fd5b505050508160080184848381811061089c5761089b61256f565b5b90506020020135908060018154018082558091505060019003906000526020600020016000909190919091505580806108d49061264c565b9150506107d0565b506108e561047f565b8160040160008282546108f891906122cf565b925050819055504281600301819055508282905081600601600082825461091f91906122cf565b925050819055504281600701819055506000838390506005546109429190612303565b90508082600201600082825461095891906122cf565b925050819055505050610969611b4f565b5050565b6000600360009054906101000a900473ffffffffffffffffffffffffffffffffffffffff1673ffffffffffffffffffffffffffffffffffffffff166322a579cb6040518163ffffffff1660e01b8152600401602060405180830381865afa1580156109dc573d6000803e3d6000fd5b505050506040513d601f19601f82011682018060405250810190610a0091906126cb565b905090565b6000600760003373ffffffffffffffffffffffffffffffffffffffff1673ffffffffffffffffffffffffffffffffffffffff16815260200190815260200160002090506006548160030154610a5a91906122cf565b421015610a9c576040517f08c379a0000000000000000000000000000000000000000000000000000000008152600401610a9390612744565b60405180910390fd5b6000816000015411610ae3576040517f08c379a0000000000000000000000000000000000000000000000000000000008152600401610ada906127d6565b60405180910390fd5b6000610aed61047f565b8260040154610afc91906122cf565b9050600260009054906101000a900473ffffffffffffffffffffffffffffffffffffffff1673ffffffffffffffffffffffffffffffffffffffff1663a9059cbb3384600001546040518363ffffffff1660e01b8152600401610b5f9291906127f6565b6020604051808303816000875af1158015610b7e573d6000803e3d6000fd5b505050506040513d601f19601f82011682018060405250810190610ba29190612857565b50600260009054906101000a900473ffffffffffffffffffffffffffffffffffffffff1673ffffffffffffffffffffffffffffffffffffffff1663499ff3ef33836040518363ffffffff1660e01b8152600401610c009291906127f6565b600060405180830381600087803b158015610c1a57600080fd5b505af1158015610c2e573d6000803e3d6000fd5b505050506000826000018190555060008260040181905550600082600301819055505050565b60045481565b6000600760003373ffffffffffffffffffffffffffffffffffffffff1673ffffffffffffffffffffffffffffffffffffffff16815260200190815260200160002090506000610ca761047f565b11610ce7576040517f08c379a0000000000000000000000000000000000000000000000000000000008152600401610cde906128d0565b60405180910390fd5b6000610cf161047f565b8260040154610d0091906122cf565b9050600260009054906101000a900473ffffffffffffffffffffffffffffffffffffffff1673ffffffffffffffffffffffffffffffffffffffff1663499ff3ef33836040518363ffffffff1660e01b8152600401610d5f9291906127f6565b600060405180830381600087803b158015610d7957600080fd5b505af1158015610d8d573d6000803e3d6000fd5b50505050600082600401819055504282600301819055505050565b60008282905011610dee576040517f08c379a0000000000000000000000000000000000000000000000000000000008152600401610de59061293c565b60405180910390fd5b6000600760003373ffffffffffffffffffffffffffffffffffffffff1673ffffffffffffffffffffffffffffffffffffffff16815260200190815260200160002090506000816006015411610e78576040517f08c379a0000000000000000000000000000000000000000000000000000000008152600401610e6f906129a8565b60405180910390fd5b6006548160030154610e8a91906122cf565b421015610ecc576040517f08c379a0000000000000000000000000000000000000000000000000000000008152600401610ec390612a14565b60405180910390fd5b60005b83839050811015611077576000848483818110610eef57610eee61256f565b5b9050602002013590506000805b84600801805490508110156110615782856008018281548110610f2257610f2161256f565b5b90600052602060002001540361104e57600360009054906101000a900473ffffffffffffffffffffffffffffffffffffffff1673ffffffffffffffffffffffffffffffffffffffff16639e872ce93033866040518463ffffffff1660e01b8152600401610f9193929190612694565b600060405180830381600087803b158015610fab57600080fd5b505af1158015610fbf573d6000803e3d6000fd5b505050508460080160018660080180549050610fdb919061229b565b81548110610fec57610feb61256f565b5b906000526020600020015485600801828154811061100d5761100c61256f565b5b90600052602060002001819055508460080180548061102f5761102e612a34565b5b6001900381819060005260206000200160009055905560019150611061565b80806110599061264c565b915050610efc565b505050808061106f9061264c565b915050610ecf565b508282905081600601600082825461108f919061229b565b9250508190555061109e61047f565b8160040160008282546110b191906122cf565b925050819055504281600301819055504281600701819055506000838390506005546110dd9190612303565b9050808260020160008282546110f3919061229b565b9250508190555050505050565b60008061110b61047f565b600760003373ffffffffffffffffffffffffffffffffffffffff1673ffffffffffffffffffffffffffffffffffffffff1681526020019081526020016000206004015461115891906122cf565b90508091505090565b611169611b59565b6111736000611be0565b565b6000600260009054906101000a900473ffffffffffffffffffffffffffffffffffffffff1673ffffffffffffffffffffffffffffffffffffffff166370a08231836040518263ffffffff1660e01b81526004016111d29190611f6e565b602060405180830381865afa1580156111ef573d6000803e3d6000fd5b505050506040513d601f19601f8201168201806040525081019061121391906126cb565b9050919050565b6000600160009054906101000a900473ffffffffffffffffffffffffffffffffffffffff16905090565b60076020528060005260406000206000915090508060000154908060010154908060020154908060030154908060040154908060050154908060060154908060070154905088565b600081116112cf576040517f08c379a00000000000000000000000000000000000000000000000000000000081526004016112c690612ad5565b60405180910390fd5b600260009054906101000a900473ffffffffffffffffffffffffffffffffffffffff1673ffffffffffffffffffffffffffffffffffffffff16637b56c2b233836040518363ffffffff1660e01b815260040161132c9291906127f6565b600060405180830381600087803b15801561134657600080fd5b505af115801561135a573d6000803e3d6000fd5b5050505050565b600260009054906101000a900473ffffffffffffffffffffffffffffffffffffffff1681565b61138f611cae565b600760008373ffffffffffffffffffffffffffffffffffffffff1673ffffffffffffffffffffffffffffffffffffffff1681526020019081526020016000206040518061012001604052908160008201548152602001600182015481526020016002820154815260200160038201548152602001600482015481526020016005820154815260200160068201548152602001600782015481526020016008820180548060200260200160405190810160405280929190818152602001828054801561147957602002820191906000526020600020905b815481526020019060010190808311611465575b5050505050815250509050919050565b60055481565b611497611b09565b6000600760003373ffffffffffffffffffffffffffffffffffffffff1673ffffffffffffffffffffffffffffffffffffffff16815260200190815260200160002090506000821161151d576040517f08c379a000000000000000000000000000000000000000000000000000000000815260040161151490612b67565b60405180910390fd5b81600260009054906101000a900473ffffffffffffffffffffffffffffffffffffffff1673ffffffffffffffffffffffffffffffffffffffff166370a08231336040518263ffffffff1660e01b81526004016115799190611f6e565b602060405180830381865afa158015611596573d6000803e3d6000fd5b505050506040513d601f19601f820116820180604052508101906115ba91906126cb565b10156115fb576040517f08c379a00000000000000000000000000000000000000000000000000000000081526004016115f290612bf9565b60405180910390fd5b600081600301541461163057600061161161047f565b90508082600401600082825461162791906122cf565b92505081905550505b428160030181905550600260009054906101000a900473ffffffffffffffffffffffffffffffffffffffff1673ffffffffffffffffffffffffffffffffffffffff166323b872dd3330856040518463ffffffff1660e01b815260040161169893929190612694565b6020604051808303816000875af11580156116b7573d6000803e3d6000fd5b505050506040513d601f19601f820116820180604052508101906116db9190612857565b50818160000160008282546116f091906122cf565b925050819055506000816005015469d3c21bcecceda100000083600001546117189190612c48565b611722919061229b565b905060005b818110156117eb57600360009054906101000a900473ffffffffffffffffffffffffffffffffffffffff1673ffffffffffffffffffffffffffffffffffffffff16636a627842336040518263ffffffff1660e01b815260040161178a9190611f6e565b600060405180830381600087803b1580156117a457600080fd5b505af11580156117b8573d6000803e3d6000fd5b5050505060018360050160008282546117d191906122cf565b9250508190555080806117e39061264c565b915050611727565b5050506117f6611b4f565b50565b6000600260009054906101000a900473ffffffffffffffffffffffffffffffffffffffff1673ffffffffffffffffffffffffffffffffffffffff1663ba94f61b6040518163ffffffff1660e01b8152600401602060405180830381865afa158015611868573d6000803e3d6000fd5b505050506040513d601f19601f8201168201806040525081019061188c91906126cb565b905090565b69d3c21bcecceda100000081565b6000600360009054906101000a900473ffffffffffffffffffffffffffffffffffffffff1673ffffffffffffffffffffffffffffffffffffffff166370a08231836040518263ffffffff1660e01b81526004016118fc9190611f6e565b602060405180830381865afa158015611919573d6000803e3d6000fd5b505050506040513d601f19601f8201168201806040525081019061193d91906126cb565b9050919050565b61194c611b59565b8060048190555050565b600360009054906101000a900473ffffffffffffffffffffffffffffffffffffffff1681565b611984611b59565b600073ffffffffffffffffffffffffffffffffffffffff168173ffffffffffffffffffffffffffffffffffffffff16036119f65760006040517f1e4fbdf70000000000000000000000000000000000000000000000000000000081526004016119ed9190611f6e565b60405180910390fd5b6119ff81611be0565b50565b6000808385029050600080198587098281108382030391505060008103611a3d57838281611a3357611a32612c19565b5b0492505050611b02565b808411611a76576040517f227bc15300000000000000000000000000000000000000000000000000000000815260040160405180910390fd5b600084868809905082811182039150808303925060008560000386169050808604955080840493506001818260000304019050808302841793506000600287600302189050808702600203810290508087026002038102905080870260020381029050808702600203810290508087026002038102905080870260020381029050808502955050505050505b9392505050565b600260005403611b45576040517f3ee5aeb500000000000000000000000000000000000000000000000000000000815260040160405180910390fd5b6002600081905550565b6001600081905550565b611b61611ca6565b73ffffffffffffffffffffffffffffffffffffffff16611b7f61121a565b73ffffffffffffffffffffffffffffffffffffffff1614611bde57611ba2611ca6565b6040517f118cdaa7000000000000000000000000000000000000000000000000000000008152600401611bd59190611f6e565b60405180910390fd5b565b6000600160009054906101000a900473ffffffffffffffffffffffffffffffffffffffff16905081600160006101000a81548173ffffffffffffffffffffffffffffffffffffffff021916908373ffffffffffffffffffffffffffffffffffffffff1602179055508173ffffffffffffffffffffffffffffffffffffffff168173ffffffffffffffffffffffffffffffffffffffff167f8be0079c531659141344cd1fd0a4f28419497f9722a3daafe3b4186f6b6457e060405160405180910390a35050565b600033905090565b6040518061012001604052806000815260200160008152602001600081526020016000815260200160008152602001600081526020016000815260200160008152602001606081525090565b6000819050919050565b611d0d81611cfa565b82525050565b6000602082019050611d286000830184611d04565b92915050565b6000604051905090565b600080fd5b600080fd5b600073ffffffffffffffffffffffffffffffffffffffff82169050919050565b6000611d6d82611d42565b9050919050565b611d7d81611d62565b8114611d8857600080fd5b50565b600081359050611d9a81611d74565b92915050565b600060208284031215611db657611db5611d38565b5b6000611dc484828501611d8b565b91505092915050565b600081519050919050565b600082825260208201905092915050565b6000819050602082019050919050565b611e0281611cfa565b82525050565b6000611e148383611df9565b60208301905092915050565b6000602082019050919050565b6000611e3882611dcd565b611e428185611dd8565b9350611e4d83611de9565b8060005b83811015611e7e578151611e658882611e08565b9750611e7083611e20565b925050600181019050611e51565b5085935050505092915050565b60006020820190508181036000830152611ea58184611e2d565b905092915050565b600080fd5b600080fd5b600080fd5b60008083601f840112611ed257611ed1611ead565b5b8235905067ffffffffffffffff811115611eef57611eee611eb2565b5b602083019150836020820283011115611f0b57611f0a611eb7565b5b9250929050565b60008060208385031215611f2957611f28611d38565b5b600083013567ffffffffffffffff811115611f4757611f46611d3d565b5b611f5385828601611ebc565b92509250509250929050565b611f6881611d62565b82525050565b6000602082019050611f836000830184611f5f565b92915050565b600061010082019050611f9f600083018b611d04565b611fac602083018a611d04565b611fb96040830189611d04565b611fc66060830188611d04565b611fd36080830187611d04565b611fe060a0830186611d04565b611fed60c0830185611d04565b611ffa60e0830184611d04565b9998505050505050505050565b61201081611cfa565b811461201b57600080fd5b50565b60008135905061202d81612007565b92915050565b60006020828403121561204957612048611d38565b5b60006120578482850161201e565b91505092915050565b6000819050919050565b600061208561208061207b84611d42565b612060565b611d42565b9050919050565b60006120978261206a565b9050919050565b60006120a98261208c565b9050919050565b6120b98161209e565b82525050565b60006020820190506120d460008301846120b0565b92915050565b600082825260208201905092915050565b60006120f682611dcd565b61210081856120da565b935061210b83611de9565b8060005b8381101561213c5781516121238882611e08565b975061212e83611e20565b92505060018101905061210f565b5085935050505092915050565b6000610120830160008301516121626000860182611df9565b5060208301516121756020860182611df9565b5060408301516121886040860182611df9565b50606083015161219b6060860182611df9565b5060808301516121ae6080860182611df9565b5060a08301516121c160a0860182611df9565b5060c08301516121d460c0860182611df9565b5060e08301516121e760e0860182611df9565b5061010083015184820361010086015261220182826120eb565b9150508091505092915050565b600060208201905081810360008301526122288184612149565b905092915050565b600061223b8261208c565b9050919050565b61224b81612230565b82525050565b60006020820190506122666000830184612242565b92915050565b7f4e487b7100000000000000000000000000000000000000000000000000000000600052601160045260246000fd5b60006122a682611cfa565b91506122b183611cfa565b92508282039050818111156122c9576122c861226c565b5b92915050565b60006122da82611cfa565b91506122e583611cfa565b92508282019050808211156122fd576122fc61226c565b5b92915050565b600061230e82611cfa565b915061231983611cfa565b925082820261232781611cfa565b9150828204841483151761233e5761233d61226c565b5b5092915050565b6000601f19601f8301169050919050565b7f4e487b7100000000000000000000000000000000000000000000000000000000600052604160045260246000fd5b61238e82612345565b810181811067ffffffffffffffff821117156123ad576123ac612356565b5b80604052505050565b60006123c0611d2e565b90506123cc8282612385565b919050565b600067ffffffffffffffff8211156123ec576123eb612356565b5b602082029050602081019050919050565b60008151905061240c81612007565b92915050565b6000612425612420846123d1565b6123b6565b9050808382526020820190506020840283018581111561244857612447611eb7565b5b835b81811015612471578061245d88826123fd565b84526020840193505060208101905061244a565b5050509392505050565b600082601f8301126124905761248f611ead565b5b81516124a0848260208601612412565b91505092915050565b6000602082840312156124bf576124be611d38565b5b600082015167ffffffffffffffff8111156124dd576124dc611d3d565b5b6124e98482850161247b565b91505092915050565b600082825260208201905092915050565b7f4e46542d423a204e6f20746f6b656e204944732070726f766964656400000000600082015250565b6000612539601c836124f2565b915061254482612503565b602082019050919050565b600060208201905081810360008301526125688161252c565b9050919050565b7f4e487b7100000000000000000000000000000000000000000000000000000000600052603260045260246000fd5b6000815190506125ad81611d74565b92915050565b6000602082840312156125c9576125c8611d38565b5b60006125d78482850161259e565b91505092915050565b7f4e46542d423a204e6f74206f776e6572206f6620746f6b656e20494400000000600082015250565b6000612616601c836124f2565b9150612621826125e0565b602082019050919050565b6000602082019050818103600083015261264581612609565b9050919050565b600061265782611cfa565b91507fffffffffffffffffffffffffffffffffffffffffffffffffffffffffffffffff82036126895761268861226c565b5b600182019050919050565b60006060820190506126a96000830186611f5f565b6126b66020830185611f5f565b6126c36040830184611d04565b949350505050565b6000602082840312156126e1576126e0611d38565b5b60006126ef848285016123fd565b91505092915050565b7f546f6b656e413a20596f752063616e2774207769746864726177206e6f770000600082015250565b600061272e601e836124f2565b9150612739826126f8565b602082019050919050565b6000602082019050818103600083015261275d81612721565b9050919050565b7f546f6b656e413a204e6f20686176652072657761726420746f2057697468647260008201527f6177207265776172640000000000000000000000000000000000000000000000602082015250565b60006127c06029836124f2565b91506127cb82612764565b604082019050919050565b600060208201905081810360008301526127ef816127b3565b9050919050565b600060408201905061280b6000830185611f5f565b6128186020830184611d04565b9392505050565b60008115159050919050565b6128348161281f565b811461283f57600080fd5b50565b6000815190506128518161282b565b92915050565b60006020828403121561286d5761286c611d38565b5b600061287b84828501612842565b91505092915050565b7f436c61696d205265776172643a204e6f20686176652072657761726421000000600082015250565b60006128ba601d836124f2565b91506128c582612884565b602082019050919050565b600060208201905081810360008301526128e9816128ad565b9050919050565b7f4e46542d423a20496e76616c696420746f6b656e496400000000000000000000600082015250565b60006129266016836124f2565b9150612931826128f0565b602082019050919050565b6000602082019050818103600083015261295581612919565b9050919050565b7f4e46542d423a204e6f206465706f736974000000000000000000000000000000600082015250565b60006129926011836124f2565b915061299d8261295c565b602082019050919050565b600060208201905081810360008301526129c181612985565b9050919050565b7f4e46542d423a20596f752063616e2774207769746864726177206e6f77000000600082015250565b60006129fe601d836124f2565b9150612a09826129c8565b602082019050919050565b60006020820190508181036000830152612a2d816129f1565b9050919050565b7f4e487b7100000000000000000000000000000000000000000000000000000000600052603160045260246000fd5b7f546f6b656e413a2066617563657420616d6f756e74206d75737420626520677260008201527f6561746572207468616e207a65726f0000000000000000000000000000000000602082015250565b6000612abf602f836124f2565b9150612aca82612a63565b604082019050919050565b60006020820190508181036000830152612aee81612ab2565b9050919050565b7f546f6b656e413a206465706f73697420616d6f756e74206d757374206265206760008201527f726561746572207468616e207a65726f00000000000000000000000000000000602082015250565b6000612b516030836124f2565b9150612b5c82612af5565b604082019050919050565b60006020820190508181036000830152612b8081612b44565b9050919050565b7f546f6b656e413a20696e73756666696369656e742062616c616e636520696e2060008201527f636f6e7472616374000000000000000000000000000000000000000000000000602082015250565b6000612be36028836124f2565b9150612bee82612b87565b604082019050919050565b60006020820190508181036000830152612c1281612bd6565b9050919050565b7f4e487b7100000000000000000000000000000000000000000000000000000000600052601260045260246000fd5b6000612c5382611cfa565b9150612c5e83611cfa565b925082612c6e57612c6d612c19565b5b82820490509291505056fea2646970667358221220fcc9b4046d6681a6eb59324f8638dc73a6614b25ae2664a63db58a83de2e6c5264736f6c63430008140033",
  "linkReferences": {},
  "deployedLinkReferences": {}
}