{
  "_format": "hh-sol-artifact-1",
  "contractName": "TokenERC721",
  "sourceName": "contracts/TokenERC721.sol",
  "abi": [
    {
      "inputs": [],
      "stateMutability": "nonpayable",
      "type": "constructor"
    },
    {
      "inputs": [
        {
          "internalType": "address",
          "name": "sender",
          "type": "address"
        },
        {
          "internalType": "uint256",
          "name": "tokenId",
          "type": "uint256"
        },
        {
          "internalType": "address",
          "name": "owner",
          "type": "address"
        }
      ],
      "name": "ERC721IncorrectOwner",
      "type": "error"
    },
    {
      "inputs": [
        {
          "internalType": "address",
          "name": "operator",
          "type": "address"
        },
        {
          "internalType": "uint256",
          "name": "tokenId",
          "type": "uint256"
        }
      ],
      "name": "ERC721InsufficientApproval",
      "type": "error"
    },
    {
      "inputs": [
        {
          "internalType": "address",
          "name": "approver",
          "type": "address"
        }
      ],
      "name": "ERC721InvalidApprover",
      "type": "error"
    },
    {
      "inputs": [
        {
          "internalType": "address",
          "name": "operator",
          "type": "address"
        }
      ],
      "name": "ERC721InvalidOperator",
      "type": "error"
    },
    {
      "inputs": [
        {
          "internalType": "address",
          "name": "owner",
          "type": "address"
        }
      ],
      "name": "ERC721InvalidOwner",
      "type": "error"
    },
    {
      "inputs": [
        {
          "internalType": "address",
          "name": "receiver",
          "type": "address"
        }
      ],
      "name": "ERC721InvalidReceiver",
      "type": "error"
    },
    {
      "inputs": [
        {
          "internalType": "address",
          "name": "sender",
          "type": "address"
        }
      ],
      "name": "ERC721InvalidSender",
      "type": "error"
    },
    {
      "inputs": [
        {
          "internalType": "uint256",
          "name": "tokenId",
          "type": "uint256"
        }
      ],
      "name": "ERC721NonexistentToken",
      "type": "error"
    },
    {
      "anonymous": false,
      "inputs": [
        {
          "indexed": true,
          "internalType": "address",
          "name": "owner",
          "type": "address"
        },
        {
          "indexed": true,
          "internalType": "address",
          "name": "approved",
          "type": "address"
        },
        {
          "indexed": true,
          "internalType": "uint256",
          "name": "tokenId",
          "type": "uint256"
        }
      ],
      "name": "Approval",
      "type": "event"
    },
    {
      "anonymous": false,
      "inputs": [
        {
          "indexed": true,
          "internalType": "address",
          "name": "owner",
          "type": "address"
        },
        {
          "indexed": true,
          "internalType": "address",
          "name": "operator",
          "type": "address"
        },
        {
          "indexed": false,
          "internalType": "bool",
          "name": "approved",
          "type": "bool"
        }
      ],
      "name": "ApprovalForAll",
      "type": "event"
    },
    {
      "anonymous": false,
      "inputs": [
        {
          "indexed": true,
          "internalType": "address",
          "name": "from",
          "type": "address"
        },
        {
          "indexed": true,
          "internalType": "address",
          "name": "to",
          "type": "address"
        },
        {
          "indexed": true,
          "internalType": "uint256",
          "name": "tokenId",
          "type": "uint256"
        }
      ],
      "name": "Transfer",
      "type": "event"
    },
    {
      "inputs": [
        {
          "internalType": "address",
          "name": "to",
          "type": "address"
        },
        {
          "internalType": "uint256",
          "name": "tokenId",
          "type": "uint256"
        }
      ],
      "name": "approve",
      "outputs": [],
      "stateMutability": "nonpayable",
      "type": "function"
    },
    {
      "inputs": [
        {
          "internalType": "address",
          "name": "owner",
          "type": "address"
        }
      ],
      "name": "balanceOf",
      "outputs": [
        {
          "internalType": "uint256",
          "name": "",
          "type": "uint256"
        }
      ],
      "stateMutability": "view",
      "type": "function"
    },
    {
      "inputs": [],
      "name": "balanceOfTokenERC721",
      "outputs": [
        {
          "internalType": "uint256",
          "name": "",
          "type": "uint256"
        }
      ],
      "stateMutability": "view",
      "type": "function"
    },
    {
      "inputs": [
        {
          "internalType": "uint256",
          "name": "tokenId",
          "type": "uint256"
        }
      ],
      "name": "getApproved",
      "outputs": [
        {
          "internalType": "address",
          "name": "",
          "type": "address"
        }
      ],
      "stateMutability": "view",
      "type": "function"
    },
    {
      "inputs": [
        {
          "internalType": "address",
          "name": "owner",
          "type": "address"
        }
      ],
      "name": "getOwnedTokens",
      "outputs": [
        {
          "internalType": "uint256[]",
          "name": "",
          "type": "uint256[]"
        }
      ],
      "stateMutability": "view",
      "type": "function"
    },
    {
      "inputs": [
        {
          "internalType": "address",
          "name": "owner",
          "type": "address"
        },
        {
          "internalType": "address",
          "name": "operator",
          "type": "address"
        }
      ],
      "name": "isApprovedForAll",
      "outputs": [
        {
          "internalType": "bool",
          "name": "",
          "type": "bool"
        }
      ],
      "stateMutability": "view",
      "type": "function"
    },
    {
      "inputs": [],
      "name": "name",
      "outputs": [
        {
          "internalType": "string",
          "name": "",
          "type": "string"
        }
      ],
      "stateMutability": "view",
      "type": "function"
    },
    {
      "inputs": [],
      "name": "nextTokenId",
      "outputs": [
        {
          "internalType": "uint256",
          "name": "",
          "type": "uint256"
        }
      ],
      "stateMutability": "view",
      "type": "function"
    },
    {
      "inputs": [
        {
          "internalType": "uint256",
          "name": "tokenId",
          "type": "uint256"
        }
      ],
      "name": "ownerOf",
      "outputs": [
        {
          "internalType": "address",
          "name": "",
          "type": "address"
        }
      ],
      "stateMutability": "view",
      "type": "function"
    },
    {
      "inputs": [
        {
          "internalType": "address",
          "name": "to",
          "type": "address"
        }
      ],
      "name": "safeMint",
      "outputs": [
        {
          "internalType": "uint256",
          "name": "",
          "type": "uint256"
        }
      ],
      "stateMutability": "nonpayable",
      "type": "function"
    },
    {
      "inputs": [
        {
          "internalType": "address",
          "name": "from",
          "type": "address"
        },
        {
          "internalType": "address",
          "name": "to",
          "type": "address"
        },
        {
          "internalType": "uint256",
          "name": "tokenId",
          "type": "uint256"
        }
      ],
      "name": "safeTransferFrom",
      "outputs": [],
      "stateMutability": "nonpayable",
      "type": "function"
    },
    {
      "inputs": [
        {
          "internalType": "address",
          "name": "from",
          "type": "address"
        },
        {
          "internalType": "address",
          "name": "to",
          "type": "address"
        },
        {
          "internalType": "uint256",
          "name": "tokenId",
          "type": "uint256"
        },
        {
          "internalType": "bytes",
          "name": "data",
          "type": "bytes"
        }
      ],
      "name": "safeTransferFrom",
      "outputs": [],
      "stateMutability": "nonpayable",
      "type": "function"
    },
    {
      "inputs": [
        {
          "internalType": "address",
          "name": "operator",
          "type": "address"
        },
        {
          "internalType": "bool",
          "name": "approved",
          "type": "bool"
        }
      ],
      "name": "setApprovalForAll",
      "outputs": [],
      "stateMutability": "nonpayable",
      "type": "function"
    },
    {
      "inputs": [
        {
          "internalType": "bytes4",
          "name": "interfaceId",
          "type": "bytes4"
        }
      ],
      "name": "supportsInterface",
      "outputs": [
        {
          "internalType": "bool",
          "name": "",
          "type": "bool"
        }
      ],
      "stateMutability": "view",
      "type": "function"
    },
    {
      "inputs": [],
      "name": "symbol",
      "outputs": [
        {
          "internalType": "string",
          "name": "",
          "type": "string"
        }
      ],
      "stateMutability": "view",
      "type": "function"
    },
    {
      "inputs": [
        {
          "internalType": "uint256",
          "name": "tokenId",
          "type": "uint256"
        }
      ],
      "name": "tokenURI",
      "outputs": [
        {
          "internalType": "string",
          "name": "",
          "type": "string"
        }
      ],
      "stateMutability": "view",
      "type": "function"
    },
    {
      "inputs": [
        {
          "internalType": "address",
          "name": "from",
          "type": "address"
        },
        {
          "internalType": "address",
          "name": "to",
          "type": "address"
        },
        {
          "internalType": "uint256",
          "name": "tokenId",
          "type": "uint256"
        }
      ],
      "name": "transferAndUpdateTokens",
      "outputs": [],
      "stateMutability": "nonpayable",
      "type": "function"
    },
    {
      "inputs": [
        {
          "internalType": "address",
          "name": "from",
          "type": "address"
        },
        {
          "internalType": "address",
          "name": "to",
          "type": "address"
        },
        {
          "internalType": "uint256",
          "name": "tokenId",
          "type": "uint256"
        }
      ],
      "name": "transferFrom",
      "outputs": [],
      "stateMutability": "nonpayable",
      "type": "function"
    }
  ],
  "bytecode": "0x60806040523480156200001157600080fd5b506040518060400160405280600581526020017f4e46542d420000000000000000000000000000000000000000000000000000008152506040518060400160405280600681526020017f455243373231000000000000000000000000000000000000000000000000000081525081600090816200008f919062000324565b508060019081620000a1919062000324565b5050506200040b565b600081519050919050565b7f4e487b7100000000000000000000000000000000000000000000000000000000600052604160045260246000fd5b7f4e487b7100000000000000000000000000000000000000000000000000000000600052602260045260246000fd5b600060028204905060018216806200012c57607f821691505b602082108103620001425762000141620000e4565b5b50919050565b60008190508160005260206000209050919050565b60006020601f8301049050919050565b600082821b905092915050565b600060088302620001ac7fffffffffffffffffffffffffffffffffffffffffffffffffffffffffffffffff826200016d565b620001b886836200016d565b95508019841693508086168417925050509392505050565b6000819050919050565b6000819050919050565b600062000205620001ff620001f984620001d0565b620001da565b620001d0565b9050919050565b6000819050919050565b6200022183620001e4565b6200023962000230826200020c565b8484546200017a565b825550505050565b600090565b6200025062000241565b6200025d81848462000216565b505050565b5b8181101562000285576200027960008262000246565b60018101905062000263565b5050565b601f821115620002d4576200029e8162000148565b620002a9846200015d565b81016020851015620002b9578190505b620002d1620002c8856200015d565b83018262000262565b50505b505050565b600082821c905092915050565b6000620002f960001984600802620002d9565b1980831691505092915050565b6000620003148383620002e6565b9150826002028217905092915050565b6200032f82620000aa565b67ffffffffffffffff8111156200034b576200034a620000b5565b5b62000357825462000113565b6200036482828562000289565b600060209050601f8311600181146200039c576000841562000387578287015190505b62000393858262000306565b86555062000403565b601f198416620003ac8662000148565b60005b82811015620003d657848901518255600182019150602085019450602081019050620003af565b86831015620003f65784890151620003f2601f891682620002e6565b8355505b6001600288020188555050505b505050505050565b6124b5806200041b6000396000f3fe608060405234801561001057600080fd5b50600436106101165760003560e01c806370a08231116100a2578063a22cb46511610071578063a22cb465146102f3578063b88d4fde1461030f578063c87b56dd1461032b578063d9d616551461035b578063e985e9c51461038b57610116565b806370a082311461026b57806375794a3c1461029b57806395d89b41146102b95780639e872ce9146102d757610116565b806322a579cb116100e957806322a579cb146101b557806323b872dd146101d357806340d097c3146101ef57806342842e0e1461021f5780636352211e1461023b57610116565b806301ffc9a71461011b57806306fdde031461014b578063081812fc14610169578063095ea7b314610199575b600080fd5b61013560048036038101906101309190611a50565b6103bb565b6040516101429190611a98565b60405180910390f35b61015361049d565b6040516101609190611b43565b60405180910390f35b610183600480360381019061017e9190611b9b565b61052f565b6040516101909190611c09565b60405180910390f35b6101b360048036038101906101ae9190611c50565b61054b565b005b6101bd610561565b6040516101ca9190611c9f565b60405180910390f35b6101ed60048036038101906101e89190611cba565b610571565b005b61020960048036038101906102049190611d0d565b610673565b6040516102169190611c9f565b60405180910390f35b61023960048036038101906102349190611cba565b61070e565b005b61025560048036038101906102509190611b9b565b61072e565b6040516102629190611c09565b60405180910390f35b61028560048036038101906102809190611d0d565b610740565b6040516102929190611c9f565b60405180910390f35b6102a36107fa565b6040516102b09190611c9f565b60405180910390f35b6102c1610800565b6040516102ce9190611b43565b60405180910390f35b6102f160048036038101906102ec9190611cba565b610892565b005b61030d60048036038101906103089190611d66565b610988565b005b61032960048036038101906103249190611edb565b61099e565b005b61034560048036038101906103409190611b9b565b6109bb565b6040516103529190611b43565b60405180910390f35b61037560048036038101906103709190611d0d565b610a24565b604051610382919061201c565b60405180910390f35b6103a560048036038101906103a0919061203e565b610abb565b6040516103b29190611a98565b60405180910390f35b60007f80ac58cd000000000000000000000000000000000000000000000000000000007bffffffffffffffffffffffffffffffffffffffffffffffffffffffff1916827bffffffffffffffffffffffffffffffffffffffffffffffffffffffff1916148061048657507f5b5e139f000000000000000000000000000000000000000000000000000000007bffffffffffffffffffffffffffffffffffffffffffffffffffffffff1916827bffffffffffffffffffffffffffffffffffffffffffffffffffffffff1916145b80610496575061049582610b4f565b5b9050919050565b6060600080546104ac906120ad565b80601f01602080910402602001604051908101604052809291908181526020018280546104d8906120ad565b80156105255780601f106104fa57610100808354040283529160200191610525565b820191906000526020600020905b81548152906001019060200180831161050857829003601f168201915b5050505050905090565b600061053a82610bb9565b5061054482610c41565b9050919050565b61055d8282610558610c7e565b610c86565b5050565b600061056c30610740565b905090565b600073ffffffffffffffffffffffffffffffffffffffff168273ffffffffffffffffffffffffffffffffffffffff16036105e35760006040517f64a0ae920000000000000000000000000000000000000000000000000000000081526004016105da9190611c09565b60405180910390fd5b60006105f783836105f2610c7e565b610c98565b90508373ffffffffffffffffffffffffffffffffffffffff168173ffffffffffffffffffffffffffffffffffffffff161461066d578382826040517f64283d7b000000000000000000000000000000000000000000000000000000008152600401610664939291906120de565b60405180910390fd5b50505050565b60008060065490506106858382610eb2565b600760008473ffffffffffffffffffffffffffffffffffffffff1673ffffffffffffffffffffffffffffffffffffffff1681526020019081526020016000208190806001815401808255809150506001900390600052602060002001600090919091909150556001600660008282546106fe9190612144565b9250508190555080915050919050565b6107298383836040518060200160405280600081525061099e565b505050565b600061073982610bb9565b9050919050565b60008073ffffffffffffffffffffffffffffffffffffffff168273ffffffffffffffffffffffffffffffffffffffff16036107b35760006040517f89c62b640000000000000000000000000000000000000000000000000000000081526004016107aa9190611c09565b60405180910390fd5b600360008373ffffffffffffffffffffffffffffffffffffffff1673ffffffffffffffffffffffffffffffffffffffff168152602001908152602001600020549050919050565b60065481565b60606001805461080f906120ad565b80601f016020809104026020016040519081016040528092919081815260200182805461083b906120ad565b80156108885780601f1061085d57610100808354040283529160200191610888565b820191906000526020600020905b81548152906001019060200180831161086b57829003601f168201915b5050505050905090565b8273ffffffffffffffffffffffffffffffffffffffff166108b28261072e565b73ffffffffffffffffffffffffffffffffffffffff1614610908576040517f08c379a00000000000000000000000000000000000000000000000000000000081526004016108ff906121ea565b60405180910390fd5b61091383838361070e565b600760008373ffffffffffffffffffffffffffffffffffffffff1673ffffffffffffffffffffffffffffffffffffffff1681526020019081526020016000208190806001815401808255809150506001900390600052602060002001600090919091909150556109838382610ed0565b505050565b61099a610993610c7e565b8383610ede565b5050565b6109a9848484610571565b6109b58484848461104d565b50505050565b60606109c682610bb9565b5060006109d1611204565b905060008151116109f15760405180602001604052806000815250610a1c565b806109fb8461121b565b604051602001610a0c929190612246565b6040516020818303038152906040525b915050919050565b6060600760008373ffffffffffffffffffffffffffffffffffffffff1673ffffffffffffffffffffffffffffffffffffffff168152602001908152602001600020805480602002602001604051908101604052809291908181526020018280548015610aaf57602002820191906000526020600020905b815481526020019060010190808311610a9b575b50505050509050919050565b6000600560008473ffffffffffffffffffffffffffffffffffffffff1673ffffffffffffffffffffffffffffffffffffffff16815260200190815260200160002060008373ffffffffffffffffffffffffffffffffffffffff1673ffffffffffffffffffffffffffffffffffffffff16815260200190815260200160002060009054906101000a900460ff16905092915050565b60007f01ffc9a7000000000000000000000000000000000000000000000000000000007bffffffffffffffffffffffffffffffffffffffffffffffffffffffff1916827bffffffffffffffffffffffffffffffffffffffffffffffffffffffff1916149050919050565b600080610bc5836112e9565b9050600073ffffffffffffffffffffffffffffffffffffffff168173ffffffffffffffffffffffffffffffffffffffff1603610c3857826040517f7e273289000000000000000000000000000000000000000000000000000000008152600401610c2f9190611c9f565b60405180910390fd5b80915050919050565b60006004600083815260200190815260200160002060009054906101000a900473ffffffffffffffffffffffffffffffffffffffff169050919050565b600033905090565b610c938383836001611326565b505050565b600080610ca4846112e9565b9050600073ffffffffffffffffffffffffffffffffffffffff168373ffffffffffffffffffffffffffffffffffffffff1614610ce657610ce58184866114eb565b5b600073ffffffffffffffffffffffffffffffffffffffff168173ffffffffffffffffffffffffffffffffffffffff1614610d7757610d28600085600080611326565b6001600360008373ffffffffffffffffffffffffffffffffffffffff1673ffffffffffffffffffffffffffffffffffffffff168152602001908152602001600020600082825403925050819055505b600073ffffffffffffffffffffffffffffffffffffffff168573ffffffffffffffffffffffffffffffffffffffff1614610dfa576001600360008773ffffffffffffffffffffffffffffffffffffffff1673ffffffffffffffffffffffffffffffffffffffff168152602001908152602001600020600082825401925050819055505b846002600086815260200190815260200160002060006101000a81548173ffffffffffffffffffffffffffffffffffffffff021916908373ffffffffffffffffffffffffffffffffffffffff160217905550838573ffffffffffffffffffffffffffffffffffffffff168273ffffffffffffffffffffffffffffffffffffffff167fddf252ad1be2c89b69c2b068fc378daa952ba7f163c4a11628f55a4df523b3ef60405160405180910390a4809150509392505050565b610ecc8282604051806020016040528060008152506115af565b5050565b610eda82826115cb565b5050565b600073ffffffffffffffffffffffffffffffffffffffff168273ffffffffffffffffffffffffffffffffffffffff1603610f4f57816040517f5b08ba18000000000000000000000000000000000000000000000000000000008152600401610f469190611c09565b60405180910390fd5b80600560008573ffffffffffffffffffffffffffffffffffffffff1673ffffffffffffffffffffffffffffffffffffffff16815260200190815260200160002060008473ffffffffffffffffffffffffffffffffffffffff1673ffffffffffffffffffffffffffffffffffffffff16815260200190815260200160002060006101000a81548160ff0219169083151502179055508173ffffffffffffffffffffffffffffffffffffffff168373ffffffffffffffffffffffffffffffffffffffff167f17307eab39ab6107e8899845ad3d59bd9653f200f220920489ca2b5937696c31836040516110409190611a98565b60405180910390a3505050565b60008373ffffffffffffffffffffffffffffffffffffffff163b11156111fe578273ffffffffffffffffffffffffffffffffffffffff1663150b7a02611091610c7e565b8685856040518563ffffffff1660e01b81526004016110b394939291906122bf565b6020604051808303816000875af19250505080156110ef57506040513d601f19601f820116820180604052508101906110ec9190612320565b60015b611173573d806000811461111f576040519150601f19603f3d011682016040523d82523d6000602084013e611124565b606091505b50600081510361116b57836040517f64a0ae920000000000000000000000000000000000000000000000000000000081526004016111629190611c09565b60405180910390fd5b805181602001fd5b63150b7a0260e01b7bffffffffffffffffffffffffffffffffffffffffffffffffffffffff1916817bffffffffffffffffffffffffffffffffffffffffffffffffffffffff1916146111fc57836040517f64a0ae920000000000000000000000000000000000000000000000000000000081526004016111f39190611c09565b60405180910390fd5b505b50505050565b606060405180602001604052806000815250905090565b60606000600161122a846116d7565b01905060008167ffffffffffffffff81111561124957611248611db0565b5b6040519080825280601f01601f19166020018201604052801561127b5781602001600182028036833780820191505090505b509050600082602001820190505b6001156112de578080600190039150507f3031323334353637383961626364656600000000000000000000000000000000600a86061a8153600a85816112d2576112d161234d565b5b04945060008503611289575b819350505050919050565b60006002600083815260200190815260200160002060009054906101000a900473ffffffffffffffffffffffffffffffffffffffff169050919050565b808061135f5750600073ffffffffffffffffffffffffffffffffffffffff168273ffffffffffffffffffffffffffffffffffffffff1614155b1561149357600061136f84610bb9565b9050600073ffffffffffffffffffffffffffffffffffffffff168373ffffffffffffffffffffffffffffffffffffffff16141580156113da57508273ffffffffffffffffffffffffffffffffffffffff168173ffffffffffffffffffffffffffffffffffffffff1614155b80156113ed57506113eb8184610abb565b155b1561142f57826040517fa9fbf51f0000000000000000000000000000000000000000000000000000000081526004016114269190611c09565b60405180910390fd5b811561149157838573ffffffffffffffffffffffffffffffffffffffff168273ffffffffffffffffffffffffffffffffffffffff167f8c5be1e5ebec7d5bd14f71427d1e84f3dd0314c0f7b2291e5b200ac8c7c3b92560405160405180910390a45b505b836004600085815260200190815260200160002060006101000a81548173ffffffffffffffffffffffffffffffffffffffff021916908373ffffffffffffffffffffffffffffffffffffffff16021790555050505050565b6114f683838361182a565b6115aa57600073ffffffffffffffffffffffffffffffffffffffff168373ffffffffffffffffffffffffffffffffffffffff160361156b57806040517f7e2732890000000000000000000000000000000000000000000000000000000081526004016115629190611c9f565b60405180910390fd5b81816040517f177e802f0000000000000000000000000000000000000000000000000000000081526004016115a192919061237c565b60405180910390fd5b505050565b6115b983836118eb565b6115c6600084848461104d565b505050565b6000600760008473ffffffffffffffffffffffffffffffffffffffff1673ffffffffffffffffffffffffffffffffffffffff168152602001908152602001600020905060008180549050905060005b818110156116d05783838281548110611636576116356123a5565b5b9060005260206000200154036116bd578260018361165491906123d4565b81548110611665576116646123a5565b5b9060005260206000200154838281548110611683576116826123a5565b5b9060005260206000200181905550828054806116a2576116a1612408565b5b600190038181906000526020600020016000905590556116d0565b80806116c890612437565b91505061161a565b5050505050565b600080600090507a184f03e93ff9f4daa797ed6e38ed64bf6a1f0100000000000000008310611735577a184f03e93ff9f4daa797ed6e38ed64bf6a1f010000000000000000838161172b5761172a61234d565b5b0492506040810190505b6d04ee2d6d415b85acef81000000008310611772576d04ee2d6d415b85acef810000000083816117685761176761234d565b5b0492506020810190505b662386f26fc1000083106117a157662386f26fc1000083816117975761179661234d565b5b0492506010810190505b6305f5e10083106117ca576305f5e10083816117c0576117bf61234d565b5b0492506008810190505b61271083106117ef5761271083816117e5576117e461234d565b5b0492506004810190505b6064831061181257606483816118085761180761234d565b5b0492506002810190505b600a8310611821576001810190505b80915050919050565b60008073ffffffffffffffffffffffffffffffffffffffff168373ffffffffffffffffffffffffffffffffffffffff16141580156118e257508273ffffffffffffffffffffffffffffffffffffffff168473ffffffffffffffffffffffffffffffffffffffff1614806118a357506118a28484610abb565b5b806118e157508273ffffffffffffffffffffffffffffffffffffffff166118c983610c41565b73ffffffffffffffffffffffffffffffffffffffff16145b5b90509392505050565b600073ffffffffffffffffffffffffffffffffffffffff168273ffffffffffffffffffffffffffffffffffffffff160361195d5760006040517f64a0ae920000000000000000000000000000000000000000000000000000000081526004016119549190611c09565b60405180910390fd5b600061196b83836000610c98565b9050600073ffffffffffffffffffffffffffffffffffffffff168173ffffffffffffffffffffffffffffffffffffffff16146119df5760006040517f73c6ac6e0000000000000000000000000000000000000000000000000000000081526004016119d69190611c09565b60405180910390fd5b505050565b6000604051905090565b600080fd5b600080fd5b60007fffffffff0000000000000000000000000000000000000000000000000000000082169050919050565b611a2d816119f8565b8114611a3857600080fd5b50565b600081359050611a4a81611a24565b92915050565b600060208284031215611a6657611a656119ee565b5b6000611a7484828501611a3b565b91505092915050565b60008115159050919050565b611a9281611a7d565b82525050565b6000602082019050611aad6000830184611a89565b92915050565b600081519050919050565b600082825260208201905092915050565b60005b83811015611aed578082015181840152602081019050611ad2565b60008484015250505050565b6000601f19601f8301169050919050565b6000611b1582611ab3565b611b1f8185611abe565b9350611b2f818560208601611acf565b611b3881611af9565b840191505092915050565b60006020820190508181036000830152611b5d8184611b0a565b905092915050565b6000819050919050565b611b7881611b65565b8114611b8357600080fd5b50565b600081359050611b9581611b6f565b92915050565b600060208284031215611bb157611bb06119ee565b5b6000611bbf84828501611b86565b91505092915050565b600073ffffffffffffffffffffffffffffffffffffffff82169050919050565b6000611bf382611bc8565b9050919050565b611c0381611be8565b82525050565b6000602082019050611c1e6000830184611bfa565b92915050565b611c2d81611be8565b8114611c3857600080fd5b50565b600081359050611c4a81611c24565b92915050565b60008060408385031215611c6757611c666119ee565b5b6000611c7585828601611c3b565b9250506020611c8685828601611b86565b9150509250929050565b611c9981611b65565b82525050565b6000602082019050611cb46000830184611c90565b92915050565b600080600060608486031215611cd357611cd26119ee565b5b6000611ce186828701611c3b565b9350506020611cf286828701611c3b565b9250506040611d0386828701611b86565b9150509250925092565b600060208284031215611d2357611d226119ee565b5b6000611d3184828501611c3b565b91505092915050565b611d4381611a7d565b8114611d4e57600080fd5b50565b600081359050611d6081611d3a565b92915050565b60008060408385031215611d7d57611d7c6119ee565b5b6000611d8b85828601611c3b565b9250506020611d9c85828601611d51565b9150509250929050565b600080fd5b600080fd5b7f4e487b7100000000000000000000000000000000000000000000000000000000600052604160045260246000fd5b611de882611af9565b810181811067ffffffffffffffff82111715611e0757611e06611db0565b5b80604052505050565b6000611e1a6119e4565b9050611e268282611ddf565b919050565b600067ffffffffffffffff821115611e4657611e45611db0565b5b611e4f82611af9565b9050602081019050919050565b82818337600083830152505050565b6000611e7e611e7984611e2b565b611e10565b905082815260208101848484011115611e9a57611e99611dab565b5b611ea5848285611e5c565b509392505050565b600082601f830112611ec257611ec1611da6565b5b8135611ed2848260208601611e6b565b91505092915050565b60008060008060808587031215611ef557611ef46119ee565b5b6000611f0387828801611c3b565b9450506020611f1487828801611c3b565b9350506040611f2587828801611b86565b925050606085013567ffffffffffffffff811115611f4657611f456119f3565b5b611f5287828801611ead565b91505092959194509250565b600081519050919050565b600082825260208201905092915050565b6000819050602082019050919050565b611f9381611b65565b82525050565b6000611fa58383611f8a565b60208301905092915050565b6000602082019050919050565b6000611fc982611f5e565b611fd38185611f69565b9350611fde83611f7a565b8060005b8381101561200f578151611ff68882611f99565b975061200183611fb1565b925050600181019050611fe2565b5085935050505092915050565b600060208201905081810360008301526120368184611fbe565b905092915050565b60008060408385031215612055576120546119ee565b5b600061206385828601611c3b565b925050602061207485828601611c3b565b9150509250929050565b7f4e487b7100000000000000000000000000000000000000000000000000000000600052602260045260246000fd5b600060028204905060018216806120c557607f821691505b6020821081036120d8576120d761207e565b5b50919050565b60006060820190506120f36000830186611bfa565b6121006020830185611c90565b61210d6040830184611bfa565b949350505050565b7f4e487b7100000000000000000000000000000000000000000000000000000000600052601160045260246000fd5b600061214f82611b65565b915061215a83611b65565b925082820190508082111561217257612171612115565b5b92915050565b7f4552433732313a207472616e73666572206f6620746f6b656e2074686174206960008201527f73206e6f74206f776e6564000000000000000000000000000000000000000000602082015250565b60006121d4602b83611abe565b91506121df82612178565b604082019050919050565b60006020820190508181036000830152612203816121c7565b9050919050565b600081905092915050565b600061222082611ab3565b61222a818561220a565b935061223a818560208601611acf565b80840191505092915050565b60006122528285612215565b915061225e8284612215565b91508190509392505050565b600081519050919050565b600082825260208201905092915050565b60006122918261226a565b61229b8185612275565b93506122ab818560208601611acf565b6122b481611af9565b840191505092915050565b60006080820190506122d46000830187611bfa565b6122e16020830186611bfa565b6122ee6040830185611c90565b81810360608301526123008184612286565b905095945050505050565b60008151905061231a81611a24565b92915050565b600060208284031215612336576123356119ee565b5b60006123448482850161230b565b91505092915050565b7f4e487b7100000000000000000000000000000000000000000000000000000000600052601260045260246000fd5b60006040820190506123916000830185611bfa565b61239e6020830184611c90565b9392505050565b7f4e487b7100000000000000000000000000000000000000000000000000000000600052603260045260246000fd5b60006123df82611b65565b91506123ea83611b65565b925082820390508181111561240257612401612115565b5b92915050565b7f4e487b7100000000000000000000000000000000000000000000000000000000600052603160045260246000fd5b600061244282611b65565b91507fffffffffffffffffffffffffffffffffffffffffffffffffffffffffffffffff820361247457612473612115565b5b60018201905091905056fea26469706673582212200806ed84e50747cc748952a992f52514e8bb169566bec146c01eb83054056ec064736f6c63430008140033",
  "linkReferences": {},
  "deployedLinkReferences": {}
}