{
  "_format": "hh-sol-artifact-1",
  "contractName": "TokenERC721",
  "sourceName": "contracts/TokenERC721.sol",
  "abi": [
    {
      "inputs": [],
      "stateMutability": "nonpayable",
      "type": "constructor"
    },
    {
      "inputs": [
        {
          "internalType": "address",
          "name": "sender",
          "type": "address"
        },
        {
          "internalType": "uint256",
          "name": "tokenId",
          "type": "uint256"
        },
        {
          "internalType": "address",
          "name": "owner",
          "type": "address"
        }
      ],
      "name": "ERC721IncorrectOwner",
      "type": "error"
    },
    {
      "inputs": [
        {
          "internalType": "address",
          "name": "operator",
          "type": "address"
        },
        {
          "internalType": "uint256",
          "name": "tokenId",
          "type": "uint256"
        }
      ],
      "name": "ERC721InsufficientApproval",
      "type": "error"
    },
    {
      "inputs": [
        {
          "internalType": "address",
          "name": "approver",
          "type": "address"
        }
      ],
      "name": "ERC721InvalidApprover",
      "type": "error"
    },
    {
      "inputs": [
        {
          "internalType": "address",
          "name": "operator",
          "type": "address"
        }
      ],
      "name": "ERC721InvalidOperator",
      "type": "error"
    },
    {
      "inputs": [
        {
          "internalType": "address",
          "name": "owner",
          "type": "address"
        }
      ],
      "name": "ERC721InvalidOwner",
      "type": "error"
    },
    {
      "inputs": [
        {
          "internalType": "address",
          "name": "receiver",
          "type": "address"
        }
      ],
      "name": "ERC721InvalidReceiver",
      "type": "error"
    },
    {
      "inputs": [
        {
          "internalType": "address",
          "name": "sender",
          "type": "address"
        }
      ],
      "name": "ERC721InvalidSender",
      "type": "error"
    },
    {
      "inputs": [
        {
          "internalType": "uint256",
          "name": "tokenId",
          "type": "uint256"
        }
      ],
      "name": "ERC721NonexistentToken",
      "type": "error"
    },
    {
      "anonymous": false,
      "inputs": [
        {
          "indexed": true,
          "internalType": "address",
          "name": "owner",
          "type": "address"
        },
        {
          "indexed": true,
          "internalType": "address",
          "name": "approved",
          "type": "address"
        },
        {
          "indexed": true,
          "internalType": "uint256",
          "name": "tokenId",
          "type": "uint256"
        }
      ],
      "name": "Approval",
      "type": "event"
    },
    {
      "anonymous": false,
      "inputs": [
        {
          "indexed": true,
          "internalType": "address",
          "name": "owner",
          "type": "address"
        },
        {
          "indexed": true,
          "internalType": "address",
          "name": "operator",
          "type": "address"
        },
        {
          "indexed": false,
          "internalType": "bool",
          "name": "approved",
          "type": "bool"
        }
      ],
      "name": "ApprovalForAll",
      "type": "event"
    },
    {
      "anonymous": false,
      "inputs": [
        {
          "indexed": true,
          "internalType": "address",
          "name": "from",
          "type": "address"
        },
        {
          "indexed": true,
          "internalType": "address",
          "name": "to",
          "type": "address"
        },
        {
          "indexed": true,
          "internalType": "uint256",
          "name": "tokenId",
          "type": "uint256"
        }
      ],
      "name": "Transfer",
      "type": "event"
    },
    {
      "inputs": [
        {
          "internalType": "address",
          "name": "to",
          "type": "address"
        },
        {
          "internalType": "uint256",
          "name": "tokenId",
          "type": "uint256"
        }
      ],
      "name": "approve",
      "outputs": [],
      "stateMutability": "nonpayable",
      "type": "function"
    },
    {
      "inputs": [
        {
          "internalType": "address",
          "name": "owner",
          "type": "address"
        }
      ],
      "name": "balanceOf",
      "outputs": [
        {
          "internalType": "uint256",
          "name": "",
          "type": "uint256"
        }
      ],
      "stateMutability": "view",
      "type": "function"
    },
    {
      "inputs": [],
      "name": "balanceOfTokenERC721",
      "outputs": [
        {
          "internalType": "uint256",
          "name": "",
          "type": "uint256"
        }
      ],
      "stateMutability": "view",
      "type": "function"
    },
    {
      "inputs": [
        {
          "internalType": "uint256",
          "name": "tokenId",
          "type": "uint256"
        }
      ],
      "name": "getApproved",
      "outputs": [
        {
          "internalType": "address",
          "name": "",
          "type": "address"
        }
      ],
      "stateMutability": "view",
      "type": "function"
    },
    {
      "inputs": [
        {
          "internalType": "address",
          "name": "owner",
          "type": "address"
        }
      ],
      "name": "getOwnedTokens",
      "outputs": [
        {
          "internalType": "uint256[]",
          "name": "",
          "type": "uint256[]"
        }
      ],
      "stateMutability": "view",
      "type": "function"
    },
    {
      "inputs": [
        {
          "internalType": "address",
          "name": "owner",
          "type": "address"
        },
        {
          "internalType": "address",
          "name": "operator",
          "type": "address"
        }
      ],
      "name": "isApprovedForAll",
      "outputs": [
        {
          "internalType": "bool",
          "name": "",
          "type": "bool"
        }
      ],
      "stateMutability": "view",
      "type": "function"
    },
    {
      "inputs": [
        {
          "internalType": "address",
          "name": "to",
          "type": "address"
        }
      ],
      "name": "mint",
      "outputs": [
        {
          "internalType": "uint256",
          "name": "_tokenId",
          "type": "uint256"
        }
      ],
      "stateMutability": "nonpayable",
      "type": "function"
    },
    {
      "inputs": [],
      "name": "name",
      "outputs": [
        {
          "internalType": "string",
          "name": "",
          "type": "string"
        }
      ],
      "stateMutability": "view",
      "type": "function"
    },
    {
      "inputs": [],
      "name": "nextTokenId",
      "outputs": [
        {
          "internalType": "uint256",
          "name": "",
          "type": "uint256"
        }
      ],
      "stateMutability": "view",
      "type": "function"
    },
    {
      "inputs": [
        {
          "internalType": "uint256",
          "name": "tokenId",
          "type": "uint256"
        }
      ],
      "name": "ownerOf",
      "outputs": [
        {
          "internalType": "address",
          "name": "",
          "type": "address"
        }
      ],
      "stateMutability": "view",
      "type": "function"
    },
    {
      "inputs": [
        {
          "internalType": "address",
          "name": "from",
          "type": "address"
        },
        {
          "internalType": "address",
          "name": "to",
          "type": "address"
        },
        {
          "internalType": "uint256",
          "name": "tokenId",
          "type": "uint256"
        }
      ],
      "name": "safeTransferFrom",
      "outputs": [],
      "stateMutability": "nonpayable",
      "type": "function"
    },
    {
      "inputs": [
        {
          "internalType": "address",
          "name": "from",
          "type": "address"
        },
        {
          "internalType": "address",
          "name": "to",
          "type": "address"
        },
        {
          "internalType": "uint256",
          "name": "tokenId",
          "type": "uint256"
        },
        {
          "internalType": "bytes",
          "name": "data",
          "type": "bytes"
        }
      ],
      "name": "safeTransferFrom",
      "outputs": [],
      "stateMutability": "nonpayable",
      "type": "function"
    },
    {
      "inputs": [
        {
          "internalType": "address",
          "name": "operator",
          "type": "address"
        },
        {
          "internalType": "bool",
          "name": "approved",
          "type": "bool"
        }
      ],
      "name": "setApprovalForAll",
      "outputs": [],
      "stateMutability": "nonpayable",
      "type": "function"
    },
    {
      "inputs": [
        {
          "internalType": "bytes4",
          "name": "interfaceId",
          "type": "bytes4"
        }
      ],
      "name": "supportsInterface",
      "outputs": [
        {
          "internalType": "bool",
          "name": "",
          "type": "bool"
        }
      ],
      "stateMutability": "view",
      "type": "function"
    },
    {
      "inputs": [],
      "name": "symbol",
      "outputs": [
        {
          "internalType": "string",
          "name": "",
          "type": "string"
        }
      ],
      "stateMutability": "view",
      "type": "function"
    },
    {
      "inputs": [
        {
          "internalType": "uint256",
          "name": "tokenId",
          "type": "uint256"
        }
      ],
      "name": "tokenURI",
      "outputs": [
        {
          "internalType": "string",
          "name": "",
          "type": "string"
        }
      ],
      "stateMutability": "view",
      "type": "function"
    },
    {
      "inputs": [
        {
          "internalType": "address",
          "name": "from",
          "type": "address"
        },
        {
          "internalType": "address",
          "name": "to",
          "type": "address"
        },
        {
          "internalType": "uint256",
          "name": "tokenId",
          "type": "uint256"
        }
      ],
      "name": "transferFrom",
      "outputs": [],
      "stateMutability": "nonpayable",
      "type": "function"
    }
  ],
  "bytecode": "0x60806040523480156200001157600080fd5b506040518060400160405280600581526020017f4e46542d420000000000000000000000000000000000000000000000000000008152506040518060400160405280600681526020017f455243373231000000000000000000000000000000000000000000000000000081525081600090816200008f919062000324565b508060019081620000a1919062000324565b5050506200040b565b600081519050919050565b7f4e487b7100000000000000000000000000000000000000000000000000000000600052604160045260246000fd5b7f4e487b7100000000000000000000000000000000000000000000000000000000600052602260045260246000fd5b600060028204905060018216806200012c57607f821691505b602082108103620001425762000141620000e4565b5b50919050565b60008190508160005260206000209050919050565b60006020601f8301049050919050565b600082821b905092915050565b600060088302620001ac7fffffffffffffffffffffffffffffffffffffffffffffffffffffffffffffffff826200016d565b620001b886836200016d565b95508019841693508086168417925050509392505050565b6000819050919050565b6000819050919050565b600062000205620001ff620001f984620001d0565b620001da565b620001d0565b9050919050565b6000819050919050565b6200022183620001e4565b6200023962000230826200020c565b8484546200017a565b825550505050565b600090565b6200025062000241565b6200025d81848462000216565b505050565b5b8181101562000285576200027960008262000246565b60018101905062000263565b5050565b601f821115620002d4576200029e8162000148565b620002a9846200015d565b81016020851015620002b9578190505b620002d1620002c8856200015d565b83018262000262565b50505b505050565b600082821c905092915050565b6000620002f960001984600802620002d9565b1980831691505092915050565b6000620003148383620002e6565b9150826002028217905092915050565b6200032f82620000aa565b67ffffffffffffffff8111156200034b576200034a620000b5565b5b62000357825462000113565b6200036482828562000289565b600060209050601f8311600181146200039c576000841562000387578287015190505b62000393858262000306565b86555062000403565b601f198416620003ac8662000148565b60005b82811015620003d657848901518255600182019150602085019450602081019050620003af565b86831015620003f65784890151620003f2601f891682620002e6565b8355505b6001600288020188555050505b505050505050565b6120d3806200041b6000396000f3fe608060405234801561001057600080fd5b506004361061010b5760003560e01c80636a627842116100a2578063a22cb46511610071578063a22cb465146102cc578063b88d4fde146102e8578063c87b56dd14610304578063d9d6165514610334578063e985e9c5146103645761010b565b80636a6278421461023057806370a082311461026057806375794a3c1461029057806395d89b41146102ae5761010b565b806322a579cb116100de57806322a579cb146101aa57806323b872dd146101c857806342842e0e146101e45780636352211e146102005761010b565b806301ffc9a71461011057806306fdde0314610140578063081812fc1461015e578063095ea7b31461018e575b600080fd5b61012a600480360381019061012591906117da565b610394565b6040516101379190611822565b60405180910390f35b610148610476565b60405161015591906118cd565b60405180910390f35b61017860048036038101906101739190611925565b610508565b6040516101859190611993565b60405180910390f35b6101a860048036038101906101a391906119da565b610524565b005b6101b261053a565b6040516101bf9190611a29565b60405180910390f35b6101e260048036038101906101dd9190611a44565b61054a565b005b6101fe60048036038101906101f99190611a44565b61064c565b005b61021a60048036038101906102159190611925565b61066c565b6040516102279190611993565b60405180910390f35b61024a60048036038101906102459190611a97565b61067e565b6040516102579190611a29565b60405180910390f35b61027a60048036038101906102759190611a97565b610714565b6040516102879190611a29565b60405180910390f35b6102986107ce565b6040516102a59190611a29565b60405180910390f35b6102b66107d4565b6040516102c391906118cd565b60405180910390f35b6102e660048036038101906102e19190611af0565b610866565b005b61030260048036038101906102fd9190611c65565b61087c565b005b61031e60048036038101906103199190611925565b610899565b60405161032b91906118cd565b60405180910390f35b61034e60048036038101906103499190611a97565b610902565b60405161035b9190611da6565b60405180910390f35b61037e60048036038101906103799190611dc8565b610999565b60405161038b9190611822565b60405180910390f35b60007f80ac58cd000000000000000000000000000000000000000000000000000000007bffffffffffffffffffffffffffffffffffffffffffffffffffffffff1916827bffffffffffffffffffffffffffffffffffffffffffffffffffffffff1916148061045f57507f5b5e139f000000000000000000000000000000000000000000000000000000007bffffffffffffffffffffffffffffffffffffffffffffffffffffffff1916827bffffffffffffffffffffffffffffffffffffffffffffffffffffffff1916145b8061046f575061046e82610a2d565b5b9050919050565b60606000805461048590611e37565b80601f01602080910402602001604051908101604052809291908181526020018280546104b190611e37565b80156104fe5780601f106104d3576101008083540402835291602001916104fe565b820191906000526020600020905b8154815290600101906020018083116104e157829003601f168201915b5050505050905090565b600061051382610a97565b5061051d82610b1f565b9050919050565b6105368282610531610b5c565b610b64565b5050565b600061054530610714565b905090565b600073ffffffffffffffffffffffffffffffffffffffff168273ffffffffffffffffffffffffffffffffffffffff16036105bc5760006040517f64a0ae920000000000000000000000000000000000000000000000000000000081526004016105b39190611993565b60405180910390fd5b60006105d083836105cb610b5c565b610b76565b90508373ffffffffffffffffffffffffffffffffffffffff168173ffffffffffffffffffffffffffffffffffffffff1614610646578382826040517f64283d7b00000000000000000000000000000000000000000000000000000000815260040161063d93929190611e68565b60405180910390fd5b50505050565b6106678383836040518060200160405280600081525061087c565b505050565b600061067782610a97565b9050919050565b6000600654905061068f8282610d90565b6001600660008282546106a29190611ece565b92505081905550600760008373ffffffffffffffffffffffffffffffffffffffff1673ffffffffffffffffffffffffffffffffffffffff168152602001908152602001600020819080600181540180825580915050600190039060005260206000200160009091909190915055919050565b60008073ffffffffffffffffffffffffffffffffffffffff168273ffffffffffffffffffffffffffffffffffffffff16036107875760006040517f89c62b6400000000000000000000000000000000000000000000000000000000815260040161077e9190611993565b60405180910390fd5b600360008373ffffffffffffffffffffffffffffffffffffffff1673ffffffffffffffffffffffffffffffffffffffff168152602001908152602001600020549050919050565b60065481565b6060600180546107e390611e37565b80601f016020809104026020016040519081016040528092919081815260200182805461080f90611e37565b801561085c5780601f106108315761010080835404028352916020019161085c565b820191906000526020600020905b81548152906001019060200180831161083f57829003601f168201915b5050505050905090565b610878610871610b5c565b8383610e89565b5050565b61088784848461054a565b61089384848484610ff8565b50505050565b60606108a482610a97565b5060006108af6111af565b905060008151116108cf57604051806020016040528060008152506108fa565b806108d9846111c6565b6040516020016108ea929190611f3e565b6040516020818303038152906040525b915050919050565b6060600760008373ffffffffffffffffffffffffffffffffffffffff1673ffffffffffffffffffffffffffffffffffffffff16815260200190815260200160002080548060200260200160405190810160405280929190818152602001828054801561098d57602002820191906000526020600020905b815481526020019060010190808311610979575b50505050509050919050565b6000600560008473ffffffffffffffffffffffffffffffffffffffff1673ffffffffffffffffffffffffffffffffffffffff16815260200190815260200160002060008373ffffffffffffffffffffffffffffffffffffffff1673ffffffffffffffffffffffffffffffffffffffff16815260200190815260200160002060009054906101000a900460ff16905092915050565b60007f01ffc9a7000000000000000000000000000000000000000000000000000000007bffffffffffffffffffffffffffffffffffffffffffffffffffffffff1916827bffffffffffffffffffffffffffffffffffffffffffffffffffffffff1916149050919050565b600080610aa383611294565b9050600073ffffffffffffffffffffffffffffffffffffffff168173ffffffffffffffffffffffffffffffffffffffff1603610b1657826040517f7e273289000000000000000000000000000000000000000000000000000000008152600401610b0d9190611a29565b60405180910390fd5b80915050919050565b60006004600083815260200190815260200160002060009054906101000a900473ffffffffffffffffffffffffffffffffffffffff169050919050565b600033905090565b610b7183838360016112d1565b505050565b600080610b8284611294565b9050600073ffffffffffffffffffffffffffffffffffffffff168373ffffffffffffffffffffffffffffffffffffffff1614610bc457610bc3818486611496565b5b600073ffffffffffffffffffffffffffffffffffffffff168173ffffffffffffffffffffffffffffffffffffffff1614610c5557610c066000856000806112d1565b6001600360008373ffffffffffffffffffffffffffffffffffffffff1673ffffffffffffffffffffffffffffffffffffffff168152602001908152602001600020600082825403925050819055505b600073ffffffffffffffffffffffffffffffffffffffff168573ffffffffffffffffffffffffffffffffffffffff1614610cd8576001600360008773ffffffffffffffffffffffffffffffffffffffff1673ffffffffffffffffffffffffffffffffffffffff168152602001908152602001600020600082825401925050819055505b846002600086815260200190815260200160002060006101000a81548173ffffffffffffffffffffffffffffffffffffffff021916908373ffffffffffffffffffffffffffffffffffffffff160217905550838573ffffffffffffffffffffffffffffffffffffffff168273ffffffffffffffffffffffffffffffffffffffff167fddf252ad1be2c89b69c2b068fc378daa952ba7f163c4a11628f55a4df523b3ef60405160405180910390a4809150509392505050565b600073ffffffffffffffffffffffffffffffffffffffff168273ffffffffffffffffffffffffffffffffffffffff1603610e025760006040517f64a0ae92000000000000000000000000000000000000000000000000000000008152600401610df99190611993565b60405180910390fd5b6000610e1083836000610b76565b9050600073ffffffffffffffffffffffffffffffffffffffff168173ffffffffffffffffffffffffffffffffffffffff1614610e845760006040517f73c6ac6e000000000000000000000000000000000000000000000000000000008152600401610e7b9190611993565b60405180910390fd5b505050565b600073ffffffffffffffffffffffffffffffffffffffff168273ffffffffffffffffffffffffffffffffffffffff1603610efa57816040517f5b08ba18000000000000000000000000000000000000000000000000000000008152600401610ef19190611993565b60405180910390fd5b80600560008573ffffffffffffffffffffffffffffffffffffffff1673ffffffffffffffffffffffffffffffffffffffff16815260200190815260200160002060008473ffffffffffffffffffffffffffffffffffffffff1673ffffffffffffffffffffffffffffffffffffffff16815260200190815260200160002060006101000a81548160ff0219169083151502179055508173ffffffffffffffffffffffffffffffffffffffff168373ffffffffffffffffffffffffffffffffffffffff167f17307eab39ab6107e8899845ad3d59bd9653f200f220920489ca2b5937696c3183604051610feb9190611822565b60405180910390a3505050565b60008373ffffffffffffffffffffffffffffffffffffffff163b11156111a9578273ffffffffffffffffffffffffffffffffffffffff1663150b7a0261103c610b5c565b8685856040518563ffffffff1660e01b815260040161105e9493929190611fb7565b6020604051808303816000875af192505050801561109a57506040513d601f19601f820116820180604052508101906110979190612018565b60015b61111e573d80600081146110ca576040519150601f19603f3d011682016040523d82523d6000602084013e6110cf565b606091505b50600081510361111657836040517f64a0ae9200000000000000000000000000000000000000000000000000000000815260040161110d9190611993565b60405180910390fd5b805181602001fd5b63150b7a0260e01b7bffffffffffffffffffffffffffffffffffffffffffffffffffffffff1916817bffffffffffffffffffffffffffffffffffffffffffffffffffffffff1916146111a757836040517f64a0ae9200000000000000000000000000000000000000000000000000000000815260040161119e9190611993565b60405180910390fd5b505b50505050565b606060405180602001604052806000815250905090565b6060600060016111d58461155a565b01905060008167ffffffffffffffff8111156111f4576111f3611b3a565b5b6040519080825280601f01601f1916602001820160405280156112265781602001600182028036833780820191505090505b509050600082602001820190505b600115611289578080600190039150507f3031323334353637383961626364656600000000000000000000000000000000600a86061a8153600a858161127d5761127c612045565b5b04945060008503611234575b819350505050919050565b60006002600083815260200190815260200160002060009054906101000a900473ffffffffffffffffffffffffffffffffffffffff169050919050565b808061130a5750600073ffffffffffffffffffffffffffffffffffffffff168273ffffffffffffffffffffffffffffffffffffffff1614155b1561143e57600061131a84610a97565b9050600073ffffffffffffffffffffffffffffffffffffffff168373ffffffffffffffffffffffffffffffffffffffff161415801561138557508273ffffffffffffffffffffffffffffffffffffffff168173ffffffffffffffffffffffffffffffffffffffff1614155b801561139857506113968184610999565b155b156113da57826040517fa9fbf51f0000000000000000000000000000000000000000000000000000000081526004016113d19190611993565b60405180910390fd5b811561143c57838573ffffffffffffffffffffffffffffffffffffffff168273ffffffffffffffffffffffffffffffffffffffff167f8c5be1e5ebec7d5bd14f71427d1e84f3dd0314c0f7b2291e5b200ac8c7c3b92560405160405180910390a45b505b836004600085815260200190815260200160002060006101000a81548173ffffffffffffffffffffffffffffffffffffffff021916908373ffffffffffffffffffffffffffffffffffffffff16021790555050505050565b6114a18383836116ad565b61155557600073ffffffffffffffffffffffffffffffffffffffff168373ffffffffffffffffffffffffffffffffffffffff160361151657806040517f7e27328900000000000000000000000000000000000000000000000000000000815260040161150d9190611a29565b60405180910390fd5b81816040517f177e802f00000000000000000000000000000000000000000000000000000000815260040161154c929190612074565b60405180910390fd5b505050565b600080600090507a184f03e93ff9f4daa797ed6e38ed64bf6a1f01000000000000000083106115b8577a184f03e93ff9f4daa797ed6e38ed64bf6a1f01000000000000000083816115ae576115ad612045565b5b0492506040810190505b6d04ee2d6d415b85acef810000000083106115f5576d04ee2d6d415b85acef810000000083816115eb576115ea612045565b5b0492506020810190505b662386f26fc10000831061162457662386f26fc10000838161161a57611619612045565b5b0492506010810190505b6305f5e100831061164d576305f5e100838161164357611642612045565b5b0492506008810190505b612710831061167257612710838161166857611667612045565b5b0492506004810190505b60648310611695576064838161168b5761168a612045565b5b0492506002810190505b600a83106116a4576001810190505b80915050919050565b60008073ffffffffffffffffffffffffffffffffffffffff168373ffffffffffffffffffffffffffffffffffffffff161415801561176557508273ffffffffffffffffffffffffffffffffffffffff168473ffffffffffffffffffffffffffffffffffffffff16148061172657506117258484610999565b5b8061176457508273ffffffffffffffffffffffffffffffffffffffff1661174c83610b1f565b73ffffffffffffffffffffffffffffffffffffffff16145b5b90509392505050565b6000604051905090565b600080fd5b600080fd5b60007fffffffff0000000000000000000000000000000000000000000000000000000082169050919050565b6117b781611782565b81146117c257600080fd5b50565b6000813590506117d4816117ae565b92915050565b6000602082840312156117f0576117ef611778565b5b60006117fe848285016117c5565b91505092915050565b60008115159050919050565b61181c81611807565b82525050565b60006020820190506118376000830184611813565b92915050565b600081519050919050565b600082825260208201905092915050565b60005b8381101561187757808201518184015260208101905061185c565b60008484015250505050565b6000601f19601f8301169050919050565b600061189f8261183d565b6118a98185611848565b93506118b9818560208601611859565b6118c281611883565b840191505092915050565b600060208201905081810360008301526118e78184611894565b905092915050565b6000819050919050565b611902816118ef565b811461190d57600080fd5b50565b60008135905061191f816118f9565b92915050565b60006020828403121561193b5761193a611778565b5b600061194984828501611910565b91505092915050565b600073ffffffffffffffffffffffffffffffffffffffff82169050919050565b600061197d82611952565b9050919050565b61198d81611972565b82525050565b60006020820190506119a86000830184611984565b92915050565b6119b781611972565b81146119c257600080fd5b50565b6000813590506119d4816119ae565b92915050565b600080604083850312156119f1576119f0611778565b5b60006119ff858286016119c5565b9250506020611a1085828601611910565b9150509250929050565b611a23816118ef565b82525050565b6000602082019050611a3e6000830184611a1a565b92915050565b600080600060608486031215611a5d57611a5c611778565b5b6000611a6b868287016119c5565b9350506020611a7c868287016119c5565b9250506040611a8d86828701611910565b9150509250925092565b600060208284031215611aad57611aac611778565b5b6000611abb848285016119c5565b91505092915050565b611acd81611807565b8114611ad857600080fd5b50565b600081359050611aea81611ac4565b92915050565b60008060408385031215611b0757611b06611778565b5b6000611b15858286016119c5565b9250506020611b2685828601611adb565b9150509250929050565b600080fd5b600080fd5b7f4e487b7100000000000000000000000000000000000000000000000000000000600052604160045260246000fd5b611b7282611883565b810181811067ffffffffffffffff82111715611b9157611b90611b3a565b5b80604052505050565b6000611ba461176e565b9050611bb08282611b69565b919050565b600067ffffffffffffffff821115611bd057611bcf611b3a565b5b611bd982611883565b9050602081019050919050565b82818337600083830152505050565b6000611c08611c0384611bb5565b611b9a565b905082815260208101848484011115611c2457611c23611b35565b5b611c2f848285611be6565b509392505050565b600082601f830112611c4c57611c4b611b30565b5b8135611c5c848260208601611bf5565b91505092915050565b60008060008060808587031215611c7f57611c7e611778565b5b6000611c8d878288016119c5565b9450506020611c9e878288016119c5565b9350506040611caf87828801611910565b925050606085013567ffffffffffffffff811115611cd057611ccf61177d565b5b611cdc87828801611c37565b91505092959194509250565b600081519050919050565b600082825260208201905092915050565b6000819050602082019050919050565b611d1d816118ef565b82525050565b6000611d2f8383611d14565b60208301905092915050565b6000602082019050919050565b6000611d5382611ce8565b611d5d8185611cf3565b9350611d6883611d04565b8060005b83811015611d99578151611d808882611d23565b9750611d8b83611d3b565b925050600181019050611d6c565b5085935050505092915050565b60006020820190508181036000830152611dc08184611d48565b905092915050565b60008060408385031215611ddf57611dde611778565b5b6000611ded858286016119c5565b9250506020611dfe858286016119c5565b9150509250929050565b7f4e487b7100000000000000000000000000000000000000000000000000000000600052602260045260246000fd5b60006002820490506001821680611e4f57607f821691505b602082108103611e6257611e61611e08565b5b50919050565b6000606082019050611e7d6000830186611984565b611e8a6020830185611a1a565b611e976040830184611984565b949350505050565b7f4e487b7100000000000000000000000000000000000000000000000000000000600052601160045260246000fd5b6000611ed9826118ef565b9150611ee4836118ef565b9250828201905080821115611efc57611efb611e9f565b5b92915050565b600081905092915050565b6000611f188261183d565b611f228185611f02565b9350611f32818560208601611859565b80840191505092915050565b6000611f4a8285611f0d565b9150611f568284611f0d565b91508190509392505050565b600081519050919050565b600082825260208201905092915050565b6000611f8982611f62565b611f938185611f6d565b9350611fa3818560208601611859565b611fac81611883565b840191505092915050565b6000608082019050611fcc6000830187611984565b611fd96020830186611984565b611fe66040830185611a1a565b8181036060830152611ff88184611f7e565b905095945050505050565b600081519050612012816117ae565b92915050565b60006020828403121561202e5761202d611778565b5b600061203c84828501612003565b91505092915050565b7f4e487b7100000000000000000000000000000000000000000000000000000000600052601260045260246000fd5b60006040820190506120896000830185611984565b6120966020830184611a1a565b939250505056fea264697066735822122001448380733f78d4d1e01fa1ca292e7e5f54df58aab3f609bf5fc0911657e6ff64736f6c63430008140033",
  "linkReferences": {},
  "deployedLinkReferences": {}
}