{
  "_format": "hh-sol-artifact-1",
  "contractName": "TokenERC721",
  "sourceName": "contracts/TokenERC721.sol",
  "abi": [
    {
      "inputs": [],
      "stateMutability": "nonpayable",
      "type": "constructor"
    },
    {
      "inputs": [
        {
          "internalType": "address",
          "name": "sender",
          "type": "address"
        },
        {
          "internalType": "uint256",
          "name": "tokenId",
          "type": "uint256"
        },
        {
          "internalType": "address",
          "name": "owner",
          "type": "address"
        }
      ],
      "name": "ERC721IncorrectOwner",
      "type": "error"
    },
    {
      "inputs": [
        {
          "internalType": "address",
          "name": "operator",
          "type": "address"
        },
        {
          "internalType": "uint256",
          "name": "tokenId",
          "type": "uint256"
        }
      ],
      "name": "ERC721InsufficientApproval",
      "type": "error"
    },
    {
      "inputs": [
        {
          "internalType": "address",
          "name": "approver",
          "type": "address"
        }
      ],
      "name": "ERC721InvalidApprover",
      "type": "error"
    },
    {
      "inputs": [
        {
          "internalType": "address",
          "name": "operator",
          "type": "address"
        }
      ],
      "name": "ERC721InvalidOperator",
      "type": "error"
    },
    {
      "inputs": [
        {
          "internalType": "address",
          "name": "owner",
          "type": "address"
        }
      ],
      "name": "ERC721InvalidOwner",
      "type": "error"
    },
    {
      "inputs": [
        {
          "internalType": "address",
          "name": "receiver",
          "type": "address"
        }
      ],
      "name": "ERC721InvalidReceiver",
      "type": "error"
    },
    {
      "inputs": [
        {
          "internalType": "address",
          "name": "sender",
          "type": "address"
        }
      ],
      "name": "ERC721InvalidSender",
      "type": "error"
    },
    {
      "inputs": [
        {
          "internalType": "uint256",
          "name": "tokenId",
          "type": "uint256"
        }
      ],
      "name": "ERC721NonexistentToken",
      "type": "error"
    },
    {
      "anonymous": false,
      "inputs": [
        {
          "indexed": true,
          "internalType": "address",
          "name": "owner",
          "type": "address"
        },
        {
          "indexed": true,
          "internalType": "address",
          "name": "approved",
          "type": "address"
        },
        {
          "indexed": true,
          "internalType": "uint256",
          "name": "tokenId",
          "type": "uint256"
        }
      ],
      "name": "Approval",
      "type": "event"
    },
    {
      "anonymous": false,
      "inputs": [
        {
          "indexed": true,
          "internalType": "address",
          "name": "owner",
          "type": "address"
        },
        {
          "indexed": true,
          "internalType": "address",
          "name": "operator",
          "type": "address"
        },
        {
          "indexed": false,
          "internalType": "bool",
          "name": "approved",
          "type": "bool"
        }
      ],
      "name": "ApprovalForAll",
      "type": "event"
    },
    {
      "anonymous": false,
      "inputs": [
        {
          "indexed": true,
          "internalType": "address",
          "name": "from",
          "type": "address"
        },
        {
          "indexed": true,
          "internalType": "address",
          "name": "to",
          "type": "address"
        },
        {
          "indexed": true,
          "internalType": "uint256",
          "name": "tokenId",
          "type": "uint256"
        }
      ],
      "name": "Transfer",
      "type": "event"
    },
    {
      "inputs": [
        {
          "internalType": "address",
          "name": "to",
          "type": "address"
        },
        {
          "internalType": "uint256",
          "name": "tokenId",
          "type": "uint256"
        }
      ],
      "name": "approve",
      "outputs": [],
      "stateMutability": "nonpayable",
      "type": "function"
    },
    {
      "inputs": [
        {
          "internalType": "address",
          "name": "owner",
          "type": "address"
        }
      ],
      "name": "balanceOf",
      "outputs": [
        {
          "internalType": "uint256",
          "name": "",
          "type": "uint256"
        }
      ],
      "stateMutability": "view",
      "type": "function"
    },
    {
      "inputs": [],
      "name": "balanceOfTokenERC721",
      "outputs": [
        {
          "internalType": "uint256",
          "name": "",
          "type": "uint256"
        }
      ],
      "stateMutability": "view",
      "type": "function"
    },
    {
      "inputs": [
        {
          "internalType": "uint256",
          "name": "tokenId",
          "type": "uint256"
        }
      ],
      "name": "getApproved",
      "outputs": [
        {
          "internalType": "address",
          "name": "",
          "type": "address"
        }
      ],
      "stateMutability": "view",
      "type": "function"
    },
    {
      "inputs": [],
      "name": "getNFTB",
      "outputs": [],
      "stateMutability": "view",
      "type": "function"
    },
    {
      "inputs": [
        {
          "internalType": "address",
          "name": "owner",
          "type": "address"
        },
        {
          "internalType": "address",
          "name": "operator",
          "type": "address"
        }
      ],
      "name": "isApprovedForAll",
      "outputs": [
        {
          "internalType": "bool",
          "name": "",
          "type": "bool"
        }
      ],
      "stateMutability": "view",
      "type": "function"
    },
    {
      "inputs": [
        {
          "internalType": "address",
          "name": "to",
          "type": "address"
        }
      ],
      "name": "mint",
      "outputs": [
        {
          "internalType": "uint256",
          "name": "_tokenId",
          "type": "uint256"
        }
      ],
      "stateMutability": "nonpayable",
      "type": "function"
    },
    {
      "inputs": [],
      "name": "name",
      "outputs": [
        {
          "internalType": "string",
          "name": "",
          "type": "string"
        }
      ],
      "stateMutability": "view",
      "type": "function"
    },
    {
      "inputs": [],
      "name": "nextTokenId",
      "outputs": [
        {
          "internalType": "uint256",
          "name": "",
          "type": "uint256"
        }
      ],
      "stateMutability": "view",
      "type": "function"
    },
    {
      "inputs": [
        {
          "internalType": "uint256",
          "name": "tokenId",
          "type": "uint256"
        }
      ],
      "name": "ownerOf",
      "outputs": [
        {
          "internalType": "address",
          "name": "",
          "type": "address"
        }
      ],
      "stateMutability": "view",
      "type": "function"
    },
    {
      "inputs": [
        {
          "internalType": "address",
          "name": "from",
          "type": "address"
        },
        {
          "internalType": "address",
          "name": "to",
          "type": "address"
        },
        {
          "internalType": "uint256",
          "name": "tokenId",
          "type": "uint256"
        }
      ],
      "name": "safeTransferFrom",
      "outputs": [],
      "stateMutability": "nonpayable",
      "type": "function"
    },
    {
      "inputs": [
        {
          "internalType": "address",
          "name": "from",
          "type": "address"
        },
        {
          "internalType": "address",
          "name": "to",
          "type": "address"
        },
        {
          "internalType": "uint256",
          "name": "tokenId",
          "type": "uint256"
        },
        {
          "internalType": "bytes",
          "name": "data",
          "type": "bytes"
        }
      ],
      "name": "safeTransferFrom",
      "outputs": [],
      "stateMutability": "nonpayable",
      "type": "function"
    },
    {
      "inputs": [
        {
          "internalType": "address",
          "name": "operator",
          "type": "address"
        },
        {
          "internalType": "bool",
          "name": "approved",
          "type": "bool"
        }
      ],
      "name": "setApprovalForAll",
      "outputs": [],
      "stateMutability": "nonpayable",
      "type": "function"
    },
    {
      "inputs": [
        {
          "internalType": "bytes4",
          "name": "interfaceId",
          "type": "bytes4"
        }
      ],
      "name": "supportsInterface",
      "outputs": [
        {
          "internalType": "bool",
          "name": "",
          "type": "bool"
        }
      ],
      "stateMutability": "view",
      "type": "function"
    },
    {
      "inputs": [],
      "name": "symbol",
      "outputs": [
        {
          "internalType": "string",
          "name": "",
          "type": "string"
        }
      ],
      "stateMutability": "view",
      "type": "function"
    },
    {
      "inputs": [
        {
          "internalType": "uint256",
          "name": "tokenId",
          "type": "uint256"
        }
      ],
      "name": "tokenURI",
      "outputs": [
        {
          "internalType": "string",
          "name": "",
          "type": "string"
        }
      ],
      "stateMutability": "view",
      "type": "function"
    },
    {
      "inputs": [
        {
          "internalType": "address",
          "name": "from",
          "type": "address"
        },
        {
          "internalType": "address",
          "name": "to",
          "type": "address"
        },
        {
          "internalType": "uint256",
          "name": "tokenId",
          "type": "uint256"
        }
      ],
      "name": "transferFrom",
      "outputs": [],
      "stateMutability": "nonpayable",
      "type": "function"
    }
  ],
  "bytecode": "0x60806040523480156200001157600080fd5b506040518060400160405280600581526020017f4e46542d420000000000000000000000000000000000000000000000000000008152506040518060400160405280600681526020017f455243373231000000000000000000000000000000000000000000000000000081525081600090816200008f919062000324565b508060019081620000a1919062000324565b5050506200040b565b600081519050919050565b7f4e487b7100000000000000000000000000000000000000000000000000000000600052604160045260246000fd5b7f4e487b7100000000000000000000000000000000000000000000000000000000600052602260045260246000fd5b600060028204905060018216806200012c57607f821691505b602082108103620001425762000141620000e4565b5b50919050565b60008190508160005260206000209050919050565b60006020601f8301049050919050565b600082821b905092915050565b600060088302620001ac7fffffffffffffffffffffffffffffffffffffffffffffffffffffffffffffffff826200016d565b620001b886836200016d565b95508019841693508086168417925050509392505050565b6000819050919050565b6000819050919050565b600062000205620001ff620001f984620001d0565b620001da565b620001d0565b9050919050565b6000819050919050565b6200022183620001e4565b6200023962000230826200020c565b8484546200017a565b825550505050565b600090565b6200025062000241565b6200025d81848462000216565b505050565b5b8181101562000285576200027960008262000246565b60018101905062000263565b5050565b601f821115620002d4576200029e8162000148565b620002a9846200015d565b81016020851015620002b9578190505b620002d1620002c8856200015d565b83018262000262565b50505b505050565b600082821c905092915050565b6000620002f960001984600802620002d9565b1980831691505092915050565b6000620003148383620002e6565b9150826002028217905092915050565b6200032f82620000aa565b67ffffffffffffffff8111156200034b576200034a620000b5565b5b62000357825462000113565b6200036482828562000289565b600060209050601f8311600181146200039c576000841562000387578287015190505b62000393858262000306565b86555062000403565b601f198416620003ac8662000148565b60005b82811015620003d657848901518255600182019150602085019450602081019050620003af565b86831015620003f65784890151620003f2601f891682620002e6565b8355505b6001600288020188555050505b505050505050565b611ed2806200041b6000396000f3fe608060405234801561001057600080fd5b506004361061010b5760003560e01c80636a627842116100a2578063a22cb46511610071578063a22cb465146102cc578063b88d4fde146102e8578063c87b56dd14610304578063d879a6b414610334578063e985e9c51461033e5761010b565b80636a6278421461023057806370a082311461026057806375794a3c1461029057806395d89b41146102ae5761010b565b806322a579cb116100de57806322a579cb146101aa57806323b872dd146101c857806342842e0e146101e45780636352211e146102005761010b565b806301ffc9a71461011057806306fdde0314610140578063081812fc1461015e578063095ea7b31461018e575b600080fd5b61012a600480360381019061012591906116b9565b61036e565b6040516101379190611701565b60405180910390f35b610148610450565b60405161015591906117ac565b60405180910390f35b61017860048036038101906101739190611804565b6104e2565b6040516101859190611872565b60405180910390f35b6101a860048036038101906101a391906118b9565b6104fe565b005b6101b2610514565b6040516101bf9190611908565b60405180910390f35b6101e260048036038101906101dd9190611923565b610524565b005b6101fe60048036038101906101f99190611923565b610626565b005b61021a60048036038101906102159190611804565b610646565b6040516102279190611872565b60405180910390f35b61024a60048036038101906102459190611976565b610658565b6040516102579190611908565b60405180910390f35b61027a60048036038101906102759190611976565b610688565b6040516102879190611908565b60405180910390f35b610298610742565b6040516102a59190611908565b60405180910390f35b6102b6610748565b6040516102c391906117ac565b60405180910390f35b6102e660048036038101906102e191906119cf565b6107da565b005b61030260048036038101906102fd9190611b44565b6107f0565b005b61031e60048036038101906103199190611804565b61080d565b60405161032b91906117ac565b60405180910390f35b61033c610876565b005b61035860048036038101906103539190611bc7565b610878565b6040516103659190611701565b60405180910390f35b60007f80ac58cd000000000000000000000000000000000000000000000000000000007bffffffffffffffffffffffffffffffffffffffffffffffffffffffff1916827bffffffffffffffffffffffffffffffffffffffffffffffffffffffff1916148061043957507f5b5e139f000000000000000000000000000000000000000000000000000000007bffffffffffffffffffffffffffffffffffffffffffffffffffffffff1916827bffffffffffffffffffffffffffffffffffffffffffffffffffffffff1916145b8061044957506104488261090c565b5b9050919050565b60606000805461045f90611c36565b80601f016020809104026020016040519081016040528092919081815260200182805461048b90611c36565b80156104d85780601f106104ad576101008083540402835291602001916104d8565b820191906000526020600020905b8154815290600101906020018083116104bb57829003601f168201915b5050505050905090565b60006104ed82610976565b506104f7826109fe565b9050919050565b610510828261050b610a3b565b610a43565b5050565b600061051f30610688565b905090565b600073ffffffffffffffffffffffffffffffffffffffff168273ffffffffffffffffffffffffffffffffffffffff16036105965760006040517f64a0ae9200000000000000000000000000000000000000000000000000000000815260040161058d9190611872565b60405180910390fd5b60006105aa83836105a5610a3b565b610a55565b90508373ffffffffffffffffffffffffffffffffffffffff168173ffffffffffffffffffffffffffffffffffffffff1614610620578382826040517f64283d7b00000000000000000000000000000000000000000000000000000000815260040161061793929190611c67565b60405180910390fd5b50505050565b610641838383604051806020016040528060008152506107f0565b505050565b600061065182610976565b9050919050565b600060065490506106698282610c6f565b60016006600082825461067c9190611ccd565b92505081905550919050565b60008073ffffffffffffffffffffffffffffffffffffffff168273ffffffffffffffffffffffffffffffffffffffff16036106fb5760006040517f89c62b640000000000000000000000000000000000000000000000000000000081526004016106f29190611872565b60405180910390fd5b600360008373ffffffffffffffffffffffffffffffffffffffff1673ffffffffffffffffffffffffffffffffffffffff168152602001908152602001600020549050919050565b60065481565b60606001805461075790611c36565b80601f016020809104026020016040519081016040528092919081815260200182805461078390611c36565b80156107d05780601f106107a5576101008083540402835291602001916107d0565b820191906000526020600020905b8154815290600101906020018083116107b357829003601f168201915b5050505050905090565b6107ec6107e5610a3b565b8383610d68565b5050565b6107fb848484610524565b61080784848484610ed7565b50505050565b606061081882610976565b50600061082361108e565b90506000815111610843576040518060200160405280600081525061086e565b8061084d846110a5565b60405160200161085e929190611d3d565b6040516020818303038152906040525b915050919050565b565b6000600560008473ffffffffffffffffffffffffffffffffffffffff1673ffffffffffffffffffffffffffffffffffffffff16815260200190815260200160002060008373ffffffffffffffffffffffffffffffffffffffff1673ffffffffffffffffffffffffffffffffffffffff16815260200190815260200160002060009054906101000a900460ff16905092915050565b60007f01ffc9a7000000000000000000000000000000000000000000000000000000007bffffffffffffffffffffffffffffffffffffffffffffffffffffffff1916827bffffffffffffffffffffffffffffffffffffffffffffffffffffffff1916149050919050565b60008061098283611173565b9050600073ffffffffffffffffffffffffffffffffffffffff168173ffffffffffffffffffffffffffffffffffffffff16036109f557826040517f7e2732890000000000000000000000000000000000000000000000000000000081526004016109ec9190611908565b60405180910390fd5b80915050919050565b60006004600083815260200190815260200160002060009054906101000a900473ffffffffffffffffffffffffffffffffffffffff169050919050565b600033905090565b610a5083838360016111b0565b505050565b600080610a6184611173565b9050600073ffffffffffffffffffffffffffffffffffffffff168373ffffffffffffffffffffffffffffffffffffffff1614610aa357610aa2818486611375565b5b600073ffffffffffffffffffffffffffffffffffffffff168173ffffffffffffffffffffffffffffffffffffffff1614610b3457610ae56000856000806111b0565b6001600360008373ffffffffffffffffffffffffffffffffffffffff1673ffffffffffffffffffffffffffffffffffffffff168152602001908152602001600020600082825403925050819055505b600073ffffffffffffffffffffffffffffffffffffffff168573ffffffffffffffffffffffffffffffffffffffff1614610bb7576001600360008773ffffffffffffffffffffffffffffffffffffffff1673ffffffffffffffffffffffffffffffffffffffff168152602001908152602001600020600082825401925050819055505b846002600086815260200190815260200160002060006101000a81548173ffffffffffffffffffffffffffffffffffffffff021916908373ffffffffffffffffffffffffffffffffffffffff160217905550838573ffffffffffffffffffffffffffffffffffffffff168273ffffffffffffffffffffffffffffffffffffffff167fddf252ad1be2c89b69c2b068fc378daa952ba7f163c4a11628f55a4df523b3ef60405160405180910390a4809150509392505050565b600073ffffffffffffffffffffffffffffffffffffffff168273ffffffffffffffffffffffffffffffffffffffff1603610ce15760006040517f64a0ae92000000000000000000000000000000000000000000000000000000008152600401610cd89190611872565b60405180910390fd5b6000610cef83836000610a55565b9050600073ffffffffffffffffffffffffffffffffffffffff168173ffffffffffffffffffffffffffffffffffffffff1614610d635760006040517f73c6ac6e000000000000000000000000000000000000000000000000000000008152600401610d5a9190611872565b60405180910390fd5b505050565b600073ffffffffffffffffffffffffffffffffffffffff168273ffffffffffffffffffffffffffffffffffffffff1603610dd957816040517f5b08ba18000000000000000000000000000000000000000000000000000000008152600401610dd09190611872565b60405180910390fd5b80600560008573ffffffffffffffffffffffffffffffffffffffff1673ffffffffffffffffffffffffffffffffffffffff16815260200190815260200160002060008473ffffffffffffffffffffffffffffffffffffffff1673ffffffffffffffffffffffffffffffffffffffff16815260200190815260200160002060006101000a81548160ff0219169083151502179055508173ffffffffffffffffffffffffffffffffffffffff168373ffffffffffffffffffffffffffffffffffffffff167f17307eab39ab6107e8899845ad3d59bd9653f200f220920489ca2b5937696c3183604051610eca9190611701565b60405180910390a3505050565b60008373ffffffffffffffffffffffffffffffffffffffff163b1115611088578273ffffffffffffffffffffffffffffffffffffffff1663150b7a02610f1b610a3b565b8685856040518563ffffffff1660e01b8152600401610f3d9493929190611db6565b6020604051808303816000875af1925050508015610f7957506040513d601f19601f82011682018060405250810190610f769190611e17565b60015b610ffd573d8060008114610fa9576040519150601f19603f3d011682016040523d82523d6000602084013e610fae565b606091505b506000815103610ff557836040517f64a0ae92000000000000000000000000000000000000000000000000000000008152600401610fec9190611872565b60405180910390fd5b805181602001fd5b63150b7a0260e01b7bffffffffffffffffffffffffffffffffffffffffffffffffffffffff1916817bffffffffffffffffffffffffffffffffffffffffffffffffffffffff19161461108657836040517f64a0ae9200000000000000000000000000000000000000000000000000000000815260040161107d9190611872565b60405180910390fd5b505b50505050565b606060405180602001604052806000815250905090565b6060600060016110b484611439565b01905060008167ffffffffffffffff8111156110d3576110d2611a19565b5b6040519080825280601f01601f1916602001820160405280156111055781602001600182028036833780820191505090505b509050600082602001820190505b600115611168578080600190039150507f3031323334353637383961626364656600000000000000000000000000000000600a86061a8153600a858161115c5761115b611e44565b5b04945060008503611113575b819350505050919050565b60006002600083815260200190815260200160002060009054906101000a900473ffffffffffffffffffffffffffffffffffffffff169050919050565b80806111e95750600073ffffffffffffffffffffffffffffffffffffffff168273ffffffffffffffffffffffffffffffffffffffff1614155b1561131d5760006111f984610976565b9050600073ffffffffffffffffffffffffffffffffffffffff168373ffffffffffffffffffffffffffffffffffffffff161415801561126457508273ffffffffffffffffffffffffffffffffffffffff168173ffffffffffffffffffffffffffffffffffffffff1614155b801561127757506112758184610878565b155b156112b957826040517fa9fbf51f0000000000000000000000000000000000000000000000000000000081526004016112b09190611872565b60405180910390fd5b811561131b57838573ffffffffffffffffffffffffffffffffffffffff168273ffffffffffffffffffffffffffffffffffffffff167f8c5be1e5ebec7d5bd14f71427d1e84f3dd0314c0f7b2291e5b200ac8c7c3b92560405160405180910390a45b505b836004600085815260200190815260200160002060006101000a81548173ffffffffffffffffffffffffffffffffffffffff021916908373ffffffffffffffffffffffffffffffffffffffff16021790555050505050565b61138083838361158c565b61143457600073ffffffffffffffffffffffffffffffffffffffff168373ffffffffffffffffffffffffffffffffffffffff16036113f557806040517f7e2732890000000000000000000000000000000000000000000000000000000081526004016113ec9190611908565b60405180910390fd5b81816040517f177e802f00000000000000000000000000000000000000000000000000000000815260040161142b929190611e73565b60405180910390fd5b505050565b600080600090507a184f03e93ff9f4daa797ed6e38ed64bf6a1f0100000000000000008310611497577a184f03e93ff9f4daa797ed6e38ed64bf6a1f010000000000000000838161148d5761148c611e44565b5b0492506040810190505b6d04ee2d6d415b85acef810000000083106114d4576d04ee2d6d415b85acef810000000083816114ca576114c9611e44565b5b0492506020810190505b662386f26fc10000831061150357662386f26fc1000083816114f9576114f8611e44565b5b0492506010810190505b6305f5e100831061152c576305f5e100838161152257611521611e44565b5b0492506008810190505b612710831061155157612710838161154757611546611e44565b5b0492506004810190505b60648310611574576064838161156a57611569611e44565b5b0492506002810190505b600a8310611583576001810190505b80915050919050565b60008073ffffffffffffffffffffffffffffffffffffffff168373ffffffffffffffffffffffffffffffffffffffff161415801561164457508273ffffffffffffffffffffffffffffffffffffffff168473ffffffffffffffffffffffffffffffffffffffff16148061160557506116048484610878565b5b8061164357508273ffffffffffffffffffffffffffffffffffffffff1661162b836109fe565b73ffffffffffffffffffffffffffffffffffffffff16145b5b90509392505050565b6000604051905090565b600080fd5b600080fd5b60007fffffffff0000000000000000000000000000000000000000000000000000000082169050919050565b61169681611661565b81146116a157600080fd5b50565b6000813590506116b38161168d565b92915050565b6000602082840312156116cf576116ce611657565b5b60006116dd848285016116a4565b91505092915050565b60008115159050919050565b6116fb816116e6565b82525050565b600060208201905061171660008301846116f2565b92915050565b600081519050919050565b600082825260208201905092915050565b60005b8381101561175657808201518184015260208101905061173b565b60008484015250505050565b6000601f19601f8301169050919050565b600061177e8261171c565b6117888185611727565b9350611798818560208601611738565b6117a181611762565b840191505092915050565b600060208201905081810360008301526117c68184611773565b905092915050565b6000819050919050565b6117e1816117ce565b81146117ec57600080fd5b50565b6000813590506117fe816117d8565b92915050565b60006020828403121561181a57611819611657565b5b6000611828848285016117ef565b91505092915050565b600073ffffffffffffffffffffffffffffffffffffffff82169050919050565b600061185c82611831565b9050919050565b61186c81611851565b82525050565b60006020820190506118876000830184611863565b92915050565b61189681611851565b81146118a157600080fd5b50565b6000813590506118b38161188d565b92915050565b600080604083850312156118d0576118cf611657565b5b60006118de858286016118a4565b92505060206118ef858286016117ef565b9150509250929050565b611902816117ce565b82525050565b600060208201905061191d60008301846118f9565b92915050565b60008060006060848603121561193c5761193b611657565b5b600061194a868287016118a4565b935050602061195b868287016118a4565b925050604061196c868287016117ef565b9150509250925092565b60006020828403121561198c5761198b611657565b5b600061199a848285016118a4565b91505092915050565b6119ac816116e6565b81146119b757600080fd5b50565b6000813590506119c9816119a3565b92915050565b600080604083850312156119e6576119e5611657565b5b60006119f4858286016118a4565b9250506020611a05858286016119ba565b9150509250929050565b600080fd5b600080fd5b7f4e487b7100000000000000000000000000000000000000000000000000000000600052604160045260246000fd5b611a5182611762565b810181811067ffffffffffffffff82111715611a7057611a6f611a19565b5b80604052505050565b6000611a8361164d565b9050611a8f8282611a48565b919050565b600067ffffffffffffffff821115611aaf57611aae611a19565b5b611ab882611762565b9050602081019050919050565b82818337600083830152505050565b6000611ae7611ae284611a94565b611a79565b905082815260208101848484011115611b0357611b02611a14565b5b611b0e848285611ac5565b509392505050565b600082601f830112611b2b57611b2a611a0f565b5b8135611b3b848260208601611ad4565b91505092915050565b60008060008060808587031215611b5e57611b5d611657565b5b6000611b6c878288016118a4565b9450506020611b7d878288016118a4565b9350506040611b8e878288016117ef565b925050606085013567ffffffffffffffff811115611baf57611bae61165c565b5b611bbb87828801611b16565b91505092959194509250565b60008060408385031215611bde57611bdd611657565b5b6000611bec858286016118a4565b9250506020611bfd858286016118a4565b9150509250929050565b7f4e487b7100000000000000000000000000000000000000000000000000000000600052602260045260246000fd5b60006002820490506001821680611c4e57607f821691505b602082108103611c6157611c60611c07565b5b50919050565b6000606082019050611c7c6000830186611863565b611c8960208301856118f9565b611c966040830184611863565b949350505050565b7f4e487b7100000000000000000000000000000000000000000000000000000000600052601160045260246000fd5b6000611cd8826117ce565b9150611ce3836117ce565b9250828201905080821115611cfb57611cfa611c9e565b5b92915050565b600081905092915050565b6000611d178261171c565b611d218185611d01565b9350611d31818560208601611738565b80840191505092915050565b6000611d498285611d0c565b9150611d558284611d0c565b91508190509392505050565b600081519050919050565b600082825260208201905092915050565b6000611d8882611d61565b611d928185611d6c565b9350611da2818560208601611738565b611dab81611762565b840191505092915050565b6000608082019050611dcb6000830187611863565b611dd86020830186611863565b611de560408301856118f9565b8181036060830152611df78184611d7d565b905095945050505050565b600081519050611e118161168d565b92915050565b600060208284031215611e2d57611e2c611657565b5b6000611e3b84828501611e02565b91505092915050565b7f4e487b7100000000000000000000000000000000000000000000000000000000600052601260045260246000fd5b6000604082019050611e886000830185611863565b611e9560208301846118f9565b939250505056fea26469706673582212205ab1b35ed80c2b0983158ebadae32c44df25a5f97c98e94d25ba6a9ae587ca0d64736f6c63430008140033",
  "linkReferences": {},
  "deployedLinkReferences": {}
}