{
  "_format": "hh-sol-artifact-1",
  "contractName": "TokenERC20",
  "sourceName": "contracts/TokenERC20.sol",
  "abi": [
    {
      "inputs": [],
      "stateMutability": "nonpayable",
      "type": "constructor"
    },
    {
      "inputs": [
        {
          "internalType": "address",
          "name": "spender",
          "type": "address"
        },
        {
          "internalType": "uint256",
          "name": "allowance",
          "type": "uint256"
        },
        {
          "internalType": "uint256",
          "name": "needed",
          "type": "uint256"
        }
      ],
      "name": "ERC20InsufficientAllowance",
      "type": "error"
    },
    {
      "inputs": [
        {
          "internalType": "address",
          "name": "sender",
          "type": "address"
        },
        {
          "internalType": "uint256",
          "name": "balance",
          "type": "uint256"
        },
        {
          "internalType": "uint256",
          "name": "needed",
          "type": "uint256"
        }
      ],
      "name": "ERC20InsufficientBalance",
      "type": "error"
    },
    {
      "inputs": [
        {
          "internalType": "address",
          "name": "approver",
          "type": "address"
        }
      ],
      "name": "ERC20InvalidApprover",
      "type": "error"
    },
    {
      "inputs": [
        {
          "internalType": "address",
          "name": "receiver",
          "type": "address"
        }
      ],
      "name": "ERC20InvalidReceiver",
      "type": "error"
    },
    {
      "inputs": [
        {
          "internalType": "address",
          "name": "sender",
          "type": "address"
        }
      ],
      "name": "ERC20InvalidSender",
      "type": "error"
    },
    {
      "inputs": [
        {
          "internalType": "address",
          "name": "spender",
          "type": "address"
        }
      ],
      "name": "ERC20InvalidSpender",
      "type": "error"
    },
    {
      "anonymous": false,
      "inputs": [
        {
          "indexed": true,
          "internalType": "address",
          "name": "owner",
          "type": "address"
        },
        {
          "indexed": true,
          "internalType": "address",
          "name": "spender",
          "type": "address"
        },
        {
          "indexed": false,
          "internalType": "uint256",
          "name": "value",
          "type": "uint256"
        }
      ],
      "name": "Approval",
      "type": "event"
    },
    {
      "anonymous": false,
      "inputs": [
        {
          "indexed": true,
          "internalType": "address",
          "name": "from",
          "type": "address"
        },
        {
          "indexed": true,
          "internalType": "address",
          "name": "to",
          "type": "address"
        },
        {
          "indexed": false,
          "internalType": "uint256",
          "name": "value",
          "type": "uint256"
        }
      ],
      "name": "Transfer",
      "type": "event"
    },
    {
      "inputs": [],
      "name": "TOTAL_SUPPLY",
      "outputs": [
        {
          "internalType": "uint256",
          "name": "",
          "type": "uint256"
        }
      ],
      "stateMutability": "view",
      "type": "function"
    },
    {
      "inputs": [],
      "name": "TOTAL_faucet_MAX",
      "outputs": [
        {
          "internalType": "uint256",
          "name": "",
          "type": "uint256"
        }
      ],
      "stateMutability": "view",
      "type": "function"
    },
    {
      "inputs": [
        {
          "internalType": "address",
          "name": "owner",
          "type": "address"
        },
        {
          "internalType": "address",
          "name": "spender",
          "type": "address"
        }
      ],
      "name": "allowance",
      "outputs": [
        {
          "internalType": "uint256",
          "name": "",
          "type": "uint256"
        }
      ],
      "stateMutability": "view",
      "type": "function"
    },
    {
      "inputs": [
        {
          "internalType": "address",
          "name": "spender",
          "type": "address"
        },
        {
          "internalType": "uint256",
          "name": "value",
          "type": "uint256"
        }
      ],
      "name": "approve",
      "outputs": [
        {
          "internalType": "bool",
          "name": "",
          "type": "bool"
        }
      ],
      "stateMutability": "nonpayable",
      "type": "function"
    },
    {
      "inputs": [
        {
          "internalType": "address",
          "name": "account",
          "type": "address"
        }
      ],
      "name": "balanceOf",
      "outputs": [
        {
          "internalType": "uint256",
          "name": "",
          "type": "uint256"
        }
      ],
      "stateMutability": "view",
      "type": "function"
    },
    {
      "inputs": [],
      "name": "balanceOfTokenERC20",
      "outputs": [
        {
          "internalType": "uint256",
          "name": "",
          "type": "uint256"
        }
      ],
      "stateMutability": "view",
      "type": "function"
    },
    {
      "inputs": [],
      "name": "decimals",
      "outputs": [
        {
          "internalType": "uint8",
          "name": "",
          "type": "uint8"
        }
      ],
      "stateMutability": "view",
      "type": "function"
    },
    {
      "inputs": [
        {
          "internalType": "address",
          "name": "_to",
          "type": "address"
        },
        {
          "internalType": "uint256",
          "name": "_amount",
          "type": "uint256"
        }
      ],
      "name": "faucet",
      "outputs": [],
      "stateMutability": "nonpayable",
      "type": "function"
    },
    {
      "inputs": [],
      "name": "name",
      "outputs": [
        {
          "internalType": "string",
          "name": "",
          "type": "string"
        }
      ],
      "stateMutability": "view",
      "type": "function"
    },
    {
      "inputs": [],
      "name": "symbol",
      "outputs": [
        {
          "internalType": "string",
          "name": "",
          "type": "string"
        }
      ],
      "stateMutability": "view",
      "type": "function"
    },
    {
      "inputs": [],
      "name": "totalSupply",
      "outputs": [
        {
          "internalType": "uint256",
          "name": "",
          "type": "uint256"
        }
      ],
      "stateMutability": "view",
      "type": "function"
    },
    {
      "inputs": [
        {
          "internalType": "address",
          "name": "to",
          "type": "address"
        },
        {
          "internalType": "uint256",
          "name": "value",
          "type": "uint256"
        }
      ],
      "name": "transfer",
      "outputs": [
        {
          "internalType": "bool",
          "name": "",
          "type": "bool"
        }
      ],
      "stateMutability": "nonpayable",
      "type": "function"
    },
    {
      "inputs": [
        {
          "internalType": "address",
          "name": "from",
          "type": "address"
        },
        {
          "internalType": "address",
          "name": "to",
          "type": "address"
        },
        {
          "internalType": "uint256",
          "name": "value",
          "type": "uint256"
        }
      ],
      "name": "transferFrom",
      "outputs": [
        {
          "internalType": "bool",
          "name": "",
          "type": "bool"
        }
      ],
      "stateMutability": "nonpayable",
      "type": "function"
    },
    {
      "inputs": [
        {
          "internalType": "address",
          "name": "_to",
          "type": "address"
        },
        {
          "internalType": "uint256",
          "name": "_amount",
          "type": "uint256"
        }
      ],
      "name": "transferRewardERC20",
      "outputs": [],
      "stateMutability": "nonpayable",
      "type": "function"
    }
  ],
  "bytecode": "0x60806040526a084595161401484a0000006005553480156200002057600080fd5b506040518060400160405280600681526020017f746f6b656e4100000000000000000000000000000000000000000000000000008152506040518060400160405280600581526020017f455243323000000000000000000000000000000000000000000000000000000081525081600390816200009e91906200060e565b508060049081620000b091906200060e565b505050620000d1306b033b2e3c9fd0803ce8000000620000d760201b60201c565b6200082c565b600073ffffffffffffffffffffffffffffffffffffffff168273ffffffffffffffffffffffffffffffffffffffff16036200014c5760006040517fec442f050000000000000000000000000000000000000000000000000000000081526004016200014391906200073a565b60405180910390fd5b62000160600083836200016460201b60201c565b5050565b600073ffffffffffffffffffffffffffffffffffffffff168373ffffffffffffffffffffffffffffffffffffffff1603620001ba578060026000828254620001ad919062000786565b9250508190555062000290565b60008060008573ffffffffffffffffffffffffffffffffffffffff1673ffffffffffffffffffffffffffffffffffffffff1681526020019081526020016000205490508181101562000249578381836040517fe450d38c0000000000000000000000000000000000000000000000000000000081526004016200024093929190620007d2565b60405180910390fd5b8181036000808673ffffffffffffffffffffffffffffffffffffffff1673ffffffffffffffffffffffffffffffffffffffff16815260200190815260200160002081905550505b600073ffffffffffffffffffffffffffffffffffffffff168273ffffffffffffffffffffffffffffffffffffffff1603620002db578060026000828254039250508190555062000328565b806000808473ffffffffffffffffffffffffffffffffffffffff1673ffffffffffffffffffffffffffffffffffffffff168152602001908152602001600020600082825401925050819055505b8173ffffffffffffffffffffffffffffffffffffffff168373ffffffffffffffffffffffffffffffffffffffff167fddf252ad1be2c89b69c2b068fc378daa952ba7f163c4a11628f55a4df523b3ef836040516200038791906200080f565b60405180910390a3505050565b600081519050919050565b7f4e487b7100000000000000000000000000000000000000000000000000000000600052604160045260246000fd5b7f4e487b7100000000000000000000000000000000000000000000000000000000600052602260045260246000fd5b600060028204905060018216806200041657607f821691505b6020821081036200042c576200042b620003ce565b5b50919050565b60008190508160005260206000209050919050565b60006020601f8301049050919050565b600082821b905092915050565b600060088302620004967fffffffffffffffffffffffffffffffffffffffffffffffffffffffffffffffff8262000457565b620004a2868362000457565b95508019841693508086168417925050509392505050565b6000819050919050565b6000819050919050565b6000620004ef620004e9620004e384620004ba565b620004c4565b620004ba565b9050919050565b6000819050919050565b6200050b83620004ce565b620005236200051a82620004f6565b84845462000464565b825550505050565b600090565b6200053a6200052b565b6200054781848462000500565b505050565b5b818110156200056f576200056360008262000530565b6001810190506200054d565b5050565b601f821115620005be57620005888162000432565b620005938462000447565b81016020851015620005a3578190505b620005bb620005b28562000447565b8301826200054c565b50505b505050565b600082821c905092915050565b6000620005e360001984600802620005c3565b1980831691505092915050565b6000620005fe8383620005d0565b9150826002028217905092915050565b620006198262000394565b67ffffffffffffffff8111156200063557620006346200039f565b5b620006418254620003fd565b6200064e82828562000573565b600060209050601f83116001811462000686576000841562000671578287015190505b6200067d8582620005f0565b865550620006ed565b601f198416620006968662000432565b60005b82811015620006c05784890151825560018201915060208501945060208101905062000699565b86831015620006e05784890151620006dc601f891682620005d0565b8355505b6001600288020188555050505b505050505050565b600073ffffffffffffffffffffffffffffffffffffffff82169050919050565b60006200072282620006f5565b9050919050565b620007348162000715565b82525050565b600060208201905062000751600083018462000729565b92915050565b7f4e487b7100000000000000000000000000000000000000000000000000000000600052601160045260246000fd5b60006200079382620004ba565b9150620007a083620004ba565b9250828201905080821115620007bb57620007ba62000757565b5b92915050565b620007cc81620004ba565b82525050565b6000606082019050620007e9600083018662000729565b620007f86020830185620007c1565b620008076040830184620007c1565b949350505050565b6000602082019050620008266000830184620007c1565b92915050565b61146b806200083c6000396000f3fe608060405234801561001057600080fd5b50600436106100ea5760003560e01c80637b56c2b21161008c578063a9059cbb11610066578063a9059cbb1461024d578063ba94f61b1461027d578063d05dd73f1461029b578063dd62ed3e146102b9576100ea565b80637b56c2b2146101f5578063902d55a51461021157806395d89b411461022f576100ea565b806323b872dd116100c857806323b872dd1461015b578063313ce5671461018b578063499ff3ef146101a957806370a08231146101c5576100ea565b806306fdde03146100ef578063095ea7b31461010d57806318160ddd1461013d575b600080fd5b6100f76102e9565b6040516101049190610eff565b60405180910390f35b61012760048036038101906101229190610fba565b61037b565b6040516101349190611015565b60405180910390f35b61014561039e565b604051610152919061103f565b60405180910390f35b6101756004803603810190610170919061105a565b6103a8565b6040516101829190611015565b60405180910390f35b6101936103d7565b6040516101a091906110c9565b60405180910390f35b6101c360048036038101906101be9190610fba565b6103e0565b005b6101df60048036038101906101da91906110e4565b61043a565b6040516101ec919061103f565b60405180910390f35b61020f600480360381019061020a9190610fba565b610482565b005b61021961054e565b604051610226919061103f565b60405180910390f35b61023761055e565b6040516102449190610eff565b60405180910390f35b61026760048036038101906102629190610fba565b6105f0565b6040516102749190611015565b60405180910390f35b610285610613565b604051610292919061103f565b60405180910390f35b6102a3610623565b6040516102b0919061103f565b60405180910390f35b6102d360048036038101906102ce9190611111565b610629565b6040516102e0919061103f565b60405180910390f35b6060600380546102f890611180565b80601f016020809104026020016040519081016040528092919081815260200182805461032490611180565b80156103715780601f1061034657610100808354040283529160200191610371565b820191906000526020600020905b81548152906001019060200180831161035457829003601f168201915b5050505050905090565b6000806103866106b0565b90506103938185856106b8565b600191505092915050565b6000600254905090565b6000806103b36106b0565b90506103c08582856106ca565b6103cb85858561075e565b60019150509392505050565b60006012905090565b806103ea3061043a565b101561042b576040517f08c379a000000000000000000000000000000000000000000000000000000000815260040161042290611223565b60405180910390fd5b61043630838361075e565b5050565b60008060008373ffffffffffffffffffffffffffffffffffffffff1673ffffffffffffffffffffffffffffffffffffffff168152602001908152602001600020549050919050565b600554811115610493600554610852565b6040516020016104a391906112f1565b604051602081830303815290604052906104f3576040517f08c379a00000000000000000000000000000000000000000000000000000000081526004016104ea9190610eff565b60405180910390fd5b50806104fe3061043a565b101561053f576040517f08c379a000000000000000000000000000000000000000000000000000000000815260040161053690611223565b60405180910390fd5b61054a30838361075e565b5050565b6b033b2e3c9fd0803ce800000081565b60606004805461056d90611180565b80601f016020809104026020016040519081016040528092919081815260200182805461059990611180565b80156105e65780601f106105bb576101008083540402835291602001916105e6565b820191906000526020600020905b8154815290600101906020018083116105c957829003601f168201915b5050505050905090565b6000806105fb6106b0565b905061060881858561075e565b600191505092915050565b600061061e3061043a565b905090565b60055481565b6000600160008473ffffffffffffffffffffffffffffffffffffffff1673ffffffffffffffffffffffffffffffffffffffff16815260200190815260200160002060008373ffffffffffffffffffffffffffffffffffffffff1673ffffffffffffffffffffffffffffffffffffffff16815260200190815260200160002054905092915050565b600033905090565b6106c58383836001610920565b505050565b60006106d68484610629565b90507fffffffffffffffffffffffffffffffffffffffffffffffffffffffffffffffff81146107585781811015610748578281836040517ffb8f41b200000000000000000000000000000000000000000000000000000000815260040161073f93929190611322565b60405180910390fd5b61075784848484036000610920565b5b50505050565b600073ffffffffffffffffffffffffffffffffffffffff168373ffffffffffffffffffffffffffffffffffffffff16036107d05760006040517f96c6fd1e0000000000000000000000000000000000000000000000000000000081526004016107c79190611359565b60405180910390fd5b600073ffffffffffffffffffffffffffffffffffffffff168273ffffffffffffffffffffffffffffffffffffffff16036108425760006040517fec442f050000000000000000000000000000000000000000000000000000000081526004016108399190611359565b60405180910390fd5b61084d838383610af7565b505050565b60606000600161086184610d1c565b01905060008167ffffffffffffffff8111156108805761087f611374565b5b6040519080825280601f01601f1916602001820160405280156108b25781602001600182028036833780820191505090505b509050600082602001820190505b600115610915578080600190039150507f3031323334353637383961626364656600000000000000000000000000000000600a86061a8153600a8581610909576109086113a3565b5b049450600085036108c0575b819350505050919050565b600073ffffffffffffffffffffffffffffffffffffffff168473ffffffffffffffffffffffffffffffffffffffff16036109925760006040517fe602df050000000000000000000000000000000000000000000000000000000081526004016109899190611359565b60405180910390fd5b600073ffffffffffffffffffffffffffffffffffffffff168373ffffffffffffffffffffffffffffffffffffffff1603610a045760006040517f94280d620000000000000000000000000000000000000000000000000000000081526004016109fb9190611359565b60405180910390fd5b81600160008673ffffffffffffffffffffffffffffffffffffffff1673ffffffffffffffffffffffffffffffffffffffff16815260200190815260200160002060008573ffffffffffffffffffffffffffffffffffffffff1673ffffffffffffffffffffffffffffffffffffffff168152602001908152602001600020819055508015610af1578273ffffffffffffffffffffffffffffffffffffffff168473ffffffffffffffffffffffffffffffffffffffff167f8c5be1e5ebec7d5bd14f71427d1e84f3dd0314c0f7b2291e5b200ac8c7c3b92584604051610ae8919061103f565b60405180910390a35b50505050565b600073ffffffffffffffffffffffffffffffffffffffff168373ffffffffffffffffffffffffffffffffffffffff1603610b49578060026000828254610b3d9190611401565b92505081905550610c1c565b60008060008573ffffffffffffffffffffffffffffffffffffffff1673ffffffffffffffffffffffffffffffffffffffff16815260200190815260200160002054905081811015610bd5578381836040517fe450d38c000000000000000000000000000000000000000000000000000000008152600401610bcc93929190611322565b60405180910390fd5b8181036000808673ffffffffffffffffffffffffffffffffffffffff1673ffffffffffffffffffffffffffffffffffffffff16815260200190815260200160002081905550505b600073ffffffffffffffffffffffffffffffffffffffff168273ffffffffffffffffffffffffffffffffffffffff1603610c655780600260008282540392505081905550610cb2565b806000808473ffffffffffffffffffffffffffffffffffffffff1673ffffffffffffffffffffffffffffffffffffffff168152602001908152602001600020600082825401925050819055505b8173ffffffffffffffffffffffffffffffffffffffff168373ffffffffffffffffffffffffffffffffffffffff167fddf252ad1be2c89b69c2b068fc378daa952ba7f163c4a11628f55a4df523b3ef83604051610d0f919061103f565b60405180910390a3505050565b600080600090507a184f03e93ff9f4daa797ed6e38ed64bf6a1f0100000000000000008310610d7a577a184f03e93ff9f4daa797ed6e38ed64bf6a1f0100000000000000008381610d7057610d6f6113a3565b5b0492506040810190505b6d04ee2d6d415b85acef81000000008310610db7576d04ee2d6d415b85acef81000000008381610dad57610dac6113a3565b5b0492506020810190505b662386f26fc100008310610de657662386f26fc100008381610ddc57610ddb6113a3565b5b0492506010810190505b6305f5e1008310610e0f576305f5e1008381610e0557610e046113a3565b5b0492506008810190505b6127108310610e34576127108381610e2a57610e296113a3565b5b0492506004810190505b60648310610e575760648381610e4d57610e4c6113a3565b5b0492506002810190505b600a8310610e66576001810190505b80915050919050565b600081519050919050565b600082825260208201905092915050565b60005b83811015610ea9578082015181840152602081019050610e8e565b60008484015250505050565b6000601f19601f8301169050919050565b6000610ed182610e6f565b610edb8185610e7a565b9350610eeb818560208601610e8b565b610ef481610eb5565b840191505092915050565b60006020820190508181036000830152610f198184610ec6565b905092915050565b600080fd5b600073ffffffffffffffffffffffffffffffffffffffff82169050919050565b6000610f5182610f26565b9050919050565b610f6181610f46565b8114610f6c57600080fd5b50565b600081359050610f7e81610f58565b92915050565b6000819050919050565b610f9781610f84565b8114610fa257600080fd5b50565b600081359050610fb481610f8e565b92915050565b60008060408385031215610fd157610fd0610f21565b5b6000610fdf85828601610f6f565b9250506020610ff085828601610fa5565b9150509250929050565b60008115159050919050565b61100f81610ffa565b82525050565b600060208201905061102a6000830184611006565b92915050565b61103981610f84565b82525050565b60006020820190506110546000830184611030565b92915050565b60008060006060848603121561107357611072610f21565b5b600061108186828701610f6f565b935050602061109286828701610f6f565b92505060406110a386828701610fa5565b9150509250925092565b600060ff82169050919050565b6110c3816110ad565b82525050565b60006020820190506110de60008301846110ba565b92915050565b6000602082840312156110fa576110f9610f21565b5b600061110884828501610f6f565b91505092915050565b6000806040838503121561112857611127610f21565b5b600061113685828601610f6f565b925050602061114785828601610f6f565b9150509250929050565b7f4e487b7100000000000000000000000000000000000000000000000000000000600052602260045260246000fd5b6000600282049050600182168061119857607f821691505b6020821081036111ab576111aa611151565b5b50919050565b7f4552433230546f6b656e3a20696e73756666696369656e742062616c616e636560008201527f20696e20636f6e74726163740000000000000000000000000000000000000000602082015250565b600061120d602c83610e7a565b9150611218826111b1565b604082019050919050565b6000602082019050818103600083015261123c81611200565b9050919050565b600081905092915050565b7f4552433230546f6b656e3a2066617563657420616d6f756e7420746f6f206c6160008201527f7267652c206d61783a2000000000000000000000000000000000000000000000602082015250565b60006112aa602a83611243565b91506112b58261124e565b602a82019050919050565b60006112cb82610e6f565b6112d58185611243565b93506112e5818560208601610e8b565b80840191505092915050565b60006112fc8261129d565b915061130882846112c0565b915081905092915050565b61131c81610f46565b82525050565b60006060820190506113376000830186611313565b6113446020830185611030565b6113516040830184611030565b949350505050565b600060208201905061136e6000830184611313565b92915050565b7f4e487b7100000000000000000000000000000000000000000000000000000000600052604160045260246000fd5b7f4e487b7100000000000000000000000000000000000000000000000000000000600052601260045260246000fd5b7f4e487b7100000000000000000000000000000000000000000000000000000000600052601160045260246000fd5b600061140c82610f84565b915061141783610f84565b925082820190508082111561142f5761142e6113d2565b5b9291505056fea2646970667358221220c5fbb1cbdf88904d5ad7471a97af0130ed16e88054f71d1a5aba36a9f3779b3764736f6c63430008140033",
  "linkReferences": {},
  "deployedLinkReferences": {}
}