{
  "_format": "hh-sol-artifact-1",
  "contractName": "TokenERC721",
  "sourceName": "contracts/TokenERC721.sol",
  "abi": [
    {
      "inputs": [],
      "stateMutability": "nonpayable",
      "type": "constructor"
    },
    {
      "inputs": [
        {
          "internalType": "address",
          "name": "sender",
          "type": "address"
        },
        {
          "internalType": "uint256",
          "name": "tokenId",
          "type": "uint256"
        },
        {
          "internalType": "address",
          "name": "owner",
          "type": "address"
        }
      ],
      "name": "ERC721IncorrectOwner",
      "type": "error"
    },
    {
      "inputs": [
        {
          "internalType": "address",
          "name": "operator",
          "type": "address"
        },
        {
          "internalType": "uint256",
          "name": "tokenId",
          "type": "uint256"
        }
      ],
      "name": "ERC721InsufficientApproval",
      "type": "error"
    },
    {
      "inputs": [
        {
          "internalType": "address",
          "name": "approver",
          "type": "address"
        }
      ],
      "name": "ERC721InvalidApprover",
      "type": "error"
    },
    {
      "inputs": [
        {
          "internalType": "address",
          "name": "operator",
          "type": "address"
        }
      ],
      "name": "ERC721InvalidOperator",
      "type": "error"
    },
    {
      "inputs": [
        {
          "internalType": "address",
          "name": "owner",
          "type": "address"
        }
      ],
      "name": "ERC721InvalidOwner",
      "type": "error"
    },
    {
      "inputs": [
        {
          "internalType": "address",
          "name": "receiver",
          "type": "address"
        }
      ],
      "name": "ERC721InvalidReceiver",
      "type": "error"
    },
    {
      "inputs": [
        {
          "internalType": "address",
          "name": "sender",
          "type": "address"
        }
      ],
      "name": "ERC721InvalidSender",
      "type": "error"
    },
    {
      "inputs": [
        {
          "internalType": "uint256",
          "name": "tokenId",
          "type": "uint256"
        }
      ],
      "name": "ERC721NonexistentToken",
      "type": "error"
    },
    {
      "anonymous": false,
      "inputs": [
        {
          "indexed": true,
          "internalType": "address",
          "name": "owner",
          "type": "address"
        },
        {
          "indexed": true,
          "internalType": "address",
          "name": "approved",
          "type": "address"
        },
        {
          "indexed": true,
          "internalType": "uint256",
          "name": "tokenId",
          "type": "uint256"
        }
      ],
      "name": "Approval",
      "type": "event"
    },
    {
      "anonymous": false,
      "inputs": [
        {
          "indexed": true,
          "internalType": "address",
          "name": "owner",
          "type": "address"
        },
        {
          "indexed": true,
          "internalType": "address",
          "name": "operator",
          "type": "address"
        },
        {
          "indexed": false,
          "internalType": "bool",
          "name": "approved",
          "type": "bool"
        }
      ],
      "name": "ApprovalForAll",
      "type": "event"
    },
    {
      "anonymous": false,
      "inputs": [
        {
          "indexed": true,
          "internalType": "address",
          "name": "from",
          "type": "address"
        },
        {
          "indexed": true,
          "internalType": "address",
          "name": "to",
          "type": "address"
        },
        {
          "indexed": true,
          "internalType": "uint256",
          "name": "tokenId",
          "type": "uint256"
        }
      ],
      "name": "Transfer",
      "type": "event"
    },
    {
      "inputs": [
        {
          "internalType": "address",
          "name": "to",
          "type": "address"
        },
        {
          "internalType": "uint256",
          "name": "tokenId",
          "type": "uint256"
        }
      ],
      "name": "approve",
      "outputs": [],
      "stateMutability": "nonpayable",
      "type": "function"
    },
    {
      "inputs": [
        {
          "internalType": "address",
          "name": "owner",
          "type": "address"
        }
      ],
      "name": "balanceOf",
      "outputs": [
        {
          "internalType": "uint256",
          "name": "",
          "type": "uint256"
        }
      ],
      "stateMutability": "view",
      "type": "function"
    },
    {
      "inputs": [],
      "name": "balanceOfTokenERC721",
      "outputs": [
        {
          "internalType": "uint256",
          "name": "",
          "type": "uint256"
        }
      ],
      "stateMutability": "view",
      "type": "function"
    },
    {
      "inputs": [
        {
          "internalType": "uint256",
          "name": "tokenId",
          "type": "uint256"
        }
      ],
      "name": "getApproved",
      "outputs": [
        {
          "internalType": "address",
          "name": "",
          "type": "address"
        }
      ],
      "stateMutability": "view",
      "type": "function"
    },
    {
      "inputs": [
        {
          "internalType": "address",
          "name": "owner",
          "type": "address"
        }
      ],
      "name": "getOwnedTokens",
      "outputs": [
        {
          "internalType": "uint256[]",
          "name": "",
          "type": "uint256[]"
        }
      ],
      "stateMutability": "view",
      "type": "function"
    },
    {
      "inputs": [
        {
          "internalType": "address",
          "name": "owner",
          "type": "address"
        },
        {
          "internalType": "address",
          "name": "operator",
          "type": "address"
        }
      ],
      "name": "isApprovedForAll",
      "outputs": [
        {
          "internalType": "bool",
          "name": "",
          "type": "bool"
        }
      ],
      "stateMutability": "view",
      "type": "function"
    },
    {
      "inputs": [
        {
          "internalType": "address",
          "name": "to",
          "type": "address"
        }
      ],
      "name": "mint",
      "outputs": [],
      "stateMutability": "nonpayable",
      "type": "function"
    },
    {
      "inputs": [],
      "name": "name",
      "outputs": [
        {
          "internalType": "string",
          "name": "",
          "type": "string"
        }
      ],
      "stateMutability": "view",
      "type": "function"
    },
    {
      "inputs": [],
      "name": "nextTokenId",
      "outputs": [
        {
          "internalType": "uint256",
          "name": "",
          "type": "uint256"
        }
      ],
      "stateMutability": "view",
      "type": "function"
    },
    {
      "inputs": [
        {
          "internalType": "uint256",
          "name": "tokenId",
          "type": "uint256"
        }
      ],
      "name": "ownerOf",
      "outputs": [
        {
          "internalType": "address",
          "name": "",
          "type": "address"
        }
      ],
      "stateMutability": "view",
      "type": "function"
    },
    {
      "inputs": [
        {
          "internalType": "address",
          "name": "from",
          "type": "address"
        },
        {
          "internalType": "address",
          "name": "to",
          "type": "address"
        },
        {
          "internalType": "uint256",
          "name": "tokenId",
          "type": "uint256"
        }
      ],
      "name": "safeTransferFrom",
      "outputs": [],
      "stateMutability": "nonpayable",
      "type": "function"
    },
    {
      "inputs": [
        {
          "internalType": "address",
          "name": "from",
          "type": "address"
        },
        {
          "internalType": "address",
          "name": "to",
          "type": "address"
        },
        {
          "internalType": "uint256",
          "name": "tokenId",
          "type": "uint256"
        },
        {
          "internalType": "bytes",
          "name": "data",
          "type": "bytes"
        }
      ],
      "name": "safeTransferFrom",
      "outputs": [],
      "stateMutability": "nonpayable",
      "type": "function"
    },
    {
      "inputs": [
        {
          "internalType": "address",
          "name": "operator",
          "type": "address"
        },
        {
          "internalType": "bool",
          "name": "approved",
          "type": "bool"
        }
      ],
      "name": "setApprovalForAll",
      "outputs": [],
      "stateMutability": "nonpayable",
      "type": "function"
    },
    {
      "inputs": [
        {
          "internalType": "bytes4",
          "name": "interfaceId",
          "type": "bytes4"
        }
      ],
      "name": "supportsInterface",
      "outputs": [
        {
          "internalType": "bool",
          "name": "",
          "type": "bool"
        }
      ],
      "stateMutability": "view",
      "type": "function"
    },
    {
      "inputs": [],
      "name": "symbol",
      "outputs": [
        {
          "internalType": "string",
          "name": "",
          "type": "string"
        }
      ],
      "stateMutability": "view",
      "type": "function"
    },
    {
      "inputs": [
        {
          "internalType": "uint256",
          "name": "tokenId",
          "type": "uint256"
        }
      ],
      "name": "tokenURI",
      "outputs": [
        {
          "internalType": "string",
          "name": "",
          "type": "string"
        }
      ],
      "stateMutability": "view",
      "type": "function"
    },
    {
      "inputs": [
        {
          "internalType": "address",
          "name": "from",
          "type": "address"
        },
        {
          "internalType": "address",
          "name": "to",
          "type": "address"
        },
        {
          "internalType": "uint256",
          "name": "tokenId",
          "type": "uint256"
        }
      ],
      "name": "transferAndUpdateTokens",
      "outputs": [],
      "stateMutability": "nonpayable",
      "type": "function"
    },
    {
      "inputs": [
        {
          "internalType": "address",
          "name": "from",
          "type": "address"
        },
        {
          "internalType": "address",
          "name": "to",
          "type": "address"
        },
        {
          "internalType": "uint256",
          "name": "tokenId",
          "type": "uint256"
        }
      ],
      "name": "transferFrom",
      "outputs": [],
      "stateMutability": "nonpayable",
      "type": "function"
    }
  ],
  "bytecode": "0x60806040523480156200001157600080fd5b506040518060400160405280600581526020017f4e46542d420000000000000000000000000000000000000000000000000000008152506040518060400160405280600681526020017f455243373231000000000000000000000000000000000000000000000000000081525081600090816200008f919062000324565b508060019081620000a1919062000324565b5050506200040b565b600081519050919050565b7f4e487b7100000000000000000000000000000000000000000000000000000000600052604160045260246000fd5b7f4e487b7100000000000000000000000000000000000000000000000000000000600052602260045260246000fd5b600060028204905060018216806200012c57607f821691505b602082108103620001425762000141620000e4565b5b50919050565b60008190508160005260206000209050919050565b60006020601f8301049050919050565b600082821b905092915050565b600060088302620001ac7fffffffffffffffffffffffffffffffffffffffffffffffffffffffffffffffff826200016d565b620001b886836200016d565b95508019841693508086168417925050509392505050565b6000819050919050565b6000819050919050565b600062000205620001ff620001f984620001d0565b620001da565b620001d0565b9050919050565b6000819050919050565b6200022183620001e4565b6200023962000230826200020c565b8484546200017a565b825550505050565b600090565b6200025062000241565b6200025d81848462000216565b505050565b5b8181101562000285576200027960008262000246565b60018101905062000263565b5050565b601f821115620002d4576200029e8162000148565b620002a9846200015d565b81016020851015620002b9578190505b620002d1620002c8856200015d565b83018262000262565b50505b505050565b600082821c905092915050565b6000620002f960001984600802620002d9565b1980831691505092915050565b6000620003148383620002e6565b9150826002028217905092915050565b6200032f82620000aa565b67ffffffffffffffff8111156200034b576200034a620000b5565b5b62000357825462000113565b6200036482828562000289565b600060209050601f8311600181146200039c576000841562000387578287015190505b62000393858262000306565b86555062000403565b601f198416620003ac8662000148565b60005b82811015620003d657848901518255600182019150602085019450602081019050620003af565b86831015620003f65784890151620003f2601f891682620002e6565b8355505b6001600288020188555050505b505050505050565b612461806200041b6000396000f3fe608060405234801561001057600080fd5b50600436106101165760003560e01c806370a08231116100a2578063a22cb46511610071578063a22cb465146102df578063b88d4fde146102fb578063c87b56dd14610317578063d9d6165514610347578063e985e9c51461037757610116565b806370a082311461025757806375794a3c1461028757806395d89b41146102a55780639e872ce9146102c357610116565b806322a579cb116100e957806322a579cb146101b557806323b872dd146101d357806342842e0e146101ef5780636352211e1461020b5780636a6278421461023b57610116565b806301ffc9a71461011b57806306fdde031461014b578063081812fc14610169578063095ea7b314610199575b600080fd5b610135600480360381019061013091906119fc565b6103a7565b6040516101429190611a44565b60405180910390f35b610153610489565b6040516101609190611aef565b60405180910390f35b610183600480360381019061017e9190611b47565b61051b565b6040516101909190611bb5565b60405180910390f35b6101b360048036038101906101ae9190611bfc565b610537565b005b6101bd61054d565b6040516101ca9190611c4b565b60405180910390f35b6101ed60048036038101906101e89190611c66565b61055d565b005b61020960048036038101906102049190611c66565b61065f565b005b61022560048036038101906102209190611b47565b61067f565b6040516102329190611bb5565b60405180910390f35b61025560048036038101906102509190611cb9565b610691565b005b610271600480360381019061026c9190611cb9565b610726565b60405161027e9190611c4b565b60405180910390f35b61028f6107e0565b60405161029c9190611c4b565b60405180910390f35b6102ad6107e6565b6040516102ba9190611aef565b60405180910390f35b6102dd60048036038101906102d89190611c66565b610878565b005b6102f960048036038101906102f49190611d12565b61096e565b005b61031560048036038101906103109190611e87565b610984565b005b610331600480360381019061032c9190611b47565b6109a1565b60405161033e9190611aef565b60405180910390f35b610361600480360381019061035c9190611cb9565b610a0a565b60405161036e9190611fc8565b60405180910390f35b610391600480360381019061038c9190611fea565b610aa1565b60405161039e9190611a44565b60405180910390f35b60007f80ac58cd000000000000000000000000000000000000000000000000000000007bffffffffffffffffffffffffffffffffffffffffffffffffffffffff1916827bffffffffffffffffffffffffffffffffffffffffffffffffffffffff1916148061047257507f5b5e139f000000000000000000000000000000000000000000000000000000007bffffffffffffffffffffffffffffffffffffffffffffffffffffffff1916827bffffffffffffffffffffffffffffffffffffffffffffffffffffffff1916145b80610482575061048182610b35565b5b9050919050565b60606000805461049890612059565b80601f01602080910402602001604051908101604052809291908181526020018280546104c490612059565b80156105115780601f106104e657610100808354040283529160200191610511565b820191906000526020600020905b8154815290600101906020018083116104f457829003601f168201915b5050505050905090565b600061052682610b9f565b5061053082610c27565b9050919050565b6105498282610544610c64565b610c6c565b5050565b600061055830610726565b905090565b600073ffffffffffffffffffffffffffffffffffffffff168273ffffffffffffffffffffffffffffffffffffffff16036105cf5760006040517f64a0ae920000000000000000000000000000000000000000000000000000000081526004016105c69190611bb5565b60405180910390fd5b60006105e383836105de610c64565b610c7e565b90508373ffffffffffffffffffffffffffffffffffffffff168173ffffffffffffffffffffffffffffffffffffffff1614610659578382826040517f64283d7b0000000000000000000000000000000000000000000000000000000081526004016106509392919061208a565b60405180910390fd5b50505050565b61067a83838360405180602001604052806000815250610984565b505050565b600061068a82610b9f565b9050919050565b600060065490506106a28282610e98565b600760008373ffffffffffffffffffffffffffffffffffffffff1673ffffffffffffffffffffffffffffffffffffffff16815260200190815260200160002081908060018154018082558091505060019003906000526020600020016000909190919091505560016006600082825461071b91906120f0565b925050819055505050565b60008073ffffffffffffffffffffffffffffffffffffffff168273ffffffffffffffffffffffffffffffffffffffff16036107995760006040517f89c62b640000000000000000000000000000000000000000000000000000000081526004016107909190611bb5565b60405180910390fd5b600360008373ffffffffffffffffffffffffffffffffffffffff1673ffffffffffffffffffffffffffffffffffffffff168152602001908152602001600020549050919050565b60065481565b6060600180546107f590612059565b80601f016020809104026020016040519081016040528092919081815260200182805461082190612059565b801561086e5780601f106108435761010080835404028352916020019161086e565b820191906000526020600020905b81548152906001019060200180831161085157829003601f168201915b5050505050905090565b8273ffffffffffffffffffffffffffffffffffffffff166108988261067f565b73ffffffffffffffffffffffffffffffffffffffff16146108ee576040517f08c379a00000000000000000000000000000000000000000000000000000000081526004016108e590612196565b60405180910390fd5b6108f983838361065f565b600760008373ffffffffffffffffffffffffffffffffffffffff1673ffffffffffffffffffffffffffffffffffffffff1681526020019081526020016000208190806001815401808255809150506001900390600052602060002001600090919091909150556109698382610f91565b505050565b610980610979610c64565b8383610f9f565b5050565b61098f84848461055d565b61099b8484848461110e565b50505050565b60606109ac82610b9f565b5060006109b76112c5565b905060008151116109d75760405180602001604052806000815250610a02565b806109e1846112dc565b6040516020016109f29291906121f2565b6040516020818303038152906040525b915050919050565b6060600760008373ffffffffffffffffffffffffffffffffffffffff1673ffffffffffffffffffffffffffffffffffffffff168152602001908152602001600020805480602002602001604051908101604052809291908181526020018280548015610a9557602002820191906000526020600020905b815481526020019060010190808311610a81575b50505050509050919050565b6000600560008473ffffffffffffffffffffffffffffffffffffffff1673ffffffffffffffffffffffffffffffffffffffff16815260200190815260200160002060008373ffffffffffffffffffffffffffffffffffffffff1673ffffffffffffffffffffffffffffffffffffffff16815260200190815260200160002060009054906101000a900460ff16905092915050565b60007f01ffc9a7000000000000000000000000000000000000000000000000000000007bffffffffffffffffffffffffffffffffffffffffffffffffffffffff1916827bffffffffffffffffffffffffffffffffffffffffffffffffffffffff1916149050919050565b600080610bab836113aa565b9050600073ffffffffffffffffffffffffffffffffffffffff168173ffffffffffffffffffffffffffffffffffffffff1603610c1e57826040517f7e273289000000000000000000000000000000000000000000000000000000008152600401610c159190611c4b565b60405180910390fd5b80915050919050565b60006004600083815260200190815260200160002060009054906101000a900473ffffffffffffffffffffffffffffffffffffffff169050919050565b600033905090565b610c7983838360016113e7565b505050565b600080610c8a846113aa565b9050600073ffffffffffffffffffffffffffffffffffffffff168373ffffffffffffffffffffffffffffffffffffffff1614610ccc57610ccb8184866115ac565b5b600073ffffffffffffffffffffffffffffffffffffffff168173ffffffffffffffffffffffffffffffffffffffff1614610d5d57610d0e6000856000806113e7565b6001600360008373ffffffffffffffffffffffffffffffffffffffff1673ffffffffffffffffffffffffffffffffffffffff168152602001908152602001600020600082825403925050819055505b600073ffffffffffffffffffffffffffffffffffffffff168573ffffffffffffffffffffffffffffffffffffffff1614610de0576001600360008773ffffffffffffffffffffffffffffffffffffffff1673ffffffffffffffffffffffffffffffffffffffff168152602001908152602001600020600082825401925050819055505b846002600086815260200190815260200160002060006101000a81548173ffffffffffffffffffffffffffffffffffffffff021916908373ffffffffffffffffffffffffffffffffffffffff160217905550838573ffffffffffffffffffffffffffffffffffffffff168273ffffffffffffffffffffffffffffffffffffffff167fddf252ad1be2c89b69c2b068fc378daa952ba7f163c4a11628f55a4df523b3ef60405160405180910390a4809150509392505050565b600073ffffffffffffffffffffffffffffffffffffffff168273ffffffffffffffffffffffffffffffffffffffff1603610f0a5760006040517f64a0ae92000000000000000000000000000000000000000000000000000000008152600401610f019190611bb5565b60405180910390fd5b6000610f1883836000610c7e565b9050600073ffffffffffffffffffffffffffffffffffffffff168173ffffffffffffffffffffffffffffffffffffffff1614610f8c5760006040517f73c6ac6e000000000000000000000000000000000000000000000000000000008152600401610f839190611bb5565b60405180910390fd5b505050565b610f9b8282611670565b5050565b600073ffffffffffffffffffffffffffffffffffffffff168273ffffffffffffffffffffffffffffffffffffffff160361101057816040517f5b08ba180000000000000000000000000000000000000000000000000000000081526004016110079190611bb5565b60405180910390fd5b80600560008573ffffffffffffffffffffffffffffffffffffffff1673ffffffffffffffffffffffffffffffffffffffff16815260200190815260200160002060008473ffffffffffffffffffffffffffffffffffffffff1673ffffffffffffffffffffffffffffffffffffffff16815260200190815260200160002060006101000a81548160ff0219169083151502179055508173ffffffffffffffffffffffffffffffffffffffff168373ffffffffffffffffffffffffffffffffffffffff167f17307eab39ab6107e8899845ad3d59bd9653f200f220920489ca2b5937696c31836040516111019190611a44565b60405180910390a3505050565b60008373ffffffffffffffffffffffffffffffffffffffff163b11156112bf578273ffffffffffffffffffffffffffffffffffffffff1663150b7a02611152610c64565b8685856040518563ffffffff1660e01b8152600401611174949392919061226b565b6020604051808303816000875af19250505080156111b057506040513d601f19601f820116820180604052508101906111ad91906122cc565b60015b611234573d80600081146111e0576040519150601f19603f3d011682016040523d82523d6000602084013e6111e5565b606091505b50600081510361122c57836040517f64a0ae920000000000000000000000000000000000000000000000000000000081526004016112239190611bb5565b60405180910390fd5b805181602001fd5b63150b7a0260e01b7bffffffffffffffffffffffffffffffffffffffffffffffffffffffff1916817bffffffffffffffffffffffffffffffffffffffffffffffffffffffff1916146112bd57836040517f64a0ae920000000000000000000000000000000000000000000000000000000081526004016112b49190611bb5565b60405180910390fd5b505b50505050565b606060405180602001604052806000815250905090565b6060600060016112eb8461177c565b01905060008167ffffffffffffffff81111561130a57611309611d5c565b5b6040519080825280601f01601f19166020018201604052801561133c5781602001600182028036833780820191505090505b509050600082602001820190505b60011561139f578080600190039150507f3031323334353637383961626364656600000000000000000000000000000000600a86061a8153600a8581611393576113926122f9565b5b0494506000850361134a575b819350505050919050565b60006002600083815260200190815260200160002060009054906101000a900473ffffffffffffffffffffffffffffffffffffffff169050919050565b80806114205750600073ffffffffffffffffffffffffffffffffffffffff168273ffffffffffffffffffffffffffffffffffffffff1614155b1561155457600061143084610b9f565b9050600073ffffffffffffffffffffffffffffffffffffffff168373ffffffffffffffffffffffffffffffffffffffff161415801561149b57508273ffffffffffffffffffffffffffffffffffffffff168173ffffffffffffffffffffffffffffffffffffffff1614155b80156114ae57506114ac8184610aa1565b155b156114f057826040517fa9fbf51f0000000000000000000000000000000000000000000000000000000081526004016114e79190611bb5565b60405180910390fd5b811561155257838573ffffffffffffffffffffffffffffffffffffffff168273ffffffffffffffffffffffffffffffffffffffff167f8c5be1e5ebec7d5bd14f71427d1e84f3dd0314c0f7b2291e5b200ac8c7c3b92560405160405180910390a45b505b836004600085815260200190815260200160002060006101000a81548173ffffffffffffffffffffffffffffffffffffffff021916908373ffffffffffffffffffffffffffffffffffffffff16021790555050505050565b6115b78383836118cf565b61166b57600073ffffffffffffffffffffffffffffffffffffffff168373ffffffffffffffffffffffffffffffffffffffff160361162c57806040517f7e2732890000000000000000000000000000000000000000000000000000000081526004016116239190611c4b565b60405180910390fd5b81816040517f177e802f000000000000000000000000000000000000000000000000000000008152600401611662929190612328565b60405180910390fd5b505050565b6000600760008473ffffffffffffffffffffffffffffffffffffffff1673ffffffffffffffffffffffffffffffffffffffff168152602001908152602001600020905060008180549050905060005b8181101561177557838382815481106116db576116da612351565b5b90600052602060002001540361176257826001836116f99190612380565b8154811061170a57611709612351565b5b906000526020600020015483828154811061172857611727612351565b5b906000526020600020018190555082805480611747576117466123b4565b5b60019003818190600052602060002001600090559055611775565b808061176d906123e3565b9150506116bf565b5050505050565b600080600090507a184f03e93ff9f4daa797ed6e38ed64bf6a1f01000000000000000083106117da577a184f03e93ff9f4daa797ed6e38ed64bf6a1f01000000000000000083816117d0576117cf6122f9565b5b0492506040810190505b6d04ee2d6d415b85acef81000000008310611817576d04ee2d6d415b85acef8100000000838161180d5761180c6122f9565b5b0492506020810190505b662386f26fc10000831061184657662386f26fc10000838161183c5761183b6122f9565b5b0492506010810190505b6305f5e100831061186f576305f5e1008381611865576118646122f9565b5b0492506008810190505b612710831061189457612710838161188a576118896122f9565b5b0492506004810190505b606483106118b757606483816118ad576118ac6122f9565b5b0492506002810190505b600a83106118c6576001810190505b80915050919050565b60008073ffffffffffffffffffffffffffffffffffffffff168373ffffffffffffffffffffffffffffffffffffffff161415801561198757508273ffffffffffffffffffffffffffffffffffffffff168473ffffffffffffffffffffffffffffffffffffffff16148061194857506119478484610aa1565b5b8061198657508273ffffffffffffffffffffffffffffffffffffffff1661196e83610c27565b73ffffffffffffffffffffffffffffffffffffffff16145b5b90509392505050565b6000604051905090565b600080fd5b600080fd5b60007fffffffff0000000000000000000000000000000000000000000000000000000082169050919050565b6119d9816119a4565b81146119e457600080fd5b50565b6000813590506119f6816119d0565b92915050565b600060208284031215611a1257611a1161199a565b5b6000611a20848285016119e7565b91505092915050565b60008115159050919050565b611a3e81611a29565b82525050565b6000602082019050611a596000830184611a35565b92915050565b600081519050919050565b600082825260208201905092915050565b60005b83811015611a99578082015181840152602081019050611a7e565b60008484015250505050565b6000601f19601f8301169050919050565b6000611ac182611a5f565b611acb8185611a6a565b9350611adb818560208601611a7b565b611ae481611aa5565b840191505092915050565b60006020820190508181036000830152611b098184611ab6565b905092915050565b6000819050919050565b611b2481611b11565b8114611b2f57600080fd5b50565b600081359050611b4181611b1b565b92915050565b600060208284031215611b5d57611b5c61199a565b5b6000611b6b84828501611b32565b91505092915050565b600073ffffffffffffffffffffffffffffffffffffffff82169050919050565b6000611b9f82611b74565b9050919050565b611baf81611b94565b82525050565b6000602082019050611bca6000830184611ba6565b92915050565b611bd981611b94565b8114611be457600080fd5b50565b600081359050611bf681611bd0565b92915050565b60008060408385031215611c1357611c1261199a565b5b6000611c2185828601611be7565b9250506020611c3285828601611b32565b9150509250929050565b611c4581611b11565b82525050565b6000602082019050611c606000830184611c3c565b92915050565b600080600060608486031215611c7f57611c7e61199a565b5b6000611c8d86828701611be7565b9350506020611c9e86828701611be7565b9250506040611caf86828701611b32565b9150509250925092565b600060208284031215611ccf57611cce61199a565b5b6000611cdd84828501611be7565b91505092915050565b611cef81611a29565b8114611cfa57600080fd5b50565b600081359050611d0c81611ce6565b92915050565b60008060408385031215611d2957611d2861199a565b5b6000611d3785828601611be7565b9250506020611d4885828601611cfd565b9150509250929050565b600080fd5b600080fd5b7f4e487b7100000000000000000000000000000000000000000000000000000000600052604160045260246000fd5b611d9482611aa5565b810181811067ffffffffffffffff82111715611db357611db2611d5c565b5b80604052505050565b6000611dc6611990565b9050611dd28282611d8b565b919050565b600067ffffffffffffffff821115611df257611df1611d5c565b5b611dfb82611aa5565b9050602081019050919050565b82818337600083830152505050565b6000611e2a611e2584611dd7565b611dbc565b905082815260208101848484011115611e4657611e45611d57565b5b611e51848285611e08565b509392505050565b600082601f830112611e6e57611e6d611d52565b5b8135611e7e848260208601611e17565b91505092915050565b60008060008060808587031215611ea157611ea061199a565b5b6000611eaf87828801611be7565b9450506020611ec087828801611be7565b9350506040611ed187828801611b32565b925050606085013567ffffffffffffffff811115611ef257611ef161199f565b5b611efe87828801611e59565b91505092959194509250565b600081519050919050565b600082825260208201905092915050565b6000819050602082019050919050565b611f3f81611b11565b82525050565b6000611f518383611f36565b60208301905092915050565b6000602082019050919050565b6000611f7582611f0a565b611f7f8185611f15565b9350611f8a83611f26565b8060005b83811015611fbb578151611fa28882611f45565b9750611fad83611f5d565b925050600181019050611f8e565b5085935050505092915050565b60006020820190508181036000830152611fe28184611f6a565b905092915050565b600080604083850312156120015761200061199a565b5b600061200f85828601611be7565b925050602061202085828601611be7565b9150509250929050565b7f4e487b7100000000000000000000000000000000000000000000000000000000600052602260045260246000fd5b6000600282049050600182168061207157607f821691505b6020821081036120845761208361202a565b5b50919050565b600060608201905061209f6000830186611ba6565b6120ac6020830185611c3c565b6120b96040830184611ba6565b949350505050565b7f4e487b7100000000000000000000000000000000000000000000000000000000600052601160045260246000fd5b60006120fb82611b11565b915061210683611b11565b925082820190508082111561211e5761211d6120c1565b5b92915050565b7f4552433732313a207472616e73666572206f6620746f6b656e2074686174206960008201527f73206e6f74206f776e6564000000000000000000000000000000000000000000602082015250565b6000612180602b83611a6a565b915061218b82612124565b604082019050919050565b600060208201905081810360008301526121af81612173565b9050919050565b600081905092915050565b60006121cc82611a5f565b6121d681856121b6565b93506121e6818560208601611a7b565b80840191505092915050565b60006121fe82856121c1565b915061220a82846121c1565b91508190509392505050565b600081519050919050565b600082825260208201905092915050565b600061223d82612216565b6122478185612221565b9350612257818560208601611a7b565b61226081611aa5565b840191505092915050565b60006080820190506122806000830187611ba6565b61228d6020830186611ba6565b61229a6040830185611c3c565b81810360608301526122ac8184612232565b905095945050505050565b6000815190506122c6816119d0565b92915050565b6000602082840312156122e2576122e161199a565b5b60006122f0848285016122b7565b91505092915050565b7f4e487b7100000000000000000000000000000000000000000000000000000000600052601260045260246000fd5b600060408201905061233d6000830185611ba6565b61234a6020830184611c3c565b9392505050565b7f4e487b7100000000000000000000000000000000000000000000000000000000600052603260045260246000fd5b600061238b82611b11565b915061239683611b11565b92508282039050818111156123ae576123ad6120c1565b5b92915050565b7f4e487b7100000000000000000000000000000000000000000000000000000000600052603160045260246000fd5b60006123ee82611b11565b91507fffffffffffffffffffffffffffffffffffffffffffffffffffffffffffffffff82036124205761241f6120c1565b5b60018201905091905056fea26469706673582212205f10c54326f34626ce8a210008a1f5b976db8a929bbd5eb3899bec1892d2034f64736f6c63430008140033",
  "linkReferences": {},
  "deployedLinkReferences": {}
}