{
  "_format": "hh-sol-artifact-1",
  "contractName": "TokenERC20",
  "sourceName": "contracts/TokenERC20.sol",
  "abi": [
    {
      "inputs": [],
      "stateMutability": "nonpayable",
      "type": "constructor"
    },
    {
      "inputs": [
        {
          "internalType": "address",
          "name": "spender",
          "type": "address"
        },
        {
          "internalType": "uint256",
          "name": "allowance",
          "type": "uint256"
        },
        {
          "internalType": "uint256",
          "name": "needed",
          "type": "uint256"
        }
      ],
      "name": "ERC20InsufficientAllowance",
      "type": "error"
    },
    {
      "inputs": [
        {
          "internalType": "address",
          "name": "sender",
          "type": "address"
        },
        {
          "internalType": "uint256",
          "name": "balance",
          "type": "uint256"
        },
        {
          "internalType": "uint256",
          "name": "needed",
          "type": "uint256"
        }
      ],
      "name": "ERC20InsufficientBalance",
      "type": "error"
    },
    {
      "inputs": [
        {
          "internalType": "address",
          "name": "approver",
          "type": "address"
        }
      ],
      "name": "ERC20InvalidApprover",
      "type": "error"
    },
    {
      "inputs": [
        {
          "internalType": "address",
          "name": "receiver",
          "type": "address"
        }
      ],
      "name": "ERC20InvalidReceiver",
      "type": "error"
    },
    {
      "inputs": [
        {
          "internalType": "address",
          "name": "sender",
          "type": "address"
        }
      ],
      "name": "ERC20InvalidSender",
      "type": "error"
    },
    {
      "inputs": [
        {
          "internalType": "address",
          "name": "spender",
          "type": "address"
        }
      ],
      "name": "ERC20InvalidSpender",
      "type": "error"
    },
    {
      "anonymous": false,
      "inputs": [
        {
          "indexed": true,
          "internalType": "address",
          "name": "owner",
          "type": "address"
        },
        {
          "indexed": true,
          "internalType": "address",
          "name": "spender",
          "type": "address"
        },
        {
          "indexed": false,
          "internalType": "uint256",
          "name": "value",
          "type": "uint256"
        }
      ],
      "name": "Approval",
      "type": "event"
    },
    {
      "anonymous": false,
      "inputs": [
        {
          "indexed": true,
          "internalType": "address",
          "name": "from",
          "type": "address"
        },
        {
          "indexed": true,
          "internalType": "address",
          "name": "to",
          "type": "address"
        },
        {
          "indexed": false,
          "internalType": "uint256",
          "name": "value",
          "type": "uint256"
        }
      ],
      "name": "Transfer",
      "type": "event"
    },
    {
      "inputs": [],
      "name": "TOTAL_SUPPLY",
      "outputs": [
        {
          "internalType": "uint256",
          "name": "",
          "type": "uint256"
        }
      ],
      "stateMutability": "view",
      "type": "function"
    },
    {
      "inputs": [],
      "name": "TOTAL_faucet_MAX",
      "outputs": [
        {
          "internalType": "uint256",
          "name": "",
          "type": "uint256"
        }
      ],
      "stateMutability": "view",
      "type": "function"
    },
    {
      "inputs": [
        {
          "internalType": "address",
          "name": "owner",
          "type": "address"
        },
        {
          "internalType": "address",
          "name": "spender",
          "type": "address"
        }
      ],
      "name": "allowance",
      "outputs": [
        {
          "internalType": "uint256",
          "name": "",
          "type": "uint256"
        }
      ],
      "stateMutability": "view",
      "type": "function"
    },
    {
      "inputs": [
        {
          "internalType": "address",
          "name": "spender",
          "type": "address"
        },
        {
          "internalType": "uint256",
          "name": "value",
          "type": "uint256"
        }
      ],
      "name": "approve",
      "outputs": [
        {
          "internalType": "bool",
          "name": "",
          "type": "bool"
        }
      ],
      "stateMutability": "nonpayable",
      "type": "function"
    },
    {
      "inputs": [
        {
          "internalType": "address",
          "name": "account",
          "type": "address"
        }
      ],
      "name": "balanceOf",
      "outputs": [
        {
          "internalType": "uint256",
          "name": "",
          "type": "uint256"
        }
      ],
      "stateMutability": "view",
      "type": "function"
    },
    {
      "inputs": [],
      "name": "balanceOfTokenERC20",
      "outputs": [
        {
          "internalType": "uint256",
          "name": "",
          "type": "uint256"
        }
      ],
      "stateMutability": "view",
      "type": "function"
    },
    {
      "inputs": [],
      "name": "decimals",
      "outputs": [
        {
          "internalType": "uint8",
          "name": "",
          "type": "uint8"
        }
      ],
      "stateMutability": "view",
      "type": "function"
    },
    {
      "inputs": [
        {
          "internalType": "address",
          "name": "_to",
          "type": "address"
        },
        {
          "internalType": "uint256",
          "name": "_amount",
          "type": "uint256"
        }
      ],
      "name": "faucet",
      "outputs": [],
      "stateMutability": "nonpayable",
      "type": "function"
    },
    {
      "inputs": [],
      "name": "name",
      "outputs": [
        {
          "internalType": "string",
          "name": "",
          "type": "string"
        }
      ],
      "stateMutability": "view",
      "type": "function"
    },
    {
      "inputs": [],
      "name": "symbol",
      "outputs": [
        {
          "internalType": "string",
          "name": "",
          "type": "string"
        }
      ],
      "stateMutability": "view",
      "type": "function"
    },
    {
      "inputs": [],
      "name": "totalSupply",
      "outputs": [
        {
          "internalType": "uint256",
          "name": "",
          "type": "uint256"
        }
      ],
      "stateMutability": "view",
      "type": "function"
    },
    {
      "inputs": [
        {
          "internalType": "address",
          "name": "to",
          "type": "address"
        },
        {
          "internalType": "uint256",
          "name": "value",
          "type": "uint256"
        }
      ],
      "name": "transfer",
      "outputs": [
        {
          "internalType": "bool",
          "name": "",
          "type": "bool"
        }
      ],
      "stateMutability": "nonpayable",
      "type": "function"
    },
    {
      "inputs": [
        {
          "internalType": "address",
          "name": "_to",
          "type": "address"
        },
        {
          "internalType": "uint256",
          "name": "_amount",
          "type": "uint256"
        }
      ],
      "name": "transferAmoutOfERC20",
      "outputs": [],
      "stateMutability": "nonpayable",
      "type": "function"
    },
    {
      "inputs": [
        {
          "internalType": "address",
          "name": "from",
          "type": "address"
        },
        {
          "internalType": "address",
          "name": "to",
          "type": "address"
        },
        {
          "internalType": "uint256",
          "name": "value",
          "type": "uint256"
        }
      ],
      "name": "transferFrom",
      "outputs": [
        {
          "internalType": "bool",
          "name": "",
          "type": "bool"
        }
      ],
      "stateMutability": "nonpayable",
      "type": "function"
    },
    {
      "inputs": [
        {
          "internalType": "address",
          "name": "_to",
          "type": "address"
        },
        {
          "internalType": "uint256",
          "name": "_amount",
          "type": "uint256"
        }
      ],
      "name": "transferRewardERC20",
      "outputs": [],
      "stateMutability": "nonpayable",
      "type": "function"
    }
  ],
  "bytecode": "0x60806040526a084595161401484a0000006005553480156200002057600080fd5b506040518060400160405280600681526020017f746f6b656e4100000000000000000000000000000000000000000000000000008152506040518060400160405280600581526020017f455243323000000000000000000000000000000000000000000000000000000081525081600390816200009e91906200060e565b508060049081620000b091906200060e565b505050620000d1306b033b2e3c9fd0803ce8000000620000d760201b60201c565b6200082c565b600073ffffffffffffffffffffffffffffffffffffffff168273ffffffffffffffffffffffffffffffffffffffff16036200014c5760006040517fec442f050000000000000000000000000000000000000000000000000000000081526004016200014391906200073a565b60405180910390fd5b62000160600083836200016460201b60201c565b5050565b600073ffffffffffffffffffffffffffffffffffffffff168373ffffffffffffffffffffffffffffffffffffffff1603620001ba578060026000828254620001ad919062000786565b9250508190555062000290565b60008060008573ffffffffffffffffffffffffffffffffffffffff1673ffffffffffffffffffffffffffffffffffffffff1681526020019081526020016000205490508181101562000249578381836040517fe450d38c0000000000000000000000000000000000000000000000000000000081526004016200024093929190620007d2565b60405180910390fd5b8181036000808673ffffffffffffffffffffffffffffffffffffffff1673ffffffffffffffffffffffffffffffffffffffff16815260200190815260200160002081905550505b600073ffffffffffffffffffffffffffffffffffffffff168273ffffffffffffffffffffffffffffffffffffffff1603620002db578060026000828254039250508190555062000328565b806000808473ffffffffffffffffffffffffffffffffffffffff1673ffffffffffffffffffffffffffffffffffffffff168152602001908152602001600020600082825401925050819055505b8173ffffffffffffffffffffffffffffffffffffffff168373ffffffffffffffffffffffffffffffffffffffff167fddf252ad1be2c89b69c2b068fc378daa952ba7f163c4a11628f55a4df523b3ef836040516200038791906200080f565b60405180910390a3505050565b600081519050919050565b7f4e487b7100000000000000000000000000000000000000000000000000000000600052604160045260246000fd5b7f4e487b7100000000000000000000000000000000000000000000000000000000600052602260045260246000fd5b600060028204905060018216806200041657607f821691505b6020821081036200042c576200042b620003ce565b5b50919050565b60008190508160005260206000209050919050565b60006020601f8301049050919050565b600082821b905092915050565b600060088302620004967fffffffffffffffffffffffffffffffffffffffffffffffffffffffffffffffff8262000457565b620004a2868362000457565b95508019841693508086168417925050509392505050565b6000819050919050565b6000819050919050565b6000620004ef620004e9620004e384620004ba565b620004c4565b620004ba565b9050919050565b6000819050919050565b6200050b83620004ce565b620005236200051a82620004f6565b84845462000464565b825550505050565b600090565b6200053a6200052b565b6200054781848462000500565b505050565b5b818110156200056f576200056360008262000530565b6001810190506200054d565b5050565b601f821115620005be57620005888162000432565b620005938462000447565b81016020851015620005a3578190505b620005bb620005b28562000447565b8301826200054c565b50505b505050565b600082821c905092915050565b6000620005e360001984600802620005c3565b1980831691505092915050565b6000620005fe8383620005d0565b9150826002028217905092915050565b620006198262000394565b67ffffffffffffffff8111156200063557620006346200039f565b5b620006418254620003fd565b6200064e82828562000573565b600060209050601f83116001811462000686576000841562000671578287015190505b6200067d8582620005f0565b865550620006ed565b601f198416620006968662000432565b60005b82811015620006c05784890151825560018201915060208501945060208101905062000699565b86831015620006e05784890151620006dc601f891682620005d0565b8355505b6001600288020188555050505b505050505050565b600073ffffffffffffffffffffffffffffffffffffffff82169050919050565b60006200072282620006f5565b9050919050565b620007348162000715565b82525050565b600060208201905062000751600083018462000729565b92915050565b7f4e487b7100000000000000000000000000000000000000000000000000000000600052601160045260246000fd5b60006200079382620004ba565b9150620007a083620004ba565b9250828201905080821115620007bb57620007ba62000757565b5b92915050565b620007cc81620004ba565b82525050565b6000606082019050620007e9600083018662000729565b620007f86020830185620007c1565b620008076040830184620007c1565b949350505050565b6000602082019050620008266000830184620007c1565b92915050565b6114a1806200083c6000396000f3fe608060405234801561001057600080fd5b50600436106100f55760003560e01c80637b56c2b211610097578063ba94f61b11610066578063ba94f61b14610288578063d05dd73f146102a6578063dd62ed3e146102c4578063ddadda6b146102f4576100f5565b80637b56c2b214610200578063902d55a51461021c57806395d89b411461023a578063a9059cbb14610258576100f5565b806323b872dd116100d357806323b872dd14610166578063313ce56714610196578063499ff3ef146101b457806370a08231146101d0576100f5565b806306fdde03146100fa578063095ea7b31461011857806318160ddd14610148575b600080fd5b610102610310565b60405161010f9190610f35565b60405180910390f35b610132600480360381019061012d9190610ff0565b6103a2565b60405161013f919061104b565b60405180910390f35b6101506103c5565b60405161015d9190611075565b60405180910390f35b610180600480360381019061017b9190611090565b6103cf565b60405161018d919061104b565b60405180910390f35b61019e6103fe565b6040516101ab91906110ff565b60405180910390f35b6101ce60048036038101906101c99190610ff0565b610407565b005b6101ea60048036038101906101e5919061111a565b610461565b6040516101f79190611075565b60405180910390f35b61021a60048036038101906102159190610ff0565b6104a9565b005b610224610575565b6040516102319190611075565b60405180910390f35b610242610585565b60405161024f9190610f35565b60405180910390f35b610272600480360381019061026d9190610ff0565b610617565b60405161027f919061104b565b60405180910390f35b61029061063a565b60405161029d9190611075565b60405180910390f35b6102ae61064a565b6040516102bb9190611075565b60405180910390f35b6102de60048036038101906102d99190611147565b610650565b6040516102eb9190611075565b60405180910390f35b61030e60048036038101906103099190610ff0565b6106d7565b005b60606003805461031f906111b6565b80601f016020809104026020016040519081016040528092919081815260200182805461034b906111b6565b80156103985780601f1061036d57610100808354040283529160200191610398565b820191906000526020600020905b81548152906001019060200180831161037b57829003601f168201915b5050505050905090565b6000806103ad6106e6565b90506103ba8185856106ee565b600191505092915050565b6000600254905090565b6000806103da6106e6565b90506103e7858285610700565b6103f2858585610794565b60019150509392505050565b60006012905090565b8061041130610461565b1015610452576040517f08c379a000000000000000000000000000000000000000000000000000000000815260040161044990611259565b60405180910390fd5b61045d308383610794565b5050565b60008060008373ffffffffffffffffffffffffffffffffffffffff1673ffffffffffffffffffffffffffffffffffffffff168152602001908152602001600020549050919050565b6005548111156104ba600554610888565b6040516020016104ca9190611327565b6040516020818303038152906040529061051a576040517f08c379a00000000000000000000000000000000000000000000000000000000081526004016105119190610f35565b60405180910390fd5b508061052530610461565b1015610566576040517f08c379a000000000000000000000000000000000000000000000000000000000815260040161055d90611259565b60405180910390fd5b610571308383610794565b5050565b6b033b2e3c9fd0803ce800000081565b606060048054610594906111b6565b80601f01602080910402602001604051908101604052809291908181526020018280546105c0906111b6565b801561060d5780601f106105e25761010080835404028352916020019161060d565b820191906000526020600020905b8154815290600101906020018083116105f057829003601f168201915b5050505050905090565b6000806106226106e6565b905061062f818585610794565b600191505092915050565b600061064530610461565b905090565b60055481565b6000600160008473ffffffffffffffffffffffffffffffffffffffff1673ffffffffffffffffffffffffffffffffffffffff16815260200190815260200160002060008373ffffffffffffffffffffffffffffffffffffffff1673ffffffffffffffffffffffffffffffffffffffff16815260200190815260200160002054905092915050565b6106e18282610617565b505050565b600033905090565b6106fb8383836001610956565b505050565b600061070c8484610650565b90507fffffffffffffffffffffffffffffffffffffffffffffffffffffffffffffffff811461078e578181101561077e578281836040517ffb8f41b200000000000000000000000000000000000000000000000000000000815260040161077593929190611358565b60405180910390fd5b61078d84848484036000610956565b5b50505050565b600073ffffffffffffffffffffffffffffffffffffffff168373ffffffffffffffffffffffffffffffffffffffff16036108065760006040517f96c6fd1e0000000000000000000000000000000000000000000000000000000081526004016107fd919061138f565b60405180910390fd5b600073ffffffffffffffffffffffffffffffffffffffff168273ffffffffffffffffffffffffffffffffffffffff16036108785760006040517fec442f0500000000000000000000000000000000000000000000000000000000815260040161086f919061138f565b60405180910390fd5b610883838383610b2d565b505050565b60606000600161089784610d52565b01905060008167ffffffffffffffff8111156108b6576108b56113aa565b5b6040519080825280601f01601f1916602001820160405280156108e85781602001600182028036833780820191505090505b509050600082602001820190505b60011561094b578080600190039150507f3031323334353637383961626364656600000000000000000000000000000000600a86061a8153600a858161093f5761093e6113d9565b5b049450600085036108f6575b819350505050919050565b600073ffffffffffffffffffffffffffffffffffffffff168473ffffffffffffffffffffffffffffffffffffffff16036109c85760006040517fe602df050000000000000000000000000000000000000000000000000000000081526004016109bf919061138f565b60405180910390fd5b600073ffffffffffffffffffffffffffffffffffffffff168373ffffffffffffffffffffffffffffffffffffffff1603610a3a5760006040517f94280d62000000000000000000000000000000000000000000000000000000008152600401610a31919061138f565b60405180910390fd5b81600160008673ffffffffffffffffffffffffffffffffffffffff1673ffffffffffffffffffffffffffffffffffffffff16815260200190815260200160002060008573ffffffffffffffffffffffffffffffffffffffff1673ffffffffffffffffffffffffffffffffffffffff168152602001908152602001600020819055508015610b27578273ffffffffffffffffffffffffffffffffffffffff168473ffffffffffffffffffffffffffffffffffffffff167f8c5be1e5ebec7d5bd14f71427d1e84f3dd0314c0f7b2291e5b200ac8c7c3b92584604051610b1e9190611075565b60405180910390a35b50505050565b600073ffffffffffffffffffffffffffffffffffffffff168373ffffffffffffffffffffffffffffffffffffffff1603610b7f578060026000828254610b739190611437565b92505081905550610c52565b60008060008573ffffffffffffffffffffffffffffffffffffffff1673ffffffffffffffffffffffffffffffffffffffff16815260200190815260200160002054905081811015610c0b578381836040517fe450d38c000000000000000000000000000000000000000000000000000000008152600401610c0293929190611358565b60405180910390fd5b8181036000808673ffffffffffffffffffffffffffffffffffffffff1673ffffffffffffffffffffffffffffffffffffffff16815260200190815260200160002081905550505b600073ffffffffffffffffffffffffffffffffffffffff168273ffffffffffffffffffffffffffffffffffffffff1603610c9b5780600260008282540392505081905550610ce8565b806000808473ffffffffffffffffffffffffffffffffffffffff1673ffffffffffffffffffffffffffffffffffffffff168152602001908152602001600020600082825401925050819055505b8173ffffffffffffffffffffffffffffffffffffffff168373ffffffffffffffffffffffffffffffffffffffff167fddf252ad1be2c89b69c2b068fc378daa952ba7f163c4a11628f55a4df523b3ef83604051610d459190611075565b60405180910390a3505050565b600080600090507a184f03e93ff9f4daa797ed6e38ed64bf6a1f0100000000000000008310610db0577a184f03e93ff9f4daa797ed6e38ed64bf6a1f0100000000000000008381610da657610da56113d9565b5b0492506040810190505b6d04ee2d6d415b85acef81000000008310610ded576d04ee2d6d415b85acef81000000008381610de357610de26113d9565b5b0492506020810190505b662386f26fc100008310610e1c57662386f26fc100008381610e1257610e116113d9565b5b0492506010810190505b6305f5e1008310610e45576305f5e1008381610e3b57610e3a6113d9565b5b0492506008810190505b6127108310610e6a576127108381610e6057610e5f6113d9565b5b0492506004810190505b60648310610e8d5760648381610e8357610e826113d9565b5b0492506002810190505b600a8310610e9c576001810190505b80915050919050565b600081519050919050565b600082825260208201905092915050565b60005b83811015610edf578082015181840152602081019050610ec4565b60008484015250505050565b6000601f19601f8301169050919050565b6000610f0782610ea5565b610f118185610eb0565b9350610f21818560208601610ec1565b610f2a81610eeb565b840191505092915050565b60006020820190508181036000830152610f4f8184610efc565b905092915050565b600080fd5b600073ffffffffffffffffffffffffffffffffffffffff82169050919050565b6000610f8782610f5c565b9050919050565b610f9781610f7c565b8114610fa257600080fd5b50565b600081359050610fb481610f8e565b92915050565b6000819050919050565b610fcd81610fba565b8114610fd857600080fd5b50565b600081359050610fea81610fc4565b92915050565b6000806040838503121561100757611006610f57565b5b600061101585828601610fa5565b925050602061102685828601610fdb565b9150509250929050565b60008115159050919050565b61104581611030565b82525050565b6000602082019050611060600083018461103c565b92915050565b61106f81610fba565b82525050565b600060208201905061108a6000830184611066565b92915050565b6000806000606084860312156110a9576110a8610f57565b5b60006110b786828701610fa5565b93505060206110c886828701610fa5565b92505060406110d986828701610fdb565b9150509250925092565b600060ff82169050919050565b6110f9816110e3565b82525050565b600060208201905061111460008301846110f0565b92915050565b6000602082840312156111305761112f610f57565b5b600061113e84828501610fa5565b91505092915050565b6000806040838503121561115e5761115d610f57565b5b600061116c85828601610fa5565b925050602061117d85828601610fa5565b9150509250929050565b7f4e487b7100000000000000000000000000000000000000000000000000000000600052602260045260246000fd5b600060028204905060018216806111ce57607f821691505b6020821081036111e1576111e0611187565b5b50919050565b7f4552433230546f6b656e3a20696e73756666696369656e742062616c616e636560008201527f20696e20636f6e74726163740000000000000000000000000000000000000000602082015250565b6000611243602c83610eb0565b915061124e826111e7565b604082019050919050565b6000602082019050818103600083015261127281611236565b9050919050565b600081905092915050565b7f4552433230546f6b656e3a2066617563657420616d6f756e7420746f6f206c6160008201527f7267652c206d61783a2000000000000000000000000000000000000000000000602082015250565b60006112e0602a83611279565b91506112eb82611284565b602a82019050919050565b600061130182610ea5565b61130b8185611279565b935061131b818560208601610ec1565b80840191505092915050565b6000611332826112d3565b915061133e82846112f6565b915081905092915050565b61135281610f7c565b82525050565b600060608201905061136d6000830186611349565b61137a6020830185611066565b6113876040830184611066565b949350505050565b60006020820190506113a46000830184611349565b92915050565b7f4e487b7100000000000000000000000000000000000000000000000000000000600052604160045260246000fd5b7f4e487b7100000000000000000000000000000000000000000000000000000000600052601260045260246000fd5b7f4e487b7100000000000000000000000000000000000000000000000000000000600052601160045260246000fd5b600061144282610fba565b915061144d83610fba565b925082820190508082111561146557611464611408565b5b9291505056fea2646970667358221220d380aa7850729ecc1d9769ae83a721ed7026a3bfcef1e1ec054f30f3c469290064736f6c63430008140033",
  "linkReferences": {},
  "deployedLinkReferences": {}
}